:060000000A128A11122809
:10000800FE00030E83120313DB000408DC000A0859
:10001800DD007F08DE000A128A15702E0A128A1186
:10002800152883135F3084006F300A168A117B22EB
:100038000A128A11A0308400C7300A168A117B225E
:100048000A128A11831790308400A7300A168A1181
:100058007B220A128A11831603130A168A11582260
:100068000A128A11E9000A168A1159220A128A11FB
:10007800EA000A168A115A220A128A11EB000A1695
:100088008A115B220A128A11EC000A168A115C2274
:10009800ED0083010A128A151F2D831203136E08BF
:1000A800F901F9076D08F801F8070A168A11BD2247
:1000B8000A128A11780883160313E9007908EA00FE
:1000C8007A08EB00803083120313D2008930D30002
:1000D8004430D4008030D5000930D6004530D700F0
:1000E8004030D8004E30D9004530DA000030DF000B
:1000F8000030E0000030E100831603136908F800BF
:100108006A08F9006B08FA002F08F0003008F100BF
:100118003108F2000A168A1163220A128A1170083D
:10012800FB007108FC007208FD000A128A15AA215A
:100138000A128A11780883120313E2007908E3008F
:100148007A08E4000030B7008030B800BF30B9004A
:100158000030A700C830A8004230A9006208AA00F1
:100168006308AB006408AC000A128A15F2200A1270
:100178008A11831203132708BA002808BB0029082C
:10018800BC000A128A1129270A128A118312031342
:100198003708E2003808E3003908E4006208F00094
:1001A8006308F1006408F2000A168A11E5260A12AB
:1001B8008A11710883120313EC01EC077008EB0134
:1001C800EB070030F000B430F1004230F200620872
:1001D800F3006308F4006408F5000A168A11B525CF
:1001E8000A128A1103180029003083120313E2004F
:1001F800B430E3004230E400831203136208F000D5
:100208006308F1006408F2000030F3000030F400E5
:100218000030F5000A168A11B5250A128A1103184A
:100228001D29003083120313E2000030E300003080
:10023800E400831203136208F0006308F100640805
:10024800F2000030F300C830F4004130F5000A161F
:100258008A11B5250A128A110318312A8312031349
:100268006208B7006308B8006408B9000030BA0033
:100278000030BB000030BC000030BD000030BE00C4
:100288000030BF000030C0005030C1004130C20013
:100298000030C3000030C4004230C5000A128A157D
:1002A800CF230A128A11831203133708DF00380894
:1002B800E0003908E1005F08A0006008A1006108BB
:1002C800A200CD30A300CC30A4003D30A5000A1612
:1002D8008A111E230A128A11831203132008831617
:1002E8000313A30083120313210883160313A40026
:1002F80083120313220883160313A5000030831208
:100308000313E5000030E6000030E7000030E800A5
:100318000030E9000030EA00CC01CD014D08803AF8
:10032800FF0080307F02031D9B295B304C020318BD
:10033800312A831203136508B7006608B8006708F6
:10034800B9000030BA000030BB000030BC000030FB
:10035800BD000030BE000030BF000030C00050308B
:10036800C1004130C2000030C3000030C400423038
:10037800C5000A128A15CF230A128A1183120313A1
:100388003708E8003808E9003908EA00831603133B
:100398002308F0002408F1002508F2008312031353
:1003A8006808F3006908F4006A08F5000A168A115B
:1003B800B5250A128A110318EC298316031323089A
:1003C800F8002408F9002508FA0083120313F42919
:1003D800831203136808F8006908F9006A08FA002C
:1003E8005208FB005308FC005408FD000A128A1545
:1003F800AA210A128A11780883120313D2007908F5
:10040800D3007A08D4000030F8008030F9003F307B
:10041800FA006508FB006608FC006708FD000A1280
:100428008A15AA210A128A11780883120313E50093
:100438007908E6007A08E7000130CC070318CD0AEE
:100448000030CD074D08803AFF0080307F02031D41
:100458002F2A5B304C02031C9D290030F000A0308D
:10046800F1004130F200831203136208F3006308BD
:10047800F4006408F5000A168A11B5250A128A11D3
:1004880003184C2B831203136208F0006308F10071
:100498006408F2000030F3008C30F4004230F500BC
:1004A8000A168A11B5250A128A1103184C2B8312D1
:1004B80003136208B7006308B8006408B900003085
:1004C800BA001030BB004130BC000030BD003430F1
:1004D800BE004230BF000030C000A230C100423030
:1004E800C2000A128A15B1220A128A118312031352
:1004F8003708DF003808E0003908E1005F08A0008D
:100508006008A1006108A200CD30A300CC30A4008F
:100518003D30A5000A168A111E230A128A11831279
:100528000313200883160313A6008312031321085C
:1005380083160313A70083120313220883160313D9
:10054800A800003083120313E5000030E6000030F5
:10055800E7000030E8000030E9000030EA00CE0192
:10056800CF014F08803AFF0080307F02031DBE2A6A
:100578005B304E0203184C2B831203136508B70037
:100588006608B8006708B9000030BA001030BB0030
:100598004130BC000030BD003430BE004230BF00E6
:1005A8000030C000A230C1004230C2000A128A15D1
:1005B800B1220A128A11831203133708E800380897
:1005C800E9003908EA006808F0006908F1006A08DB
:1005D800F200831603132608F3002708F4002808FE
:1005E800F5000A168A11B5250A128A11031C072B71
:1005F800831603132608F8002708F9002808FA00CC
:10060800831203130F2B831203136808F800690879
:10061800F9006A08FA005508FB005608FC0057085C
:10062800FD000A128A15AA210A128A117808831273
:100638000313D5007908D6007A08D7000030F800EF
:100648008030F9003F30FA006508FB006608FC00BE
:100658006708FD000A128A15AA210A128A11780869
:1006680083120313E5007908E6007A08E7000130F1
:10067800CE070318CF0A0030CF074F08803AFF0093
:1006880080307F02031D4A2B5B304E02031CC02AB8
:100698000030F0008C30F1004230F2008312031376
:1006A8006208F3006308F4006408F5000A168A116A
:1006B800B5250A128A1103185E2C831203136208E7
:1006C800B7006308B8006408B9000030BA00783091
:1006D800BB004230BC000030BD009E30BE0042303E
:1006E800BF000030C000B430C1004230C20000304A
:1006F800C300B430C4004230C5000A128A15CF23A3
:100708000A128A11831203133708DF003808E00041
:100718003908E1005F08A0006008A1006108A20094
:10072800CD30A300CC30A4003D30A5000A168A11B4
:100738001E230A128A118312031320088316031337
:10074800A90083120313210883160313AA00831236
:100758000313220883160313AB000030831203131C
:10076800E5000030E6000030E7000030E800003027
:10077800E9000030EA00D001D1015108803AFF00B9
:1007880080307F02031DCA2B5B30500203185E2C99
:10079800831203136508B7006608B8006708B90034
:1007A8000030BA007830BB004230BC000030BD00D9
:1007B8009E30BE004230BF000030C000B430C100DF
:1007C8004230C2000030C300B430C4004230C5001B
:1007D8000A128A15CF230A128A11831203133708C3
:1007E800E8003808E9003908EA006808F0006908F4
:1007F800F1006A08F200831603132908F3002A0897
:10080800F4002B08F5000A168A11B5250A128A1178
:10081800031C192C831603132908F8002A08F90069
:100828002B08FA0083120313212C83120313680880
:10083800F8006908F9006A08FA005808FB00590826
:10084800FC005A08FD000A128A15AA210A128A1108
:10085800780883120313D8007908D9007A08DA00D7
:100868000030F8008030F9003F30FA006508FB00DE
:100878006608FC006708FD000A128A15AA210A12F8
:100888008A11780883120313E5007908E6007A08CC
:10089800E7000130D0070318D10A0030D10751080A
:1008A800803AFF0080307F02031D5C2C5B305002D1
:1008B800031CCC2B831203136208F0006308F100B9
:1008C8006408F2000030F300C830F4004130F5004D
:1008D8000A168A11B5250A128A1103187B2C83126D
:1008E80003135208C9005308CA005408B42C8312D1
:1008F80003136208F0006308F1006408F200003096
:10090800F300C830F4004130F5000A168A11B52505
:100918000A128A11031CAD2C831203136208F0001B
:100928006308F1006408F2000030F3009630F40028
:100938004230F5000A168A11B5250A128A110318E1
:10094800AD2C831203135508C9005608CA0057086E
:10095800B42C831203135808C9005908CA005A084E
:10096800CB00003083160313B200B430B30042301A
:10097800B4000030AC000030AD000030AE0083128F
:1009880003134908F8004A08F9004B08FA008316CF
:1009980003132C08FB002D08FC002E08FD000A128A
:1009A8008A15AA210A128A11780883160313AC0043
:1009B8007908AD007A08AE00320883120313A70045
:1009C80083160313330883120313A8008316031333
:1009D800340883120313A900831603132C08831207
:1009E8000313AA00831603132D0883120313AB0005
:1009F800831603132E0883120313AC000A128A15F8
:100A0800F2200A128A11831203132708831603138C
:100A1800A00083120313280883160313A10083126E
:100A28000313290883160313A2000030831203134B
:100A3800B700A030B8004130B9008316031320086E
:100A480083120313BA0083160313210883120313B6
:100A5800BB0083160313220883120313BC000A1277
:100A68008A1129270A128A11831203133708831659
:100A78000313A00083120313380883160313A1007D
:100A880083120313390883160313A2002008F00009
:100A98002108F1002208F2000A168A11E5260A1236
:100AA8008A11710883120313EC01EC077008EB013B
:100AB800EB076C086B040319080003306C02FC3068
:100AC80003196B02031808006C08F101F1076B08A1
:100AD800F001F0070A168A11E822080083160313AA
:100AE800E400D630D8005808DB0001308316031321
:100AF800D507FF30550784000A128A150A200A1202
:100B08008A11D8005808E500E5080319222F65085E
:100B1800253A03199B2D6508D800640884005808F5
:100B2800831780000130D8005808E407792DE201C6
:100B3800E301E101A42D61150130D8005808D5075B
:100B4800550884000A128A150A200A128A11303AB6
:100B580003199F2DAF2D550884000A128A150A2003
:100B68000A128A110A168A119B220A128A11031C78
:100B7800FF2D83160313E201E3010A3083160313E2
:100B8800C7000030C8006308CA01CA076208C90163
:100B9800C9070A168A1108240A128A118316031330
:100BA8004808E301E3074708E201E2075508840023
:100BB8000A128A150A200A128A11D03ED800FF307C
:100BC80003180030D9005808E2070318E30A590847
:100BD800E3070130D8005808D507550884000A12E1
:100BE8008A150A200A128A110A168A119B220A12E9
:100BF8008A110318C12D013083160313D507FF305E
:100C0800550784000A128A150A200A128A11E5007B
:100C1800003A0319222F643A0319162E0D3A0319C4
:100C2800162E792D831603135B088400831300089E
:100C3800DD00840A0008DE000230D8005808DB070F
:100C4800DE1F2F2E0330D8005808E104DD09DE0925
:100C5800DD0A0319DE0AE501E50A6508053A031904
:100C6800562E6508D8005807013E84000A128A15D6
:100C78000A200A128A11D9000A128A150A200A12B1
:100C88008A11DA005A085E02031D4C2E59085D02CB
:100C9800031C562E0130D8005808E5076508053AA8
:100CA800031D352E630862040319642E6108033995
:100CB8000319642EFF30E2070318E30AFF30E30745
:100CC8006508D800D901D81BD9035908803ADA0039
:100CD8006308803A5A02031D732E620858020318EB
:100CE800832E831603136508D800D901D81BD903AE
:100CF8005808E2025908031CE303E302872E83160F
:100D08000313E201E301611DAE2E610803390319E3
:100D1800982E2D30D8006408840058088317800066
:100D28000130D8005808E407630862040319D62E76
:100D38003030D800640884005808831780000130D8
:100D4800D8005808E407FF30E2070318E30AFF3029
:100D5800E307982E630862040319C72E2030D800D1
:100D6800640884005808831780000130D8005808A8
:100D7800E407FF30E2070318E30AFF30E3076308DC
:100D88006204031DB22E610803390319D62E2D30D3
:100D9800D800640884005808831780000130D80000
:100DA8005808E4076508D8005808DC00FF30D80068
:100DB8005808DC075C08FF3A0319792D0A30CF0080
:100DC8000030D0005C08D8005807013E84000A12A1
:100DD8008A150A200A128A11C7000A128A150A20DF
:100DE8000A128A11C8005E08CA01CA075D08C9014B
:100DF800C9070A168A112C250A128A1183160313A9
:100E08004808D201D2074708D101D1070A168A112A
:100E1800B8240A128A11831603134F08303ED900EA
:100E28005908E5006508D800640884005808831745
:100E380080000130D8005808E407DA2E831603131F
:100E4800640884008317800108008312031337089D
:100E5800BD003808BE003908BF0003103E0D3F0D25
:100E6800C0004008C100C108031D412F0030B70071
:100E78000030B8000030B90008003A08BD003B084F
:100E8800BE003C08BF0003103E0D3F0DC0004008E7
:100E9800C600C608031D572F0030B7000030B80041
:100EA8000030B900080046087B3EBD003D08C10778
:100EB8003708BD003808BE003908BF0010300310DD
:100EC800BF0CBE0CBD0CFF3E031D632F3D08C000C8
:100ED8004008C6003A08BD003B08BE003C08BF00F9
:100EE80010300310BF0CBE0CBD0CFF3E031D752F48
:100EF8003D08C0004008C6068030BD003D08C60554
:100F0800B817BB17FF30BA05FF30BB050030BC056A
:100F18000030C2000030C3000030C4000730BD00FC
:100F28003D08C500371CA62F3A08C2073B08031125
:100F380003183B0A031DC3073C08031103183C0AA6
:100F4800031DC40701300310B90CB80CB70CFF3EE1
:100F5800031DA72F01300310BA0DBB0DBC0DFF3EBA
:100F6800031DAF2F0130C502031D962F0930BD00A8
:100F78003D08C500371CCE2F3A08C2073B080311AD
:100F880003183B0A031DC3073C08031103183C0A56
:100F9800031DC40701300310B90CB80CB70CFF3E91
:100FA800031DCF2F01300310C40CC30CC20CFF3E2D
:100FB800031DD72F0130C502031DBE2F4208F000C4
:100FC8004308F1004408F2004108BD003D08F30061
:100FD8004608BE003E08F4000A168A111226700858
:100FE80083120313B7007108B8007208B90008002B
:10100000FF1B0A2883137F1883170008840A03191B
:10101000FF0A080008308A000408840A82070034A6
:10102000013400340A34003464340034E8340334C6
:10103000103427340A340D3420342D342D342D341B
:101040002D342D342D342D34203445345334543440
:101050004F34553452344F342034443445342034E2
:10106000503449344C344834413420342D342D34F8
:101070002D342D342D342D342D3420340A340D34B8
:101080002034003449346E34693463346934613453
:101090006C3469347A3461346E3464346F3420349F
:1010A0006F34203450344934433431343634463488
:1010B00038343734373441340A340D34003455343D
:1010C00053344134523454343A342034313431348A
:1010D00035342E3432343034303462347034733436
:1010E0000A340D34003449346E346934633469345D
:1010F00061346C3469347A3461346E3464346F34FE
:101100002E342E342E3400340A340D3470347734B7
:101110006D3420343D34203431343034323433347F
:101120000A340D3400340A340D34703477346D349D
:1011300020343D3420343834393436340A340D34D4
:1011400000340A340D34703477346D3420343D3437
:1011500020343734363438340A340D3400340A3409
:101160000D346434653473346C34693467346134F9
:1011700064346F340A340D3400340A340D3470345E
:1011800077346D3420343D3420340A340D34003447
:10119000443465346C34743461343A34203400346B
:1011A000523450344D343A34203400342534303401
:1011B00034346434003483160313C80083120313D9
:1011C0000914831603134808831203138800891433
:1011D0003D3083160313C700C70BEC28831203139B
:1011E00089100800831203132A08AD002B08AE00F3
:1011F0002C08AF0003102E0D2F0DB0003008B500E5
:10120000B508031D0A290030A7000030A8000030EF
:10121000A90008002708AD002808AE002908AF0083
:1012200003102E0D2F0DB0003008B600B608031DB8
:1012300020290030A7000030A8000030A9000800D5
:101240000030B2000030B3000030B40089303607FF
:10125000AD002D08B5022A08AD002B08AE002C0801
:10126000AF0010300310AF0CAE0CAD0CFF3E031DF1
:1012700032292D08B0003008B6002708AD00280834
:10128000AE002908AF0010300310AF0CAE0CAD0C4F
:10129000FF3E031D44292D08B0003008B6068030FB
:1012A000AD002D08B605AB17FF30AA05FF30AB0522
:1012B0000030AC05A817FF30A705FF30A8050030A7
:1012C000A9051830AD002D08B10001300310B20D92
:1012D000B30DB40DFF3E031D662929082C02031D22
:1012E000772928082B02031D772927082A02031CC7
:1012F00084292708AA022808031C280FAB02290802
:10130000031C290AAC02321401300310AA0DAB0DE4
:10131000AC0DFF3E031D85290130B102031D652977
:101320003208F0003308F1003408F2003508AD004F
:101330002D08F3003608AE002E08F4000A168A11B4
:101340001226700883120313A7007108A800720800
:10135000A9000800780883120313A0007908A100EF
:101360007A08A2000310210D220DA3002308A60075
:101370007B08A0007C08A1007D08A2000310210DBD
:10138000220DA3002308A50026080319D329250848
:1013900026020318DA292603FF3A2507A000193090
:1013A0002002031CDA297B08F8007C08F9007D087C
:1013B000FA0008002508031908002608250203186A
:1013C000E9292503FF3A2607A00019302002031857
:1013D00008000630A0002008A400FA1BA417FD1B7B
:1013E0002417F917FF30F805FF30F9050030FA052A
:1013F000FC17FF30FB05FF30FC050030FD0525081C
:1014000026020318292A01300310FB0DFC0DFD0DE7
:10141000FF3E031D042A0130A502250826060319F4
:10142000242A0130A402240807390319242A032A94
:1014300001300310FA0CF90CF80CFF3E031D192AB9
:101440000130A0002008A607260825060319522A05
:10145000182A260825020318522A01300310F80D15
:10146000F90DFA0DFF3E031D2E2A0130A6022508B4
:10147000260603194E2A0130A4022408073903194D
:101480004E2A2D2A01300310FD0CFC0CFB0CFF3EF4
:10149000031D432A0130A0002008A50726082506C1
:1014A000031D422AA41F642AFF30F806FF30F90604
:1014B000FF30FA060130F807003003180130F90751
:1014C000003003180130FA07241F762AFF30FB068C
:1014D000FF30FC06FF30FD060130FB07003003182B
:1014E0000130FC07003003180130FD07A401780823
:1014F000FB07790803110318790A031DFC077A0812
:10150000031103187A0A031DFD07FD1F992AFF30F6
:10151000FB06FF30FC06FF30FD060130FB07003004
:1015200003180130FC07003003180130FD07A40147
:10153000A40A7B08F0007C08F1007D08F200260870
:10154000A0002008F3002408A1002108F4000A16D6
:101550008A1112267008F8007108F9007208FA0062
:101560000800003083120313C3000030C4000030B1
:10157000C5003A08F0003B08F1003C08F2003708CB
:10158000F3003808F4003908F5000A168A11B52569
:101590000A128A150318BE2B831203133A08F000AF
:1015A0003B08F1003C08F2003708F3003808F4006B
:1015B0003908F5000A168A11B5250A128A1503188A
:1015C000282B831203133D08F0003E08F1003F086A
:1015D000F2003708F3003808F4003908F5000A165D
:1015E0008A11B5250A128A15031C282B83120313AE
:1015F0003D08F8003E08F9003F08FA003A08F000FC
:101600003B08F1003C08F2000A168A1163220A1214
:101610008A157008FB007108FC007208FD000A12B0
:101620008A15AA210A128A15780883120313A700C3
:101630007908A8007A08A9003708F8003808F900E6
:101640003908FA003A08F0003B08F1003C08832B07
:10165000831203133D08F0003E08F1003F08F2003A
:101660003708F3003808F4003908F5000A168A1123
:10167000B5250A128A150318A92B831203134008F3
:10168000F0004108F1004208F2003708F300380882
:10169000F4003908F5000A168A11B5250A128A15D0
:1016A000031CA92B831203133D08F8003E08F90020
:1016B0003F08FA004008F0004108F1004208F2003B
:1016C0000A168A1163220A128A157008FB00710833
:1016D000FC007208FD000A128A15AA210A128A1556
:1016E000780883120313A7007908A8007A08A900D4
:1016F0003708F8003808F9003908FA004008F00007
:101700004108F1004208F2000A168A1163220A1207
:101710008A157008FB007108FC007208FD000A12AF
:101720008A15AA210A128A15780883120313AA00BF
:101730007908AB007A08AC000A128A15F2200A1266
:101740008A15831203132708C3002808C400290838
:10175000C52B831203134008F0004108F100420832
:10176000F2003708F3003808F4003908F5000A16CB
:101770008A11B5250A128A150318C62B0030831268
:101780000313C3000030C4000030C50083120313EC
:101790004308B7004408B8004508B9000800003005
:1017A00083120313C6000030C7000030C8003A0897
:1017B000F0003B08F1003C08F2003708F30038085D
:1017C000F4003908F5000A168A11B5250A128A159F
:1017D00003180E2D831203133A08F0003B08F100A2
:1017E0003C08F2003708F3003808F4003908F50027
:1017F0000A168A11B5250A128A150318462C831277
:1018000003133D08F0003E08F1003F08F2003708DE
:10181000F3003808F4003908F5000A168A11B525D6
:101820000A128A15031C462C831203133D08F80084
:101830003E08F9003F08FA003A08F0003B08F100C2
:101840003C08F2000A168A1163220A128A157008EF
:10185000FB007108FC007208FD000A128A15AA211B
:101860000A128A15780883120313A7007908A800C2
:101870007A08A9003708F8003808F9003908FA0092
:101880003A08F0003B08F1003C08D32C8312031304
:101890003708F0003808F1003908F2003D08F3007D
:1018A0003E08F4003F08F5000A168A11B5250A1211
:1018B0008A15031C782C831203134008F00041089A
:1018C000F1004208F2003708F3003808F400390844
:1018D000F5000A168A11B5250A128A15031C782C00
:1018E000003083120313C6008030C7003F30152D2F
:1018F000831203134008F0004108F1004208F2008F
:101900003708F3003808F4003908F5000A168A1180
:10191000B5250A128A150318F92C831203134308FC
:10192000F0004408F1004508F2003708F3003808D9
:10193000F4003908F5000A168A11B5250A128A152D
:10194000031CF92C831203134308F8004408F90020
:101950004508FA004008F0004108F1004208F20092
:101960000A168A1163220A128A157008FB00710890
:10197000FC007208FD000A128A15AA210A128A15B3
:10198000780883120313A7007908A8007A08A90031
:101990004308F8004408F9004508FA003708F00049
:1019A0003808F1003908F2000A168A1163220A1277
:1019B0008A157008FB007108FC007208FD000A120D
:1019C0008A15AA210A128A15780883120313AA001D
:1019D0007908AB007A08AC000A128A15F2200A12C4
:1019E0008A15831203132708C6002808C700290890
:1019F000152D831203134308F0004408F100450835
:101A0000F2003708F3003808F4003908F5000A1628
:101A10008A11B5250A128A150318162D0030831273
:101A20000313C6000030C7000030C8008312031340
:101A30004608B7004708B8004808B9000800013058
:101A40008316031385000130831203138500831668
:101A50000313860183120313860181308316031357
:101A60008700C03083120313870083160313880195
:101A7000831203138801831603138901831203134E
:101A80008901033090008E018F010030831603130B
:101A9000D9000130D800C230D7000030D6000A1675
:101AA0008A116C250A128A150A168A1183220A12D3
:101AB0008A150A168A11AB220A128A150A168A1189
:101AC000E4230A128A150A168A117A260A128A153E
:101AD0000B178B17333083160313C8008030C900EF
:101AE0000A168A1187240A128A15503083160313A6
:101AF000C8008030C9000A168A1187240A128A1584
:101B00000A168A117A260A128A1583160313C70148
:101B100000300A168A113C230A128A156430831693
:101B20000313C9008030CA000A168A1156240A120B
:101B30008A15003083160313C7000030C8000A1648
:101B40008A115C230A128A15003083160313C7001A
:101B50000030C8000A168A117D230A128A15EE3059
:101B60000A168A1173220A128A1518308316031373
:101B7000E8006130E7006E30E600E60BBD2DE70BB4
:101B8000BD2DE80BBD2D0000C73083160313E60002
:101B90006608D5003E08D701D7073D08D601D6070D
:101BA0009D300A128A1172250A128A15C7308316CF
:101BB0000313E6006608D500831203136C0883162E
:101BC0000313D701D707831203136B08831603137C
:101BD000D601D60793300A128A1172250A128A1585
:101BE0009D3083160313C8000130C9000A168A11FC
:101BF00087240A128A15B63083160313C800803072
:101C0000C9000A168A1187240A128A150A168A112F
:101C10002D240A128A1583160313C70100300A16F1
:101C20008A113C230A128A15C13083160313C90096
:101C30008030CA000A168A1156240A128A15063004
:101C400083160313E6006608C70000300A168A11DF
:101C50003C230A128A159D3083160313C9000130F4
:101C6000CA000A168A1156240A128A15831603130B
:101C7000C70101300A168A113C230A128A15B930AD
:101C800083160313C9008030CA000A168A1156242D
:101C90000A128A15063083160313E6006608C70089
:101CA00001300A168A113C230A128A1593308316D2
:101CB0000313C9000130CA000A168A1156240A12F9
:101CC0008A15053083160313E800AD30E700E030D5
:101CD000E600E60B692EE70B692EE80B692EC42D92
:101CE0008C1E922F0A168A1103230A128A15303A83
:101CF000031D932EA030F1008030F2000A168A11E5
:101D00009E230A128A1583120313ED01EE016E0859
:101D1000F101F1076D08F001F0070A168A11E822B7
:101D20000A128A15F32F0A168A1103230A128A153A
:101D3000313A031DAA2EAE30F1008030F2000A16AF
:101D40008A119E230A128A15D03083160313BF000E
:101D50000230C0000A168A1103230A128A15323A89
:101D6000031DC12EAE30F1008030F2000A168A1138
:101D70009E230A128A15AA3083160313BF0005306A
:101D8000C0000A168A1103230A128A15333A031D6A
:101D9000D82EAE30F1008030F2000A168A119E2350
:101DA0000A128A150C3083160313BF000B30C000D3
:101DB0000A168A1103230A128A15343A031D022FC8
:101DC000AE30F1008030F2000A168A119E230A120A
:101DD0008A15B83083120313ED000C30EE006E0844
:101DE000F101F1076D08F001F0070A168A11E822E7
:101DF0000A128A15831203138618002F8614F32FF4
:101E00008610F32F0A168A1103230A128A15353A0F
:101E1000031D192FAE30F1008030F2000A168A112E
:101E20009E230A128A15A03083160313BF001130B7
:101E3000C0000A168A1103230A128A15363A031DB6
:101E4000302F9230F1008030F2000A168A119E2362
:101E50000A128A15883083160313BF001630C0009B
:101E60000A168A1103230A128A15373A031D472FCF
:101E70008430F1008030F2000A168A119E230A1283
:101E80008A15F03083160313BF001A30C0000A16FB
:101E90008A1103230A128A15383A031D5E2FAE30C9
:101EA000F1008030F2000A168A119E230A128A1568
:101EB000A43083160313BF001F30C0000A168A1116
:101EC00003230A128A15393A031D752F7530F10064
:101ED0008030F2000A168A119E230A128A152830D1
:101EE00083160313BF002330C0000A128A11512049
:101EF0000A128A15831603134008F901F9073F08EF
:101F0000F801F8070A168A11BD220A128A15780804
:101F100083160313AF007908B0007A08B10083126A
:101F200003138C120C1B0C130B1DEF2FEE300A1633
:101F30008A115D220A128A150130831603133A02B0
:101F4000F330031939020318AF2F0130B907031812
:101F5000BA0A0030BA07831203130617EE2F83164E
:101F60000313B901BA01831203130F088316031375
:101F7000BC01BC07831203130E0883160313BB01B5
:101F8000BB076D08F101F1076C08F001F0073C0890
:101F9000F301F3073B08F201F2070A168A11EE2457
:101FA0000A128A157108F901F9077008F801F80793
:101FB0007830FA000030FB000A168A11C1230A1299
:101FC0008A15790883160313BE01BE077808BD0180
:101FD000BD07831203138E018F0106130B110C181A
:101FE0000C108C198C11831203135E08FF005D081E
:101FF0008A005C0884005B0E8300FE0E7E0E0900E2
:1024B0000034A034413407340034F0007008831233
:1024C00003138100080072087104700403190800E6
:1024D0008030F2060800F000831203130C1E6C2AF1
:1024E00070089900080083160313C7004708831279
:1024F00003138100080064008001840A04060319A4
:10250000003404067C2A8316031381120112811100
:102510000115811401140B118B1608008316031387
:10252000C70083120C1E912A8316031347088312D7
:1025300003139900080083160313C800C7013A303B
:1025400048020318A92A30304802031CA92AC701EF
:10255000C70A470C0800831603139F179F151F1502
:102560009F141F10831203139F171F138316031347
:102570000C13831203130C1308007808F000790879
:10258000F100F2018E30FB007B08F300F4010A1623
:102590008A1112267008F8007108F9007208FA0012
:1025A000080083160313C80083120313091083164F
:1025B0000313480883120313880089143D308316DF
:1025C0000313C700C70BE22A831203138910080004
:1025D0007108F3007008F200730DF30CF20C730D28
:1025E000F30CF20C7208831203139B007008F200C4
:1025F00003300310F20DFF3E031DF92A0310720D84
:102600000C389D0008008312031398180C2B1A082D
:10261000F3007308F4001B2B0B30F1008030F20044
:102620000A168A119E238312031318121A08F30044
:102630007308F40018168C12740808008312031330
:102640002308F0002408F1002508F2002008F30018
:102650002108F4002208F5000A168A11B5250A1689
:102660008A11031C0800831203132308A000240806
:10267000A1002508A200080083160313C9008312D5
:102680000313091083160313C908031D4A2B4708B7
:10269000803E4E2B831603134708C03E831203135C
:1026A000880089143D3083160313C800C80B562BCD
:1026B0008312031389100800831603134808CA0005
:1026C0004708C9004A0DCA0CC90C4A0DCA0CC90CEE
:1026D0004908831203139500831603134708C900A2
:1026E00003300310C90DFF3E031D712B0310490D6C
:1026F0000C3883120313970008008316031348084D
:10270000CA004708C9004A0DCA0CC90C4A0DCA0CB8
:10271000C90C4908831203139B008316031347084F
:10272000C90003300310C90DFF3E031D922B031097
:10273000490D0C38831203139D00080072088312A0
:102740000313FF00710884000A128A1500200A167C
:102750008A11003803190800720883120313FF005E
:10276000710884000A128A1500200A168A110A16B6
:102770008A116B220A168A110130F1070318F20A36
:102780009E2BFC01FD01781CCB2B7A08FC0703185B
:10279000FD0A7B08FD0701300310FA0DFB0DFF3E1B
:1027A000031DCC2B01300310F90CF80CFF3E031D68
:1027B000D32B79087804031DC32B7D08F901F90791
:1027C0007C08F801F8070800831203139214121012
:1027D00012139212121292111215FF308316031364
:1027E0009200831203139715171597141714831665
:1027F00003130C15831203130C119D151D159D1445
:102800001D14831603130D14831203130D100800F7
:1028100083160313CB01CC01471C142C4908CB07AA
:102820000318CC0A4A08CC0701300310C90DCA0DA1
:10283000FF3E031D152C01300310C80CC70CFF3ED2
:10284000031D1C2C48084704031D0C2C4C08C80110
:10285000C8074B08C701C707080001300A168A11CC
:10286000D1220A168A110C3083160313CA00F730DE
:10287000C900C90B392CCA0B392C0C300A168A1125
:10288000D1220A168A113D3083160313C900C90BE1
:10289000472C06300A168A11D1220A168A113D30B9
:1028A00083160313C900C90B532C080083160313A6
:1028B0004A0883120313FF00831603134908840098
:1028C000831203130A128A1500200A168A1100388F
:1028D00003190800831603134A0883120313FF0029
:1028E0008316031349088400831203130A128A15FE
:1028F00000200A168A110A128A15DB200A168A118C
:10290000013083160313C9070318CA0A562C83160D
:102910000313490883120313FF00831603134808A7
:102920008400831203130A128A1500200A168A11E2
:102930000038031908008316031349088312031390
:10294000FF008316031348088400831203130A123E
:102950008A1500200A168A110A168A118E220A1672
:102960008A11013083160313C8070318C90A872C7C
:102970008316031350084F040319E72CD401D40A1B
:10298000D01BCE2C01300310CF0DD00DFF3E031D08
:10299000C32C0130D3005308D407C02C5008520276
:1029A000031DD42C4F085102031CDC2C4F08D1020C
:1029B0005008031CD203D20201300310D00CCF0CFC
:1029C000FF3E031DDD2C0130D402031DCE2C520826
:1029D000D001D0075108CF01CF070800F501F6015B
:1029E000710870040319252DF701F70AF11B042D56
:1029F00001300310F00DF10DFF3E031DF92C0130E5
:102A0000F4007408F707F62C01300310F50DF60DED
:102A1000FF3E031D052D71087302031D112D700863
:102A20007202031C1A2D7008F2027108031CF303D2
:102A3000F302751401300310F10CF00CFF3E031D7E
:102A40001B2D0130F702031D042D7608F101F1075B
:102A50007508F001F007080083160313CC01CD01BF
:102A6000480847040319652DCE01CE0AC81B442D22
:102A700001300310C70DC80DFF3E031D392D013075
:102A8000CB004B08CE07362D01300310CC0DCD0DF9
:102A9000FF3E031D452D48084A02031D512D4708DE
:102AA0004902031C5A2D4708C9024808031CCA03DF
:102AB000CA024C1401300310C80CC70CFF3E031DA2
:102AC0005B2D0130CE02031D442D4D08C801C807FF
:102AD0004C08C701C7070800831603135608DA001D
:102AE0005708DB005808DC005908DD0004300310EB
:102AF000DA0DDB0DDC0DDD0DFF3E031D772D5D08CE
:102B0000CA005C08C9005B08C8005A08C700013049
:102B1000CE001930CD004030CC000030CB000A167A
:102B20008A117127831603134708FF3E99009813F3
:102B300018139816181218159814181083120313E6
:102B40009817181398121816981118119810181031
:102B5000831603130C12831203130C128316031330
:102B60008C16831203138C120800F21FDC2D003028
:102B7000F6000030F7008030F8007009F9007109A4
:102B8000FA007209FB00F90A0319FA0A0319FB0A91
:102B90007908F6077A0803187A0FCF2DD02DF7079A
:102BA0007B0803187B0FD52DD62DF8077608F0008B
:102BB0007708F1007808F200F51F032E0030F600C8
:102BC0000030F7008030F8007309F9007409FA004A
:102BD0007509FB00F90A0319FA0A0319FB0A7908B7
:102BE000F6077A0803187A0FF62DF72DF7077B08FA
:102BF00003187B0FFC2DFD2DF8077608F3007708EE
:102C0000F4007808F5008030F2068030F50675088B
:102C10007202031D080074087102031D0800730886
:102C200070020800730803191A2E720871047004E8
:102C3000031D2D2E0030F0000030F1000030F200B6
:102C400008000130F5007508F30701300310F20C9D
:102C5000F10CF00CFF3E031D262EFE307205031909
:102C6000482E212E0130F5007508F3070130F007DA
:102C7000003003180130F107003003180130F2076B
:102C800001300310F20CF10CF00CFF3E031D412E3D
:102C9000FF3072050319572E322E0130F302013036
:102CA0000310F00DF10DF20DFF3E031D502EF11F2C
:102CB0004D2E7318612EFF30F0057F30F105FF3087
:102CC000F2050310F30C7308F500F601F70110305C
:102CD0000310F50DF60DF70DFF3E031D682E750868
:102CE000F0047608F1047708F20474080319080068
:102CF000F2170800831603139F111F159F101F1052
:102D00005A30CA00C330C900C90B842ECA0B842EA6
:102D100030300A168A11D1220A168A111830831609
:102D20000313CA00EF30C900C90B942ECA0B942EAE
:102D300030300A168A11D1220A168A119930831668
:102D40000313C900C90BA22E30300A168A11D122F2
:102D50000A168A113D3083160313C900C90BAE2E23
:102D600038300A168A11D1220A168A113D3083168C
:102D70000313C900C90BBA2E01300A168A11D122D9
:102D80000A168A110C3083160313CA00F730C900E3
:102D9000C90BC82ECA0BC82E0C300A168A11D122B4
:102DA0000A168A113D3083160313C900C90BD62EAB
:102DB00006300A168A11D1220A168A113D3083166E
:102DC0000313C900C90BE22E08007008F400710853
:102DD000F5007208F6000310750D760DF700770800
:102DE000FD00FD08031DFD2E0030F3000030F20051
:102DF0000030F1000030F00008007008F4007108A5
:102E0000F5007208F60017300310F60CF50CF40C00
:102E1000FF3E031D042F7408F7007708F800F11730
:102E2000FF30F005FF30F1050030F2057008F900C1
:102E30007108FA007208FB00FC018E30FD02FD1FD4
:102E40003F2F7D08803A8F3E03182F2F0030F3006C
:102E50000030F2000030F1000030F00008000130D6
:102E60000310FC0CFB0CFA0CF90CFF3E031D302F79
:102E70000130F4007408FD0703195A2F2F2F183062
:102E80007D02031C572F0030F3000030F2000030A9
:102E9000F1000030F00008000130F4000310F90DDB
:102EA000FA0DFB0DFC0DF40B4E2F0130FD02FD0859
:102EB000031D4C2F78080319682FF909FA09FB093B
:102EC000FC09F90A0319FA0A0319FB0A0319FC0A97
:102ED0007C08F3007B08F2007A08F1007908F00022
:102EE000080083160313D101CA1F832FC709C8091D
:102EF000C909CA09C70A0319C80A0319C90A031963
:102F0000CA0AD101D10ACE1F942FCB09CC09CD0911
:102F1000CE09CB0A0319CC0A0319CD0A0319CE0A2C
:102F20000130CF004F08D1060030D5000030D4006A
:102F30000030D3000030D2004A0849044804470456
:102F40000319E92FD001D00ACA1BB42F0130CF00DA
:102F50000310C70DC80DC90DCA0DCF0BA82F013026
:102F6000CF004F08D007A42F0130CF000310D20D9F
:102F7000D30DD40DD50DCF0BB62F4A084E02031D2D
:102F8000CB2F49084D02031DCB2F48084C02031DCF
:102F9000CB2F47084B02031CDC2F4708CB02480805
:102FA000031C480FCC024908031C490FCD024A08F4
:102FB000031C4A0FCE02521401300310CA0CC90C74
:102FC000C80CC70CFF3E031DDD2F0130D002031DCE
:102FD000B42F51080319F72FD209D309D409D50901
:102FE000D20A0319D30A0319D40A0319D50A5508BA
:102FF000CA005408C9005308C8005208C700080096
:02400E0032FF7F
:00000001FF
