:060000000A128A11122809
:10000800FE00030E83120313DD000408DE000A0855
:10001800DF007F08E0000A128A156C2E0A128A1186
:1000280015288313613084006E300A168A11002265
:100038000A128A11A0308400CA300A168A110022D6
:100048000A128A11831790308400A7300A168A1181
:1000580000220A128A11831603130A168A11DF2155
:100068000A128A11EC000A168A11E0210A128A1172
:10007800ED000A168A11E1210A128A11EE00831294
:1000880003130A168A11DD210A128A11EE000A16D4
:100098008A11DE21EF0083010A128A151B2D8312B3
:1000A80003136D08F901F9076C08F801F8070A1637
:1000B8008A1130220A128A11780883160313EC0079
:1000C8007908ED007A08EE00803083120313D4001B
:1000D8008930D5004430D6008030D7000930D800A8
:1000E8004530D9004030DA004E30DB004530DC00C6
:1000F800003083160313A3000030A4000030A500CD
:100108006C08F8006D08F9006E08FA003208F00073
:100118003308F1003408F2000A168A11E8210A129D
:100128008A117008FB007108FC007208FD000A12B1
:100138008A15A6210A128A11780883120313E1008E
:100148007908E2007A08E3000030B7008030B80090
:10015800BF30B9000030A700C830A8004230A9005D
:100168006108AA006208AB006308AC000A128A158D
:10017800EE200A128A11831203132708BA002808EE
:10018800BB002908BC000A168A112D270A128A11F9
:10019800831203133708E1003808E2003908E30046
:1001A8006108F0006208F1006308F2000A168A117B
:1001B80012260A128A11710883120313EB01EB0746
:1001C8007008EA01EA070030F000C830F100423058
:1001D800F2006108F3006208F4006308F5000A12EF
:1001E8008A11A2270A128A110318022900308312E1
:1001F8000313E100C830E2004230E3008312031326
:100208006108F0006208F1006308F2000030F300B2
:100218000030F4000030F5000A128A11A2270A12F1
:100228008A1103181F29003083120313E1000030DC
:10023800E2000030E300831203136108F000620853
:10024800F1006308F2000030F300C830F4004130D8
:10025800F5000A128A11A2270A128A1103184C2AD9
:100268008312031306183A2906143B29061061085D
:10027800B7006208B8006308B9000030BA0000305F
:10028800BB000030BC000030BD000030BE000030B4
:10029800BF000030C0005030C1004130C200003003
:1002A800C3000030C4004230C5000A128A15CB23AF
:1002B8000A128A1183120313370883160313A30043
:1002C80083120313380883160313A400831203133D
:1002D800390883160313A500230883120313A0000B
:1002E80083160313240883120313A1008316031330
:1002F800250883120313A200CD30A300CC30A4003C
:100308003D30A5000A168A11A8220A128A11831202
:100318000313200883160313A6008312031321086E
:1003280083160313A70083120313220883160313EB
:10033800A800003083120313E4000030E500003009
:10034800E6000030E7000030E8000030E900CC01AA
:10035800CD014D08803AFF0080307F02031DB62989
:100368005B304C0203184C2A831203136408B7004D
:100378006508B8006608B9000030BA000030BB0054
:100388000030BC000030BD000030BE000030BF00AF
:100398000030C0005030C1004130C2000030C300FE
:1003A8000030C4004230C5000A128A15CB230A1255
:1003B8008A11831203133708E7003808E800390860
:1003C800E900831603132608F0002708F10028081F
:1003D800F200831203136708F3006808F400690841
:1003E800F5000A128A11A2270A128A110318072A8D
:1003F800831603132608F8002708F9002808FA00CE
:10040800831203130F2A831203136708F80068087E
:10041800F9006908FA005408FB005508FC00560862
:10042800FD000A128A15A6210A128A117808831279
:100438000313D4007908D5007A08D6000030F800F4
:100448008030F9003F30FA006408FB006508FC00C2
:100458006608FD000A128A15A6210A128A11780870
:1004680083120313E4007908E5007A08E6000130F6
:10047800CC070318CD0A0030CD074D08803AFF009D
:1004880080307F02031D4A2A5B304C02031CB829C6
:100498000030F000A030F1004130F2008312031365
:1004A8006108F3006208F4006308F5000A128A1173
:1004B800A2270A128A110318802B831203136108DA
:1004C800F0006208F1006308F2000030F3008C309D
:1004D800F4004230F5000A128A11A2270A128A1182
:1004E8000318802B8312031386187C2A86147D2A0E
:1004F80086106108B7006208B8006308B9000030C8
:10050800BA001030BB004130BC000030BD003430B0
:10051800BE004230BF000030C000A230C1004230EF
:10052800C2000A128A15AD220A128A118312031315
:10053800370883160313A30083120313380883169E
:100548000313A40083120313390883160313A500A9
:10055800230883120313A0008316031324088312AD
:100568000313A10083160313250883120313A200A3
:10057800CD30A300CC30A4003D30A5000A168A1166
:10058800A8220A128A118312031320088316031360
:10059800A90083120313210883160313AA008312E8
:1005A8000313220883160313AB00003083120313CE
:1005B800E4000030E5000030E6000030E7000030DD
:1005C800E8000030E900CE01CF014F08803AFF0073
:1005D80080307F02031DF22A5B304E020318802B05
:1005E800831203136408B7006508B8006608B900E9
:1005F8000030BA001030BB004130BC000030BD00F4
:100608003430BE004230BF000030C000A230C1000C
:100618004230C2000A128A15AD220A128A118312C8
:1006280003133708E7003808E8003908E9006708C5
:10063800F0006808F1006908F2008316031329081E
:10064800F3002A08F4002B08F5000A128A11A227E1
:100658000A128A11031C3B2B831603132908F8007E
:100668002A08F9002B08FA0083120313432B83127C
:1006780003136708F8006808F9006908FA005708C2
:10068800FB005808FC005908FD000A128A15A6212B
:100698000A128A11780883120313D7007908D80040
:1006A8007A08D9000030F8008030F9003F30FA00AD
:1006B8006408FB006508FC006608FD000A128A153C
:1006C800A6210A128A11780883120313E400790814
:1006D800E5007A08E6000130CE070318CF0A00309B
:1006E800CF074F08803AFF0080307F02031D7E2B22
:1006F8005B304E02031CF42A0030F0008C30F1000D
:100708004230F200831203136108F3006208F40018
:100718006308F5000A128A11A2270A128A1103181F
:10072800AB2C8312031306199B2B06159C2B061161
:100738006108B7006208B8006308B9000030BA0061
:100748007830BB004230BC000030BD009E30BE0097
:100758004230BF000030C000B430C1004230C20097
:100768000030C300B430C4004230C5000A128A15F4
:10077800CB230A128A118312031337088316031333
:10078800A30083120313380883160313A4008312EB
:100798000313390883160313A500230883120313D0
:1007A800A00083160313240883120313A1008316E1
:1007B8000313250883120313A200CD30A300CC3005
:1007C800A4003D30A5000A168A11A8220A128A112F
:1007D80083120313200883160313AC008312031338
:1007E800210883160313AD0083120313220883160E
:1007F8000313AE00003083120313E4000030E50059
:100808000030E6000030E7000030E8000030E90082
:10081800D001D1015108803AFF0080307F02031DCA
:10082800172C5B3050020318AB2C83120313640897
:10083800B7006508B8006608B9000030BA0078301B
:10084800BB004230BC000030BD009E30BE004230CC
:10085800BF000030C000B430C1004230C2000030D8
:10086800C300B430C4004230C5000A128A15CB2335
:100878000A128A11831203133708E7003808E800C0
:100888003908E9006708F0006808F1006908F20013
:10089800831603132C08F3002D08F4002E08F50026
:1008A8000A128A11A2270A128A11031C662C8316BF
:1008B80003132C08F8002D08F9002E08FA008312FB
:1008C80003136E2C831203136708F8006808F900F5
:1008D8006908FA005A08FB005B08FC005C08FD0088
:1008E8000A128A15A6210A128A117808831203139C
:1008F800DA007908DB007A08DC000030F800803084
:10090800F9003F30FA006408FB006508FC0066083F
:10091800FD000A128A15A6210A128A117808831284
:100928000313E4007908E5007A08E6000130D007EF
:100938000318D10A0030D1075108803AFF008030EF
:100948007F02031DA92C5B305002031C192C831253
:100958000313D201D3015308803AFF0080307F028D
:10096800031DB82C013052020318222D83120313E1
:100978006108F0006208F1006308F2000030F3003B
:10098800C830F4004130F5000A128A11A2270A1271
:100998008A110318D72C831203135408C900550869
:1009A800CA005608102D831203136108F00062086C
:1009B800F1006308F2000030F300C830F400413061
:1009C800F5000A128A11A2270A128A11031C092D9E
:1009D800831203136108F0006208F1006308F20053
:1009E8000030F3009630F4004230F5000A128A1104
:1009F800A2270A128A110318092D83120313570814
:100A0800C9005808CA005908102D831203135A0840
:100A1800C9005B08CA005C08CB000130D207031884
:100A2800D30A0030D3075308803AFF0080307F0292
:100A3800031D202D01305202031CBA2C00308316EE
:100A48000313B500B430B6004230B7000030AF0031
:100A58000030B0000030B100831203134908F800D9
:100A68004A08F9004B08FA00831603132F08FB0005
:100A78003008FC003108FD000A128A15A6210A1266
:100A88008A11780883160313AF007908B0007A0832
:100A9800B1000030F8008030F9003F30FA008312CE
:100AA80003136408FB006508FC006608FD000A12D1
:100AB8008A15A6210A128A11780883120313E40002
:100AC8007908E5007A08E6008316031335088312CF
:100AD8000313A70083160313360883120313A80011
:100AE80083160313370883120313A900831603130D
:100AF8002F0883120313AA008316031330088312E6
:100B08000313AB0083160313310883120313AC00DD
:100B18000A128A15EE200A128A1183120313270873
:100B280083160313A00083120313280883160313E4
:100B3800A10083120313290883160313A2000030AF
:100B480083120313B700A030B8004130B9008316F0
:100B58000313200883120313BA0083160313210812
:100B680083120313BB008316031322088312031393
:100B7800BC000A168A112D270A128A118312031340
:100B8800370883160313A00083120313380883164B
:100B98000313A10083120313390883160313A20059
:100BA800831203136B086A040319080003306B02ED
:100BB800FC3003196A02031808006B08F101F107F9
:100BC8006A08F001F0070A168A11722208008316D3
:100BD8000313E700D930DB005B08DE000130831621
:100BE8000313D807FF30580784000A128A150A2011
:100BF8000A128A11DB005B08E800E80803199B2F3A
:100C08006808253A0319142E6808DB006708840071
:100C18005B08831780000130DB005B08E707F22DD3
:100C2800E501E601E4011D2E64150130DB005B08D7
:100C3800D807580884000A128A150A200A128A114D
:100C4800303A0319182E282E580884000A128A15DB
:100C58000A200A128A110A168A1120220A128A11F7
:100C6800031C782E83160313E501E6010A30831668
:100C78000313CA000030CB006608CD01CD07650814
:100C8800CC01CC070A168A1192230A128A118316FC
:100C980003134B08E601E6074A08E501E50758088B
:100CA80084000A128A150A200A128A11D03EDB0033
:100CB800FF3003180030DC005B08E5070318E60A7C
:100CC8005C08E6070130DB005B08D8075808840099
:100CD8000A128A150A200A128A110A168A11202273
:100CE8000A128A1103183A2E013083160313D80703
:100CF800FF30580784000A128A150A200A128A113E
:100D0800E800003A03199B2F643A03198F2E0D3A15
:100D180003198F2EF22D831603135E0884008313A4
:100D28000008E000840A0008E1000230DB005B08EC
:100D3800DE07E11FA82E0330DB005B08E404E009AE
:100D4800E109E00A0319E10AE801E80A6808053A36
:100D58000319CF2E6808DB005B07013E84000A12E6
:100D68008A150A200A128A11DC000A128A150A203A
:100D78000A128A11DD005D086102031DC52E5C0898
:100D88006002031CCF2E0130DB005B08E80768080F
:100D9800053A031DAE2E660865040319DD2E6408A6
:100DA80003390319DD2EFF30E5070318E60AFF3083
:100DB800E6076808DB00DC01DB1BDC035C08803A23
:100DC800DD006608803A5D02031DEC2E65085B02B3
:100DD8000318FC2E831603136808DB00DC01DB1BF9
:100DE800DC035B08E5025C08031CE603E602002F4F
:100DF80083160313E501E601641D272F64080339F0
:100E08000319112F2D30DB00670884005B08831756
:100E180080000130DB005B08E707660865040319FA
:100E28004F2F3030DB00670884005B088317800091
:100E38000130DB005B08E707FF30E5070318E60A27
:100E4800FF30E607112F660865040319402F20308C
:100E5800DB00670884005B08831780000130DB0033
:100E68005B08E707FF30E5070318E60AFF30E607E7
:100E780066086504031D2B2F6408033903194F2FD7
:100E88002D30DB00670884005B0883178000013081
:100E9800DB005B08E7076808DB005B08DF00FF3062
:100EA800DB005B08DF075F08FF3A0319F22D0A3001
:100EB800D2000030D3005F08DB005B07013E8400EE
:100EC8000A128A150A200A128A11CA000A128A15F9
:100ED8000A200A128A11CB006108CD01CD076008EB
:100EE800CC01CC070A168A11B6240A128A11831675
:100EF80003134B08D501D5074A08D401D4070A16AD
:100F08008A1142240A128A11831603135208303EAA
:100F1800DC005C08E8006808DB00670884005B0800
:100F2800831780000130DB005B08E707532F831627
:100F3800031367088400831780010800F21FC92F74
:100F48000030F6000030F7008030F8007009F90032
:100F58007109FA007209FB00F90A0319FA0A031960
:100F6800FB0A7908F6077A0803187A0FBC2FBD2FF9
:100F7800F7077B0803187B0FC22FC32FF8077608E3
:100F8800F0007708F1007808F200F51FF02F003024
:100F9800F6000030F7008030F8007309F900740992
:100FA800FA007509FB00F90A0319FA0A0319FB0A82
:100FB8007908F6077A0803187A0FE32FE42FF70762
:100FC8007B0803187B0FE92FEA2FF8077608F30050
:100FD8007708F4007808F5008030F2068030F506CE
:100FE80075087202031D080074087102031D0800C9
:060FF800730870020800FE
:10100000FF1B0A2883137F1883170008840A03191B
:10101000FF0A080008308A000408840A82070034A6
:10102000013400340A34003464340034E8340334C6
:10103000103427340A340D3420342D342D342D341B
:101040002D342D342D342D34203445345334543440
:101050004F34553452344F342034443445342034E2
:10106000503449344C344834413420342D342D34F8
:101070002D342D342D342D342D3420340A340D34B8
:101080002034003449346E34693463346934613453
:101090006C3469347A3461346E3464346F3420349F
:1010A0006F34203450344934433431343634463488
:1010B00038343734373441340A340D34003455343D
:1010C00053344134523454343A342034313431348A
:1010D00035342E3432343034303462347034733436
:1010E0000A340D34003449346E346934633469345D
:1010F00061346C3469347A3461346E3464346F34FE
:101100002E342E342E3400340A340D3470347734B7
:101110006D3420343D34203431343034323433347F
:101120000A340D3400340A340D34703477346D349D
:1011300020343D3420343834393436340A340D34D4
:1011400000340A340D34703477346D3420343D3437
:1011500020343734363438340A340D3400340A3409
:101160000D346434653473346C34693467346134F9
:1011700064346F340A340D3400340A340D3470345E
:1011800077346D3420343D3420340A340D34003447
:10119000443465346C34743461343A34203400346B
:1011A000523450344D343A34203400342534303401
:0611B00034346434003405
:1011B800831603139F179F151F159F141F10831263
:1011C80003139F171F13831603130C1383120313A0
:1011D8000C130800831203132A08AD002B08AE0075
:1011E8002C08AF0003102E0D2F0DB0003008B500ED
:1011F800B508031D06290030A7000030A8000030FC
:10120800A90008002708AD002808AE002908AF008B
:1012180003102E0D2F0DB0003008B600B608031DC0
:101228001C290030A7000030A8000030A9000800E1
:101238000030B2000030B3000030B4008930360707
:10124800AD002D08B5022A08AD002B08AE002C0809
:10125800AF0010300310AF0CAE0CAD0CFF3E031DF9
:101268002E292D08B0003008B6002708AD00280840
:10127800AE002908AF0010300310AF0CAE0CAD0C57
:10128800FF3E031D40292D08B0003008B606803007
:10129800AD002D08B605AB17FF30AA05FF30AB052A
:1012A8000030AC05A817FF30A705FF30A8050030AF
:1012B800A9051830AD002D08B10001300310B20D9A
:1012C800B30DB40DFF3E031D622929082C02031D2E
:1012D800732928082B02031D732927082A02031CD7
:1012E80080292708AA022808031C280FAB0229080E
:1012F800031C290AAC02321401300310AA0DAB0DED
:10130800AC0DFF3E031D81290130B102031D612987
:101318003208F0003308F1003408F2003508AD0057
:101328002D08F3003608AE002E08F4000A168A11BC
:101338003F25700883120313A7007108A8007208DC
:10134800A9000800780883120313A0007908A100F7
:101358007A08A2000310210D220DA3002308A6007D
:101368007B08A0007C08A1007D08A2000310210DC5
:10137800220DA3002308A50026080319CF29250854
:1013880026020318D6292603FF3A2507A00019309C
:101398002002031CD6297B08F8007C08F9007D0888
:1013A800FA00080025080319080026082502031872
:1013B800E5292503FF3A2607A00019302002031863
:1013C80008000630A0002008A400FA1BA417FD1B83
:1013D8002417F917FF30F805FF30F9050030FA0532
:1013E800FC17FF30FB05FF30FC050030FD05250824
:1013F80026020318252A01300310FB0DFC0DFD0DF4
:10140800FF3E031D002A0130A50225082606031900
:10141800202A0130A402240807390319202AFF29A9
:1014280001300310FA0CF90CF80CFF3E031D152AC5
:101438000130A0002008A6072608250603194E2A11
:10144800142A2608250203184E2A01300310F80D25
:10145800F90DFA0DFF3E031D2A2A0130A6022508C0
:10146800260603194A2A0130A40224080739031959
:101478004A2A292A01300310FD0CFC0CFB0CFF3E04
:10148800031D3F2A0130A0002008A50726082506CD
:10149800031D3E2AA41F602AFF30F806FF30F90614
:1014A800FF30FA060130F807003003180130F90759
:1014B800003003180130FA07241F722AFF30FB0698
:1014C800FF30FC06FF30FD060130FB070030031833
:1014D8000130FC07003003180130FD07A40178082B
:1014E800FB07790803110318790A031DFC077A081A
:1014F800031103187A0A031DFD07FD1F952AFF3003
:10150800FB06FF30FC06FF30FD060130FB0700300C
:1015180003180130FC07003003180130FD07A4014F
:10152800A40A7B08F0007C08F1007D08F200260878
:10153800A0002008F3002408A1002108F4000A16DE
:101548008A113F257008F8007108F9007208FA003E
:101558000800003083120313C3000030C4000030B9
:10156800C5003A08F0003B08F1003C08F2003708D3
:10157800F3003808F4003908F5000A128A11A22786
:101588000A128A150318BA2B831203133A08F000BB
:101598003B08F1003C08F2003708F3003808F40073
:1015A8003908F5000A128A11A2270A128A150318A7
:1015B800242B831203133D08F0003E08F1003F0876
:1015C800F2003708F3003808F4003908F5000A1269
:1015D8008A11A2270A128A15031C242B83120313CB
:1015E8003D08F8003E08F9003F08FA003A08F00004
:1015F8003B08F1003C08F2000A168A11E8210A1299
:101608008A157008FB007108FC007208FD000A12B8
:101618008A15A6210A128A15780883120313A700CF
:101628007908A8007A08A9003708F8003808F900EE
:101638003908FA003A08F0003B08F1003C087F2B13
:10164800831203133D08F0003E08F1003F08F20042
:101658003708F3003808F4003908F5000A128A112F
:10166800A2270A128A150318A52B83120313400810
:10167800F0004108F1004208F2003708F30038088A
:10168800F4003908F5000A128A11A2270A128A15ED
:10169800031CA52B831203133D08F8003E08F9002C
:1016A8003F08FA004008F0004108F1004208F20043
:1016B8000A168A11E8210A128A157008FB007108B7
:1016C800FC007208FD000A128A15A6210A128A1562
:1016D800780883120313A7007908A8007A08A900DC
:1016E8003708F8003808F9003908FA004008F0000F
:1016F8004108F1004208F2000A168A11E8210A128C
:101708008A157008FB007108FC007208FD000A12B7
:101718008A15A6210A128A15780883120313AA00CB
:101728007908AB007A08AC000A128A15EE200A1272
:101738008A15831203132708C3002808C400290840
:10174800C12B831203134008F0004108F10042083E
:10175800F2003708F3003808F4003908F5000A12D7
:101768008A11A2270A128A150318C22B0030831285
:101778000313C3000030C4000030C50083120313F4
:101788004308B7004408B8004508B900080000300D
:1017980083120313C6000030C7000030C8003A089F
:1017A800F0003B08F1003C08F2003708F300380865
:1017B800F4003908F5000A128A11A2270A128A15BC
:1017C80003180A2D831203133A08F0003B08F100AE
:1017D8003C08F2003708F3003808F4003908F5002F
:1017E8000A128A11A2270A128A150318422C831298
:1017F80003133D08F0003E08F1003F08F2003708E7
:10180800F3003808F4003908F5000A128A11A227F3
:101818000A128A15031C422C831203133D08F80090
:101828003E08F9003F08FA003A08F0003B08F100CA
:101838003C08F2000A168A11E8210A128A15700873
:10184800FB007108FC007208FD000A128A15A62127
:101858000A128A15780883120313A7007908A800CA
:101868007A08A9003708F8003808F9003908FA009A
:101878003A08F0003B08F1003C08CF2C8312031310
:101888003708F0003808F1003908F2003D08F30085
:101898003E08F4003F08F5000A128A11A2270A122E
:1018A8008A15031C742C831203134008F0004108A6
:1018B800F1004208F2003708F3003808F40039084C
:1018C800F5000A128A11A2270A128A15031C742C21
:1018D800003083120313C6008030C7003F30112D3B
:1018E800831203134008F0004108F1004208F20097
:1018F8003708F3003808F4003908F5000A128A118D
:10190800A2270A128A150318F52C83120313430819
:10191800F0004408F1004508F2003708F3003808E1
:10192800F4003908F5000A128A11A2270A128A154A
:10193800031CF52C831203134308F8004408F9002C
:101948004508FA004008F0004108F1004208F2009A
:101958000A168A11E8210A128A157008FB00710814
:10196800FC007208FD000A128A15A6210A128A15BF
:10197800780883120313A7007908A8007A08A90039
:101988004308F8004408F9004508FA003708F00051
:101998003808F1003908F2000A168A11E8210A12FB
:1019A8008A157008FB007108FC007208FD000A1215
:1019B8008A15A6210A128A15780883120313AA0029
:1019C8007908AB007A08AC000A128A15EE200A12D0
:1019D8008A15831203132708C6002808C700290898
:1019E800112D831203134308F0004408F100450841
:1019F800F2003708F3003808F4003908F5000A1235
:101A08008A11A2270A128A150318122D0030831290
:101A18000313C6000030C7000030C8008312031348
:101A28004608B7004708B8004808B9000800013060
:101A38008316031385000130831203138500831670
:101A4800031386018312031386018130831603135F
:101A58008700C0308312031387008316031388019D
:101A68008312031388018316031389018312031356
:101A78008901033090008E018F0100308316031313
:101A8800DC000130DB00C230DA000030D9000A1671
:101A98008A11F6240A128A150A168A1108220A12CD
:101AA8008A150A128A15DC200A128A150A168A1162
:101AB8006E230A128A150A168A11A7250A128A1590
:101AC8000B178B17333083160313CB008030CC00F1
:101AD8000A168A1111240A128A1550308316031324
:101AE800CB008030CC000A168A1111240A128A15FC
:101AF8000A168A11A7250A128A1583160313CA0122
:101B080000300A168A11C6220A128A156430831612
:101B18000313CC008030CD000A168A11E0230A1284
:101B28008A15003083160313CA000030CB000A164A
:101B38008A11E6220A128A15003083160313CA0096
:101B48000030CB000A168A1107230A128A15EE30D4
:101B58000A168A11F8210A128A15183083160313F7
:101B6800EB006130EA006E30E900E90BB92DEA0BB1
:101B7800B92DEB0BB92D0000C73083160313E9000C
:101B88006908D8004108DA01DA074008D901D907FD
:101B98009D300A128A11EB250A128A15C73083165E
:101BA8000313E9006908D800831203136B0883162E
:101BB8000313DA01DA07831203136A08831603137F
:101BC800D901D90793300A128A11EB250A128A150E
:101BD8009D3083160313CB000130CC000A168A11FE
:101BE80011240A128A15B63083160313CB008030ED
:101BF800CC000A168A1111240A128A150A168A11AB
:101C0800B7230A128A1583160313CA0100300A166D
:101C18008A11C6220A128A15C13083160313CC0012
:101C28008030CD000A168A11E0230A128A15063080
:101C380083160313E9006908CA0000300A168A11DE
:101C4800C6220A128A159D3083160313CC00013070
:101C5800CD000A168A11E0230A128A158316031387
:101C6800CA0101300A168A11C6220A128A15B93029
:101C780083160313CC008030CD000A168A11E023A6
:101C88000A128A15063083160313E9006908CA0088
:101C980001300A168A11C6220A128A159330831651
:101CA8000313CC000130CD000A168A11E0230A1272
:101CB8008A15053083160313EB00AD30EA00E030D7
:101CC800E900E90B652EEA0B652EEB0B652EC02D9E
:101CD8008C1E8E2F0A168A118D220A128A15303A06
:101CE800031D8F2EA030F1008030F2000A168A11F1
:101CF80028230A128A1583120313EC01ED016D08DB
:101D0800F101F1076C08F001F0070A168A11722236
:101D18000A128A15F32F0A168A118D220A128A15B9
:101D2800313A031DA62EAE30F1008030F2000A16BB
:101D38008A1128230A128A15D03083160313C20089
:101D48000230C3000A168A118D220A128A15323A05
:101D5800031DBD2EAE30F1008030F2000A168A1144
:101D680028230A128A15AA3083160313C2000530E5
:101D7800C3000A168A118D220A128A15333A031DE6
:101D8800D42EAE30F1008030F2000A168A112823D2
:101D98000A128A150C3083160313C2000B30C300D5
:101DA8000A168A118D220A128A15343A031DFE2E4C
:101DB800AE30F1008030F2000A168A1128230A1288
:101DC8008A15B83083120313EC000C30ED006D084F
:101DD800F101F1076C08F001F0070A168A11722266
:101DE8000A128A15831203138618FC2E8614F32F01
:101DF8008610F32F0A168A118D220A128A15353A8F
:101E0800031D152FAE30F1008030F2000A168A113A
:101E180028230A128A15A03083160313C200113032
:101E2800C3000A168A118D220A128A15363A031D32
:101E38002C2F9230F1008030F2000A168A112823E4
:101E48000A128A15883083160313C2001630C3009D
:101E58000A168A118D220A128A15373A031D432F52
:101E68008430F1008030F2000A168A1128230A1201
:101E78008A15F03083160313C2001A30C3000A16FD
:101E88008A118D220A128A15383A031D5A2FAE304C
:101E9800F1008030F2000A168A1128230A128A15E6
:101EA800A43083160313C2001F30C3000A168A1118
:101EB8008D220A128A15393A031D712F7530F100E7
:101EC8008030F2000A168A1128230A128A1528304F
:101ED80083160313C2002330C3000A128A11532049
:101EE8000A128A15831603134308F901F9074208F1
:101EF800F801F8070A168A1130220A128A1578089A
:101F080083160313B2007908B3007A08B400831269
:101F180003138C120C1B0C130B1DEF2FEE300A163B
:101F28008A11E2210A128A150130831603133D0231
:101F3800F33003193C020318AB2F0130BC07031818
:101F4800BD0A0030BD07831203130617EE2F831650
:101F58000313BC01BD01831203130F088316031377
:101F6800BF01BF07831203130E0883160313BE01B4
:101F7800BE07831203136F08F101F1076E08F00121
:101F8800F007831603133F08F301F3073E08F20135
:101F9800F2070A168A1178240A128A157108F901BB
:101FA800F9077008F801F8077830FA000030FB00EC
:101FB8000A168A114B230A128A1579088316031305
:101FC800C101C1077808C001C007831203138E013D
:101FD8008F0106130B110C180C108C198C1183121D
:101FE80003136008FF005F088A005E0884005D0E26
:081FF8008300FE0E7E0E0900BD
:1023BA00073400340034A0344134F000700883122A
:1023CA0003138100080072087104700403190800DD
:1023DA008030F2060800F000831203130C1EF12964
:1023EA0070089900080083160313CA004A0883126A
:1023FA0003138100080064008001840A040603199B
:10240A0000340406012A8316031381120112811172
:10241A000115811401140B118B160800831603137E
:10242A00CA0083120C1E162A831603134A08831243
:10243A0003139900080083160313CB00CA013A302C
:10244A004B0203182E2A30304B02031C2E2ACA01D3
:10245A00CA0A4A0C08007808F0007908F100F2016B
:10246A008E30FB007B08F300F4010A168A113F251F
:10247A007008F8007108F9007208FA00080083165B
:10248A000313CB00831203130910831603134B089B
:10249A0083120313880089143D3083160313CA007C
:1024AA00CA0B552A831203138910080083160313D3
:1024BA00CB00831203130914831603134B088312E8
:1024CA000313880089143D3083160313CA00CA0B0C
:1024DA006C2A83120313891008007108F30070082C
:1024EA00F200730DF30CF20C730DF30CF20C72087C
:1024FA00831203139B007008F20003300310F20DDD
:10250A00FF3E031D832A0310720D0C389D0008003C
:10251A00831203139818962A1A08F3007308F40012
:10252A00A52A0B30F1008030F2000A168A112823FE
:10253A008312031318121A08F3007308F40018160A
:10254A008C1274080800831203132308F00024086D
:10255A00F1002508F2002008F3002108F4002208FF
:10256A00F5000A128A11A2270A168A11031C08000A
:10257A00831203132308A0002408A1002508A2003F
:10258A00080083160313CC00831203130910831661
:10259A000313CC08031DD42A4A08803ED82A83167E
:1025AA0003134A08C03E83120313880089143D307E
:1025BA0083160313CB00CB0BE02A83120313891073
:1025CA000800831603134B08CD004A08CC004D0DB2
:1025DA00CD0CCC0C4D0DCD0CCC0C4C088312031336
:1025EA009500831603134A08CC0003300310CC0D60
:1025FA00FF3E031DFB2A03104C0D0C3883120313F4
:10260A0097000800831603134B08CD004A08CC0034
:10261A004D0DCD0CCC0C4D0DCD0CCC0C4C088312B1
:10262A0003139B00831603134A08CC0003300310DC
:10263A00CC0DFF3E031D1C2B03104C0D0C388312CE
:10264A0003139D000800720883120313FF00710828
:10265A0084000A128A1500200A168A110038031902
:10266A000800720883120313FF00710884000A121B
:10267A008A1500200A168A110A168A11F0210A16EA
:10268A008A110130F1070318F20A282BFC01FD0117
:10269A00781C552B7A08FC070318FD0A7B08FD07EE
:1026AA0001300310FA0DFB0DFF3E031D562B0130BE
:1026BA000310F90CF80CFF3E031D5D2B7908780412
:1026CA00031D4D2B7D08F901F9077C08F801F8076D
:1026DA000800831203139214121012139212121288
:1026EA0092111215FF3083160313920083120313FB
:1026FA009715171597141714831603130C158312BD
:10270A0003130C119D151D159D141D148316031317
:10271A000D14831203130D10080083160313CE0140
:10272A00CF014A1C9E2B4C08CE070318CF0A4D082E
:10273A00CF0701300310CC0DCD0DFF3E031D9F2B9B
:10274A0001300310CB0CCA0CFF3E031DA62B4B080D
:10275A004A04031D962B4F08CB01CB074E08CA012A
:10276A00CA07080001300A168A1144220A168A1179
:10277A000C3083160313CD00F730CC00CC0BC32BDF
:10278A00CD0BC32B0C300A168A1144220A168A1161
:10279A003D3083160313CC00CC0BD12B06300A161E
:1027AA008A1144220A168A113D3083160313CC007B
:1027BA00CC0BDD2B0800831603134D088312031379
:1027CA00FF00831603134C088400831203130A12B2
:1027DA008A1500200A168A11003803190800831680
:1027EA0003134D0883120313FF00831603134C08C7
:1027FA008400831203130A128A1500200A168A110A
:10280A000A168A115B220A168A11013083160313EB
:10281A00CC070318CD0AE02B831603134C08831246
:10282A000313FF00831603134B0884008312031358
:10283A000A128A1500200A168A110038031908009C
:10284A00831603134C0883120313FF008316031322
:10285A004B088400831203130A128A1500200A16F1
:10286A008A110A168A1113220A168A11013083164E
:10287A000313CB070318CC0A112C8316031353082E
:10288A0052040319712CD701D70AD31B582C0130D3
:10289A000310D20DD30DFF3E031D4D2C0130D6007F
:1028AA005608D7074A2C53085502031D5E2C5208B6
:1028BA005402031C662C5208D4025308031CD50385
:1028CA00D50201300310D30CD20CFF3E031D672C36
:1028DA000130D702031D582C5508D301D3075408D9
:1028EA00D201D2070800F501F60171087004031934
:1028FA00AF2CF701F70AF11B8E2C01300310F00DF3
:10290A00F10DFF3E031D832C0130F4007408F70714
:10291A00802C01300310F50DF60DFF3E031D8F2CA0
:10292A0071087302031D9B2C70087202031CA42CED
:10293A007008F2027108031CF303F30275140130E4
:10294A000310F10CF00CFF3E031DA52C0130F70219
:10295A00031D8E2C7608F101F1077508F001F007C6
:10296A00080083160313CF01D0014B084A04031948
:10297A00EF2CD101D10ACB1BCE2C01300310CA0D8A
:10298A00CB0DFF3E031DC32C0130CE004E08D107EC
:10299A00C02C01300310CF0DD00DFF3E031DCF2CEC
:1029AA004B084D02031DDB2C4A084C02031CE42C85
:1029BA004A08CC024B08031CCD03CD024F14013048
:1029CA000310CB0CCA0CFF3E031DE52C0130D102CB
:1029DA00031DCE2C5008CB01CB074F08CA01CA07EA
:1029EA000800831603135908DD005A08DE005B0845
:1029FA00DF005C08E00004300310DD0DDE0DDF0DA2
:102A0A00E00DFF3E031D012D6008CD005F08CC00DC
:102A1A005E08CB005D08CA000130D1001930D00031
:102A2A004030CF000030CE000A168A119E26831647
:102A3A0003134A08FF3E99009813181398161812A0
:102A4A00181598141810831203139817181398124C
:102A5A0018169811181198101810831603130C12CF
:102A6A00831203130C12831603138C168312031397
:102A7A008C12080073080319472D72087104700438
:102A8A00031D5A2D0030F0000030F1000030F20032
:102A9A0008000130F5007508F30701300310F20C45
:102AAA00F10CF00CFF3E031D532DFE307205031985
:102ABA00752D4E2D0130F5007508F3070130F0072A
:102ACA00003003180130F107003003180130F20713
:102ADA0001300310F20CF10CF00CFF3E031D6E2DB9
:102AEA00FF3072050319842D5F2D0130F302013086
:102AFA000310F00DF10DF20DFF3E031D7D2DF11FA8
:102B0A007A2D73188E2DFF30F0057F30F105FF30D6
:102B1A00F2050310F30C7308F500F601F701103003
:102B2A000310F50DF60DF70DFF3E031D952D7508E3
:102B3A00F0047608F1047708F2047408031908000F
:102B4A00F2170800831603139F111F159F101F10F9
:102B5A005A30CD00C330CC00CC0BB12DCD0BB12DEA
:102B6A0030300A168A1144220A168A11183083163E
:102B7A000313CD00EF30CC00CC0BC12DCD0BC12DF2
:102B8A0030300A168A1144220A168A11993083169D
:102B9A000313CC00CC0BCF2D30300A168A114422F5
:102BAA000A168A113D3083160313CC00CC0BDB2D99
:102BBA0038300A168A1144220A168A113D308316C1
:102BCA000313CC00CC0BE72D01300A168A114422DC
:102BDA000A168A110C3083160313CD00F730CC0085
:102BEA00CC0BF52DCD0BF52D0C300A168A1144228B
:102BFA000A168A113D3083160313CC00CC0B032E20
:102C0A0006300A168A1144220A168A113D308316A2
:102C1A000313CC00CC0B0F2E08007008F4007108C7
:102C2A00F5007208F6000310750D760DF7007708A7
:102C3A00FD00FD08031D2A2E0030F3000030F200CB
:102C4A000030F1000030F00008007008F40071084C
:102C5A00F5007208F60017300310F60CF50CF40CA8
:102C6A00FF3E031D312E7408F7007708F800F117AC
:102C7A00FF30F005FF30F1050030F2057008F90069
:102C8A007108FA007208FB00FC018E30FD02FD1F7C
:102C9A006C2E7D08803A8F3E03185C2E0030F300BC
:102CAA000030F2000030F1000030F000080001307E
:102CBA000310FC0CFB0CFA0CF90CFF3E031D5D2EF5
:102CCA000130F4007408FD070319872E5C2E1830B2
:102CDA007D02031C842E0030F3000030F200003025
:102CEA00F1000030F00008000130F4000310F90D83
:102CFA00FA0DFB0DFC0DF40B7B2E0130FD02FD08D5
:102D0A00031D792E78080319952EF909FA09FB098A
:102D1A00FC09F90A0319FA0A0319FB0A0319FC0A3E
:102D2A007C08F3007B08F2007A08F1007908F000C9
:102D3A00080083160313D401CD1FB02ECA09CB098C
:102D4A00CC09CD09CA0A0319CB0A0319CC0A0319FB
:102D5A00CD0AD401D40AD11FC12ECE09CF09D00978
:102D6A00D109CE0A0319CF0A0319D00A0319D10AC5
:102D7A000130D2005208D4060030D8000030D70003
:102D8A000030D6000030D5004D084C044B044A04EC
:102D9A000319162FD301D30ACD1BE12E0130D2001D
:102DAA000310CA0DCB0DCC0DCD0DD20BD52E013093
:102DBA00D2005208D307D12E0130D2000310D50D0C
:102DCA00D60DD70DD80DD20BE32E4D085102031D97
:102DDA00F82E4C085002031DF82E4B084F02031D13
:102DEA00F82E4A084E02031C092F4A08CE024B0845
:102DFA00031C4B0FCF024C08031C4C0FD0024D088A
:102E0A00031C4D0FD102551401300310CD0CCC0C0C
:102E1A00CB0CCA0CFF3E031D0A2F0130D302031D3F
:102E2A00E12E54080319242FD509D609D709D80940
:102E3A00D50A0319D60A0319D70A0319D80A580852
:102E4A00CD005708CC005608CB005508CA00080028
:102E5A00831203133708BD003808BE003908BF00C3
:102E6A0003103E0D3F0DC0004008C100C108031DFC
:102E7A00452F0030B7000030B8000030B900080014
:102E8A003A08BD003B08BE003C08BF0003103E0DD7
:102E9A003F0DC0004008C600C608031D5B2F003066
:102EAA00B7000030B8000030B900080046087B3E81
:102EBA00BD003D08C1073708BD003808BE00390803
:102ECA00BF0010300310BF0CBE0CBD0CFF3E031D2B
:102EDA00672F3D08C0004008C6003A08BD003B08FD
:102EEA00BE003C08BF0010300310BF0CBE0CBD0C66
:102EFA00FF3E031D792F3D08C0004008C6068030FA
:102F0A00BD003D08C605B817BB17FF30BA05FF302C
:102F1A00BB050030BC050030C2000030C3000030E1
:102F2A00C4000730BD003D08C500371CAA2F3A0867
:102F3A00C2073B08031103183B0A031DC3073C08D9
:102F4A00031103183C0A031DC40701300310B90C0E
:102F5A00B80CB70CFF3E031DAB2F01300310BA0D9E
:102F6A00BB0DBC0DFF3E031DB32F0130C502031D6F
:102F7A009A2F0930BD003D08C500371CD22F3A08E8
:102F8A00C2073B08031103183B0A031DC3073C0889
:102F9A00031103183C0A031DC40701300310B90CBE
:102FAA00B80CB70CFF3E031DD32F01300310C40C1D
:102FBA00C30CC20CFF3E031DDB2F0130C502031DEB
:102FCA00C22F4208F0004308F1004408F200410809
:102FDA00BD003D08F3004608BE003E08F4000A168C
:102FEA008A113F25700883120313B7007108B800CD
:062FFA007208B900080096
:02400E0032FF7F
:00000001FF
