:060000000A128A11122809
:10000800FE00030E83120313E6000408E7000A0843
:10001800E8007F08E9000A128A15762E0A128A116A
:100028001528EB01EC018313C2308400DF300A1677
:100038008A11C9220A128A11831790308400B530B8
:100048000A168A11C9220A128A11831603130A167C
:100058008A11AF220A128A11DF000A168A11B02209
:100068000A128A11E0000A168A11B1220A128A11AC
:10007800E1000A168A11B2220A128A11E2008312DA
:1000880003130A128A1500200A128A11ED000A12B7
:100098008A150120EE0083010A128A15D629031356
:1000A800230883160313BF0083120313240883163F
:1000B8000313C00083120313250883160313C1001A
:1000C8000130AA070318AB0A0030AB072B08803AA7
:1000D800FF0080307F02031D732810302A02031CA2
:1000E800DF2F0030831603135402643003195302C0
:1000F800031C0C2A03305402EA3003195302031874
:100108000C2A3308803AFF0080307F02031D8E28B6
:10011800C930320203180C2A003083120313CC00B2
:100128004830CD004330CE000030C9008030CA00CE
:100138003F30CB000030C6000030C7000030C80098
:100148000030C3008030C400BF30C50083160313DD
:100158003308F901F9073208F801F8070A168A1175
:10016800E7230A128A11780883120313C00079085A
:10017800C1007A08C2000A128A1520250A128A11BB
:1001880083120313400883160313A000831203137A
:10019800410883160313A100831203134208831630
:1001A8000313A200C03083120313CC00C130CD006A
:1001B8004430CE000030C9004830CA004430CB007B
:1001C8000030C6004830C7004430C8000030C300C3
:1001D8004830C4004230C500831603135408F9019F
:1001E800F9075308F801F8070A168A11F8220A12C3
:1001F8008A11780883120313C0007908C1007A08AD
:10020800C2000A128A1520250A128A1183120313C2
:100218004008D2004108D3004208D4000030A300AF
:100228008030A4003F30A5008316031320088312F2
:100238000313A00083160313210883120313A100DC
:1002480083160313220883120313A2000A168A11C5
:10025800D1220A128A11831203132008A60021084A
:10026800A7002208A8000A128A1517240A128A1160
:10027800831203132308D5002408D6002508D700C5
:100288000A128A1544230A128A1183120313520888
:1002980083160313BC008312031353088316031336
:1002A800BD0083120313540883160313BE000030E5
:1002B800BF000030C0000030C100AC01AD012D0806
:1002C800803AFF0080307F02031D6C2910302C0219
:1002D80003180C2A831603133F0883120313C00064
:1002E80083160313400883120313C10083160313F4
:1002F800410883120313C2000030C3000030C40059
:100308004030C5000030C600A030C7004030C800EB
:100318000030C900A030CA004030CB000030CC000B
:100328002030CD004130CE000A128A1520250A124D
:100338008A1183120313400883160313C80083121B
:100348000313410883160313C900831203134208D9
:1003580083160313CA004808F0004908F1004A0848
:10036800F2003C08F3003D08F4003E08F5000A16C8
:100378008A1145250A128A11031CCA2983160313F8
:100388003C08C8003D08C9003E08CA000030831276
:100398000313A3008030A4003F30A5008316031385
:1003A8003F0883120313A600831603134008831221
:1003B8000313A70083160313410883120313A8002D
:1003C8000A128A1517240A128A11831203132308A2
:1003D80083160313BF008312031324088316031321
:1003E800C00083120313250883160313C1000130CC
:1003F800AC070318AD0A0030AD072D08803AFF009E
:1004080080307F02031D0A2A10302C02031C6E293B
:100418000030831603135402643003195302031C7B
:10042800652B03305402EA30031953020318652B75
:100438003308803AFF0080307F02031D252AC93027
:100448003202031C652B203083120313CC00FA30D0
:10045800CD004430CE000030C900FA30CA00443024
:10046800CB000030C600FA30C7004330C800003067
:10047800C3004830C4004330C50083160313330853
:10048800F901F9073208F801F8070A168A11E72373
:100498000A128A11780883120313C0007908C10070
:1004A8007A08C2000A128A1520250A128A118312B4
:1004B80003134008D2004108D3004208D400C030DA
:1004C800CC00C130CD004430CE000030C9004830E7
:1004D800CA004430CB000030C6004830C700443062
:1004E800C8000030C3004830C4004230C50083163D
:1004F80003135408F901F9075308F801F8070A1615
:100508008A11F8220A128A11780883120313C0008C
:100518007908C1007A08C2000A128A1520250A1231
:100528008A11831203134008D5004108D6004208F7
:10053800D7000A128A1544230A128A118312031358
:10054800520883160313BC0083120313530883163F
:100558000313BD0083120313540883160313BE004C
:100568000030BF000030C0000030C100AE01AF0154
:100578002F08803AFF0080307F02031DC52A103003
:100588002E020318652B831603133F0883120313E7
:10059800C00083160313400883120313C100831697
:1005A8000313410883120313C2000030C300003054
:1005B800C4004030C5000030C600A030C70040303D
:1005C800C8000030C900A030CA004030CB0000305D
:1005D800CC002030CD004130CE000A128A152025EB
:1005E8000A128A1183120313400883160313C500E5
:1005F80083120313410883160313C60083120313DF
:10060800420883160313C7004508F0004608F100A6
:100618004708F2003C08F3003D08F4003E08F500E6
:100628000A168A1145250A128A11031C232B8316E0
:1006380003133C08C5003D08C6003E08C70000304B
:1006480083120313A3008030A4003F30A500831653
:1006580003133F0883120313A600831603134008ED
:1006680083120313A700831603134108831203138D
:10067800A8000A128A1517240A128A118312031372
:10068800230883160313BF00831203132408831659
:100698000313C00083120313250883160313C10034
:1006A8000130AE070318AF0A0030AF072F08803AB1
:1006B800FF0080307F02031D632B10302E02031CC5
:1006C800C72A0330831603135402E930031953026F
:1006D800031C612C5408F901F9075308F801F807BD
:1006E8000A168A11F8220A128A117808831203134B
:1006F800C0007908C1007A08C2004030C3007A30CF
:10070800C4004430C5008030C600BB30C700443048
:10071800C8000030C900FA30CA004430CB0020308D
:10072800CC00FA30CD004430CE000A128A152025BC
:100738000A128A1183120313400883160313BC009C
:1007480083120313410883160313BD008312031396
:10075800420883160313BE000030BF000030C000FB
:100768000030C100B001B1013108803AFF0080308B
:100778007F02031DC12B103030020318612C831631
:1007880003133F0883120313C000831603134008A2
:1007980083120313C1008316031341088312031342
:1007A800C2000030C300A030C4004030C500003093
:1007B800C6002030C7004130C8000030C900703082
:1007C800CA004130CB000030CC008030CD00413031
:1007D800CE000A128A1520250A128A1183120313E1
:1007E800400883160313C2008312031341088316BB
:1007F8000313C30083120313420883160313C400B0
:100808004208F0004308F1004408F2003C08F300F5
:100818003D08F4003E08F5000A168A1145250A121B
:100828008A11031C1F2C831603133C08C2003D08C1
:10083800C3003E08C400003083120313A3008030B5
:10084800A4003F30A500831603133F088312031347
:10085800A60083160313400883120313A700831608
:100868000313410883120313A8000A128A151724D8
:100878000A128A1183120313230883160313BF0075
:1008880083120313240883160313C000831203136F
:10089800250883160313C1000130B0070318B10AF5
:1008A8000030B1073108803AFF0080307F02031D15
:1008B8005F2C10303002031CC32B00308316031347
:1008C800BF000030C0000030C1000030B700003069
:1008D800B8000030B9000030B4000030B500003076
:1008E800B600BA01BB013B08803AFF0080307F02A6
:1008F800031D802C10303A020318C02E83160313F0
:10090800BB1B242D3B08803AFF0080307F02031D6B
:100918008F2C06303A020318242D83160313480837
:1009280083120313A30083160313490883120313C6
:10093800A400831603134A0883120313A500831621
:100948000313370883120313A6008316031338080A
:1009580083120313A70083160313390883120313A2
:10096800A8000A128A1517240A128A11831203137F
:10097800230883160313B70083120313240883166E
:100988000313B80083120313250883160313B90051
:100998003F0883120313D5008316031340088312FC
:1009A8000313D60083160313410883120313D700D9
:1009B80083160313480883120313D2008316031304
:1009C800490883120313D300831603134A088312BA
:1009D8000313D4000A128A1544230A128A118312B7
:1009E80003135208A3005308A4005408A500831653
:1009F8000313340883120313A60083160313350860
:100A080083120313A70083160313360883120313F4
:100A1800A8000A128A1517240A128A1183120313CE
:100A2800230883160313B4008312031324088316C0
:100A38000313B50083120313250883160313B600A6
:100A4800831603133B08803AFF0080307F02031DA2
:100A58002F2D05303A02031CD12D831603133B08B2
:100A6800803AFF0080307F02031D3C2D0B303A0294
:100A78000318D12D83160313450883120313A3000B
:100A880083160313460883120313A4008316031363
:100A9800470883120313A50083160313370883122C
:100AA8000313A60083160313380883120313A70041
:100AB80083160313390883120313A8000A128A1530
:100AC80017240A128A1183120313230883160313A7
:100AD800B70083120313240883160313B800831284
:100AE8000313250883160313B9003F088312031361
:100AF800D50083160313400883120313D600831608
:100B08000313410883120313D70083160313450800
:100B180083120313D20083160313460883120313A8
:100B2800D30083160313470883120313D4000A1251
:100B38008A1544230A128A11831203135208A30048
:100B48005308A4005408A50083160313340883121D
:100B58000313A60083160313350883120313A70093
:100B680083160313360883120313A8000A128A1582
:100B780017240A128A1183120313230883160313F6
:100B8800B40083120313240883160313B5008312D9
:100B98000313250883160313B600831603133B08B3
:100BA800803AFF0080307F02031DDC2D0A303A02B4
:100BB800031C7E2E831603133B08803AFF00803007
:100BC8007F02031DE92D10303A0203187E2E83168A
:100BD8000313420883120313A30083160313430865
:100BE80083120313A4008316031344088312031308
:100BF800A50083160313370883120313A600831670
:100C08000313380883120313A70083160313390844
:100C180083120313A8000A128A1517240A128A11CC
:100C280083120313230883160313B70083120313D5
:100C3800240883160313B8008312031325088316A8
:100C48000313B9003F0883120313D5008316031357
:100C5800400883120313D600831603134108831236
:100C68000313D70083160313420883120313D20019
:100C780083160313430883120313D3008316031345
:100C8800440883120313D4000A128A1544230A1253
:100C98008A11831203135208A3005308A4005408AE
:100CA800A50083160313340883120313A6008316C2
:100CB8000313350883120313A7008316031336089A
:100CC80083120313A8000A128A1517240A128A111C
:100CD80083120313230883160313B4008312031328
:100CE800240883160313B5008312031325088316FB
:100CF8000313B600003083120313A3008030A4004E
:100D08003F30A500831603133F0883120313A60080
:100D180083160313400883120313A70083160313D3
:100D2800410883120313A8000A128A1517240A120D
:100D38008A1183120313230883160313BF00831237
:100D48000313240883160313C00083120313250812
:100D580083160313C1000130BA070318BB0A003019
:100D6800BB073B08803AFF0080307F02031DBE2E80
:100D780010303A02031C822C003083160313A5009E
:100D88000030A6000030A7003908380437040319DA
:100D9800062F370883120313B0008316031338088D
:100DA80083120313B1008316031339088312031344
:100DB800B20083160313340883120313B300831697
:100DC8000313350883120313B4008316031336087C
:100DD80083120313B5000A128A158C220A128A118B
:100DE80083120313300883160313A5008312031319
:100DF800310883160313A6008312031332088316DF
:100E08000313A7005A085802031D0C2F590857024C
:100E1800031C122FFF30A800FF30152F0130A80047
:100E28000030A900290883120313BD01BD078316EA
:100E38000313280883120313BC01BC07831603138A
:100E48005408F901F9075308F801F8070A168A1136
:100E5800F8220A128A11780883120313A30079086A
:100E6800A4007A08A5008316031325088312031328
:100E7800A00083160313260883120313A100831608
:100E88000313270883120313A2000A128A11E22708
:100E98000A128A11831203132008AC002108AD003E
:100EA8002208AE000A168A1172270A128A118312C2
:100EB80003132D08BB01BB072C08BA01BA070A1691
:100EC8008A116E240A128A11831603136108831289
:100ED80003133A0783160313A30062080318620A70
:100EE800831203133B0783160313A40000308312F5
:100EF8000313A9000030AA000030AB00C030A300E3
:100F08007F30A4004430A500831603132408F90198
:100F1800F9072308F801F8070A168A11F8220A12B5
:100F28008A11780883120313A0007908A1007A08AF
:100F3800A2000A128A11E2270A128A1183120313E5
:100F48002008A6002108A7002208A8000A168A116E
:100F580089230A128A11831203132608AC00270872
:100F6800AD002808AE000A168A1172270A128A11E3
:100F7800831203132D0883160313E201E207831279
:100F880003132C0883160313E101E10762086104C7
:100F980003190800043062020030031961020318C3
:100FA80008006208F101F1076108F001F0070A166C
:100FB8008A11522308000A128A155629831203132C
:100FC8002008F0002108F1002208F2002308F300AD
:100FD8002408F4002508F5000A168A1145250A1286
:100FE8008A11031C0800831203132308A000240895
:100FF800A1002508A20008004E344E34F11F080055
:101008007009F2007109F300F20A0319F30A720871
:10101800F0007308F100080083160317BF01B81F1A
:101028002228B509B609B709B809B50A0319B60AD5
:101038000319B70A0319B80ABF01BF0ABC1F33282E
:10104800B909BA09BB09BC09B90A0319BA0A0319CB
:10105800BB0A0319BC0A0130BD003D08BF060030B9
:10106800C3000030C2000030C1000030C0003808A2
:1010780037043604350403198828BE01BE0AB81B94
:1010880053280130BD000310B50DB60DB70DB80DCE
:10109800BD0B47280130BD003D08BE07432801307D
:1010A800BD000310C00DC10DC20DC30DBD0B5528E9
:1010B80038083C02031D6A2837083B02031D6A28CA
:1010C80036083A02031D6A2835083902031C7B28B2
:1010D8003508B9023608031C360FBA023708031C54
:1010E800370FBB023808031C380FBC02401401300C
:1010F8000310B80CB70CB60CB50CFF3E031D7C28CA
:101108000130BE02031D53283F0803199628C00961
:10111800C109C209C309C00A0319C10A0319C20ACD
:101128000319C30A4308B8004208B7004108B600CB
:101138004008B5000800003083120313A300FA30FA
:10114800A4004430A5008316031357098312031320
:10115800E20083160313580983120313E300E20A1B
:101168000319E30A8316031359088312031362074A
:10117800F000831603135A0803185A0A831203133C
:101188006307F1000A128A1502200A128A157108EB
:10119800F901F9077008F801F8070A168A11E72318
:1011A8000A128A15780883120313A0007908A1008F
:1011B8007A08A2000A128A11E2270A128A158312F3
:1011C80003132008AC002108AD002208AE000A165F
:1011D8008A1172270A128A15831203132D0883169F
:1011E8000313D401D407831203132C0883160313A3
:1011F800D301D307003083120313A9008030AA005B
:101208003F30AB000030A3007A30A4004430A50082
:10121800831603134D0983120313E2008316031385
:101228004E0983120313E300E20A0319E30A831643
:1012380003135308831203136207F0008316031382
:1012480054080318540A831203136307F1000A129F
:101258008A15022071080A168A11EC2E0313400819
:1012680083160313BC008312031341088316031368
:10127800BD0083120313420883160313BE00003017
:10128800BF000030C0000030C100AA01AB012B082C
:10129800803AFF0080307F02031D542910302A0253
:1012A8000318D329831603133F0883120313C000BE
:1012B80083160313400883120313C1008316031314
:1012C800410883120313C2000030C3008030C400F9
:1012D800BF30C5000030C6000030C7000030C8006D
:1012E8000030C9000030CA000030CB000030CC000C
:1012F800A030CD004030CE000A128A1520250A12EF
:101308008A1583120313400883160313C800831237
:101318000313410883160313C900831203134208F9
:1013280083160313CA004808F0004908F1004A0868
:10133800F2003C08F3003D08F4003E08F5000A16E8
:101348008A1145250A128A15031CB229831603132C
:101358003C08C8003D08C9003E08CA000030831296
:101368000313A3008030A4003F30A50083160313A5
:101378003F0883120313A600831603134008831241
:101388000313A70083160313410883120313A8004D
:101398000A128A15172483120A128A1153280A126C
:1013A8008A117528013083160313850001308312D2
:1013B8000313850083160313860183120313860122
:1013C8008130831603138700C0308312031387000C
:1013D80083160313880183120313880183160313EA
:1013E8008901831203138901033090008E018F0154
:1013F800003083160317C7000130C600C230C5008D
:101408000030C4000A168A11FA240A128A150A162C
:101418008A11DB220A128A150A168A11E6220A1292
:101428008A150A168A114A240A128A150A168A1176
:101438000A260A128A150B178B170A168A110A260A
:101448000A128A1583160317B50100300A168A1185
:10145800A7230A128A1529300A168A11C7230A12E5
:101468008A15003083160317B5000030B6000A1637
:101478008A1108240A128A15003083160317B5004A
:101488000030B6000A168A1129240A128A15EE308D
:101498000A168A11C1220A128A15183083160317F0
:1014A800CE006130CD006E30CC00CC0B592ACD0B6C
:1014B800592ACE0B592A00000A168A1193240A12B7
:1014C8008A1583160317B50100300A168A11A72357
:1014D8000A128A1544300A168A11C7230A128A1575
:1014E80083160317B50101300A168A11A7230A12B9
:1014F8008A15053083160317CE00AD30CD00E030D5
:10150800CC00CC0B852ACD0B852ACE0B852A602AE8
:10151800831203133308B6003408B7003508B8003F
:101528000310370D380DB9003908BE00BE08031D79
:10153800A42A0030B0000030B1000030B20008002A
:101548003008B6003108B7003208B8000310370D6C
:10155800380DB9003908BF00BF08031DBA2A00308A
:10156800B0000030B1000030B20008000030BB000D
:101578000030BC000030BD0089303F07B600360897
:10158800BE023308B6003408B7003508B80010307A
:101598000310B80CB70CB60CFF3E031DCC2A360856
:1015A800B9003908BF003008B6003108B700320862
:1015B800B80010300310B80CB70CB60CFF3E031D72
:1015C800DE2A3608B9003908BF068030B60036086A
:1015D800BF05B417FF30B305FF30B4050030B505BB
:1015E800B117FF30B005FF30B1050030B205183033
:1015F800B6003608BA0001300310BB0DBC0DBD0D96
:10160800FF3E031D002B32083502031D112B310844
:101618003402031D112B30083302031C1E2B300823
:10162800B3023108031C310FB4023208031C320A1A
:10163800B5023B1401300310B30DB40DB50DFF3ED8
:10164800031D1F2B0130BA02031DFF2A3B08F000BF
:101658003C08F1003D08F2003E08B6003608F300E9
:101668003F08B7003708F4000A168A11A225700847
:1016780083120313B0007108B1007208B2000800A9
:10168800831203135208D8005308D9005408DA000B
:101698000310590D5A0DDB005B08DC00DC08031D44
:1016A8005C2B0030D2000030D3000030D40008009A
:1016B8005508D8005608D9005708DA000310590D04
:1016C8005A0DDB005B08E100E108031D722B0030B6
:1016D800D2000030D3000030D400080061087B3EFF
:1016E800D8005808DC075208D8005308D900540815
:1016F800DA0010300310DA0CD90CD80CFF3E031DA9
:101708007E2B5808DB005B08E1005508D800560816
:10171800D9005708DA0010300310DA0CD90CD80CAD
:10172800FF3E031D902B5808DB005B08E106803064
:10173800D8005808E105D317D617FF30D505FF3074
:10174800D6050030D7050030DD000030DE0000305F
:10175800DF000730D8005808E000521CC12B55089C
:10176800DD07560803110318560A031DDE0757083C
:1017780003110318570A031DDF0701300310D40CA7
:10178800D30CD20CFF3E031DC22B01300310D50D24
:10179800D60DD70DFF3E031DCA2B0130E002031DF5
:1017A800B12B0930D8005808E000521CE92B550825
:1017B800DD07560803110318560A031DDE075708EC
:1017C80003110318570A031DDF0701300310D40C57
:1017D800D30CD20CFF3E031DEA2B01300310DF0CA3
:1017E800DE0CDD0CFF3E031DF22B0130E002031D71
:1017F800D92B5D08F0005E08F1005F08F2005C0874
:10180800D8005808F3006108D9005908F4000A16EE
:101818008A11A225700883120313D2007108D3001D
:101828007208D4000800831203132308A9002408AF
:10183800AA002508AB0003102A0D2B0DAC002C08BC
:10184800AF002608A9002708AA002808AB00031043
:101858002A0D2B0DAC002C08AE002F080319402CC4
:101868002E082F020318472C2F03FF3A2E07A90032
:1018780019302902031C472C2608A3002708A400B6
:101888002808A50008002E08031908002F082E02B2
:101898000318562C2E03FF3A2F07A90019302902E6
:1018A800031808000630A9002908AD00A51BAD17CC
:1018B800A81B2D17A417FF30A305FF30A40500307F
:1018C800A505A717FF30A605FF30A7050030A80516
:1018D8002E082F020318962C01300310A60DA70D11
:1018E800A80DFF3E031D712C0130AE022E082F06F5
:1018F8000319912C0130AD022D0807390319912CD9
:10190800702C01300310A50CA40CA30CFF3E031D82
:10191800862C0130A9002908AF072F082E060319C5
:10192800BF2C852C2F082E020318BF2C0130031062
:10193800A30DA40DA50DFF3E031D9B2C0130AF0286
:101948002E082F060319BB2C0130AD022D080739CC
:101958000319BB2C9A2C01300310A80CA70CA60C59
:10196800FF3E031DB02C0130A9002908AE072F083F
:101978002E06031DAF2CAD1FD12CFF30A306FF3060
:10198800A406FF30A5060130A30700300318013074
:10199800A407003003180130A5072D1FE32CFF30E2
:1019A800A606FF30A706FF30A8060130A6070030BC
:1019B80003180130A707003003180130A807AD014C
:1019C8002308A607240803110318240A031DA707E0
:1019D800250803110318250A031DA807A81F062DAB
:1019E800FF30A606FF30A706FF30A8060130A6077D
:1019F800003003180130A707003003180130A8078A
:101A0800AD01AD0A2608F0002708F1002808F20009
:101A18002F08A9002908F3002D08AA002A08F400B5
:101A28000A168A11A225700883120313A3007108ED
:101A3800A4007208A5000800003083120313CF0029
:101A48000030D0000030D1004308F0004408F10015
:101A58004508F2004008F3004108F4004208F50088
:101A68000A168A1145250A128A150318652E83124B
:101A780003134308F0004408F1004508F200400849
:101A8800F3004108F4004208F5000A168A114525BA
:101A98000A128A150318992D831203134608F000B9
:101AA8004708F1004808F2004008F3004108F40034
:101AB8004208F5000A168A1145250A128A15031CE0
:101AC800992D831203134608A3004708A400480869
:101AD800A5004308A0004408A1004508A2000A1672
:101AE8008A11D1220A128A15831203132008A6002C
:101AF8002108A7002208A8000A128A1517240A122A
:101B08008A15831203132308B0002408B10025089E
:101B1800B2004008A3004108A4004208A5004308F9
:101B2800A0004408A1004508282E8312031340088A
:101B3800F0004108F1004208F2004608F3004708A7
:101B4800F4004808F5000A168A1145250A128A1574
:101B5800031CCB2D831203134908F0004A08F10037
:101B68004B08F2004008F3004108F4004208F50071
:101B78000A168A1145250A128A15031CCB2D003036
:101B880083120313CF008030D0003F306C2E8312B5
:101B980003134908F0004A08F1004B08F200400816
:101BA800F3004108F4004208F5000A168A11452599
:101BB8000A128A150318502E831203134C08F000DA
:101BC8004D08F1004E08F2004008F3004108F40007
:101BD8004208F5000A168A1145250A128A15031CBF
:101BE800502E831203134C08A3004D08A4004E087E
:101BF800A5004908A0004A08A1004B08A2000A163F
:101C08008A11D1220A128A15831203132008A6000A
:101C18002108A7002208A8000A128A1517240A1208
:101C28008A15831203132308B0002408B10025087D
:101C3800B2004C08A3004D08A4004E08A5004008B7
:101C4800A0004108A1004208A2000A168A11D12268
:101C58000A128A15831203132008A6002108A70078
:101C68002208A8000A128A1517240A128A15831254
:101C780003132308B3002408B4002508B5000A128A
:101C88008A158C220A128A15831203133008CF0092
:101C98003108D00032086C2E831203134C08F00070
:101CA8004D08F1004E08F2004008F3004108F40026
:101CB8004208F5000A168A1145250A128A150318E2
:101CC8006D2E003083120313CF000030D000003097
:101CD800D100831203134F08C0005008C1005108F7
:101CE800C20008008C1E8C2F0A168A113A230A1289
:101CF8008A1583120313E4006408EA006A08233A89
:101D0800031D8E2EEB01EC015330E4006408EE0055
:101D18000614982E6E08533A031D982E0130EB07CF
:101D28000318EC0A0030EC076A08E4006B089D3ED3
:101D3800840064088317800000306C0206300319A1
:101D48006B02031CE62E6E08533A031DE62EEB01C8
:101D5800EC01831603171D08233A031DE62E1E08FF
:101D6800243A031DE62E1F083A3A031DE62E831671
:101D78000313CD01CE01D301D40183120313061539
:101D880083160317200883120313E400E50164088F
:101D9800E500E4018316031721088312031364077F
:101DA80083160313D900003003180130831203137C
:101DB800650783160313DA005A08D401D4075908B3
:101DC800D301D3070A168A113A230A128A15303A20
:101DD800031D0A2F831203136E084E3A031D0A2FA0
:101DE8003A300A168A116D230A128A150030F0005B
:101DF8000030F1000A168A1152230A128A154E3051
:101E080083120313E4006408ED00F52F0A168A1103
:101E18003A230A128A15533A03194F2F83120313D0
:101E28006D08533A031D1C2F6E084E3A03194F2FA5
:101E38000A168A113A230A128A15523A031D3D2FAF
:101E4800831203136D08533A031D3D2F6E084E3A53
:101E5800031D3D2F963083160313D9070318DA0A9A
:101E68000030DA075A08D201D2075908D101D10740
:101E7800632F0A168A113A230A128A15523A031D49
:101E8800632F831203136D084E3A031D632F6E08E8
:101E98004E3A031D632F831603134E08DA01DA073F
:101EA8004D08D901D9075A08D201D2075908D101DA
:101EB800D107533083120313E4006408ED00831242
:101EC80003136E084E3A031D762F0A128A159F20B7
:101ED8000A128A15831603135A08CE01CE07590829
:101EE800CD01CD070A168A113A230A128A15583AE3
:101EF800031D892F831203136E084E3A031D892F81
:101F08000A168A1177260A128A15831203138C126D
:101F18000C1B0C130B1DF12FEE300A168A11B3227D
:101F28000A128A150130831603135002F33003197D
:101F38004F020318A92F0130CF070318D00A003029
:101F4800D007831203130617F02F83160313CF014C
:101F5800D001831203130F0883160313D601D60783
:101F6800831203130E0883160313D501D5076008DF
:101F7800F101F1075F08F001F0075608F301F307D4
:101F88005508F201F2070A168A11BC240A128A15AA
:101F9800710883120313BB01BB077008BA01BA07A3
:101FA8007830BC000030BD000A168A116E240A126F
:101FB8008A15831203133B0883160313D801D80725
:101FC800831203133A0883160313D701D707831222
:101FD80003138E018F0106130B110C180C108C19AA
:101FE8008C116908FF0068088A0067088400660E7B
:101FF8008300FE0E7E0E090010308A000408840A51
:10200800820700340A340D3420342D342D342D3415
:102018002D342D342D342D34203445345334543458
:102028004F34553452344F342034443445342034FA
:10203800503449344C344834413420342D342D3410
:102048002D342D342D342D342D3420340A340D34D0
:102058002034003449346E3469346334693461346B
:102068006C3469347A3461346E3464346F342E34A9
:102078002E342E3400340A340D3466347234653408
:1020880069346F340A340D3400346B346D34483499
:062098003A34203400344C
:10255E000734003401340034F00070088312031382
:10256E0081000800F000831203130C1EBA2A7008B3
:10257E009900080083160317B5003508831203135C
:10258E008100080064008001840A040603190034E7
:10259E000406CA2A831203132208210420040319F5
:1025AE0008008030A2060800831603138112011260
:1025BE0081110115811401140B118B16080083165D
:1025CE0003139F179F151F159F141F1083120313BC
:1025DE009F171F13831603130C13831203130C136D
:1025EE0008007808F0007908F100F2018E30FB0047
:1025FE007B08F300F4010A168A11A2257008F80070
:10260E007108F9007208FA00080083160317B60065
:10261E00831203130910831603173608831203134C
:10262E00880089143D3083160317B500B50B1D2B9A
:10263E00831203138910080083160317B600831242
:10264E000313091483160317360883120313880025
:10265E0089143D3083160317B500B50B342B831246
:10266E00031389100800831203139818432B1A08BA
:10267E00F3007308F4004F2B01300A168A116D23F4
:10268E008312031318121A08F3007308F4001816B5
:10269E008C12740808007108F3007008F200730DB4
:1026AE00F30CF20C730DF30CF20C7208831203137D
:1026BE009B007008F20003300310F20DFF3E031D65
:1026CE00632B0310720D0C389D000800F200720887
:1026DE0084000A168A1100200A168A11003803197E
:1026EE000800720884000A168A1100200A168A1140
:1026FE000A168A11B9220A168A110130F1007108E0
:10270E00F2076E2B831203132908F0002A08F1003A
:10271E002B08F2002608F3002708F4002808F5001D
:10272E000A168A1145250A168A11031C08008312FF
:10273E0003132908A6002A08A7002B08A8000800E2
:10274E0083160317B700831203130910831603179A
:10275E00B708031DB52B3508803EB92B831603171A
:10276E003508C03E83120313880089143D3083164A
:10277E000317B600B60BC12B831203138910080082
:10278E0083160317B800380884000A168A11002031
:10279E000A168A11003803190800380884000A1630
:1027AE008A1100200A168A110A168A1123230A1684
:1027BE008A11013083160317B7003708B807CA2BE2
:1027CE00FD01F91FF12BF809F909F80A0319F90AA5
:1027DE00FD01FD0A7808F0007908F100F2018E3053
:1027EE00FB007B08F3007D08FC007C08F4000A1651
:1027FE008A11A2257008F8007108F9007208FA0013
:10280E000800831603173608B8003508B700380DD0
:10281E00B80CB70C380DB80CB70C3708831203136D
:10282E009500831603173508B70003300310B70D54
:10283E00FF3E031D1D2C0310370D0C38831203139E
:10284E0097000800831603173608B8003508B7003E
:10285E00380DB80CB70C380DB80CB70C37088312FE
:10286E0003139B00831603173508B70003300310BC
:10287E00B70DFF3E031D3E2C0310370D0C3883128F
:10288E0003139D00080083120313921412101213E7
:10289E009212121292111215FF3083160313920028
:1028AE008312031397151715971417148316031312
:1028BE000C15831203130C119D151D159D141D145B
:1028CE00831603130D14831203130D1008008312C5
:1028DE000313BE01BF013A1C7A2C3C08BE07031835
:1028EE00BF0A3D08BF0701300310BC0DBD0DFF3EF2
:1028FE00031D7B2C01300310BB0CBA0CFF3E031DD5
:10290E00822C3B083A04031D722C3F08BB01BB0707
:10291E003E08BA01BA07080001300A168A110C23C4
:10292E000A168A110C3083160317B800F730B70059
:10293E00B70B9F2CB80B9F2C0C300A168A110C2348
:10294E000A168A113D3083160317B700B70BAD2C4C
:10295E0006300A168A110C230A168A113D30831688
:10296E000317B700B70BB92C0800F501F601710873
:10297E0070040319F32CF701F70AF11BD22C013066
:10298E000310F00DF10DFF3E031DC72C0130F400B6
:10299E007408F707C42C01300310F50DF60DFF3E39
:1029AE00031DD32C71087302031DDF2C70087202F5
:1029BE00031CE82C7008F2027108031CF303F302E7
:1029CE00751401300310F10CF00CFF3E031DE92CC1
:1029DE000130F702031DD22C7608F101F1077508BC
:1029EE00F001F0070800831603174408C8004508D5
:1029FE00C9004608CA004708CB0004300310C80DB2
:102A0E00C90DCA0DCB0DFF3E031D052D4B08B80099
:102A1E004A08B7004908B6004808B5000130BC00A6
:102A2E001930BB004030BA000030B9000A128A15C6
:102A3E001020831603173508FF3E831603139900E3
:102A4E009813181398161812181598141810831234
:102A5E000313981718139812181698111811981026
:102A6E001810831603130C12831203130C12831601
:102A7E0003138C16831203138C120800F21F6C2D95
:102A8E000030F6000030F7008030F8007009F900D1
:102A9E007109FA007209FB00F90A0319FA0A0319FF
:102AAE00FB0A7908F6077A0803187A0F5F2D602D56
:102ABE00F7077B0803187B0F652D662DF807760840
:102ACE00F0007708F1007808F200F51F932D003022
:102ADE00F6000030F7008030F8007309F900740931
:102AEE00FA007509FB00F90A0319FA0A0319FB0A21
:102AFE007908F6077A0803187A0F862D872DF707BF
:102B0E007B0803187B0F8C2D8D2DF8077608F300AC
:102B1E007708F4007808F5008030F2068030F5066C
:102B2E0075087202031D080074087102031D080067
:102B3E0073087002080073080319AA2D7208710435
:102B4E007004031DBD2D0030F0000030F100003088
:102B5E00F20008000130F5007508F307013003108C
:102B6E00F20CF10CF00CFF3E031DB62DFE3072057B
:102B7E000319D82DB12D0130F5007508F30701307A
:102B8E00F007003003180130F10700300318013050
:102B9E00F20701300310F20CF10CF00CFF3E031D96
:102BAE00D12DFF3072050319E72DC22D0130F3022E
:102BBE0001300310F00DF10DF20DFF3E031DE02D5F
:102BCE00F11FDD2D7318F12DFF30F0057F30F1056B
:102BDE00FF30F2050310F30C7308F500F601F70150
:102BEE0010300310F50DF60DF70DFF3E031DF82DF9
:102BFE007508F0047608F1047708F20474080319D6
:102C0E000800F2170800831603139F111F159F105B
:102C1E001F105A3083160317B800C330B700B70B16
:102C2E00162EB80B162E30300A168A110C230A16E1
:102C3E008A11183083160317B800EF30B700B70BA0
:102C4E00262EB80B262E30300A168A110C230A16A1
:102C5E008A11993083160317B700B70B342E303014
:102C6E000A168A110C230A168A113D308316031791
:102C7E00B700B70B402E38300A168A110C230A16ED
:102C8E008A113D3083160317B700B70B4C2E013057
:102C9E000A168A110C230A168A110C308316031792
:102CAE00B800F730B700B70B5A2EB80B5A2E0C30AF
:102CBE000A168A110C230A168A113D308316031741
:102CCE00B700B70B682E06300A168A110C230A16A7
:102CDE008A113D3083160317B700B70B742E080008
:102CEE002330F10071088316031790002430F10091
:102CFE00710891003A30F1007108920083160313A7
:102D0E005808F100710883160317930083160313F6
:102D1E005708F10071088316031794005630F1001E
:102D2E0071089500831603135A08F1007108831673
:102D3E0003179600831603135908F10071088316C2
:102D4E00031797005330F100710898008316031390
:102D5E005408F100710883160317990083160313A4
:102D6E005308F1007108831603179A005330F100CF
:102D7E0071089B00F201F3010C3073020318E12E6F
:102D8E007308903E8400831700080A168A11B92230
:102D9E000A168A117308903E840083170008F1000A
:102DAE007108F2060130F1007108F3070C3073025E
:102DBE00031CC72E7208F1007108831603179C00BE
:102DCE001C080A168A11B9220800F901F9077008C1
:102DDE00F801F8070A168A11E7230A168A117808ED
:102DEE0083120313A0007908A1007A08A2000A1228
:102DFE008A11E2270A168A11831203132008A600ED
:102E0E002108A7002208A8000A168A1189230A168B
:102E1E008A11831203132608AC002708AD00280878
:102E2E00AE000A168A1172270A168A11831203132C
:102E3E002D0883160313B301B307831203132C0853
:102E4E0083160313B201B2070030BF000030C0007A
:102E5E000030C1000030BC000030BD000030BE00AC
:102E6E00003054026530031953020A128A110318F6
:102E7E0075285408F901F9075308F801F8070A16DE
:102E8E008A11F8220A168A11780883120313C000D9
:102E9E007908C1007A08C2000030C3008030C40037
:102EAE00BF30C5000030C6000030C7000030C8007B
:102EBE000030C9008030CA003F30CB000030CC005B
:102ECE00C830CD004230CE000A128A15202583125A
:102EDE000A128A153229831203132C08B0002D080A
:102EEE00B1002E08B2000310310D320DB3003308BD
:102EFE00B900B908031D8C2F0030AF000030AE00B2
:102F0E000030AD000030AC0008002C08B0002D08D9
:102F1E00B1002E08B20017300310B20CB10CB00C79
:102F2E00FF3E031D932F3008B3003308B400AD17D6
:102F3E00FF30AC05FF30AD050030AE052C08B500F6
:102F4E002D08B6002E08B700B8018E30B902B91F91
:102F5E00CE2F3908803A8F3E0318BE2F0030AF00B7
:102F6E000030AE000030AD000030AC000800013083
:102F7E000310B80CB70CB60CB50CFF3E031DBF2FDB
:102F8E000130B0003008B9070319E92FBE2F1830F1
:102F9E003902031CE62F0030AF000030AE000030C7
:102FAE00AD000030AC0008000130B0000310B50DCC
:102FBE00B60DB70DB80DB00BDD2F0130B902B90843
:102FCE00031DDB2F34080319F72FB509B609B7090E
:102FDE00B809B50A0319B60A0319B70A0319B80ACC
:102FEE003808AF003708AE003608AD003508AC0023
:022FFE000800C9
:02400E0032FF7F
:00000001FF
