:060000000A128A11122809
:10000800FE00030E83120313C9000408CA000A087D
:10001800CB007F08CC000A128A1142280A128A11E2
:1000280015288313203084003C300A128A1188274F
:100038000A128A11A0308400C9300A128A1188274E
:100048000A128A11DD30FD000730FE00AB30FF00D8
:10005800DA3084000A128A1152270A128A115D3096
:10006800FD000730FE009830FF00563084000A1269
:100078008A11522783010A128A116E298C1EF728C9
:100088000A128A110E270A128A11303A031D5C28B7
:100098003A300A128A11A1260A128A110030F00099
:1000A8000030F1000A128A11F3260A128A11612916
:1000B8000A128A110E270A128A11313A031D6A2878
:1000C800D03083120313B8000230B9000A128A1123
:1000D8000E270A128A11323A031D7828AA30831291
:1000E8000313B8000530B9000A128A110E270A1244
:1000F8008A11333A031D86280C3083120313B80083
:100108000B30B9000A128A110E270A128A11343AE2
:10011800031D9428B83083120313B8000C30B900BB
:100128000A128A110E270A128A11353A031DA228CB
:100138009E3083120313B8001130B9000A128A11D5
:100148000E270A128A11363A031DB028803083120E
:100158000313B8001630B9000A128A110E270A12C2
:100168008A11373A031DBE28EA3083120313B800F8
:100178001A30B9000A128A110E270A128A11383A5F
:10018800031DCC28A43083120313B8001F30B90014
:100198000A128A110E270A128A11393A031DDA281F
:1001A800283083120313B8002330B9000A128A11C9
:1001B800B9240A128A11831203133908AF01AF0751
:1001C8003808AE01AE070A128A110E270A128A11E0
:1001D800583A031DF4280A128A1147220A128A1172
:1001E800831203138C120C1B0C130B1D5D29EE30AC
:1001F8000A128A11A5270A128A11013083120313E1
:100208003102F33003193002031812290130B00704
:100218000318B10A0030B10706175C29B001B10113
:100228000F08B501B5070E08B401B4075A08F10163
:10023800F1075908F001F0073508F301F30734080E
:10024800F201F2070A128A11CE250A128A117108E0
:10025800F901F9077008F801F8077830FA0000305A
:10026800FB000A128A117E260A128A117908831263
:100278000313B701B7077808B601B6072830F000AE
:100288000030F1003708F301F3073608F201F207EE
:100298000A128A11CE250A128A11710883120313D1
:1002A800B701B7077008B601B6078E018F010613AC
:1002B8000B110C180C108C198C11831203134C0899
:1002C800FF004B088A004A088400490E8300FE0E8E
:1002D8007E0E090001308316031385000130831256
:1002E8000313850083160313860183120313860103
:1002F8008130831603138700C030831203138700ED
:1003080083160313880183120313880183160313CA
:100318008901831203138901033090008E018F0134
:10032800003083160313D2000130D100C230D00050
:100338000030CF000A128A1175250A128A110A1292
:100348008A117D270A128A110A128A113C270A1279
:100358008A110A128A115A260A128A110A128A1155
:100368004C240A128A110B178B170A128A114C2473
:100378000A128A1183120313CD0100300A128A115E
:1003880026270A128A11293083120313CF008030DE
:10039800D0000A128A1135260A128A1100308312F7
:1003A8000313CD000030CE000A128A11D8260A1293
:1003B8008A11003083120313CD000030CE000A12D8
:1003C8008A11BD260A128A11EE300A128A119F2755
:1003D8000A128A11183083160313D9006130D80025
:1003E8006E30D700D70BF629D80BF629D90BF6298A
:1003F80000000A128A110C260A128A1183120313AA
:10040800CD0100300A128A1126270A128A114830B3
:1004180083120313CF008030D0000A128A113526C8
:100428000A128A11063083160313D700570883125D
:100438000313CD0000300A128A1126270A128A11E6
:10044800BF3083120313CF000030D0000A128A1184
:1004580035260A128A1183120313CD0101300A12BC
:100468008A1126270A128A11053083160313D90028
:10047800AD30D800E030D700D70B402AD80B402A3F
:10048800D90B402AFD29233083120313BC003C08F2
:1004980083160313A000243083120313BC003C0806
:1004A80083160313A1003A3083120313BC003C08DF
:1004B80083160313A200831203133708F901F907FF
:1004C8003608F801F8072830FA000030FB000A1255
:1004D8008A117E260A128A11790883120313BF0132
:1004E800BF077808BE01BE073F08BC003C0883165A
:1004F8000313A300831203133E08BC003C088316B1
:100508000313A400563083120313BC003C0883165F
:100518000313A500831203133908BC003C08831693
:100528000313A600831203133808BC003C08831683
:100538000313A700533083120313BC003C0883162F
:100548000313A800831203133308BC003C08831666
:100558000313A900831203133208BC003C08831656
:100568000313AA00533083120313BC003C088316FC
:100578000313AB00831203132F08BC003C08831637
:100588000313AC00831203132E08BC003C08831627
:100598000313AD00533083120313BC003C088316C9
:1005A8000313AE0083120313BD01C0010F304002D4
:1005B8000318FA2A4008A03E8400831300080A1290
:1005C8008A1190270A128A11831203134008A03E49
:1005D800840083130008BC003C08BD060130BC0041
:1005E8003C08C0070F304002031CDE2A3D08BC004F
:1005F8003C0883160313AF002F080A128A119027AC
:10060800080083160313CA0183120313D01F1B2B80
:10061800CD09CE09CF09D009CD0A0319CE0A03198D
:10062800CF0A0319D00A83160313CA01CA0A831210
:10063800D41F2F2BD109D209D309D409D10A031900
:10064800D20A0319D30A0319D40A0130D500550870
:1006580083160313CA06003083160313CE00003036
:10066800CD000030CC000030CB00831203135008BB
:100678004F044E044D040319992B83160313C90123
:10068800C90A83120313D01B5A2B01308312D500D9
:100698000310CD0DCE0DCF0DD00DD50B4C2B013049
:1006A800D500550883160313C907452B013083125B
:1006B800D500031083160313CB0DCC0DCD0DCE0D35
:1006C80083120313D50B5D2B50085402031D762BA0
:1006D8004F085302031D762B4E085202031D762B3A
:1006E8004D085102031C892B4D08D1024E08031CEA
:1006F8004E0FD2024F08031C4F0FD3025008031CA1
:10070800500FD402831603134B14013003108312C5
:10071800D00CCF0CCE0CCD0CFF3E031D8A2B013024
:1007280083160313C902031D5A2B831603134A08A1
:100738000319A92BCB09CC09CD09CE09CB0A03197A
:10074800CC0A0319CD0A0319CE0A4E0883120313E3
:10075800D000831603134D0883120313CF008316AA
:1007680003134C0883120313CE00831603134B089C
:1007780083120313CD0008007008F4007108F50017
:100788007208F6000310750D760DF7007708FD0066
:10079800FD08031DD82B0030F3000030F2000030B4
:1007A800F1000030F00008007008F4007108F5004E
:1007B8007208F60017300310F60CF50CF40CFF3E27
:1007C800031DDF2B7408F7007708F800F117FF30D6
:1007D800F005FF30F1050030F2057008F9007108E6
:1007E800FA007208FB00FC018E30FD02FD1F1A2C76
:1007F8007D08803A8F3E03180A2C0030F300003041
:10080800F2000030F1000030F00008000130031061
:10081800FC0CFB0CFA0CF90CFF3E031D0B2C0130F1
:10082800F4007408FD070319352C0A2C18307D02D2
:10083800031C322C0030F3000030F2000030F100CD
:100848000030F00008000130F4000310F90DFA0D33
:10085800FB0DFC0DF40B292C0130FD02FD08031DD6
:10086800272C78080319432CF909FA09FB09FC0914
:10087800F90A0319FA0A0319FB0A0319FC0A7C0886
:10088800F3007B08F2007A08F1007908F00008000C
:10089800831603139F111F159F101F105A308312C0
:1008A8000313D000C330CF00CF0B582CD00B582CDB
:1008B80030300A128A116E270A128A1118308312F0
:1008C8000313D000EF30CF00CF0B682CD00B682C6F
:1008D80030300A128A116E270A128A11993083124F
:1008E8000313CF00CF0B762C30300A128A116E27F3
:1008F8000A128A113D3083120313CF00CF0B822CCA
:1009080038300A128A116E270A128A113D30831272
:100918000313CF00CF0B8E2C01300A128A116E27D9
:100928000A128A110C3083120313D000F730CF005B
:10093800CF0B9C2CD00B9C2C0C300A128A116E27E2
:100948000A128A113D3083120313CF00CF0BAA2C51
:1009580006300A128A116E270A128A113D30831254
:100968000313CF00CF0BB62C080083120313C70163
:10097800C8010030BE000030BF000030C0000030A9
:10098800C1000030C2000030C3000030C400003095
:10099800C5000030C6000030A0000030A1000030C3
:1009A800A2002F083906031DDB2C2E083806031970
:1009B80008002E09BC002F09BD00BC0A0319BD0A96
:1009C80038083C07B20039080318390A3D07B30054
:1009D8005608F0005708F1005808F2000A128A1168
:1009E800C0230A128A11710883120313AF01AF07DB
:1009F8007008AE01AE070130C7000030C8003308E8
:100A080032040319080003303302FC3003193202A0
:100A1800031808003308F101F1073208F001F00764
:100A28000A128A11F3260800FF1B222D83137F1850
:100A380083170008840A0319FF0A080005308A0092
:100A48000408840A820700340A340D3420342D3413
:100A58002D342D342D342D342D342D34203445347B
:100A6800533454344F34553452344F34203444348E
:100A780045342034503449344C34483441342034DB
:100A88002D342D342D342D342D342D342D34203463
:100A98000A340D342034003449346E3469346334F4
:100AA800693461346C3469347A3461346E34643452
:100AB8006F342E342E342E3400340A340D3464341A
:100AC800653473346C3469346734613464346F3436
:100AD8000A340D3400346B346D3448343A342034DD
:100AE8000034831603134F08D3005008D40051086C
:100AF800D5005208D60004300310D30DD40DD50DFF
:100B0800D60DFF3E031D802D560883120313D00017
:100B180083160313550883120313CF008316031398
:100B2800540883120313CE00831603135308831249
:100B38000313CD000130D4001930D3004030D20067
:100B48000030D1000A128A110523831203134D08BD
:100B5800FF3E83160313990098131813981618125A
:100B6800181598141810831203139817181398124D
:100B780018169811181198101810831603130C12D0
:100B8800831203130C12831603138C168312031398
:100B98008C120800F501F601710870040319052E7E
:100BA800F701F70AF11BE42D01300310F00DF10DE8
:100BB800FF3E031DD92D0130F4007408F707D62D28
:100BC80001300310F50DF60DFF3E031DE52D7108EC
:100BD8007302031DF12D70087202031CFA2D7008B0
:100BE800F2027108031CF303F302751401300310B9
:100BF800F10CF00CFF3E031DFB2D0130F702031D25
:100C0800E42D7608F101F1077508F001F0070800F6
:100C180001300A128A116E270A128A110C308312C7
:100C28000313D000F730CF00CF0B182ED00B182E9F
:100C38000C300A128A116E270A128A113D3083126B
:100C48000313CF00CF0B262E06300A128A116E2707
:100C58000A128A113D3083120313CF00CF0B322EB4
:100C68000800831203135008FF004F0884000A127B
:100C78008A1118250A128A110038031908008312EC
:100C880003135008FF004F0884000A128A11182520
:100C98000A128A110A128A115F270A128A11013070
:100CA80083120313CF070318D00A352E83120313B8
:100CB8009214121012139212121292111215FF307E
:100CC80083160313920083120313971517159714AD
:100CD8001714831603130C15831203130C119D1597
:100CE8001D159D141D14831603130D14831203136D
:100CF8000D100800FC01FD01781C882E7A08FC07FD
:100D08000318FD0A7B08FD0701300310FA0DFB0DDF
:100D1800FF3E031D892E01300310F90CF80CFF3E2D
:100D2800031D902E79087804031D802E7D08F90193
:100D3800F9077C08F801F8070800F2007208840037
:100D48000A128A1122250A128A110038031908008A
:100D5800720884000A128A1122250A128A110A12BC
:100D68008A1190270A128A110130F1007108F207DE
:100D7800A22E831203134E08D0004D08CF00500D49
:100D8800D00CCF0C500DD00CCF0C4F089B004D0849
:100D9800CF0003300310CF0DFF3E031DCE2E0310EE
:100DA8004F0D0C389D000800831203134E08D00025
:100DB8004D08CF00500DD00CCF0C500DD00CCF0CDF
:100DC8004F0895004D08CF0003300310CF0DFF3EAC
:100DD800031DE92E03104F0D0C3897000800710809
:100DE800F3007008F200730DF30CF20C730DF30CA2
:100DF800F20C7208831203139B007008F200033090
:100E08000310F20DFF3E031D042F0310720D0C3862
:100E18009D000800831203139818172F1A08F3006F
:100E28007308F400232F01300A128A11A1268312B5
:100E3800031318121A08F3007308F40018168C121A
:100E48007408080083120313CF000910CF08031D8C
:100E5800302F4D08803E322F4D08C03E880089143F
:100E68003D30CE00CE0B362F8312031389100800B5
:100E7800831603139F179F151F159F141F108312A6
:100E880003139F171F13831603130C1383120313E3
:100E98000C1308007E088A007F0882004E270A1279
:100EA8008A118000840A04087D0603190034FF0AA9
:100EB8000319FE0A522F83120313CE0009144E0899
:100EC800880089143D30CD00CD0B682F83120313A1
:100ED8008910080083120313CE0009104E088800F9
:100EE80089143D30CD00CD0B772F83120313891061
:100EF8000800831603138112011281110115811450
:100F080001140B118B16080064008001840A040682
:100F1800031900340406892FF000831203130C1EF2
:100F2800912F70089900080000344834423407347F
:100F380000343234003483120313CD004D0881008D
:100F48000800F000700883120313810008000034C1
:040F5800A03441344C
:02400E0032FF7F
:00000001FF
