:060000000A128A11162805
:10000800FE00030E83160313C7000408C8000A087D
:10001800C900831203137F0883160313CA000A1248
:100028008A15C22B0A128A1119288313A03084005A
:10003800C7300A128A1501200A128A1183179030D4
:100048008400C1300A128A1501200A128A11831607
:1000580003170A168A11BB200A128A11CC000A1645
:100068008A11BC200A128A11CD000A168A11BD20F5
:100078000A128A11CE000A168A11BE200A128A11A3
:10008800CF000A168A11BF200A128A11D0000A1658
:100098008A11C0200A128A11D100831603130A128A
:1000A8008A11FD270A128A11E5000A128A11FE2711
:1000B800E60083010A128A152329831603134408CC
:1000C800F901F9074308F801F8070A168A111321FC
:1000D8000A128A11780883160317CC007908CD0014
:1000E8007A08CE00003083160313A0000030A10068
:1000F8000030A200831603174C0883120313AA00CA
:10010800831603174D0883120313AB0083160317D6
:100118004E0883120313AC00831603174F08F00030
:100128005008F1005108F2000A168A11C1200A127B
:100138008A11700883120313AD007108AE007208AB
:10014800AF000A128A11F4260A128A1183120313C5
:100158002A0883160313AF00831203132B08831690
:100168000313B000831203132C0883160313B10082
:100178002F08F0003008F1003108F2000A168A1141
:1001880009250A128A11710883160313C001C007D2
:100198007008BF01BF070030F000C830F1004230DE
:1001A800F2002F08F3003008F4003108F5000A16B1
:1001B8008A11D9230A128A110318EA2800308316F3
:1001C8000313AF00C830B0004230B10083160313E8
:1001D8002F08F0003008F1003108F2000030F30079
:1001E8000030F4000030F5000A168A11D9230A12EB
:1001F8008A1103180729003083160313AF00003053
:10020800B0000030B100831603132F08F000300847
:10021800F1003108F2000030F300C830F40041303A
:10022800F5000A168A11D9230A128A110318702AAE
:10023800831603132F0883120313C70083160313AF
:10024800300883120313C80083160313310883127E
:100258000313C9000030CA000030CB000030CC00C6
:100268000030CD000030CE000030CF000030D0008C
:100278005030D1004130D2000030D3000030D400DB
:100288004230D5000A128A156C220A128A1183128A
:100298000313470883160313A000831203134808A7
:1002A80083160313A100831203134908831603134B
:1002B800A200200883120313A00083160313210849
:1002C80083120313A1008316031322088312031356
:1002D800A200CD30A300CC30A4003D30A5000A1602
:1002E8008A118B210A128A1183120313200883169C
:1002F8000313A30083120313210883160313A40016
:1003080083120313220883160313A5000030B500D7
:100318000030B6000030B7000030B8000030B90037
:100328000030BA0083120313D901DA015A08803A5F
:10033800FF0080307F02031DA3295B305902031898
:10034800702A83160313350883120313C700831614
:100358000313360883120313C800831603133708E0
:1003680083120313C9000030CA000030CB000030EC
:10037800CC000030CD000030CE000030CF0000307F
:10038800D0005030D1004130D2000030D3000030CE
:10039800D4004230D5000A128A156C220A128A113A
:1003A80083120313470883160313B8008312031339
:1003B800480883160313B9008312031349088316E8
:1003C8000313BA002308F0002408F1002508F200FE
:1003D8003808F3003908F4003A08F5000A168A11BB
:1003E800D9230A128A110318092A8316031323082A
:1003F80083120313AA00831603132408831203131A
:10040800AB00831603132508182A8316031338082C
:1004180083120313AA0083160313390883120313E4
:10042800AB00831603133A0883120313AC00660863
:10043800AD006708AE006808AF000A128A11F426FA
:100448000A128A11831203132A08E6002B08E70010
:100458002C08E8000030AA008030AB003F30AC0028
:1004680083160313350883120313AD008316031391
:10047800360883120313AE0083160313370883125A
:100488000313AF000A128A11F4260A128A11831282
:1004980003132A0883160313B500831203132B08CA
:1004A80083160313B600831203132C088316031351
:1004B800B700013083120313D9070318DA0A003092
:1004C800DA075A08803AFF0080307F02031D6E2A3F
:1004D8005B305902031CA5290030F000A030F10060
:1004E8004130F200831603132F08F3003008F4009C
:1004F8003108F5000A168A11D9230A128A1103183D
:10050800E22B831603132F08F0003008F10031089E
:10051800F2000030F3008C30F4004230F5000A1687
:100528008A11D9230A128A110318E22B831603139E
:100538002F0883120313C70083160313300883128E
:100548000313C80083160313310883120313C90069
:100558000030CA001030CB004130CC000030CD0054
:100568003430CE004230CF000030D000A230D1006D
:100578004230D2000A168A11DC260A128A11831226
:100588000313470883160313A000831203134808B4
:1005980083160313A1008312031349088316031358
:1005A800A200200883120313A00083160313210856
:1005B80083120313A1008316031322088312031363
:1005C800A200CD30A300CC30A4003D30A5000A160F
:1005D8008A118B210A128A118312031320088316A9
:1005E8000313A60083120313210883160313A7001D
:1005F80083120313220883160313A8000030B500E2
:100608000030B6000030B7000030B8000030B90044
:100618000030BA0083120313DB01DC015C08803A66
:10062800FF0080307F02031D1B2B5B305B02031829
:10063800E22B83160313350883120313C7008316AE
:100648000313360883120313C800831603133708ED
:1006580083120313C9000030CA001030CB004130A8
:10066800CC000030CD003430CE004230CF00003016
:10067800D000A230D1004230D2000A168A11DC26FE
:100688000A128A1183120313470883160313B8004A
:1006980083120313480883160313B9008312031344
:1006A800490883160313BA003808F0003908F10026
:1006B8003A08F2002608F3002708F4002808F50095
:1006C8000A168A11D9230A128A11031C7B2B831656
:1006D8000313260883120313AA008316031327089B
:1006E80083120313AB008316031328088A2B83167F
:1006F8000313380883120313AA0083160313390857
:1007080083120313AB00831603133A0883120313EF
:10071800AC006908AD006A08AE006B08AF000A12A9
:100728008A11F4260A128A11831203132A08E9008F
:100738002B08EA002C08EB000030AA008030AB0040
:100748003F30AC0083160313350883120313AD0042
:1007580083160313360883120313AE00831603139C
:10076800370883120313AF000A128A11F4260A12FB
:100778008A11831203132A0883160313B500831200
:1007880003132B0883160313B600831203132C08D4
:1007980083160313B700013083120313DB07031812
:1007A800DC0A0030DC075C08803AFF0080307F02FA
:1007B800031DE02B5B305B02031C1D2B0030F00097
:1007C8008C30F1004230F200831603132F08F30037
:1007D8003008F4003108F5000A168A11D9230A12E4
:1007E8008A1103184B2D831603132F088312031342
:1007F800C70083160313300883120313C800831637
:100808000313310883120313C9000030CA0078307B
:10081800CB004230CC000030CD009E30CE004230BC
:10082800CF000030D000B430D1004230D2000030C8
:10083800D300B430D4004230D5000A128A156C2295
:100848000A128A1183120313470883160313A000A0
:1008580083120313480883160313A100831203139A
:10086800490883160313A200200883120313A0006B
:1008780083160313210883120313A100831603139D
:10088800220883120313A200CD30A300CC30A400A9
:100898003D30A5000A168A118B210A128A1183128B
:1008A8000313200883160313A900831203132108D6
:1008B80083160313AA008312031322088316031353
:1008C800AB000030B5000030B6000030B700003093
:1008D800B8000030B9000030BA0083120313DD01FC
:1008E800DE015E08803AFF0080307F02031D7E2C07
:1008F8005B305D0203184B2D8316031335088312F2
:100908000313C70083160313360883120313C800A2
:1009180083160313370883120313C9000030CA0073
:100928007830CB004230CC000030CD009E30CE0075
:100938004230CF000030D000B430D1004230D20075
:100948000030D300B430D4004230D5000A128A15E2
:100958006C220A128A1183120313470883160313A1
:10096800B80083120313480883160313B9008312CF
:100978000313490883160313BA003808F00039082E
:10098800F1003A08F2002908F3002A08F4002B08BD
:10099800F5000A168A11D9230A128A11031CE42CBD
:1009A80083160313290883120313AA00831603135B
:1009B8002A0883120313AB00831603132B08F32CA6
:1009C80083160313380883120313AA00831603132C
:1009D800390883120313AB00831603133A088312F2
:1009E8000313AC006C08AD006D08AE006E08AF00D4
:1009F8000A128A11F4260A128A11831203132A088A
:100A0800EC002B08ED002C08EE000030AA00803026
:100A1800AB003F30AC008316031335088312031371
:100A2800AD0083160313360883120313AE00831632
:100A38000313370883120313AF000A128A11F4262E
:100A48000A128A11831203132A0883160313B500A6
:100A5800831203132B0883160313B60083120313A0
:100A68002C0883160313B700013083120313DD0724
:100A78000318DE0A0030DE075E08803AFF00803087
:100A88007F02031D492D5B305D02031C802C8312FD
:100A98000313DF01E0016008803AFF0080307F0225
:100AA800031D582D01305F020318C22D831603134E
:100AB8002F08F0003008F1003108F2000030F30090
:100AC800C830F4004130F5000A168A11D9230A12F9
:100AD8008A110318772D831203136608E300670849
:100AE800E4006808B02D831603132F08F0003008BF
:100AF800F1003108F2000030F300C830F400413052
:100B0800F5000A168A11D9230A128A11031CA92D85
:100B1800831603132F08F0003008F1003108F200A3
:100B28000030F3009630F4004230F5000A168A11BE
:100B3800D9230A128A110318A92D831203136908ED
:100B4800E3006A08E4006B08B02D831203136C08F5
:100B5800E3006D08E4006E08E5000130DF070318C4
:100B6800E00A0030E0076008803AFF0080307F022A
:100B7800031DC02D01305F02031C5A2D003083165F
:100B88000313B5000030B6000030B7000030B200E3
:100B98000030B3000030B4000030AC000030AD00CD
:100BA8000030AE0083120313E101E2016208803ACB
:100BB800FF0080307F02031DE32D0130610203181E
:100BC8009C2E831203136308AA006408AB0065080F
:100BD800AC0083160313320883120313AD00831687
:100BE8000313330883120313AE0083160313340868
:100BF80083120313AF000A128A11F4260A128A110B
:100C0800831203132A0883160313B20083120313F3
:100C18002B0883160313B300831203132C088316BF
:100C28000313B4002C0883120313AA0083160313BA
:100C38002D0883120313AB00831603132E088312A7
:100C48000313AC006308F8006408F9006508FA00AB
:100C5800831603133508FB003608FC003708FD002F
:100C68000A128A1552200A128A117808831203136D
:100C7800AD007908AE007A08AF000A128A11F4268E
:100C88000A128A11831203132A0883160313AC006D
:100C9800831203132B0883160313AD008312031367
:100CA8002C0883160313AE00003083120313AA0026
:100CB8008030AB003F30AC00831603133508831235
:100CC8000313AD0083160313360883120313AE0013
:100CD80083160313370883120313AF000A128A110D
:100CE800F4260A128A11831203132A08831603139F
:100CF800B500831203132B0883160313B60083125F
:100D080003132C0883160313B7000130831203134F
:100D1800E1070318E20A0030E2076208803AFF00A0
:100D280080307F02031D9A2E01306102031CE52DDD
:100D380083160313320883120313B70083160313B1
:100D4800330883120313B80083160313340883127D
:100D58000313B900831603132C0883120313BA0074
:100D6800831603132D0883120313BB008316031382
:100D78002E0883120313BC000A168A1124260A12AD
:100D88008A118312031337088316031790008312FE
:100D980003133808831603179100831203133908C5
:100DA80083160317920010089C0011089D00120872
:100DB8009E008316031340083F04031908000330FC
:100DC8004002FC3003193F02031808004008F101F3
:100DD800F1073F08F001F0070A168A1155210800AB
:100DE800831203132A08B0002B08B1002C08B200A4
:100DF8000310310D320DB3003308B6002D08B000D2
:100E08002E08B1002F08B2000310310D320DB300C7
:100E18003308B500360803191D2F350836020318A4
:100E2800242F3603FF3A3507B00019303002031C6F
:100E3800242F2D08AA002E08AB002F08AC000800AC
:100E4800350803190800360835020318332F35030F
:100E5800FF3A3607B0001930300203180800063090
:100E6800B0003008B400AC1BB417AF1B3417AB1775
:100E7800FF30AA05FF30AB050030AC05AE17FF30D8
:100E8800AD05FF30AE050030AF0535083602031852
:100E9800732F01300310AD0DAE0DAF0DFF3E031DD6
:100EA8004E2F0130B5023508360603196E2F013072
:100EB800B4023408073903196E2F4D2F013003107F
:100EC800AC0CAB0CAA0CFF3E031D632F0130B00025
:100ED8003008B6073608350603199C2F622F3608E6
:100EE800350203189C2F01300310AA0DAB0DAC0D71
:100EF800FF3E031D782F0130B60235083606031968
:100F0800982F0130B402340807390319982F772F26
:100F180001300310AF0CAE0CAD0CFF3E031D8D2F3E
:100F28000130B0003008B50736083506031D8C2F90
:100F3800B41FAE2FFF30AA06FF30AB06FF30AC0659
:100F48000130AA07003003180130AB07003003183E
:100F58000130AC07341FC02FFF30AD06FF30AE069E
:100F6800FF30AF060130AD07003003180130AE077F
:100F7800003003180130AF07B4012A08AD072B0869
:100F8800031103182B0A031DAE072C0803110318BD
:100F98002C0A031DAF07AF1FE32FFF30AD06FF304C
:100FA800AE06FF30AF060130AD0700300318013040
:100FB800AE07003003180130AF07B401B40A2D089A
:100FC800F0002E08F1002F08F2003608B0003008B3
:100FD800F3003408B1003108F4000A168A113624E7
:100FE800700883120313AA007108AB007208AC00E2
:060FF8000800073400347C
:1010020064008001840A04060319003404060228DD
:10101200831603135A08DE005B08DF005C08E00059
:101022005D08E10004300310DE0DDF0DE00DE10D7F
:10103200FF3E031D14286108CE006008CD005F0842
:10104200CC005E08CB000130D2001930D100403014
:10105200D0000030CF000A168A119525831603139B
:101062004B08FF3E9900981318139816181218157A
:10107200981418108312031398171813981218163D
:101082009811181198101810831603130C1283125A
:1010920003130C12831603138C16831203138C1280
:1010A2000800780883120313A0007908A1007A08C7
:1010B200A2000310210D220DA3002308A400A408FE
:1010C200031D6A280030F8000030F9000030FA00F1
:1010D20008007B08A0007C08A1007D08A200031084
:1010E200210D220DA3002308A900A908031D8028B1
:1010F2000030F8000030F9000030FA00080029083A
:101102007B3EA0002008A4077808A0007908A1006F
:101112007A08A20010300310A20CA10CA00CFF3E12
:10112200031D8C282008A3002308A9007B08A00027
:101132007C08A1007D08A20010300310A20CA10CB3
:10114200A00CFF3E031D9E282008A3002308A90629
:101152008030A0002008A905F917FC17FF30FB0515
:10116200FF30FC050030FD050030A5000030A60070
:101172000030A7000730A0002008A800781CCF2864
:101182007B08A5077C08031103187C0A031DA60728
:101192007D08031103187D0A031DA7070130031000
:1011A200FA0CF90CF80CFF3E031DD0280130031095
:1011B200FB0DFC0DFD0DFF3E031DD8280130A802DA
:1011C200031DBF280930A0002008A800781CF728BA
:1011D2007B08A5077C08031103187C0A031DA607D8
:1011E2007D08031103187D0A031DA70701300310B0
:1011F200FA0CF90CF80CFF3E031DF828013003101D
:10120200A70CA60CA50CFF3E031D00290130A80265
:10121200031DE7282508F0002608F1002708F20040
:101222002408A0002008F3002908A1002108F400E6
:101232000A168A1136247008F8007108F90072083B
:10124200FA0008000130831603138500013083126F
:101252000313850083160313860183120313860189
:101262008130831603138700C03083120313870073
:101272008316031388018312031388018316031351
:101282008901831203138901033090008E018F01BB
:10129200003083160313DD000130DC00C230DB00B6
:1012A2000030DA000A128A1509200A128A150A1673
:1012B2008A11D9200A128A150A168A1101210A12E4
:1012C2008A150A168A1151220A128A150A168A11D9
:1012D2009E240A128A150B178B17443083160313A8
:1012E200CC009830CD000A168A11F4220A128A150F
:1012F200613083160313CC009830CD000A168A1190
:10130200F4220A128A150A168A119E240A128A15D2
:1013120083160313CB0100300A168A11A9210A127F
:101322008A15753083160313CD009830CE000A1645
:101332008A11C3220A128A15003083160313CB00C6
:101342000030CC000A168A11C9210A128A1500300F
:1013520083160313CB000030CC000A168A11EA214F
:101362000A128A15EE300A168A11D1200A128A153B
:10137200183083160313E4006130E3006E30E2009C
:10138200E20BC129E30BC129E40BC12900001E3085
:1013920083160313D9009930DA004608DC01DC0712
:1013A2004508DB01DB07B7300A128A155F250A12EE
:1013B2008A151E3083160313D9009930DA004408C7
:1013C200DC01DC074308DB01DB07AD300A128A15BA
:1013D2005F250A128A15B73083160313CC00013039
:1013E200CD000A168A11F4220A128A159230831647
:1013F2000313CC009830CD000A168A11F4220A1287
:101402008A150A168A119A220A128A15831603135A
:10141200CB0100300A168A11A9210A128A1512304C
:1014220083160313CD009930CE000A168A11C32207
:101432000A128A15063083160313E2006208CB00F3
:1014420000300A168A11A9210A128A15B7308316AA
:101452000313CD000130CE000A168A11C3220A12EC
:101462008A1583160313CB0101300A168A11A921AA
:101472000A128A15183083160313CD009930CE0054
:101482000A168A11C3220A128A150630831603131A
:10149200E2006208CB0001300A168A11A9210A1261
:1014A2008A15AD3083160313CD000130CE000A1623
:1014B2008A11C3220A128A15053083160313E40027
:1014C200AD30E300E030E200E20B652AE30B652A6F
:1014D200E40B652AC829003083120313D6000030BA
:1014E200D7000030D8004A08F0004B08F1004C0841
:1014F200F2004708F3004808F4004908F5000A160C
:101502008A11D9230A128A150318B12B83120313E5
:101512004A08F0004B08F1004C08F2004708F300BB
:101522004808F4004908F5000A168A11D9230A125C
:101532008A150318E52A831203134D08F0004E089A
:10154200F1004F08F2004708F3004808F400490888
:10155200F5000A168A11D9230A128A15031CE52AF4
:10156200831203134D08AA004E08AB004F08AC00CB
:101572004A08F0004B08F1004C08F2000A168A11E2
:10158200C1200A128A15700883120313AD00710874
:10159200AE007208AF000A128A11F4260A128A15E6
:1015A200831203132A08B7002B08B8002C08B900CD
:1015B2004708AA004808AB004908AC004A08F000F6
:1015C2004B08F1004C08742B831203134708F000F8
:1015D2004808F1004908F2004D08F3004E08F400F3
:1015E2004F08F5000A168A11D9230A128A15031C1C
:1015F200172B831203135008F0005108F100520810
:10160200F2004708F3004808F4004908F5000A16FA
:101612008A11D9230A128A15031C172B0030831250
:101622000313D6008030D7003F30B82B8312031348
:101632005008F0005108F1005208F2004708F30088
:101642004808F4004908F5000A168A11D9230A123B
:101652008A1503189C2B831203135308F0005408B5
:10166200F1005508F2004708F3004808F400490861
:10167200F5000A168A11D9230A128A15031C9C2B1B
:10168200831203135308AA005408AB005508AC0098
:101692005008F0005108F1005208F2000A168A11AF
:1016A200C1200A128A15700883120313AD00710853
:1016B200AE007208AF000A128A11F4260A128A15C5
:1016C200831203132A08B7002B08B8002C08B900AC
:1016D2005308AA005408AB005508AC004708F000B4
:1016E2004808F1004908F2000A168A11C1200A12BC
:1016F2008A15700883120313AD007108AE007208D8
:10170200AF000A128A11F4260A128A1583120313F1
:101712002A08BA002B08BB002C08BC000A168A1142
:1017220024260A128A15831203133708D6003808B2
:10173200D7003908B82B831203135308F00054085A
:10174200F1005508F2004708F3004808F400490880
:10175200F5000A168A11D9230A128A150318B92B21
:10176200003083120313D6000030D7000030D800B7
:10177200831203135608C7005708C8005808C90047
:101782000800831203138C1EED2C0A168A11702195
:101792000A128A15303A031DE72BEA30F10098301D
:1017A200F2000A168A110B220A128A1583160313F3
:1017B200C301C4014408F101F1074308F001F00735
:1017C2000A168A1155210A128A154E2D0A168A11F5
:1017D20070210A128A15313A031DFE2BF830F100EE
:1017E2009830F2000A168A110B220A128A1520304A
:1017F20083160313C3000030C4000A168A11702135
:101802000A128A15323A031D152C0530F10099305F
:10181200F2000A168A110B220A128A154030831628
:101822000313C3000030C4000A168A1170210A1281
:101832008A15333A031D332CCE30F1009830F20072
:101842000A168A110B220A128A1580308316031394
:10185200C3000030C400831203130618322C06148E
:10186200332C06100A168A1170210A128A15343A8C
:10187200031D5D2CB230F1009830F2000A168A1175
:101882000B220A128A15003083160313C30001309B
:10189200C4004408F101F1074308F001F0070A16F9
:1018A2008A1155210A128A158312031386185B2C9A
:1018B20086144E2D86104E2D0A168A1170210A1298
:1018C2008A15353A031D742CA430F1009830F200C9
:1018D2000A168A110B220A128A1500308316031384
:1018E200C3000230C4000A168A1170210A128A1536
:1018F200363A031D8B2CDC30F1009830F2000A16C8
:101902008A110B220A128A15003083160313C300B0
:101912000330C4000A168A1170210A128A15373A56
:10192200031DA22CC030F1009830F2000A168A1171
:101932000B220A128A15803083160313C300033068
:10194200C4000A168A1170210A128A15383A031D38
:10195200B92C8630F1009830F2000A168A110B2257
:101962000A128A15E83083160313C3000330C40039
:101972000A168A1170210A128A15393A031DD02CCF
:101982009530F1009830F2000A168A110B220A12E1
:101992008A15FF3083160313C3000330C4000A12F2
:1019A2008A1161200A128A15831603134408F90169
:1019B200F9074308F801F8070A168A1113210A12D7
:1019C2008A15780883160317CF007908D0007A08A1
:1019D200D100831203138C120C1B0C130B1D4A2D06
:1019E200EE300A168A11B5200A128A1501308316C2
:1019F20003133E02F33003193D0203180A2D01308E
:101A0200BD070318BE0A0030BE0783120313061770
:101A1200492D83160313BD01BE01831203130F0860
:101A220083160313C201C207831203130E0883161F
:101A32000313C101C1076608F101F1076508F0014E
:101A4200F0074208F301F3074108F201F2070A1610
:101A52008A115B230A128A157108F901F9077008C5
:101A6200F801F8077830FA000030FB000A168A11F4
:101A72002E220A128A15790883160313C601C60795
:101A82007808C501C507831203138E018F0106135F
:101A92000B110C180C108C198C11831603134A08A5
:101AA20083120313FF008316031349088A004808B0
:101AB2008400470E8300FE0E7E0E09008316031774
:101AC200CA00DB3083160313DD005D08831603179B
:101AD200C100831603135A08DE005908DD00D90A33
:101AE2000319DA0A5E0883120313FF008316031335
:101AF2005D088400831203130A168A1500200A1255
:101B02008A1583160313DF005F0883160317CB00C1
:101B1200CB080319F92F4B08253A0319A42D4B08BA
:101B220083160313DD00831603174A088400831605
:101B320003135D08831780000130DD005D08831602
:101B42000317CA076A2DC801C901C701B12D83163F
:101B520003174715013083160313D9070318DA0A4E
:101B6200831603135A0883120313FF008316031309
:101B720059088400831203130A168A1500200A12D8
:101B82008A15303A0319A82DC62D831603135A0855
:101B920083120313FF008316031359088400831270
:101BA20003130A168A1500200A128A150A168A11C8
:101BB200F1200A128A15031C4A2E83160317C80144
:101BC200C9010A3083160313CB000030CC00831600
:101BD2000317490883160313CE01CE078316031792
:101BE200480883160313CD01CD070A168A11752200
:101BF2000A128A15831603134C0883160317C901A8
:101C0200C907831603134B0883160317C801C807B5
:101C1200831603135A0883120313FF008316031358
:101C220059088400831203130A168A1500200A1227
:101C32008A15D03E83160313DD00FF3003180030EF
:101C4200DE005D0883160317C8070318C90A831646
:101C520003135E0883160317C907013083160313A3
:101C6200D9070318DA0A5A0883120313FF008316EE
:101C7200031359088400831203130A168A150020DD
:101C82000A128A150A168A11F1200A128A150318F5
:101C9200E22D831603135A08DE005908DD00D90A23
:101CA2000319DA0A5E0883120313FF008316031373
:101CB2005D088400831203130A168A1500200A1293
:101CC2008A1583160317CB00003A0319F92F643AD9
:101CD20003196F2E0D3A03196F2E6A2D83160317FF
:101CE2004108840083130008C300840A0008C4006A
:101CF200023083160313DD005D0883160317C10744
:101D0200C41F902E033083160313DD005D08831673
:101D12000317C704C309C409C30A0319C40ACB01C0
:101D2200CB0A4B08053A0319CF2E4B08831603132F
:101D3200DD005D07123E840098300318013E8312D5
:101D42000313FF000A168A1500200A128A15831649
:101D52000313DE00831203130A168A1500200A12E7
:101D62008A1583160313DF005F08831603174402E4
:101D7200031DC12E831603135E0883160317430245
:101D8200031CCF2E013083160313DD005D0883167A
:101D92000317CB074B08053A031D962E4908480442
:101DA2000319DD2E470803390319DD2EFF30C8075A
:101DB2000318C90AFF30C9074B0883160313DD0055
:101DC200DE01DD1BDE035E08803ADF0083160317A7
:101DD2004908803A831603135F02031DF62E831609
:101DE20003174808831603135D0203180E2F831688
:101DF20003174B0883160313DD00DE01DD1BDE0330
:101E02005D0883160317C802831603135E08831640
:101E12000317031CC903C902122F83160317C80133
:101E2200C901471D492F4708033903192B2F2D30AC
:101E320083160313DD00831603174A0884008316F2
:101E420003135D08831780000130DD005D088316EF
:101E52000317CA07490848040319812F3030831633
:101E62000313DD00831603174A0884008316031345
:101E72005D08831780000130DD005D0883160317BB
:101E8200CA07FF30C8070318C90AFF30C9072B2F3A
:101E92004908480403196A2F203083160313DD0012
:101EA200831603174A088400831603135D088317F9
:101EB20080000130DD005D0883160317CA07FF307A
:101EC200C8070318C90AFF30C90749084804031D97
:101ED2004D2F470803390319812F2D308316031321
:101EE200DD00831603174A088400831603135D0876
:101EF200831780000130DD005D0883160317CA07CF
:101F02004B0883160313DD005D0883160317C20016
:101F1200FF3083160313DD005D0883160317C20723
:101F22004208FF3A03196A2D0A3083160313D300BD
:101F32000030D40083160317420883160313DD0012
:101F42005D07123E840098300318013E831203138A
:101F5200FF000A168A1500200A128A158316031337
:101F6200CB00831203130A168A1500200A128A155F
:101F720083160313CC008316031744088316031336
:101F8200CE01CE0783160317430883160313CD0130
:101F9200CD070A168A1199230A128A15831603138A
:101FA2004C08D601D6074B08D501D5070A168A1167
:101FB20025230A128A15831603135308303EDE00C6
:101FC2005E0883160317CB004B0883160313DD004C
:101FD200831603174A088400831603135D088317C8
:101FE20080000130DD005D0883160317CA07892FC0
:0E1FF200831603174A08840083178001080035
:10216A00F000700883120313810008000034A034C1
:10217A0041340034A03441347208710470040319E4
:10218A0008008030F2060800F000831203130C1EC8
:10219A00CA2870089900080083160313CB004B085D
:1021AA00831203138100080083160313811201129C
:1021BA0081110115811401140B118B160800831665
:1021CA000313CB0083120C1EE728831603134B0854
:1021DA00831203139900080083160313CC00CB0162
:1021EA003A304C020318FF2830304C02031CFF28F7
:1021FA00CB01CB0A4B0C0800831603139F179F15BC
:10220A001F159F141F10831203139F171F13831682
:10221A0003130C13831203130C1308007808F0003D
:10222A007908F100F2018E30FB007B08F300F4011B
:10223A000A168A1136247008F8007108F900720823
:10224A00FA00080083160313CC0083120313091043
:10225A00831603134C0883120313880089143D3034
:10226A0083160313CB00CB0B38298312031389106F
:10227A00080083160313CC00831203130914831670
:10228A0003134C0883120313880089143D30831604
:10229A000313CB00CB0B4F298312031389100800B9
:1022AA007108F3007008F200730DF30CF20C730D51
:1022BA00F30CF20C7208831203139B007008F200ED
:1022CA0003300310F20DFF3E031D66290310720D41
:1022DA000C389D00080083120313981879291A08EC
:1022EA00F3007308F40088291C30F1009830F200DA
:1022FA000A168A110B228312031318121A08F30002
:10230A007308F40018168C12740808008312031359
:10231A002308F0002408F1002508F2002008F30041
:10232A002108F4002208F5000A168A11D9230A1690
:10233A008A11031C0800831203132308A00024082F
:10234A00A1002508A200080083160313CD008312FA
:10235A000313091083160313CD08031DB7294B086D
:10236A00803EBB29831603134B08C03E8312031316
:10237A00880089143D3083160313CC00CC0BC32983
:10238A008312031389100800831603134C08CE0026
:10239A004B08CD004E0DCE0CCD0C4E0DCE0CCD0CF7
:1023AA004D08831203139500831603134B08CD00BF
:1023BA0003300310CD0DFF3E031DDE2903104D0D22
:1023CA000C388312031397000800831603134C0872
:1023DA00CE004B08CD004E0DCE0CCD0C4E0DCE0CC2
:1023EA00CD0C4D08831203139B00831603134B086D
:1023FA00CD0003300310CD0DFF3E031DFF2903104E
:10240A004D0D0C38831203139D00080072088312C5
:10241A000313FF00710884000A168A1500200A16A1
:10242A008A11003803190800720883120313FF0087
:10243A00710884000A168A1500200A168A110A16DB
:10244A008A11C9200A168A110130F1070318F20A03
:10245A000B2AFC01FD01781C382A7A08FC070318AC
:10246A00FD0A7B08FD0701300310FA0DFB0DFF3E44
:10247A00031D392A01300310F90CF80CFF3E031D25
:10248A00402A79087804031D302A7D08F901F907E2
:10249A007C08F801F807080083120313921412103B
:1024AA0012139212121292111215FF30831603138D
:1024BA00920083120313971517159714171483168E
:1024CA0003130C15831203130C119D151D159D146E
:1024DA001D14831603130D14831203130D10080021
:1024EA0083160313CF01D0014B1C812A4D08CF0755
:1024FA000318D00A4E08D00701300310CD0DCE0DB7
:10250A00FF3E031D822A01300310CC0CCB0CFF3E88
:10251A00031D892A4C084B04031D792A5008CC0153
:10252A00CC074F08CB01CB07080001300A168A11E5
:10253A0027210A168A110C3083160313CE00F730AE
:10254A00CD00CD0BA62ACE0BA62A0C300A168A116C
:10255A0027210A168A113D3083160313CD00CD0BAD
:10256A00B42A06300A168A1127210A168A113D3022
:10257A0083160313CD00CD0BC02A0800831603135C
:10258A004E0883120313FF00831603134D088400B9
:10259A00831203130A168A1500200A168A110038B4
:1025AA0003190800831603134E0883120313FF004E
:1025BA00831603134D088400831203130A168A151F
:1025CA0000200A168A110A168A113E210A168A1151
:1025DA00013083160313CD070318CE0AC32A8316C4
:1025EA0003134D0883120313FF00831603134C08C9
:1025FA008400831203130A168A1500200A168A1108
:10260A00003803190800831603134D0883120313B5
:10261A00FF00831603134C088400831203130A165F
:10262A008A1500200A168A110A168A11E4200A1647
:10263A008A11013083160313CC070318CD0AF42A32
:10264A0083160313540853040319542BD801D80AC8
:10265A00D41B3B2B01300310D30DD40DFF3E031DB9
:10266A00302B0130D7005708D8072D2B54085602B3
:10267A00031D412B53085502031C492B5308D5024D
:10268A005408031CD603D60201300310D40CD30C11
:10269A00FF3E031D4A2B0130D802031D3B2B56086F
:1026AA00D401D4075508D301D3070800F501F60170
:1026BA00710870040319922BF701F70AF11B712BA9
:1026CA0001300310F00DF10DFF3E031D662B0130A2
:1026DA00F4007408F707632B01300310F50DF60DAB
:1026EA00FF3E031D722B71087302031D7E2B7008B7
:1026FA007202031C872B7008F2027108031CF30391
:10270A00F302751401300310F10CF00CFF3E031DA7
:10271A00882B0130F702031D712B7608F101F107AE
:10272A007508F001F007080083160313D101D201DE
:10273A004C084B040319D22BD001D00ACC1BB12B65
:10274A0001300310CB0DCC0DFF3E031DA62B01302B
:10275A00CF004F08D007A32B01300310D10DD20DA3
:10276A00FF3E031DB22B4C084E02031DBE2B4B0825
:10277A004D02031CC72B4B08CD024C08031CCE0389
:10278A00CE02511401300310CC0CCB0CFF3E031DBA
:10279A00C82B0130D002031DB12B5208CC01CC0743
:1027AA005108CB01CB070800F21F002C0030F600BD
:1027BA000030F7008030F8007009F9007109FA005A
:1027CA007209FB00F90A0319FA0A0319FB0A7908C4
:1027DA00F6077A0803187A0FF32BF42BF7077B080E
:1027EA0003187B0FF92BFA2BF8077608F000770805
:1027FA00F1007808F200F51F272C0030F6000030AF
:10280A00F7008030F8007309F9007409FA007509B5
:10281A00FB00F90A0319FA0A0319FB0A7908F607F1
:10282A007A0803187A0F1A2C1B2CF7077B0803184F
:10283A007B0F202C212CF8077608F3007708F40088
:10284A007808F5008030F2068030F50675087202C5
:10285A00031D080074087102031D08007308700242
:10286A000800730803193E2C720871047004031DD2
:10287A00512C0030F0000030F1000030F200080066
:10288A000130F5007508F30701300310F20CF10C62
:10289A00F00CFF3E031D4A2CFE30720503196C2C06
:1028AA00452C0130F5007508F3070130F0070030B8
:1028BA0003180130F107003003180130F207013024
:1028CA000310F20CF10CF00CFF3E031D652CFF30D7
:1028DA00720503197B2C562C0130F30201300310C8
:1028EA00F00DF10DF20DFF3E031D742CF11F712C3A
:1028FA007318852CFF30F0057F30F105FF30F205A3
:10290A000310F30C7308F500F601F70110300310F9
:10291A00F50DF60DF70DFF3E031D8C2C7508F0041E
:10292A007608F1047708F204740803190800F2170C
:10293A000800831603139F111F159F101F105A308A
:10294A00CE00C330CD00CD0BA82CCE0BA82C303036
:10295A000A168A1127210A168A11183083160313B8
:10296A00CE00EF30CD00CD0BB82CCE0BB82C3030CA
:10297A000A168A1127210A168A1199308316031317
:10298A00CD00CD0BC62C30300A168A1127210A1623
:10299A008A113D3083160313CD00CD0BD22C38306B
:1029AA000A168A1127210A168A113D308316031343
:1029BA00CD00CD0BDE2C01300A168A1127210A160A
:1029CA008A110C3083160313CE00F730CD00CD0BDD
:1029DA00EC2CCE0BEC2C0C300A168A1127210A1685
:1029EA008A113D3083160313CD00CD0BFA2C063025
:1029FA000A168A1127210A168A113D3083160313F3
:102A0A00CD00CD0B062D08007008F4007108F50002
:102A1A007208F6000310750D760DF7007708FD00B1
:102A2A00FD08031D212D0030F3000030F2000030B4
:102A3A00F1000030F00008007008F4007108F50099
:102A4A007208F60017300310F60CF50CF40CFF3E72
:102A5A00031D282D7408F7007708F800F117FF30D6
:102A6A00F005FF30F1050030F2057008F900710831
:102A7A00FA007208FB00FC018E30FD02FD1F632D77
:102A8A007D08803A8F3E0318532D0030F300003042
:102A9A00F2000030F1000030F000080001300310AD
:102AAA00FC0CFB0CFA0CF90CFF3E031D542D0130F3
:102ABA00F4007408FD0703197E2D532D18307D028A
:102ACA00031C7B2D0030F3000030F2000030F100CF
:102ADA000030F00008000130F4000310F90DFA0D7F
:102AEA00FB0DFC0DF40B722D0130FD02FD08031DD8
:102AFA00702D780803198C2DF909FA09FB09FC09CC
:102B0A00F90A0319FA0A0319FB0A0319FC0A7C08D1
:102B1A00F3007B08F2007A08F1007908F000080057
:102B2A0083160313D501CE1FA72DCB09CC09CD09D6
:102B3A00CE09CB0A0319CC0A0319CD0A0319CE0A06
:102B4A00D501D50AD21FB82DCF09D009D109D2098A
:102B5A00CF0A0319D00A0319D10A0319D20A01307C
:102B6A00D3005308D5060030D9000030D800003011
:102B7A00D7000030D6004E084D044C044B0403190C
:102B8A000D2ED401D40ACE1BD82D0130D300031048
:102B9A00CB0DCC0DCD0DCE0DD30BCC2D0130D300EA
:102BAA005308D407C82D0130D3000310D60DD70D12
:102BBA00D80DD90DD30BDA2D4E085202031DEF2D75
:102BCA004D085102031DEF2D4C085002031DEF2D35
:102BDA004B084F02031C002E4B08CF024C08031C63
:102BEA004C0FD0024D08031C4D0FD1024E08031C96
:102BFA004E0FD202561401300310CE0CCD0CCC0C61
:102C0A00CB0CFF3E031D012E0130D402031DD82D2B
:102C1A00550803191B2ED609D709D809D909D60A86
:102C2A000319D70A0319D80A0319D90A5908CE0071
:102C3A005808CD005708CC005608CB00080083126C
:102C4A0003133A08BD003B08BE003C08BF0003104E
:102C5A003E0D3F0DC0004008C500C508031D3C2EAF
:102C6A000030B7000030B8000030B900080037085B
:102C7A00BD003808BE003908BF0003103E0D3F0DE5
:102C8A00C0004008C600C608031D522E0030B70017
:102C9A000030B8000030B90008000030C20000302F
:102CAA00C3000030C40089304607BD003D08C50294
:102CBA003A08BD003B08BE003C08BF0010300310B4
:102CCA00BF0CBE0CBD0CFF3E031D642E3D08C000A8
:102CDA004008C6003708BD003808BE003908BF00E2
:102CEA0010300310BF0CBE0CBD0CFF3E031D762E28
:102CFA003D08C0004008C6068030BD003D08C60534
:102D0A00BB17FF30BA05FF30BB050030BC05B8174A
:102D1A00FF30B705FF30B8050030B9051830BD00DF
:102D2A003D08C10001300310C20DC30DC40DFF3EA2
:102D3A00031D982E39083C02031DA92E38083B02B0
:102D4A00031DA92E37083A02031CB62E3708BA0209
:102D5A003808031C380FBB023908031C390ABC02A5
:102D6A00421401300310BA0DBB0DBC0DFF3E031D0A
:102D7A00B72E0130C102031D972E4208F000430806
:102D8A00F1004408F2004508BD003D08F30046087A
:102D9A00BE003E08F4000A168A113624700883120F
:102DAA000313B7007108B8007208B90008000030B0
:102DBA0083120313D3000030D4000030D5004A0830
:102DCA00F0004B08F1004C08F2004708F3004808ED
:102DDA00F4004908F5000A168A11D9230A168A113D
:102DEA000318EF2F831203134A08F0004B08F1006F
:102DFA004C08F2004708F3004808F4004908F500B7
:102E0A000A168A11D9230A168A110318552F831212
:102E1A0003134D08F0004E08F1004F08F20047086E
:102E2A00F3004808F4004908F5000A168A11D92364
:102E3A000A168A11031C552F831203134D08AA0080
:102E4A004E08AB004F08AC004A08F0004B08F100EE
:102E5A004C08F2000A168A11C1200A168A11700853
:102E6A0083120313AD007108AE007208AF000A1294
:102E7A008A11F4260A168A11831203132A08B70044
:102E8A002B08B8002C08B9004708AA004808AB006C
:102E9A004908AC004A08F0004B08F1004C08B22F70
:102EAA00831203134D08F0004E08F1004F08F20098
:102EBA004708F3004808F4004908F5000A168A1181
:102ECA00D9230A168A110318DA2F8312031350081A
:102EDA00F0005108F1005208F2004708F3004808D0
:102EEA00F4004908F5000A168A11D9230A168A112C
:102EFA00031CDA2F831203134D08AA004E08AB00F5
:102F0A004F08AC005008F0005108F1005208F200D6
:102F1A000A168A11C1200A168A117008831203132D
:102F2A00AD007108AE007208AF000A128A11F426C9
:102F3A000A168A11831203132A08B7002B08B8004D
:102F4A002C08B9004708AA004808AB004908AC0099
:102F5A005008F0005108F1005208F2000A168A11CE
:102F6A00C1200A168A11700883120313AD00710872
:102F7A00AE007208AF000A128A11F4260A168A11E4
:102F8A00831203132A08BA002B08BB002C08BC00C2
:102F9A000A168A1124260A168A118312031337087D
:102FAA00D3003808D4003908F62F831203135008C7
:102FBA00F0005108F1005208F2004708F3004808EF
:102FCA00F4004908F5000A168A11D9230A168A114B
:102FDA000318F72F003083120313D3000030D400F4
:102FEA000030D500831203135308C7005408C800E1
:102FFA005508C9000800FF1B0A2883137F18831786
:10300A000008840A0319FF0A08007F087F398A002A
:10301A000408840A0319FF0A8200013400340A34BE
:10302A00003464340034E8340334103427340A3466
:10303A000D3420342D342D342D342D342D342D34AB
:10304A002D3420344534533454344F3455345234A7
:10305A004F342034443445342034503449344C34C9
:10306A004834413420342D342D342D342D342D342C
:10307A002D342D3420340A340D34203400344934AC
:10308A006E3469346334693461346C3469347A3443
:10309A0061346E3464346F3420346F3420345034E5
:1030AA004934433431343634463438343734373497
:1030BA0041340A340D3400345534533441345234D3
:1030CA0054343A3420343134313435342E343234B1
:1030DA00303430346234703473340A340D3400348A
:1030EA0049346E3469346334693461346C34693414
:1030FA007A3461346E3464346F342E342E342E3480
:10310A0000340A340D34703477346D3420343D344D
:10311A00203431343034303430340A340D3400340D
:10312A000A340D34703477346D3420343D3420340D
:10313A0031343034323433340A340D3400340A34FE
:10314A000D34703477346D3420343D3420343534C2
:10315A00313432340A340D3400340A340D347034C4
:10316A0077346D3420343D342034323435343634B7
:10317A000A340D3400340A340D34703477346D3423
:10318A0020343D3420343834393436340A340D345A
:10319A0000340A340D34703477346D3420343D34BD
:1031AA0020343134323438340A340D3400340A3499
:1031BA000D34703477346D3420343D342034373450
:1031CA00363438340A340D3400340A340D34643455
:1031DA00653473346C3469346734613464346F34FD
:1031EA000A340D3400340A340D34703477346D34B3
:1031FA0020343D342034333432340A340D3400342C
:10320A000A340D34703477346D3420343D3420342C
:10321A00363434340A340D340034523450344D3494
:10322A003A3420340034503457344D343A3420344C
:0C323A0000342534303434346434003463
:02400E0032FF7F
:00000001FF
