:060000000A128A11122809
:10000800FE00030E83120313DB000408DC000A0859
:10001800DD007F08DE000A128A156E2E0A128A1188
:10002800152883135F3084006F300A128A11F7276E
:100038000A128A11A0308400C5300A128A11F727E3
:100048000A128A11831790308400A7300A128A1185
:10005800F7270A128A118313EE30FD001230FE00D2
:100068009930FF00E73084000A168A11E4228301E0
:100078000A128A151D2D831603136D08F901F90755
:100088006C08F801F8070A168A1103230A128A1164
:10009800780883160313E7007908E8007A08E9006E
:1000A800003083120313D2000030D3000030D40094
:1000B8000030D5000030D6000030D7000030D8001E
:1000C8000030D9000030DA000030DF000030E000F6
:1000D8000030E100831603136708F8006808F90088
:1000E8006908FA002F08F0003008F1003108F20022
:1000F8000A168A11A0220A128A117008FB007108D8
:10010800FC007208FD000A128A15C6220A128A111A
:10011800780883120313E2007908E3007A08E40000
:100128000030A700B430A8004230A9006208AA0035
:100138006308AB006408AC000A128A153D210A1254
:100148008A11831203132708E2002808E30029080C
:10015800E4000030F000B430F1004230F2006208F0
:10016800F3006308F4006408F5000A128A15E02019
:100178000A128A110318C828003083120313E200F8
:10018800B430E3004230E400831203136208F00045
:100198006308F1006408F2000030F3000030F40056
:1001A8000030F5000A128A15E0200A128A11031895
:1001B800E528003083120313E2000030E30000302A
:1001C800E400831203136208F0006308F100640876
:1001D800F2000030F300C830F4004130F5000A1294
:1001E8008A15E0200A128A110318F92983120313C9
:1001F8006208B7006308B8006408B9000030BA00A4
:100208000030BB000030BC000030BD000030BE0034
:100218000030BF000030C0005030C1004130C20083
:100228000030C3000030C4004230C5000A128A15ED
:10023800CD230A128A11831203133708DF00380806
:10024800E0003908E1005F08A0006008A10061082B
:10025800A200CD30A300CC30A4003D30A5000A1682
:100268008A117B230A128A1183120313200883162A
:100278000313A30083120313210883160313A40096
:1002880083120313220883160313A5000030831278
:100298000313E5000030E6000030E7000030E80016
:1002A8000030E9000030EA00CC01CD014D08803A69
:1002B800FF0080307F02031D63295B304C02031866
:1002C800F929831203136508B7006608B8006708A0
:1002D800B9000030BA000030BB000030BC0000306C
:1002E800BD000030BE000030BF000030C0005030FC
:1002F800C1004130C2000030C3000030C4004230A9
:10030800C5000A128A15CD230A128A118312031313
:100318003708E8003808E9003908EA0083160313AB
:100328002308F0002408F1002508F20083120313C3
:100338006808F3006908F4006A08F5000A128A15CB
:10034800E0200A128A110318B4298316031323081C
:10035800F8002408F9002508FA0083120313BC29C1
:10036800831203136808F8006908F9006A08FA009C
:100378005508FB005608FC005708FD000A128A15AC
:10038800C6220A128A11780883120313D500790845
:10039800D6007A08D7000030F8008030F9003F30E6
:1003A800FA006508FB006608FC006708FD000A12F1
:1003B8008A15C6220A128A11780883120313E500E7
:1003C8007908E6007A08E7000130CC070318CD0A5F
:1003D8000030CD074D08803AFF0080307F02031DB2
:1003E800F7295B304C02031C65290030F000A0306F
:1003F800F1004130F200831203136208F30063082E
:10040800F4006408F5000A128A15E0200A128A111D
:100418000318142B831203136208F0006308F10019
:100428006408F2000030F3008C30F4004230F5002C
:100438000A128A15E0200A128A110318142B831253
:1004480003136208B7006308B8006408B9000030F5
:10045800BA001030BB004130BC000030BD00343061
:10046800BE004230BF000030C000A230C1004230A0
:10047800C2000A128A11D9260A128A11831203139A
:100488003708DF003808E0003908E1005F08A000FD
:100498006008A1006108A200CD30A300CC30A40000
:1004A8003D30A5000A168A117B230A128A1183128D
:1004B8000313200883160313A600831203132108CD
:1004C80083160313A700831203132208831603134A
:1004D800A800003083120313E5000030E600003066
:1004E800E7000030E8000030E9000030EA00CE0103
:1004F800CF014F08803AFF0080307F02031D862A13
:100508005B304E020318142B831203136508B700DF
:100518006608B8006708B9000030BA001030BB00A0
:100528004130BC000030BD003430BE004230BF0056
:100538000030C000A230C1004230C2000A128A1145
:10054800D9260A128A11831203133708E8003808DB
:10055800E9003908EA006808F0006908F1006A084B
:10056800F200831603132608F3002708F40028086E
:10057800F5000A128A15E0200A128A11031CCF2AF4
:10058800831603132608F8002708F9002808FA003C
:1005980083120313D72A831203136808F800690823
:1005A800F9006A08FA005208FB005308FC005408D6
:1005B800FD000A128A15C6220A128A1178088312C7
:1005C8000313D2007908D3007A08D4000030F80069
:1005D8008030F9003F30FA006508FB006608FC002F
:1005E8006708FD000A128A15C6220A128A117808BD
:1005F80083120313E5007908E6007A08E700013062
:10060800CE070318CF0A0030CF074F08803AFF0003
:1006180080307F02031D122B5B304E02031C882A98
:100628000030F0008C30F1004230F20083120313E6
:100638006208F3006308F4006408F5000A128A15DA
:10064800E0200A128A110318262C83120313620869
:10065800B7006308B8006408B9000030BA00783001
:10066800BB004230BC000030BD009E30BE004230AE
:10067800BF000030C000B430C1004230C2000030BA
:10068800C300B430C4004230C5000A128A15CD2315
:100698000A128A11831203133708DF003808E000B2
:1006A8003908E1005F08A0006008A1006108A20005
:1006B800CD30A300CC30A4003D30A5000A168A1125
:1006C8007B230A128A11831203132008831603134B
:1006D800A90083120313210883160313AA008312A7
:1006E8000313220883160313AB000030831203138D
:1006F800E5000030E6000030E7000030E800003098
:10070800E9000030EA00D001D1015108803AFF0029
:1007180080307F02031D922B5B3050020318262C79
:10072800831203136508B7006608B8006708B900A4
:100738000030BA007830BB004230BC000030BD0049
:100748009E30BE004230BF000030C000B430C1004F
:100758004230C2000030C300B430C4004230C5008B
:100768000A128A15CD230A128A1183120313370835
:10077800E8003808E9003908EA006808F000690864
:10078800F1006A08F200831603132908F3002A0807
:10079800F4002B08F5000A128A15E0200A128A11C3
:1007A800031CE12B831603132908F8002A08F90013
:1007B8002B08FA0083120313E92B8312031368082A
:1007C800F8006908F9006A08FA005808FB00590897
:1007D800FC005A08FD000A128A15C6220A128A115C
:1007E800780883120313D8007908D9007A08DA0048
:1007F8000030F8008030F9003F30FA006508FB004F
:100808006608FC006708FD000A128A15C6220A124B
:100818008A11780883120313E5007908E6007A083C
:10082800E7000130D0070318D10A0030D10751087A
:10083800803AFF0080307F02031D242C5B30500279
:10084800031C942B831203136208F0006308F10061
:100858006408F2000030F300C830F4004130F500BD
:100868000A128A15E0200A128A110318432C8312EF
:1008780003135508C9005608CA0057087C2C831270
:1008880003136208F0006308F1006408F200003006
:10089800F300C830F4004130F5000A128A15E02050
:1008A8000A128A11031C752C831203136208F000C4
:1008B8006308F1006408F2000030F3009630F40099
:1008C8004230F5000A128A15E0200A128A1103182C
:1008D800752C831203135208C9005308CA00540820
:1008E8007C2C831203135808C9005908CA005A08F7
:1008F800CB00003083160313B200B430B30042308B
:10090800B4000030AC000030AD000030AE008312FF
:1009180003134908F8004A08F9004B08FA0083163F
:1009280003132C08FB002D08FC002E08FD000A12FA
:100938008A15C6220A128A11780883160313AC0096
:100948007908AD007A08AE00320883120313A700B5
:1009580083160313330883120313A80083160313A3
:10096800340883120313A900831603132C08831277
:100978000313AA00831603132D0883120313AB0075
:10098800831603132E0883120313AC000A128A1568
:100998003D210A128A1183120313270883160313B1
:1009A800A00083120313280883160313A1008312DF
:1009B8000313290883160313A2000030F8007A30C5
:1009C800F9004430FA002008FB002108FC00220846
:1009D800FD000A128A15F5210A128A117808831671
:1009E8000313A0007908A1007A08A2002008F000EB
:1009F8002108F1002208F2000A168A11E5260A12D7
:100A08008A11710883120313EC01EC077008EB01DB
:100A1800EB076C086B040319080003306C02FC3008
:100A280003196B02031808006C08F101F1076B0841
:100A3800F001F0070A168A114523080083160313EC
:100A4800E200D430D6005608D900013083160313CB
:100A5800D307FF30530784000A128A150A200A12A6
:100A68008A11D6005608E300E3080319D22E63085A
:100A7800253A03194B2D6308D600620884005608EE
:100A8800831780000130D6005608E207292DE001BF
:100A9800E101DF01542D5F150130D6005608D30758
:100AA800530884000A128A150A200A128A11303A59
:100AB80003194F2D5F2D530884000A128A150A2046
:100AC8000A128A110A168A11D0220A128A11031CE4
:100AD800AF2D83160313E001E1010A3083160313D7
:100AE800C5000030C6006108C801C8076008C70112
:100AF800C7070A168A1165240A128A118316031376
:100B08004608E101E1074508E001E00753088400D1
:100B18000A128A150A200A128A11D03ED600FF301E
:100B280003180030D7005608E0070318E10A5708F1
:100B3800E1070130D6005608D307530884000A128B
:100B48008A150A200A128A110A168A11D0220A1254
:100B58008A110318712D013083160313D307FF3050
:100B6800530784000A128A150A200A128A11E30020
:100B7800003A0319D22E643A0319C62D0D3A031907
:100B8800C62D292D831603135908840083130008E2
:100B9800DB00840A0008DC000230D6005608D907BA
:100BA800DC1FDF2D0330D6005608DF04DB09DC0923
:100BB800DB0A0319DC0AE301E30A6308053A0319AF
:100BC800062E6308D6005607013E84000A128A15CD
:100BD8000A200A128A11D7000A128A150A200A1254
:100BE8008A11D80058085C02031DFC2D57085B02C7
:100BF800031C062E0130D6005608E3076308053AA1
:100C0800031DE52D610860040319142E5F080339DC
:100C18000319142EFF30E0070318E10AFF30E1073B
:100C28006308D600D701D61BD7035708803AD800E7
:100C38006108803A5802031D232E600856020318E3
:100C4800332E831603136308D600D701D61BD703A8
:100C58005608E0025708031CE103E102372E831609
:100C68000313E001E1015F1D5E2E5F0803390319DC
:100C7800482E2D30D600620884005608831780005D
:100C88000130D6005608E207610860040319862E71
:100C98003030D6006208840056088317800001307F
:100CA800D6005608E207FF30E0070318E10AFF30D4
:100CB800E107482E610860040319772E2030D6001A
:100CC800620884005608831780000130D600560851
:100CD800E207FF30E0070318E10AFF30E107610887
:100CE8006004031D622E5F0803390319862E2D3018
:100CF800D600620884005608831780000130D600A9
:100D08005608E2076308D6005608DA00FF30D60016
:100D18005608DA075A08FF3A0319292D0A30CD0078
:100D28000030CE005A08D6005607013E84000A1249
:100D38008A150A200A128A11C5000A128A150A2081
:100D48000A128A11C6005C08C801C8075B08C701F7
:100D5800C7070A168A1189250A128A1183160313EE
:100D68004608D001D0074508CF01CF070A168A11D7
:100D780015250A128A11831603134D08303ED70031
:100D88005708E3006308D6006208840056088317F2
:100D980080000130D6005608E2078A2E8316031316
:100DA800620884008317800108000030831203134F
:100DB800C3000030C4000030C5003A08F0003B080A
:100DC800F1003C08F2003708F3003808F40039084D
:100DD800F5000A128A15E0200A128A110318E62F74
:100DE800831203133A08F0003B08F1003C08F200B4
:100DF8003708F3003808F4003908F5000A128A1594
:100E0800E0200A128A110318502F831203133D0899
:100E1800F0003E08F1003F08F2003708F3003808F8
:100E2800F4003908F5000A128A15E0200A128A111E
:100E3800031C502F831203133D08F8003E08F900E5
:100E48003F08FA003A08F0003B08F1003C08F200BD
:100E58000A168A11A0220A128A117008FB0071086A
:100E6800FC007208FD000A128A15C6220A128A11AD
:100E7800780883120313A7007908A8007A08A90044
:100E88003708F8003808F9003908FA003A08F0007D
:100E98003B08F1003C08AB2F831203133D08F00018
:100EA8003E08F1003F08F2003708F3003808F40064
:100EB8003908F5000A128A15E0200A128A11031867
:100EC800D12F831203134008F0004108F1004208B3
:100ED800F2003708F3003808F4003908F5000A1260
:100EE8008A15E0200A128A11031CD12F83120313DA
:100EF8003D08F8003E08F9003F08FA004008F000F5
:100F08004108F1004208F2000A168A11A0220A12CA
:100F18008A117008FB007108FC007208FD000A12B3
:100F28008A15C6220A128A11780883120313A700A9
:100F38007908A8007A08A9003708F8003808F900E5
:100F48003908FA004008F0004108F1004208F200B0
:100F58000A168A11A0220A128A117008FB00710869
:100F6800FC007208FD000A128A15C6220A128A11AC
:100F7800780883120313AA007908AB007A08AC003A
:100F88000A128A153D210A128A11831203132708AF
:100F9800C3002808C4002908ED2F83120313400852
:100FA800F0004108F1004208F2003708F300380861
:100FB800F4003908F5000A128A15E0200A128A118D
:100FC8000318EE2F003083120313C3000030C4004F
:100FD8000030C500831203134308B7004408B80063
:100FE8004508B900080064008001840A0406031952
:060FF80000340406F82F8E
:10100000FF1B0A2883137F1883170008840A03191B
:10101000FF0A080008308A000408840A82070034A6
:10102000013400340A34003464340034E8340334C6
:10103000103427340A340D3420342D342D342D341B
:101040002D342D342D342D34203445345334543440
:101050004F34553452344F342034443445342034E2
:10106000503449344C344834413420342D342D34F8
:101070002D342D342D342D342D3420340A340D34B8
:101080002034003449346E34693463346934613453
:101090006C3469347A3461346E3464346F3420349F
:1010A0006F34203450344934433431343634463488
:1010B00038343734373441340A340D34003455343D
:1010C00053344134523454343A342034313431348A
:1010D00035342E3432343034303462347034733436
:1010E0000A340D34003449346E346934633469345D
:1010F00061346C3469347A3461346E3464346F34FE
:101100002E342E342E3400340A340D3470347734B7
:101110006D3420343D34203431343034323433347F
:101120000A340D3400340A340D34703477346D349D
:1011300020343D3420343834393436340A340D34D4
:1011400000340A340D34703477346D3420343D3437
:1011500020343734363438340A340D3400340A3409
:101160000D346434653473346C34693467346134F9
:1011700064346F340A340D3400340A340D3470345E
:1011800077346D3420343D3420340A340D34003447
:10119000443465346C34743461343A34203400346B
:1011A000523450344D343A34203400342534303401
:0611B00034346434003405
:1011C000F21F07290030F6000030F7008030F800E9
:1011D0007009F9007109FA007209FB00F90A031994
:1011E000FA0A0319FB0A7908F6077A0803187A0F36
:1011F000FA28FB28F7077B0803187B0F0029012931
:10120000F8077608F0007708F1007808F200F51F7B
:101210002E290030F6000030F7008030F800730906
:10122000F9007409FA007509FB00F90A0319FA0AB2
:101230000319FB0A7908F6077A0803187A0F21299F
:101240002229F7077B0803187B0F27292829F8078D
:101250007608F3007708F4007808F5008030F2068D
:101260008030F50675087202031D080074087102CB
:10127000031D0800730870020800831203132A0874
:10128000AD002B08AE002C08AF0003102E0D2F0D63
:10129000B0003008B500B508031D55290030A7007F
:1012A0000030A8000030A90008002708AD00280879
:1012B000AE002908AF0003102E0D2F0DB00030082E
:1012C000B600B608031D6B290030A7000030A80047
:1012D0000030A90008000030B2000030B300003038
:1012E000B40089303607AD002D08B5022A08AD00DC
:1012F0002B08AE002C08AF0010300310AF0CAE0C62
:10130000AD0CFF3E031D7D292D08B0003008B6004E
:101310002708AD002808AE002908AF0010300310E0
:10132000AF0CAE0CAD0CFF3E031D8F292D08B00095
:101330003008B6068030AD002D08B605AB17FF307B
:10134000AA05FF30AB050030AC05A817FF30A70594
:10135000FF30A8050030A9051830AD002D08B100F8
:1013600001300310B20DB30DB40DFF3E031DB129C2
:1013700029082C02031DC22928082B02031DC2299B
:1013800027082A02031CCF292708AA022808031CC1
:10139000280FAB022908031C290AAC0232140130C1
:1013A0000310AA0DAB0DAC0DFF3E031DD02901307B
:1013B000B102031DB0293208F0003308F1003408EF
:1013C000F2003508AD002D08F3003608AE002E08F7
:1013D000F4000A168A111226700883120313A7005C
:1013E0007108A8007208A900080078088312031386
:1013F000A0007908A1007A08A2000310210D220D97
:10140000A3002308A400A408031D0D2A0030F8003F
:101410000030F9000030FA0008007B08A0007C08CA
:10142000A1007D08A2000310210D220DA3002308B6
:10143000A900A908031D232A0030F8000030F90094
:101440000030FA00080029087B3EA0002008A4070D
:101450007808A0007908A1007A08A20010300310D3
:10146000A20CA10CA00CFF3E031D2F2A2008A300F4
:101470002308A9007B08A0007C08A1007D08A20029
:1014800010300310A20CA10CA00CFF3E031D412A3A
:101490002008A3002308A9068030A0002008A90581
:1014A000F917FC17FF30FB05FF30FC050030FD0588
:1014B0000030A5000030A6000030A7000730A000D3
:1014C0002008A800781C722A7B08A5077C08031155
:1014D00003187C0A031DA6077D08031103187D0A63
:1014E000031DA70701300310FA0CF90CF80CFF3E9E
:1014F000031D732A01300310FB0DFC0DFD0DFF3E93
:10150000031D7B2A0130A802031D622A0930A000B6
:101510002008A800781C9A2A7B08A5077C080311DC
:1015200003187C0A031DA6077D08031103187D0A12
:10153000031DA70701300310FA0CF90CF80CFF3E4D
:10154000031D9B2A01300310A70CA60CA50CFF3E1F
:10155000031DA32A0130A802031D8A2A2508F000D2
:101560002608F1002708F2002408A0002008F30054
:101570002908A1002108F4000A168A111226700811
:10158000F8007108F9007208FA0008007808831260
:101590000313A0007908A1007A08A2000310210D0E
:1015A000220DA3002308A6007B08A0007C08A10050
:1015B0007D08A2000310210D220DA3002308A50021
:1015C00026080319EF2A250826020318F62A2603FF
:1015D000FF3A2507A00019302002031CF62A7B08D9
:1015E000F8007C08F9007D08FA00080025080319B6
:1015F0000800260825020318052B2503FF3A2607B5
:10160000A00019302002031808000630A0002008AE
:10161000A400FA1BA417FD1B2417F917FF30F805C7
:10162000FF30F9050030FA05FC17FF30FB05FF30ED
:10163000FC050030FD05250826020318452B013066
:101640000310FB0DFC0DFD0DFF3E031D202B013093
:10165000A502250826060319402B0130A402240800
:1016600007390319402B1F2B01300310FA0CF90C1A
:10167000F80CFF3E031D352B0130A0002008A60703
:101680002608250603196E2B342B2608250203187D
:101690006E2B01300310F80DF90DFA0DFF3E031DFE
:1016A0004A2B0130A6022508260603196A2B0130B1
:1016B000A4022408073903196A2B492B01300310AF
:1016C000FD0CFC0CFB0CFF3E031D5F2B0130A0004A
:1016D0002008A50726082506031D5E2BA41F802BC6
:1016E000FF30F806FF30F906FF30FA060130F80740
:1016F000003003180130F907003003180130FA07F1
:10170000241F922BFF30FB06FF30FC06FF30FD0646
:101710000130FB07003003180130FC0700300318CC
:101720000130FD07A4017808FB07790803110318AD
:10173000790A031DFC077A08031103187A0A031DAE
:10174000FD07FD1FB52BFF30FB06FF30FC06FF3009
:10175000FD060130FB07003003180130FC070030A4
:1017600003180130FD07A401A40A7B08F0007C08DF
:10177000F1007D08F2002608A0002008F3002408EC
:10178000A1002108F4000A168A1112267008F80038
:101790007108F9007208FA00080000308312031380
:1017A000C6000030C7000030C8003A08F0003B080F
:1017B000F1003C08F2003708F3003808F40039085B
:1017C000F5000A128A15E0200A128A1503180C2D5A
:1017D000831203133A08F0003B08F1003C08F200C2
:1017E0003708F3003808F4003908F5000A128A15A2
:1017F000E0200A128A150318442C831203133D08B3
:10180000F0003E08F1003F08F2003708F300380806
:10181000F4003908F5000A128A15E0200A128A1528
:10182000031C442C831203133D08F8003E08F90002
:101830003F08FA003A08F0003B08F1003C08F200CB
:101840000A168A11A0220A128A157008FB00710874
:10185000FC007208FD000A128A15C6220A128A15B7
:10186000780883120313A7007908A8007A08A90052
:101870003708F8003808F9003908FA003A08F0008B
:101880003B08F1003C08D12C831203133708F00009
:101890003808F1003908F2003D08F3003E08F40072
:1018A0003F08F5000A128A15E0200A128A15031C67
:1018B000762C831203134008F0004108F10042081F
:1018C000F2003708F3003808F4003908F5000A126E
:1018D0008A15E0200A128A15031C762C0030831228
:1018E0000313C6008030C7003F30132D831203134B
:1018F0004008F0004108F1004208F2003708F30008
:101900003808F4003908F5000A128A15E0200A1296
:101910008A150318F72C831203134308F0004408B8
:10192000F1004508F2003708F3003808F4003908E0
:10193000F5000A128A15E0200A128A15031CF72CFA
:10194000831203134308F8004408F9004508FA001D
:101950004008F0004108F1004208F2000A168A111E
:10196000A0220A128A157008FB007108FC00720898
:10197000FD000A128A15C6220A128A1578088312F7
:101980000313A7007908A8007A08A9004308F80003
:101990004408F9004508FA003708F0003808F1005B
:1019A0003908F2000A168A11A0220A128A15700854
:1019B000FB007108FC007208FD000A128A15C6229D
:1019C0000A128A15780883120313AA007908AB005B
:1019D0007A08AC000A128A153D210A128A15831270
:1019E00003132708C6002808C7002908132D8312EF
:1019F00003134308F0004408F1004508F2003708DB
:101A0000F3003808F4003908F5000A128A15E020BE
:101A10000A128A150318142D003083120313C6000E
:101A20000030C7000030C800831203134608B70017
:101A30004708B8004808B9000800013083160313AE
:101A4000850001308312031385008316031386017A
:101A50008312031386018130831603138700C0307D
:101A60008312031387008316031388018312031361
:101A7000880183160313890183120313890103303C
:101A800090008E018F01003083160313D7000130C0
:101A9000D600C230D5000030D4000A168A11C925FC
:101AA0000A128A150A168A11B8220A128A150A160B
:101AB0008A11F1220A128A150A168A1141240A1281
:101AC0008A150A168A117A260A128A150B178B179D
:101AD000333083160313C6008030C7000A168A11FC
:101AE000E4240A128A15503083160313C60080308E
:101AF000C7000A168A11E4240A128A150A168A11E6
:101B00007A260A128A1583160313C50100300A16B5
:101B10008A1199230A128A15643083160313C700A9
:101B20008030C8000A168A11B3240A128A150030C0
:101B300083160313C5000030C6000A168A11B923A4
:101B40000A128A15003083160313C5000030C60040
:101B50000A168A11DA230A128A15EE300A168A1139
:101B6000B0220A128A15183083160313E60061307A
:101B7000E5006E30E400E40BBB2DE50BBB2DE60B5E
:101B8000BB2D0000C73083160313E4006408D300A4
:101B90003E08D501D5073D08D401D4079D300A126F
:101BA0008A1122250A128A15C73083160313E4000E
:101BB0006408D300831203136C0883160313D50142
:101BC000D507831203136B0883160313D401D407BC
:101BD00093300A128A1122250A128A159D30831623
:101BE0000313C6000130C7000A168A11E4240A1242
:101BF0008A15B63083160313C6008030C7000A1654
:101C00008A11E4240A128A150A168A118A240A12F1
:101C10008A1583160313C50100300A168A11992309
:101C20000A128A15C13083160313C7008030C8001A
:101C30000A168A11B3240A128A1506308316031372
:101C4000E4006408C50000300A168A1199230A12BC
:101C50008A159D3083160313C7000130C8000A1689
:101C60008A11B3240A128A1583160313C5010130A1
:101C70000A168A1199230A128A15B930831603139A
:101C8000C7008030C8000A168A11B3240A128A15C8
:101C9000063083160313E4006408C50001300A16F9
:101CA0008A1199230A128A15933083160313C700E9
:101CB0000130C8000A168A11B3240A128A150530A9
:101CC00083160313E600AD30E500E030E400E40BDA
:101CD000672EE50B672EE60B672EC22D8C1E922F0A
:101CE0000A168A1160230A128A15303A031D912EB2
:101CF000A030F1008030F2000A168A11FB230A128C
:101D00008A1583120313ED01EE016E08F101F1074C
:101D10006D08F001F0070A168A1145230A128A1588
:101D2000F32F0A168A1160230A128A15313A031D0D
:101D3000A82EAE30F1008030F2000A168A11FB2383
:101D40000A128A15D03083160313EC000230ED001E
:101D50000A168A1160230A128A15323A031DBF2E11
:101D6000AE30F1008030F2000A168A11FB230A120D
:101D70008A15AA3083160313EC000530ED000A160D
:101D80008A1160230A128A15333A031DD62EAE300B
:101D9000F1008030F2000A168A11FB230A128A151C
:101DA0000C3083160313EC000B30ED000A168A1179
:101DB00060230A128A15343A031D002FAE30F10059
:101DC0008030F2000A168A11FB230A128A15B830F5
:101DD00083120313ED000C30EE006E08F101F107E1
:101DE0006D08F001F0070A168A1145230A128A15B8
:101DF000831203138618FE2E8614F32F8610F32FFA
:101E00000A168A1160230A128A15353A031D172F04
:101E1000AE30F1008030F2000A168A11FB230A125C
:101E20008A159E3083160313EC001130ED000A165C
:101E30008A1160230A128A15363A031D2E2F92301A
:101E4000F1008030F2000A168A11FB230A128A156B
:101E5000803083160313EC001630ED000A168A1149
:101E600060230A128A15373A031D452F8430F1008A
:101E70008030F2000A168A11FB230A128A15EA3012
:101E800083160313EC001A30ED000A168A11602342
:101E90000A128A15383A031D5C2FAE30F1008030EB
:101EA000F2000A168A11FB230A128A15A43083163F
:101EB0000313EC001F30ED000A168A1160230A128A
:101EC0008A15393A031D732F7530F1008030F20006
:101ED0000A168A11FB230A128A1528308316031367
:101EE000EC002330ED000A128A113F200A128A15F5
:101EF000831603136C089C3EF8006D080318013E1E
:101F0000FF3EF9000A168A1103230A128A1578087F
:101F100083160313AF007908B0007A08B10083126A
:101F200003138C120C1B0C130B1DEF2FEE300A1633
:101F30008A1193220A128A150130831603133A027A
:101F4000F330031939020318AF2F0130B907031812
:101F5000BA0A0030BA07831203130617EE2F83164E
:101F60000313B901BA01831203130F088316031375
:101F7000BC01BC07831203130E0883160313BB01B5
:101F8000BB076B08F101F1076A08F001F0073C0894
:101F9000F301F3073B08F201F2070A168A114B25F9
:101FA0000A128A157108F901F9077008F801F80793
:101FB0007830FA000030FB000A168A111E240A123B
:101FC0008A15790883160313BE01BE077808BD0180
:101FD000BD07831203138E018F0106130B110C181A
:101FE0000C108C198C11831203135E08FF005D081E
:101FF0008A005C0884005B0E8300FE0E7E0E0900E2
:10252600F000700883120313810008000034A03401
:10253600413407340034C83400347208710470041E
:10254600031908008030F2060800F0008312031316
:102556000C1EA92A70089900080083160313C500EB
:1025660045088312031381000800831603138112A2
:10257600011281110115811401140B118B1608002B
:1025860083160313C50083120C1EC62A8316031373
:102596004508831203139900080083160313C60027
:1025A600C5013A3046020318DE2A30304602031CC3
:1025B600DE2AC501C50A450C08007E088A007F0888
:1025C6008200E0220A168A118000840A04087D0629
:1025D60003190034FF0A0319FE0AE42A83160313BB
:1025E6009F179F151F159F141F10831203139F1704
:1025F6001F13831603130C13831203130C13080003
:102606007808F0007908F100F2018E30FB007B08B3
:10261600F300F4010A168A1112267008F8007108F0
:10262600F9007208FA00080083160313C600831225
:102636000313091083160313460883120313880035
:1026460089143D3083160313C500C50B282B83124E
:1026560003138910080083160313C600831203139D
:10266600091483160313460883120313880089147A
:102676003D3083160313C500C50B3F2B831203138E
:10268600891008007108F3007008F200730DF30C4E
:10269600F20C730DF30CF20C7208831203139B00F9
:1026A6007008F20003300310F20DFF3E031D562B97
:1026B6000310720D0C389D0008008312031398183E
:1026C600692B1A08F3007308F400782B0B30F1001D
:1026D6008030F2000A168A11FB23831203131812A4
:1026E6001A08F3007308F40018168C127408080010
:1026F600831203132308F0002408F1002508F200D2
:102706002008F3002108F4002208F5000A128A15B1
:10271600E0200A168A11031C0800831203132308FB
:10272600A0002408A1002508A200080083160313B0
:10273600C70083120313091083160313C708031D6A
:10274600A72B4508803EAB2B831603134508C03ED6
:1027560083120313880089143D3083160313C600C1
:10276600C60BB32B831203138910080083160313B9
:102776004608C8004508C700480DC80CC70C480DD8
:10278600C80CC70C4708831203139500831603135E
:102796004508C70003300310C70DFF3E031DCE2BAF
:1027A6000310470D0C388312031397000800831695
:1027B60003134608C8004508C700480DC80CC70CD7
:1027C600480DC80CC70C4708831203139B008316D9
:1027D60003134508C70003300310C70DFF3E031D52
:1027E600EF2B0310470D0C38831203139D000800CE
:1027F600720883120313FF00710884000A128A15F7
:1028060000200A168A11003803190800720883127C
:102816000313FF00710884000A128A1500200A16A5
:102826008A110A168A11A8220A168A110130F1079E
:102836000318F20AFB2BFC01FD01781C282C7A08F0
:10284600FC070318FD0A7B08FD0701300310FA0D8B
:10285600FB0DFF3E031D292C01300310F90CF80C6B
:10286600FF3E031D302C79087804031D202C7D08BB
:10287600F901F9077C08F801F80708008312031329
:102886009214121012139212121292111215FF3094
:1028960083160313920083120313971517159714C3
:1028A6001714831603130C15831203130C119D15AD
:1028B6001D159D141D14831603130D148312031383
:1028C6000D10080083160313C901CA01451C712C9B
:1028D6004708C9070318CA0A4808CA07013003107F
:1028E600C70DC80DFF3E031D722C01300310C60C28
:1028F600C50CFF3E031D792C46084504031D692CB3
:102906004A08C601C6074908C501C50708000130BF
:102916000A168A1117230A168A110C308316031316
:10292600C800F730C700C70B962CC80B962C0C3086
:102936000A168A1117230A168A113D3083160313C5
:10294600C700C70BA42C06300A168A1117230A16CD
:102956008A113D3083160313C700C70BB02C08003D
:1029660083160313480883120313FF008316031309
:1029760047088400831203130A128A1500200A16D8
:102986008A110038031908008316031348088312B6
:102996000313FF00831603134708840083120313EF
:1029A6000A128A1500200A168A110A168A112E237F
:1029B6000A168A11013083160313C7070318C80ABB
:1029C600B32C83160313470883120313FF008316E1
:1029D600031346088400831203130A128A15002083
:1029E6000A168A11003803190800831603134708CC
:1029F60083120313FF008316031346088400831211
:102A060003130A128A1500200A168A110A168A1159
:102A1600C3220A168A11013083160313C607031848
:102A2600C70AE42C831603134E084D040319442DDC
:102A3600D201D20ACE1B2B2D01300310CD0DCE0DA7
:102A4600FF3E031D202D0130D1005108D2071D2D58
:102A56004E085002031D312D4D084F02031C392D1F
:102A66004D08CF024E08031CD003D00201300310DC
:102A7600CE0CCD0CFF3E031D3A2D0130D202031DB4
:102A86002B2D5008CE01CE074F08CD01CD070800EB
:102A9600F501F601710870040319822DF701F70A92
:102AA600F11B612D01300310F00DF10DFF3E031DEA
:102AB600562D0130F4007408F707532D013003102A
:102AC600F50DF60DFF3E031D622D71087302031D01
:102AD6006E2D70087202031C772D7008F2027108C1
:102AE600031CF303F302751401300310F10CF00C10
:102AF600FF3E031D782D0130F702031D612D760878
:102B0600F101F1077508F001F007080083160313B9
:102B1600CA01CB01460845040319C22DCC01CC0AD3
:102B2600C61BA12D01300310C50DC60DFF3E031DAA
:102B3600962D0130C9004908CC07932D01300310AA
:102B4600CA0DCB0DFF3E031DA22D46084802031DEC
:102B5600AE2D45084702031CB72D4508C702460897
:102B6600031CC803C8024A1401300310C60CC50C66
:102B7600FF3E031DB82D0130CC02031DA12D4B08CD
:102B8600C601C6074A08C501C50708008316031310
:102B96005408D8005508D9005608DA005708DB0053
:102BA60004300310D80DD90DDA0DDB0DFF3E031DE1
:102BB600D42D5B08C8005A08C7005908C600580833
:102BC600C5000130CC001930CB004030CA000030BF
:102BD600C9000A168A117127831603134508FF3E9A
:102BE6009900981318139816181218159814181097
:102BF60083120313981718139812181698111811A0
:102C060098101810831603130C12831203130C1258
:102C1600831603138C16831203138C120800730891
:102C260003191A2E720871047004031D2D2E00302C
:102C3600F0000030F1000030F20008000130F5002D
:102C46007508F30701300310F20CF10CF00CFF3E8F
:102C5600031D262EFE3072050319482E212E013043
:102C6600F5007508F3070130F0070030031801304E
:102C7600F107003003180130F20701300310F20C9F
:102C8600F10CF00CFF3E031D412EFF3072050319B7
:102C9600572E322E0130F30201300310F00DF10DE4
:102CA600F20DFF3E031D502EF11F4D2E7318612E9F
:102CB600FF30F0057F30F105FF30F2050310F30C0D
:102CC6007308F500F601F70110300310F50DF60D47
:102CD600F70DFF3E031D682E7508F0047608F10413
:102CE6007708F204740803190800F217080083161F
:102CF60003139F111F159F101F105A30C800C330B1
:102D0600C700C70B842EC80B842E30300A168A11D2
:102D160017230A168A11183083160313C800EF30DA
:102D2600C700C70B942EC80B942E30300A168A1192
:102D360017230A168A11993083160313C700C70B87
:102D4600A22E30300A168A1117230A168A113D3030
:102D560083160313C700C70BAE2E38300A168A1126
:102D660017230A168A113D3083160313C700C70BB3
:102D7600BA2E01300A168A1117230A168A110C3048
:102D860083160313C800F730C700C70BC82EC80B3D
:102D9600C82E0C300A168A1117230A168A113D30DE
:102DA60083160313C700C70BD62E06300A168A11E0
:102DB60017230A168A113D3083160313C700C70B63
:102DC600E22E08007008F4007108F5007208F6009B
:102DD6000310750D760DF7007708FD00FD08031D3D
:102DE600FD2E0030F3000030F2000030F10000301C
:102DF600F00008007008F4007108F5007208F6008B
:102E060017300310F60CF50CF40CFF3E031D042FCF
:102E16007408F7007708F800F117FF30F005FF3067
:102E2600F1050030F2057008F9007108FA00720821
:102E3600FB00FC018E30FD02FD1F3F2F7D08803A0E
:102E46008F3E03182F2F0030F3000030F2000030C1
:102E5600F1000030F000080001300310FC0CFB0C00
:102E6600FA0CF90CFF3E031D302F0130F4007408F4
:102E7600FD0703195A2F2F2F18307D02031C572FD9
:102E86000030F3000030F2000030F1000030F000B6
:102E960008000130F4000310F90DFA0DFB0DFC0DCE
:102EA600F40B4E2F0130FD02FD08031D4C2F780850
:102EB6000319682FF909FA09FB09FC09F90A03192C
:102EC600FA0A0319FB0A0319FC0A7C08F3007B08BB
:102ED600F2007A08F1007908F0000800831603135F
:102EE600CF01C81F832FC509C609C709C809C50A66
:102EF6000319C60A0319C70A0319C80ACF01CF0A5C
:102F0600CC1F942FC909CA09CB09CC09C90A0319D0
:102F1600CA0A0319CB0A0319CC0A0130CD004D08A1
:102F2600CF060030D3000030D2000030D100003090
:102F3600D00048084704460445040319E92FCE018A
:102F4600CE0AC81BB42F0130CD000310C50DC60D27
:102F5600C70DC80DCD0BA82F0130CD004D08CE07EB
:102F6600A42F0130CD000310D00DD10DD20DD30DFD
:102F7600CD0BB62F48084C02031DCB2F47084B023A
:102F8600031DCB2F46084A02031DCB2F45084902D5
:102F9600031CDC2F4508C9024608031C460FCA025B
:102FA6004708031C470FCB024808031C480FCC02F6
:102FB600501401300310C80CC70CC60CC50CFF3EDC
:102FC600031DDD2F0130CE02031DB42F4F08031958
:102FD600F72FD009D109D209D309D00A0319D10A8A
:102FE6000319D20A0319D30A5308C8005208C700A6
:0A2FF6005108C6005008C50008008D
:02400E0032FF7F
:00000001FF
