:060000000A128A11162805
:10000800FE00030E83160313C6000408C7000A087F
:10001800C800831203137F0883160313C9000A124A
:100028008A15502C0A128A1119288313A0308400CB
:10003800C6300A168A115D210A128A118317903078
:100048008400C2300A168A115D210A128A118316A9
:1000580003170A168A113F210A128A11C2000A16CA
:100068008A1140210A128A11C3000A168A114121F5
:100078000A128A11C4000A168A1142210A128A1128
:10008800C5000A168A1143210A128A11C6000A16E7
:100098008A1144210A128A11C700831603130A160B
:1000A8008A1137210A128A11EA000A168A113821A0
:1000B800EB0083010A128A15AD298316031345083C
:1000C800F901F9074408F801F8070A168A119F216F
:1000D8000A128A11780883160317C2007908C30028
:1000E8007A08C400003083160313A3000030A4006C
:1000F8000030A50083160317450883120313AA00CE
:1001080083160317460883120313AB0083160317DD
:10011800470883120313AC00831603174208F00044
:100128004308F1004408F2000A168A1145210A1210
:100138008A11700883120313AD007108AE007208AB
:10014800AF000A168A11F7260A128A1183120313BE
:100158002A0883160313B200831203132B0883168D
:100168000313B300831203132C0883160313B4007C
:100178003208F0003308F1003408F2000A168A1138
:1001880024250A128A11710883160313C101C107B5
:100198007008C001C0070030F0002030F100413085
:1001A800F2003208F3003308F4003408F5000A16A8
:1001B8008A115F240A128A110318EA28003083166C
:1001C8000313B2002030B3004130B4008316031388
:1001D8003208F0003308F1003408F2000030F30070
:1001E8000030F4000030F5000A168A115F240A1264
:1001F8008A1103180729003083160313B200003050
:10020800B3000030B400831603133208F00033083B
:10021800F1003408F2000030F3002030F4004030E0
:10022800F5000A168A115F240A128A110318702A27
:1002380083160313320883120313C70083160313AC
:10024800330883120313C800831603133408831278
:100258000313C9000030CA008030CB00BF30CC0087
:100268000030CD000030CE000030CF000030D0008C
:10027800C030D1003F30D2000030D3004030D4002D
:100288004030D5000A128A15FA220A128A118312FE
:100298000313470883160313A300831203134808A4
:1002A80083160313A4008312031349088316031348
:1002B800A500230883120313A00083160313240840
:1002C80083120313A1008316031325088312031353
:1002D800A200CD30A300CC30A4003D30A5000A1206
:1002E8008A1500200A128A11831203132008831624
:1002F8000313A60083120313210883160313A70010
:1003080083120313220883160313A8000030B800D1
:100318000030B9000030BA000030BB000030BC002B
:100328000030BD0083120313D901DA015A08803A5C
:10033800FF0080307F02031DA3290B3059020318E8
:10034800702A83160313380883120313C700831611
:100358000313390883120313C800831603133A08DA
:1003680083120313C9000030CA008030CB00BF30AD
:10037800CC000030CD000030CE000030CF0000307F
:10038800D000C030D1003F30D2000030D300403020
:10039800D4004030D5000A128A15FA220A128A11AE
:1003A80083120313470883160313BB008312031336
:1003B800480883160313BC008312031349088316E5
:1003C8000313BD002608F0002708F1002808F200F2
:1003D8003B08F3003C08F4003D08F5000A168A11B2
:1003E8005F240A128A110318092A831603132608A0
:1003F80083120313AA008316031327088312031317
:10040800AB00831603132808182A831603133B0826
:1004180083120313AA00831603133C0883120313E1
:10042800AB00831603133D0883120313AC00660860
:10043800AD006708AE006808AF000A168A11F726F3
:100448000A128A11831203132A08E6002B08E70010
:100458002C08E8000030AA008030AB003F30AC0028
:1004680083160313380883120313AD00831603138E
:10047800390883120313AE00831603133A08831254
:100488000313AF000A168A11F7260A128A1183127B
:1004980003132A0883160313B800831203132B08C7
:1004A80083160313B900831203132C08831603134E
:1004B800BA00013083120313D9070318DA0A00308F
:1004C800DA075A08803AFF0080307F02031D6E2A3F
:1004D8000B305902031CA5290030F0000030F10050
:1004E8004030F200831603133208F3003308F40097
:1004F8003408F5000A168A115F240A128A110318B3
:10050800E22B831603133208F0003308F100340895
:10051800F2000030F300E030F4004030F5000A1635
:100528008A115F240A128A110318E22B8316031317
:10053800320883120313C700831603133308831288
:100548000313C80083160313340883120313C90066
:100558000030CA000030CB004030CC000030CD0065
:10056800A030CE004030CF000030D0000030D100A5
:100578004130D2000A128A1589200A128A11831280
:100588000313470883160313A300831203134808B1
:1005980083160313A4008312031349088316031355
:1005A800A500230883120313A0008316031324084D
:1005B80083120313A1008316031325088312031360
:1005C800A200CD30A300CC30A4003D30A5000A1213
:1005D8008A1500200A128A11831203132008831631
:1005E8000313A90083120313210883160313AA0017
:1005F80083120313220883160313AB000030B800DC
:100608000030B9000030BA000030BB000030BC0038
:100618000030BD0083120313DB01DC015C08803A63
:10062800FF0080307F02031D1B2B0B305B02031879
:10063800E22B83160313380883120313C7008316AB
:100648000313390883120313C800831603133A08E7
:1006580083120313C9000030CA000030CB004030B9
:10066800CC000030CD00A030CE004030CF000030AC
:10067800D0000030D1004130D2000A128A158920FA
:100688000A128A1183120313470883160313BB0047
:1006980083120313480883160313BC008312031341
:1006A800490883160313BD003B08F0003C08F1001D
:1006B8003D08F2002908F3002A08F4002B08F50089
:1006C8000A168A115F240A128A11031C7B2B8316CF
:1006D8000313290883120313AA00831603132A0895
:1006E80083120313AB00831603132B088A2B83167C
:1006F80003133B0883120313AA00831603133C0851
:1007080083120313AB00831603133D0883120313EC
:10071800AC006908AD006A08AE006B08AF000A16A5
:100728008A11F7260A128A11831203132A08E9008C
:100738002B08EA002C08EB000030AA008030AB0040
:100748003F30AC0083160313380883120313AD003F
:1007580083160313390883120313AE008316031399
:100768003A0883120313AF000A168A11F7260A12F1
:100778008A11831203132A0883160313B8008312FD
:1007880003132B0883160313B900831203132C08D1
:1007980083160313BA00013083120313DB0703180F
:1007A800DC0A0030DC075C08803AFF0080307F02FA
:1007B800031DE02B0B305B02031C1D2B0030F000E7
:1007C800E030F1004030F200831603133208F300E2
:1007D8003308F4003408F5000A168A115F240A1257
:1007E8008A1103184B2D831603133208831203133F
:1007F800C70083160313330883120313C800831634
:100808000313340883120313C9000030CA00C03030
:10081800CB004030CC000030CD000830CE00413055
:10082800CF000030D0002030D1004130D20000305D
:10083800D3003030D4004130D5000A128A15FA228C
:100848000A128A1183120313470883160313A3009D
:1008580083120313480883160313A4008312031397
:10086800490883160313A500230883120313A00065
:1008780083160313240883120313A100831603139A
:10088800250883120313A200CD30A300CC30A400A6
:100898003D30A5000A128A1500200A128A11831217
:1008A8000313200883160313AC00831203132108D3
:1008B80083160313AD008312031322088316031350
:1008C800AE000030B8000030B9000030BA00003087
:1008D800BB000030BC000030BD0083120313DD01F3
:1008E800DE015E08803AFF0080307F02031D7E2C07
:1008F8000B305D0203184B2D83160313380883123F
:100908000313C70083160313390883120313C8009F
:10091800831603133A0883120313C9000030CA0070
:10092800E030CB004030CC000030CD000830CE00A5
:100938004130CF000030D0002030D1004130D2000B
:100948000030D3003030D4004130D5000A128A1567
:10095800FA220A128A118312031347088316031313
:10096800BB0083120313480883160313BC008312C9
:100978000313490883160313BD003B08F0003C0825
:10098800F1003D08F2002C08F3002D08F4002E08B1
:10099800F5000A168A115F240A128A11031CE42C36
:1009A800831603132C0883120313AA008316031358
:1009B8002D0883120313AB00831603132E08F32CA0
:1009C800831603133B0883120313AA008316031329
:1009D8003C0883120313AB00831603133D088312EC
:1009E8000313AC006C08AD006D08AE006E08AF00D4
:1009F8000A168A11F7260A128A11831203132A0883
:100A0800EC002B08ED002C08EE000030AA00803026
:100A1800AB003F30AC00831603133808831203136E
:100A2800AD0083160313390883120313AE0083162F
:100A380003133A0883120313AF000A168A11F72624
:100A48000A128A11831203132A0883160313B800A3
:100A5800831203132B0883160313B900831203139D
:100A68002C0883160313BA00013083120313DD0721
:100A78000318DE0A0030DE075E08803AFF00803087
:100A88007F02031D492D0B305D02031C802C83124D
:100A98000313DF01E0016008803AFF0080307F0225
:100AA800031D582D01305F020318C22D831603134E
:100AB8003208F0003308F1003408F2000030F30087
:100AC8002030F4004030F5000A168A115F240A121B
:100AD8008A110318772D831203136608E300670849
:100AE800E4006808B02D831603133208F0003308B9
:100AF800F1003408F2000030F3002030F4004030F8
:100B0800F5000A168A115F240A128A11031CA92DFE
:100B1800831603133208F0003308F1003408F2009A
:100B28000030F300F030F4004030F5000A168A1166
:100B38005F240A128A110318A92D83120313690866
:100B4800E3006A08E4006B08B02D831203136C08F5
:100B5800E3006D08E4006E08E5000130DF070318C4
:100B6800E00A0030E0076008803AFF0080307F022A
:100B7800031DC02D01305F02031C5A2D003083165F
:100B88000313B8000030B9000030BA000030B500D7
:100B98000030B6000030B7000030AF000030B000C1
:100BA8000030B10083120313E101E2016208803AC8
:100BB800FF0080307F02031DE32D0130610203181E
:100BC8009C2E831203136308AA006408AB0065080F
:100BD800AC0083160313350883120313AD00831684
:100BE8000313360883120313AE0083160313370862
:100BF80083120313AF000A168A11F7260A128A1104
:100C0800831203132A0883160313B50083120313F0
:100C18002B0883160313B600831203132C088316BC
:100C28000313B7002F0883120313AA0083160313B4
:100C3800300883120313AB008316031331088312A1
:100C48000313AC006308F8006408F9006508FA00AB
:100C5800831603133808FB003908FC003A08FD0026
:100C68000A128A11FE260A128A11780883120313BF
:100C7800AD007908AE007A08AF000A168A11F72687
:100C88000A128A11831203132A0883160313AF006A
:100C9800831203132B0883160313B0008312031364
:100CA8002C0883160313B100003083120313AA0023
:100CB8008030AB003F30AC00831603133808831232
:100CC8000313AD0083160313390883120313AE0010
:100CD800831603133A0883120313AF000A168A1106
:100CE800F7260A128A11831203132A08831603139C
:100CF800B800831203132B0883160313B900831259
:100D080003132C0883160313BA000130831203134C
:100D1800E1070318E20A0030E2076208803AFF00A0
:100D280080307F02031D9A2E01306102031CE52DDD
:100D380083160313350883120313B70083160313AE
:100D4800360883120313B800831603133708831277
:100D58000313B900831603132F0883120313BA0071
:100D680083160313300883120313BB00831603137F
:100D7800310883120313BC000A168A113F260A128F
:100D88008A1183120313370883160313A0008312F2
:100D98000313380883160313A100831203133908B9
:100DA80083160313A20020088316031799008316DD
:100DB80003132108831603179A00831603132208C6
:100DC800831603179B008316031341084004031975
:100DD8000800003041027830031940020318080067
:100DE8004108F101F1074008F001F0070A168A11DD
:100DF800E1210800780883120313A0007908A100F4
:100E08007A08A2000310210D220DA3002308A400D4
:100E1800A408031D162F0030F8000030F900003038
:100E2800FA0008007B08A0007C08A1007D08A20049
:100E38000310210D220DA3002308A900A908031DF2
:100E48002C2F0030F8000030F9000030FA000800BC
:100E580029087B3EA0002008A4077808A00079088C
:100E6800A1007A08A20010300310A20CA10CA00C5B
:100E7800FF3E031D382F2008A3002308A9007B0884
:100E8800A0007C08A1007D08A20010300310A20C6D
:100E9800A10CA00CFF3E031D4A2F2008A300230825
:100EA800A9068030A0002008A905F917FC17FF3013
:100EB800FB05FF30FC050030FD050030A5000030C3
:100EC800A6000030A7000730A0002008A800781C62
:100ED8007B2F7B08A5077C08031103187C0A031DD8
:100EE800A6077D08031103187D0A031DA707013013
:100EF8000310FA0CF90CF80CFF3E031D7C2F01308F
:100F08000310FB0DFC0DFD0DFF3E031D842F01306A
:100F1800A802031D6B2F0930A0002008A800781C28
:100F2800A32F7B08A5077C08031103187C0A031D5F
:100F3800A6077D08031103187D0A031DA7070130C2
:100F48000310FA0CF90CF80CFF3E031DA42F013016
:100F58000310A70CA60CA50CFF3E031DAC2F0130F7
:100F6800A802031D932F2508F0002608F100270882
:100F7800F2002408A0002008F3002908A100210895
:100F8800F4000A168A11BC247008F8007108F900E8
:100F98007208FA000800831603134C08831203131F
:100FA800FF00831603134B088400831203130A16E9
:100FB8008A1100200A128A110038031908008316C2
:100FC80003134C0883120313FF00831603134B0803
:100FD8008400831203130A168A1100200A128A1148
:100FE8000A168A1170210A128A1101308316031316
:100FF800CB070318CC0ACF2F831203132308F00062
:101008002408F1002508F2002008F3002108F40064
:101018002208F5000A168A115F240A128A15031C91
:101028000800831203132308A0002408A100250840
:10103800A2000800831603139F111F159F101F108D
:101048005A30CD00C330CC00CC0B2828CD0B282833
:1010580030300A168A11B3210A128A1518308316FD
:101068000313CD00EF30CC00CC0B3828CD0B38283B
:1010780030300A168A11B3210A128A15993083165C
:101088000313CC00CC0B462830300A168A11B32142
:101098000A128A153D3083160313CC00CC0B522854
:1010A80038300A168A11B3210A128A153D30831680
:1010B8000313CC00CC0B5E2801300A168A11B32129
:1010C8000A128A150C3083160313CD00F730CC00B2
:1010D800CC0B6C28CD0B6C280C300A168A11B32166
:1010E8000A128A153D3083160313CC00CC0B7A28DC
:1010F80006300A168A11B3210A128A153D30831662
:101108000313CC00CC0B862808000030831203138D
:10111800D3000030D4000030D5004A08F0004B0856
:10112800F1004C08F2004708F3004808F4004908A9
:10113800F5000A168A115F240A128A1503189C29D9
:10114800831203134A08F0004B08F1004C08F20020
:101158004708F3004808F4004908F5000A168A1100
:101168005F240A128A1503180229831203134D08F3
:10117800F0004E08F1004F08F2004708F300480855
:10118800F4004908F5000A168A115F240A128A1524
:10119800031C0229831203134D08AA004E08AB0052
:1011A8004F08AC004A08F0004B08F1004C08F20068
:1011B8000A168A1145210A128A1570088312031328
:1011C800AD007108AE007208AF000A168A11F72642
:1011D8000A128A15831203132A08B7002B08B800CD
:1011E8002C08B9004708AA004808AB004908AC0019
:1011F8004A08F0004B08F1004C085F2983120313DA
:101208004D08F0004E08F1004F08F2004708F300BF
:101218004808F4004908F5000A168A115F240A12E2
:101228008A1503188729831203135008F000510800
:10123800F1005208F2004708F3004808F400490892
:10124800F5000A168A115F240A128A15031C8729D9
:10125800831203134D08AA004E08AB004F08AC00D8
:101268005008F0005108F1005208F2000A168A11DD
:1012780045210A128A15700883120313AD007108FC
:10128800AE007208AF000A168A11F7260A128A15EC
:10129800831203132A08B7002B08B8002C08B900DA
:1012A8004708AA004808AB004908AC005008F000FD
:1012B8005108F1005208F2000A168A1145210A1253
:1012C8008A15700883120313AD007108AE00720806
:1012D800AF000A168A11F7260A128A158312031319
:1012E8002A08BA002B08BB002C08BC000A168A1171
:1012F8003F260A128A15831203133708D3003808C9
:10130800D4003908A329831203135008F0005108A8
:10131800F1005208F2004708F3004808F4004908B1
:10132800F5000A168A115F240A128A150318A429DF
:10133800003083120313D3000030D4000030D500EE
:10134800831203135308C7005408C8005508C9007E
:10135800080001308316031385000130831203133C
:1013680085008316031386018312031386018130D7
:10137800831603138700C030831203138700831674
:101388000313880183120313880183160313890149
:10139800831203138901033090008E018F010030FE
:1013A80083160313DC000130DB00C230DA000030A2
:1013B800D9000A168A1116240A128A150A168A11E1
:1013C80065210A128A150A168A118D210A128A15B0
:1013D8000A168A11BF220A128A150A128A151E20B5
:1013E8000A128A150B178B17443083160313CB0088
:1013F8009030CC000A128A11CF270A128A15613060
:1014080083160313CB009030CC000A128A11CF2721
:101418000A128A150A128A151E200A128A158316BC
:101428000313CA0100300A168A1117220A128A15F4
:10143800753083160313CC009030CD000A168A113C
:1014480031230A128A15003083160313CA000030AC
:10145800CB000A168A1137220A128A150030831621
:101468000313CA000030CB000A168A1158220A1248
:101478008A15EE300A168A1155210A128A15183073
:1014880083160317CA006130C9006E30C800C80B44
:101498004B2AC90B4B2ACA0B4B2A00001E30831655
:1014A8000313D8009130D9004108DB01DB0740085D
:1014B800DA01DA07B8300A128A15ED250A128A15F8
:1014C8001E3083160313D8009130D9004508DB017C
:1014D800DB074408DA01DA07AE300A128A15ED256F
:1014E8000A128A15B83083160313CB000130CC00DA
:1014F8000A128A11CF270A128A159230831603130B
:10150800CB009030CC000A128A11CF270A128A1514
:101518000A168A1108230A128A1583160313CA01A8
:1015280000300A168A1117220A128A1518308316F3
:101538000313CC009130CD000A168A1131230A1208
:101548008A15063083160317C80048088316031344
:10155800CA0000300A168A1117220A128A15B830F2
:1015680083160313CC000130CD000A168A113123EB
:101578000A128A1583160313CA0101300A168A1142
:1015880017220A128A15123083160313CC009130E1
:10159800CD000A168A1131230A128A1506308316DD
:1015A8000317C800480883160313CA0001300A1637
:1015B8008A1117220A128A15AE3083160313CC003B
:1015C8000130CD000A168A1131230A128A15053016
:1015D80083160317CA00AD30C900E030C800C80B35
:1015E800F32AC90BF32ACA0BF32A522A00308312B2
:1015F8000313D6000030D7000030D8004A08F000A6
:101608004B08F1004C08F2004708F3004808F400C2
:101618004908F5000A168A115F240A128A15031868
:101628003F2C831203134A08F0004B08F1004C08C2
:10163800F2004708F3004808F4004908F5000A16C4
:101648008A115F240A128A150318732B8312031355
:101658004D08F0004E08F1004F08F2004708F3006B
:101668004808F4004908F5000A168A115F240A128E
:101678008A15031C732B831203134D08AA004E0806
:10168800AB004F08AC004A08F0004B08F1004C08CA
:10169800F2000A168A1145210A128A157008831267
:1016A8000313AD007108AE007208AF000A168A1164
:1016B800F7260A128A15831203132A08B7002B0883
:1016C800B8002C08B9004708AA004808AB00490828
:1016D800AC004A08F0004B08F1004C08022C8312B9
:1016E80003134708F0004808F1004908F2004D08C4
:1016F800F3004E08F4004F08F5000A168A115F241B
:101708000A128A15031CA52B831203135008F00034
:101718005108F1005208F2004708F3004808F400A5
:101728004908F5000A168A115F240A128A15031C53
:10173800A52B003083120313D6008030D7003F302A
:10174800462C831203135008F0005108F100520888
:10175800F2004708F3004808F4004908F5000A16A3
:101768008A115F240A128A1503182A2C831203137C
:101778005308F0005408F1005508F2004708F30038
:101788004808F4004908F5000A168A115F240A126D
:101798008A15031C2A2C831203135308AA00540821
:1017A800AB005508AC005008F0005108F100520891
:1017B800F2000A168A1145210A128A157008831246
:1017C8000313AD007108AE007208AF000A168A1143
:1017D800F7260A128A15831203132A08B7002B0862
:1017E800B8002C08B9005308AA005408AB005508E3
:1017F800AC004708F0004808F1004908F2000A1652
:101808008A1145210A128A15700883120313AD0044
:101818007108AE007208AF000A168A11F7260A127C
:101828008A15831203132A08BA002B08BB002C0858
:10183800BC000A168A113F260A128A15831203135E
:101848003708D6003808D7003908462C8312031306
:101858005308F0005408F1005508F2004708F30057
:101868004808F4004908F5000A168A115F240A128C
:101878008A150318472C003083120313D600003052
:10188800D7000030D800831203135608C700570842
:10189800C8005808C9000800831203138C1E7B2D4A
:1018A8000A168A11FC210A128A15303A031D752C72
:1018B800EA30F1009030F2000A168A1179220A12F1
:1018C8008A1583160313C401C5014508F101F10700
:1018D8004408F001F0070A168A11E1210A128A1554
:1018E800DC2D0A168A11FC210A128A15313A031DC9
:1018F8008C2CF830F1009030F2000A168A11792207
:101908000A128A15203083160313C4000030C5005C
:101918000A168A11FC210A128A15323A031DA32CD1
:101928000530F1009130F2000A168A1179220A1264
:101938008A15403083160313C4000030C5000A1608
:101948008A11FC210A128A15333A031DC12CCE30A4
:10195800F1009030F2000A168A1179220A128A15CB
:10196800803083160313C4000030C50083120313AC
:101978000618C02C0614C12C06100A168A11FC2160
:101988000A128A15343A031DEB2CB230F10090305C
:10199800F2000A168A1179220A128A150030831673
:1019A8000313C4000130C5004508F101F1074408DC
:1019B800F001F0070A168A11E1210A128A1583122A
:1019C80003138618E92C8614DC2D8610DC2D0A16E4
:1019D8008A11FC210A128A15353A031D022DA430FA
:1019E800F1009030F2000A168A1179220A128A153B
:1019F800003083160313C4000230C5000A168A118A
:101A0800FC210A128A15363A031D192DDC30F10023
:101A18009030F2000A168A1179220A128A150030CB
:101A280083160313C4000330C5000A168A11FC216B
:101A38000A128A15373A031D302DC030F100903054
:101A4800F2000A168A1179220A128A158030831642
:101A58000313C4000330C5000A168A11FC210A12B8
:101A68008A15383A031D472D8630F1009030F20070
:101A78000A168A1179220A128A15E8308316031386
:101A8800C4000330C5000A168A11FC210A128A15FF
:101A9800393A031D5E2D9530F1009030F2000A1698
:101AA8008A1179220A128A15FF3083160313C4009B
:101AB8000330C5000A128A1161200A128A1583169A
:101AC80003134508F901F9074408F801F8070A164D
:101AD8008A119F210A128A15780883160317C500F0
:101AE8007908C6007A08C700831203138C120C1BEE
:101AF8000C130B1DD82DEE300A168A1139210A1243
:101B08008A150130831603133F02F33003193E028E
:101B18000318982D0130BE070318BF0A0030BF070D
:101B2800831203130617D72D83160313BE01BF01B3
:101B3800831203130F0883160313C301C307831209
:101B480003130E0883160313C201C2076B08F101C1
:101B5800F1076A08F001F0074308F301F3074208A8
:101B6800F201F2070A168A1198230A128A157108D7
:101B7800F901F9077008F801F8077830FA00003021
:101B8800FB000A168A119C220A128A157908831604
:101B98000317A701A7077808A601A607831203134E
:101BA8008E018F0106130B110C180C108C198C1157
:101BB80083160313490883120313FF0083160313C4
:101BC80048088A0047088400460E8300FE0E7E0EF1
:101BD800090083160313E800DA30DC005C08DF0034
:101BE800831603135908DD005808DC00D80A0319C6
:101BF800D90A5D0883120313FF00831603135C08D8
:101C08008400831203130A168A1100200A128A1507
:101C180083160313DE005E08E900E9080319F92FAB
:101C28006908253A0319242E6908DC00680884002D
:101C38005C08831780000130DC005C08E807F42D9D
:101C4800E601E701E5012F2E831603136515013020
:101C5800D8070318D90A83160313590883120313E4
:101C6800FF008316031358088400831203130A160F
:101C78008A1100200A128A15303A0319282E442E98
:101C880083160313590883120313FF0083160313E3
:101C980058088400831203130A168A1100200A12B6
:101CA8008A150A168A117D210A128A15031CB02E7C
:101CB80083160313E601E7010A3083160313CA00EB
:101CC8000030CB006708CD01CD076608CC01CC07F2
:101CD8000A168A11E3220A128A15831603134B087F
:101CE800E701E7074A08E601E607590883120313E4
:101CF800FF008316031358088400831203130A167F
:101D08008A1100200A128A15D03E83160313DC00BC
:101D1800FF3003180030DD005C08E6070318E70A07
:101D28005D08E7070130D8070318D90A5908831254
:101D38000313FF0083160313580884008312031348
:101D48000A168A1100200A128A150A168A117D219C
:101D58000A128A150318602E831603135908DD002A
:101D68005808DC00D80A0319D90A5D08831203133E
:101D7800FF00831603135C088400831203130A16FA
:101D88008A1100200A128A1583160313E900003A03
:101D98000319F92F643A0319D52E0D3A0319D52ED4
:101DA800F42D831603135F08840083130008E100F1
:101DB800840A0008E2000230DC005C08DF07E21F4A
:101DC800EE2E0330DC005C08E504E109E209E10AD3
:101DD8000319E20AE901E90A6908053A0319212FFA
:101DE8006908DC005C07123E840090300318013E4D
:101DF80083120313FF000A168A1100200A128A159B
:101E080083160313DD00831203130A168A110020B8
:101E18000A128A1583160313DE005E086202031D88
:101E2800172F5D086102031C212F0130DC005C08BC
:101E3800E9076908053A031DF42E670866040319C3
:101E48002F2F6508033903192F2FFF30E6070318D2
:101E5800E70AFF30E7076908DC00DD01DC1BDD036A
:101E68005D08803ADE006708803A5E02031D3E2F57
:101E780066085C0203184E2F831603136908DC00FA
:101E8800DD01DC1BDD035C08E6025D08031CE703DB
:101E9800E702522F83160313E601E701651D792F28
:101EA800650803390319632F2D30DC0068088400A6
:101EB8005C08831780000130DC005C08E8076708CD
:101EC80066040319A12F3030DC00680884005C0820
:101ED800831780000130DC005C08E807FF30E60764
:101EE8000318E70AFF30E707632F6708660403193A
:101EF800922F2030DC00680884005C08831780007B
:101F08000130DC005C08E807FF30E6070318E70A41
:101F1800FF30E70767086604031D7D2F650803394E
:101F28000319A12F2D30DC00680884005C08831792
:101F380080000130DC005C08E8076908DC005C0808
:101F4800E000FF30DC005C08E0076008FF3A031996
:101F5800F42D0A30D2000030D3006008DC005C07A2
:101F6800123E840090300318013E83120313FF00D1
:101F78000A168A1100200A128A1583160313CA004A
:101F8800831203130A168A1100200A128A1583166F
:101F98000313CB006208CD01CD076108CC01CC0743
:101FA8000A168A11D6230A128A15831603134B08B8
:101FB800D501D5074A08D401D4070A168A11622325
:101FC8000A128A15831603135208303EDD005D0895
:101FD800E9006908DC00680884005C088317800051
:101FE8000130DC005C08E807A52F83160313680896
:101FF8008400831780010800FF1B0A2883137F18B9
:1020080083170008840A0319FF0A08007F087F392C
:102018008A000408840A0319FF0A82000134003484
:102028000A34003464340034E83403341034273478
:102038000A340D3420342D342D342D342D342D34E0
:102048002D342D3420344534533454344F345534DE
:1020580052344F34203444344534203450344934D5
:102068004C344834413420342D342D342D342D341F
:102078002D342D342D3420340A340D3420340034DA
:1020880049346E3469346334693461346C34693486
:102098007A3461346E3464346F3420346F342034CD
:1020A8005034493443343134363446343834373490
:1020B800373441340A340D34003455345334413400
:1020C800523454343A3420343134313435342E34A3
:1020D8003234303430346234703473340A340D346A
:1020E800003449346E3469346334693461346C348F
:1020F80069347A3461346E3464346F342E342E3457
:102108002E3400340A340D34703477346D3420346E
:102118003D34203431343034303430340A340D34E2
:1021280000340A340D34703477346D3420343D343F
:10213800203431343034323433340A340D340034FA
:102148000A340D34703477346D3420343D342034FF
:102158003534313432340A340D3400340A340D3411
:10216800703477346D3420343D342034323435348F
:1021780036340A340D3400340A340D34703477346C
:102188006D3420343D3420343834393436340A340C
:102198000D3400340A340D34703477346D342034FF
:1021A8003D3420343134323438340A340D34003478
:1021B8000A340D34703477346D3420343D3420348F
:1021C8003734363438340A340D3400340A340D3494
:1021D8006434653473346C3469346734613464341A
:1021E8006F340A340D3400340A340D3470347734C3
:1021F8006D3420343D342034333432340A340D34D1
:1022080000340A340D34703477346D3420343D345E
:102218002034363434340A340D34003450345734CE
:102228004D343A342034003444346C3456343A341F
:0E22380020340034253430343434643400341F
:10226E0007340034F0007008831203138100080055
:10227E000034A03441340034A03441347208710467
:10228E007004031908008030F2060800F000831273
:10229E0003130C1E4E2970089900080083160313B1
:1022AE00CA004A08831203138100080064008001EB
:1022BE00840A04060319003404065E2983160313E8
:1022CE008112011281110115811401140B118B164B
:1022DE00080083160313CA0083120C1E732983167B
:1022EE0003134A088312031399000800831603137D
:1022FE00CB00CA013A304B0203188B2930304B0207
:10230E00031C8B29CA01CA0A4A0C08008316031340
:10231E009F179F151F159F141F10831203139F17CE
:10232E001F13831603130C13831203130C130800CD
:10233E007808F0007908F100F2018E30FB007B087E
:10234E00F300F4010A168A11BC247008F800710813
:10235E00F9007208FA00080083160313CB008312EB
:10236E0003130910831603134B08831203138800FB
:10237E0089143D3083160313CA00CA0BC429831275
:10238E0003138910080083160313CB008312031363
:10239E000914831603134B08831203138800891440
:1023AE003D3083160313CA00CA0BDB2983120313B5
:1023BE00891008007108F3007008F200730DF30C19
:1023CE00F20C730DF30CF20C7208831203139B00C4
:1023DE007008F20003300310F20DFF3E031DF229C8
:1023EE000310720D0C389D00080083120313981809
:1023FE00052A1A08F3007308F400142A1C30F100A1
:10240E009030F2000A168A117922831203131812E1
:10241E001A08F3007308F40018168C1274080800DA
:10242E0083160313CC0083120313091083160313B0
:10243E00CC08031D252A4A08803E292A8316031339
:10244E004A08C03E83120313880089143D30831658
:10245E000313CB00CB0B312A831203138910080010
:10246E00831603134B08CD004A08CC004D0DCD0C3E
:10247E00CC0C4D0DCD0CCC0C4C08831203139500D7
:10248E00831603134A08CC0003300310CC0DFF3E15
:10249E00031D4C2A03104C0D0C38831203139700A6
:1024AE000800831603134B08CD004A08CC004D0DCF
:1024BE00CD0CCC0C4D0DCD0CCC0C4C088312031353
:1024CE009B00831603134A08CC0003300310CC0D77
:1024DE00FF3E031D6D2A03104C0D0C38831203139F
:1024EE009D000800720883120313FF007108840018
:1024FE000A168A1100200A168A11003803190800DC
:10250E00720883120313FF00710884000A168A11E1
:10251E0000200A168A110A168A114D210A168A11EE
:10252E000130F1070318F20A792AFC01FD01781C2B
:10253E00A62A7A08FC070318FD0A7B08FD0701305E
:10254E000310FA0DFB0DFF3E031DA72A01300310E9
:10255E00F90CF80CFF3E031DAE2A79087804031D12
:10256E009E2A7D08F901F9077C08F801F807080092
:10257E00831203139214121012139212121292114A
:10258E001215FF308316031392008312031397154F
:10259E00171597141714831603130C1583120313B0
:1025AE000C119D151D159D141D14831603130D146A
:1025BE00831203130D10080083160313CE01CF01EF
:1025CE004A1CEF2A4C08CE070318CF0A4D08CF0736
:1025DE0001300310CC0DCD0DFF3E031DF02A01304E
:1025EE000310CB0CCA0CFF3E031DF72A4B084A04FE
:1025FE00031DE72A4F08CB01CB074E08CA01CA07B5
:10260E00080001300A168A11B3210A168A110C30FD
:10261E0083160313CD00F730CC00CC0B142BCD0B4F
:10262E00142B0C300A168A11B3210A168A113D306A
:10263E0083160313CC00CC0B222B06300A168A11FC
:10264E00B3210A168A113D3083160313CC00CC0B2E
:10265E002E2B0800831603134D0883120313FF005D
:10266E00831603134C088400831203130A168A116F
:10267E0000200A168A110038031908008316031366
:10268E004D0883120313FF00831603134C088400B6
:10269E00831203130A168A1100200A168A110A16CB
:1026AE008A11CA210A168A11013083160313CC0728
:1026BE000318CD0A312B8316031353085204031942
:1026CE00912BD701D70AD31B782B01300310D20DD3
:1026DE00D30DFF3E031D6D2B0130D6005608D707D4
:1026EE006A2B53085502031D7E2B52085402031CFD
:1026FE00862B5208D4025308031CD503D502013091
:10270E000310D30CD20CFF3E031D872B0130D702D2
:10271E00031D782B5508D301D3075408D201D207D5
:10272E000800F501F601710870040319CF2BF701AB
:10273E00F70AF11BAE2B01300310F00DF10DFF3E29
:10274E00031DA32B0130F4007408F707A02B0130F2
:10275E000310F50DF60DFF3E031DAF2B710873022E
:10276E00031DBB2B70087202031CC42B7008F202EF
:10277E007108031CF303F302751401300310F10CFE
:10278E00F00CFF3E031DC52B0130F702031DAE2BCF
:10279E007608F101F1077508F001F00708008316BD
:1027AE000313CF01D0014B084A0403190F2CD1019A
:1027BE00D10ACB1BEE2B01300310CA0DCB0DFF3E01
:1027CE00031DE32B0130CE004E08D107E02B013064
:1027DE000310CF0DD00DFF3E031DEF2B4B084D0206
:1027EE00031DFB2B4A084C02031C042C4A08CC0286
:1027FE004B08031CCD03CD024F1401300310CB0C3C
:10280E00CA0CFF3E031D052C0130D102031DEE2B19
:10281E005008CB01CB074F08CA01CA070800831620
:10282E0003135908DD005A08DE005B08DF005C0860
:10283E00E00004300310DD0DDE0DDF0DE00DFF3E78
:10284E00031D212C6008CD005F08CC005E08CB0074
:10285E005D08CA000130D1001930D0004030CF00E1
:10286E000030CE000A168A11B025831603134A08CB
:10287E00FF3E9900981318139816181218159814ED
:10288E00181083120313981718139812181698110C
:10289E00181198101810831603130C1283120313B9
:1028AE000C12831603138C16831203138C1208005A
:1028BE00F21F862C0030F6000030F7008030F80052
:1028CE007009F9007109FA007209FB00F90A03197F
:1028DE00FA0A0319FB0A7908F6077A0803187A0F21
:1028EE00792C7A2CF7077B0803187B0F7F2C802C12
:1028FE00F8077608F0007708F1007808F200F51F67
:10290E00AD2C0030F6000030F7008030F80073096F
:10291E00F9007409FA007509FB00F90A0319FA0A9D
:10292E000319FB0A7908F6077A0803187A0FA02C08
:10293E00A12CF7077B0803187B0FA62CA72CF807F2
:10294E007608F3007708F4007808F5008030F20678
:10295E008030F50675087202031D080074087102B6
:10296E00031D080073087002080073080319C42CB5
:10297E00720871047004031DD72C0030F000003073
:10298E00F1000030F20008000130F5007508F30781
:10299E0001300310F20CF10CF00CFF3E031DD02C95
:1029AE00FE3072050319F22CCB2C0130F5007508A0
:1029BE00F3070130F007003003180130F107003043
:1029CE0003180130F20701300310F20CF10CF00C79
:1029DE00FF3E031DEB2CFF3072050319012DDC2C7D
:1029EE000130F30201300310F00DF10DF20DFF3E38
:1029FE00031DFA2CF11FF72C73180B2DFF30F00569
:102A0E007F30F105FF30F2050310F30C7308F5006B
:102A1E00F601F70110300310F50DF60DF70DFF3E20
:102A2E00031D122D7508F0047608F1047708F204E0
:102A3E00740803190800F21708007008F4007108F2
:102A4E00F5007208F6000310750D760DF700770885
:102A5E00FD00FD08031D3C2D0030F3000030F20098
:102A6E000030F1000030F00008007008F40071082A
:102A7E00F5007208F60017300310F60CF50CF40C86
:102A8E00FF3E031D432D7408F7007708F800F11779
:102A9E00FF30F005FF30F1050030F2057008F90047
:102AAE007108FA007208FB00FC018E30FD02FD1F5A
:102ABE007E2D7D08803A8F3E03186E2D0030F30078
:102ACE000030F2000030F1000030F000080001305C
:102ADE000310FC0CFB0CFA0CF90CFF3E031D6F2DC2
:102AEE000130F4007408FD070319992D6E2D18306E
:102AFE007D02031C962D0030F3000030F2000030F2
:102B0E00F1000030F00008000130F4000310F90D60
:102B1E00FA0DFB0DFC0DF40B8D2D0130FD02FD08A1
:102B2E00031D8B2D78080319A72DF909FA09FB0946
:102B3E00FC09F90A0319FA0A0319FB0A0319FC0A1C
:102B4E007C08F3007B08F2007A08F1007908F000A7
:102B5E00080083160313D401CD1FC22DCA09CB0959
:102B6E00CC09CD09CA0A0319CB0A0319CC0A0319D9
:102B7E00CD0AD401D40AD11FD32DCE09CF09D00945
:102B8E00D109CE0A0319CF0A0319D00A0319D10AA3
:102B9E000130D2005208D4060030D8000030D700E1
:102BAE000030D6000030D5004D084C044B044A04CA
:102BBE000319282ED301D30ACD1BF32D0130D200D9
:102BCE000310CA0DCB0DCC0DCD0DD20BE72D013060
:102BDE00D2005208D307E32D0130D2000310D50DD9
:102BEE00D60DD70DD80DD20BF52D4D085102031D64
:102BFE000A2E4C085002031D0A2E4B084F02031DCD
:102C0E000A2E4A084E02031C1B2E4A08CE024B08FF
:102C1E00031C4B0FCF024C08031C4C0FD0024D0867
:102C2E00031C4D0FD102551401300310CD0CCC0CEA
:102C3E00CB0CCA0CFF3E031D1C2E0130D302031D0C
:102C4E00F32D54080319362ED509D609D709D809FC
:102C5E00D50A0319D60A0319D70A0319D80A580830
:102C6E00CD005708CC005608CB005508CA00080006
:102C7E00831203133A08BD003B08BE003C08BF0098
:102C8E0003103E0D3F0DC0004008C500C508031DD2
:102C9E00572E0030B7000030B8000030B9000800E1
:102CAE003708BD003808BE003908BF0003103E0DBE
:102CBE003F0DC0004008C600C608031D6D2E003033
:102CCE00B7000030B8000030B90008000030C20074
:102CDE000030C3000030C40089304607BD003D08F7
:102CEE00C5023A08BD003B08BE003C08BF001030CC
:102CFE000310BF0CBE0CBD0CFF3E031D7F2E3D0806
:102D0E00C0004008C6003708BD003808BE003908AC
:102D1E00BF0010300310BF0CBE0CBD0CFF3E031DD8
:102D2E00912E3D08C0004008C6068030BD003D080B
:102D3E00C605BB17FF30BA05FF30BB050030BC051A
:102D4E00B817FF30B705FF30B8050030B905183099
:102D5E00BD003D08C10001300310C20DC30DC40DEE
:102D6E00FF3E031DB32E39083C02031DC42E380846
:102D7E003B02031DC42E37083A02031CD12E37081E
:102D8E00BA023808031C380FBB023908031C390A73
:102D9E00BC02421401300310BA0DBB0DBC0DFF3E38
:102DAE00031DD22E0130C102031DB22E4208F000C7
:102DBE004308F1004408F2004508BD003D08F30049
:102DCE004608BE003E08F4000A168A11BC2470089C
:102DDE0083120313B7007108B8007208B900080017
:102DEE00831203132A08B0002B08B1002C08B2007E
:102DFE000310310D320DB3003308B6002D08B000AC
:102E0E002E08B1002F08B2000310310D320DB300A1
:102E1E003308B50036080319202F3508360203187B
:102E2E00272F3603FF3A3507B00019303002031C46
:102E3E00272F2D08AA002E08AB002F08AC00080083
:102E4E00350803190800360835020318362F3503E6
:102E5E00FF3A3607B000193030020318080006306A
:102E6E00B0003008B400AC1BB417AF1B3417AB174F
:102E7E00FF30AA05FF30AB050030AC05AE17FF30B2
:102E8E00AD05FF30AE050030AF053508360203182C
:102E9E00762F01300310AD0DAE0DAF0DFF3E031DAD
:102EAE00512F0130B502350836060319712F013046
:102EBE00B402340807390319712F502F0130031053
:102ECE00AC0CAB0CAA0CFF3E031D662F0130B000FC
:102EDE003008B6073608350603199F2F652F3608BA
:102EEE00350203189F2F01300310AA0DAB0DAC0D48
:102EFE00FF3E031D7B2F0130B6023508360603193F
:102F0E009B2F0130B4023408073903199B2F7A2FF7
:102F1E0001300310AF0CAE0CAD0CFF3E031D902F15
:102F2E000130B0003008B50736083506031D8F2F67
:102F3E00B41FB12FFF30AA06FF30AB06FF30AC0630
:102F4E000130AA07003003180130AB070030031818
:102F5E000130AC07341FC32FFF30AD06FF30AE0675
:102F6E00FF30AF060130AD07003003180130AE0759
:102F7E00003003180130AF07B4012A08AD072B0843
:102F8E00031103182B0A031DAE072C080311031897
:102F9E002C0A031DAF07AF1FE62FFF30AD06FF3023
:102FAE00AE06FF30AF060130AD070030031801301A
:102FBE00AE07003003180130AF07B401B40A2D0874
:102FCE00F0002E08F1002F08F2003608B00030088D
:102FDE00F3003408B1003108F4000A168A11BC243B
:102FEE00700883120313AA007108AB007208AC00BC
:022FFE000800C9
:02400E0032FF7F
:00000001FF
