:060000000A128A11122809
:10000800FE00030E83120313E5000408E6000A0845
:10001800E7007F08E8000A128A15802E0A128A1162
:100028001528E901EA01EB01EC01ED01EE0183136A
:10003800C2308400DE300A168A11A4220A128A11FC
:10004800831790308400B3300A168A11A4220A124A
:100058008A11831603130A168A1189220A128A1131
:10006800DE000A168A118A220A128A11DF000A168D
:100078008A118B220A128A11E0000A168A118C2230
:100088000A128A11E1000A168A118D22E200830100
:100098000A128A154A2B0313230883160313BF0079
:1000A80083120313240883160313C0008312031357
:1000B800250883160313C1000130AA070318AB0AE9
:1000C8000030AB072B08803AFF0080307F02031D09
:1000D8006F2810302A02031CDB2F0030831603130D
:1000E8005502643003195402031C082A03305502D0
:1000F800EA30031954020318082A3308803AFF002B
:1001080080307F02031D8A28C93032020318082A6A
:10011800003083120313CC004830CD004330CE00AA
:100128000030C9008030CA003F30CB000030C60024
:100138000030C7000030C8000030C3008030C40061
:10014800BF30C500831603133308F901F9073208D5
:10015800F801F8070A168A11CE230A128A117808BC
:1001680083120313C0007908C1007A08C2000A127A
:100178008A152A250A128A11831203134008831646
:100188000313A00083120313410883160313A1006D
:1001980083120313420883160313A200C03083128C
:1001A8000313CC00C130CD004430CE000030C9006C
:1001B8004830CA004430CB000030C6004830C70081
:1001C8004430C8000030C3004830C4004230C50085
:1001D800831603135508F901F9075408F801F807BD
:1001E8000A168A11E1220A128A1178088312031367
:1001F800C0007908C1007A08C2000A128A152A25A7
:100208000A128A11831203134008D2004108D3004E
:100218004208D4000030A3008030A4003F30A5007D
:1002280083160313200883120313A00083160313F5
:10023800210883120313A1008316031322088312D3
:100248000313A2000A168A11AC220A128A11831219
:1002580003132008A6002108A7002208A8000A12F4
:100268008A1521240A128A11831203132308D50040
:100278002408D6002508D7000A128A1577220A1200
:100288008A1183120313520883160313BC008312C6
:100298000313530883160313BD0083120313540872
:1002A80083160313BE000030BF000030C0000030CA
:1002B800C100AC01AD012D08803AFF0080307F02FB
:1002C800031D682910302C020318082A831603130B
:1002D8003F0883120313C0008316031340088312D8
:1002E8000313C10083160313410883120313C200CA
:1002F8000030C3000030C4004030C5000030C600E4
:10030800A030C7004030C8000030C900A030CA0083
:100318004030CB000030CC002030CD004130CE0042
:100328000A128A152A250A128A1183120313400811
:1003380083160313CB008312031341088316031398
:10034800CC0083120313420883160313CD004B0815
:10035800F0004C08F1004D08F2003C08F3003D089D
:10036800F4003E08F5000A168A113C250A128A1183
:10037800031CC629831603133C08CB003D08CC0098
:100388003E08CD00003083120313A3008030A40080
:100398003F30A500831603133F0883120313A600FA
:1003A80083160313400883120313A700831603134D
:1003B800410883120313A8000A128A1521240A127D
:1003C8008A1183120313230883160313BF008312B1
:1003D8000313240883160313C0008312031325088C
:1003E80083160313C1000130AC070318AD0A0030AF
:1003F800AD072D08803AFF0080307F02031D062AD2
:1004080010302C02031C6A2900308316031355028E
:10041800643003195402031C612B03305502EA307F
:10042800031954020318612B3308803AFF00803007
:100438007F02031D212AC9303202031C612B2030A0
:1004480083120313CC00FA30CD004430CE000030C4
:10045800C900FA30CA004430CB000030C600FA3078
:10046800C7004330C8000030C3004830C4004330E0
:10047800C500831603133308F901F9073208F80198
:10048800F8070A168A11CE230A128A1178088312ED
:100498000313C0007908C1007A08C2000A128A153D
:1004A8002A250A128A11831203134008D200410830
:1004B800D3004208D400C030CC00C130CD00443055
:1004C800CE000030C9004830CA004430CB000030AC
:1004D800C6004830C7004430C8000030C300483068
:1004E800C4004230C500831603135508F901F90703
:1004F8005408F801F8070A168A11E1220A128A112B
:10050800780883120313C0007908C1007A08C20072
:100518000A128A152A250A128A118312031340081F
:10052800D5004108D6004208D7000A128A1577225A
:100538000A128A1183120313520883160313BC008C
:1005480083120313530883160313BD008312031386
:10055800540883160313BE000030BF000030C000EB
:100568000030C100AE01AF012F08803AFF00803093
:100578007F02031DC12A10302E020318612B831637
:1005880003133F0883120313C000831603134008A4
:1005980083120313C1008316031341088312031344
:1005A800C2000030C3000030C4004030C500003035
:1005B800C600A030C7004030C8000030C900A030D5
:1005C800CA004030CB000030CC002030CD00413094
:1005D800CE000A128A152A250A128A1183120313D9
:1005E800400883160313C8008312031341088316B7
:1005F8000313C90083120313420883160313CA00A6
:100608004808F0004908F1004A08F2003C08F300E5
:100618003D08F4003E08F5000A168A113C250A1226
:100628008A11031C1F2B831603133C08C8003D08BE
:10063800C9003E08CA00003083120313A3008030AB
:10064800A4003F30A500831603133F088312031349
:10065800A60083160313400883120313A70083160A
:100668000313410883120313A8000A128A152124D0
:100678000A128A1183120313230883160313BF0077
:1006880083120313240883160313C0008312031371
:10069800250883160313C1000130AE070318AF0AFB
:1006A8000030AF072F08803AFF0080307F02031D1B
:1006B8005F2B10302E02031CC32A0330831603134A
:1006C8005502E93003195402031C5D2C5508F90141
:1006D800F9075408F801F8070A168A11E1220A12E4
:1006E8008A11780883120313C0007908C1007A08B8
:1006F800C2004030C3007A30C4004430C5008030A6
:10070800C600BB30C7004430C8000030C900FA300A
:10071800CA004430CB002030CC00FA30CD00443041
:10072800CE000A128A152A250A128A118312031387
:10073800400883160313BC00831203134108831671
:100748000313BD0083120313420883160313BE006C
:100758000030BF000030C0000030C100B001B1015E
:100768003108803AFF0080307F02031DBD2B103016
:10077800300203185D2C831603133F0883120313FA
:10078800C00083160313400883120313C1008316A5
:100798000313410883120313C2000030C300A030C2
:1007A800C4004030C5000030C6002030C7004130CA
:1007B800C8000030C9007030CA004130CB0000309A
:1007C800CC008030CD004130CE000A128A152A258F
:1007D8000A128A1183120313400883160313C500F3
:1007E80083120313410883160313C60083120313ED
:1007F800420883160313C7004508F0004608F100B5
:100808004708F2003C08F3003D08F4003E08F500F4
:100818000A168A113C250A128A11031C1B2C8316FE
:1008280003133C08C5003D08C6003E08C700003059
:1008380083120313A3008030A4003F30A500831661
:1008480003133F0883120313A600831603134008FB
:1008580083120313A700831603134108831203139B
:10086800A8000A128A1521240A128A118312031376
:10087800230883160313BF00831203132408831667
:100888000313C00083120313250883160313C10042
:100898000130B0070318B10A0030B1073108803AB7
:1008A800FF0080307F02031D5B2C10303002031CD8
:1008B800BF2B003083160313BF000030C000003088
:1008C800C1000030B7000030B8000030B900003077
:1008D800B4000030B5000030B600BA01BB013B08D7
:1008E800803AFF0080307F02031D7C2C10303A02D2
:1008F8000318BC2E83160313BB1B202D3B08803A1C
:10090800FF0080307F02031D8B2C06303A0203184B
:10091800202D831603134B0883120313A300831699
:1009280003134C0883120313A400831603134D0802
:1009380083120313A50083160313370883120313C6
:10094800A60083160313380883120313A70083161F
:100958000313390883120313A8000A128A152124E5
:100968000A128A1183120313230883160313B7008C
:1009780083120313240883160313B8008312031386
:10098800250883160313B9003F0883120313D50003
:1009980083160313400883120313D6008316031328
:1009A800410883120313D700831603134B088312DD
:1009B8000313D200831603134C0883120313D300C6
:1009C800831603134D0883120313D4000A128A15E1
:1009D80077220A128A11831203135208A3005308BC
:1009E800A4005408A50083160313340883120313C4
:1009F800A60083160313350883120313A700831672
:100A08000313360883120313A8000A128A15212437
:100A18000A128A1183120313230883160313B400DE
:100A280083120313240883160313B50083120313D8
:100A3800250883160313B600831603133B08803A70
:100A4800FF0080307F02031D2B2D05303A02031C66
:100A5800CD2D831603133B08803AFF0080307F02B8
:100A6800031D382D0B303A020318CD2D83160313BE
:100A7800480883120313A30083160313490883123B
:100A88000313A400831603134A0883120313A50053
:100A980083160313370883120313A6008316031360
:100AA800380883120313A700831603133908831227
:100AB8000313A8000A128A1521240A128A11831224
:100AC8000313230883160313B700831203132408A0
:100AD80083160313B8008312031325088316031320
:100AE800B9003F0883120313D50083160313400887
:100AF80083120313D60083160313410883120313CA
:100B0800D70083160313480883120313D2008316F1
:100B18000313490883120313D300831603134A08E7
:100B280083120313D4000A128A1577220A128A1133
:100B3800831203135208A3005308A4005408A50005
:100B480083160313340883120313A60083160313B2
:100B5800350883120313A70083160313360883127C
:100B68000313A8000A128A1521240A128A11831273
:100B78000313230883160313B400831203132408F2
:100B880083160313B5008312031325088316031372
:100B9800B600831603133B08803AFF0080307F02BB
:100BA800031DD82D0A303A02031C7A2E831603132C
:100BB8003B08803AFF0080307F02031DE52D10308E
:100BC8003A0203187A2E8316031345088312031377
:100BD800A30083160313460883120313A400831685
:100BE8000313470883120313A5008316031337085A
:100BF80083120313A6008316031338088312031302
:100C0800A70083160313390883120313A8000A12D6
:100C18008A1521240A128A118312031323088316C2
:100C28000313B70083120313240883160313B800B1
:100C380083120313250883160313B9003F08831290
:100C48000313D50083160313400883120313D60039
:100C580083160313410883120313D7008316031363
:100C6800450883120313D200831603134608831220
:100C78000313D30083160313470883120313D40006
:100C88000A128A1577220A128A118312031352084C
:100C9800A3005308A4005408A500831603133408BE
:100CA80083120313A6008316031335088312031354
:100CB800A70083160313360883120313A8000A1229
:100CC8008A1521240A128A11831203132308831612
:100CD8000313B40083120313240883160313B50007
:100CE80083120313250883160313B60000308312FA
:100CF8000313A3008030A4003F30A500831603131C
:100D08003F0883120313A6008316031340088312B7
:100D18000313A70083160313410883120313A800C3
:100D28000A128A1521240A128A118312031323082E
:100D380083160313BF0083120313240883160313B7
:100D4800C00083120313250883160313C100013062
:100D5800BA070318BB0A0030BB073B08803AFF00FC
:100D680080307F02031DBA2E10303A02031C7E2CFD
:100D7800003083160313A5000030A6000030A7003A
:100D88003908380437040319022F3708831203136C
:100D9800B00083160313380883120313B1008316B7
:100DA8000313390883120313B2008316031334089C
:100DB80083120313B3008316031335088312031336
:100DC800B40083160313360883120313B5000A12FE
:100DD8008A15BF210A128A11831203133008831659
:100DE8000313A50083120313310883160313A60007
:100DF80083120313320883160313A7005B085902F2
:100E0800031D082F5A085802031C0E2FFF30A80094
:100E1800FF30112F0130A8000030A90029088312E3
:100E28000313BD01BD078316031328088312031398
:100E3800BC01BC07831603135508F901F9075408C8
:100E4800F801F8070A168A11E1220A128A117808AD
:100E580083120313A3007908A4007A08A500831657
:100E68000313250883120313A0008316031326080F
:100E780083120313A1008316031327088312031395
:100E8800A2000A168A1190230A128A1183120313E8
:100E98002008AC002108AD002208AE000A168A110D
:100EA800E3260A128A11831203132D08BB01BB071C
:100EB8002C08BA01BA070A168A1134240A128A11B0
:100EC800831603136008831203133A078316031368
:100ED800A30061080318610A831203133B078316F2
:100EE8000313A400003083120313A9000030AA00E2
:100EF8000030AB00C030A3007F30A4004430A50010
:100F0800831603132408F901F9072308F801F807E1
:100F18000A168A11E1220A128A1178088312031329
:100F2800A0007908A1007A08A2000A168A11902365
:100F38000A128A11831203132008A6002108A700A9
:100F48002208A8000A168A1172230A128A1183122B
:100F580003132608AC002708AD002808AE000A16BF
:100F68008A11E3260A128A11831203132D088316A5
:100F78000313E101E107831203132C0883160313FB
:100F8800E001E00761086004031908000430610209
:100F9800003003196002031808006108F101F10725
:100FA8006008F001F0070A168A113B2308000A12AC
:100FB8008A153F29831603173408B6003308B5008D
:100FC800360DB60CB50C360DB60CB50C35088312BB
:100FD80003139B00831603173308B500033003106F
:100FE800B50DFF3E031DF32F0310350D0C3883128A
:060FF80003139D00080038
:10100400F901F9077008F801F8070A168A11CE23C6
:101014000A128A15780883120313A0007908A10024
:101024007A08A2000A168A1190230A128A158312DA
:1010340003132008A6002108A7002208A8000A1606
:101044008A1172230A128A15831203132608AC002C
:101054002708AD002808AE000A168A11E3260A12F2
:101064008A15831203132D0883160313B301B307E0
:10107400831203132C0883160313B201B207003042
:10108400BF000030C0000030C1000030BC000030A0
:10109400BD000030BE000030550265300319540213
:1010A4000A128A11031871285508F901F90754081E
:1010B400F801F8070A168A11E1220A128A1578083B
:1010C40083120313C0007908C1007A08C2000030FB
:1010D400C3008030C400BF30C5000030C6000030FB
:1010E400C7000030C8000030C9008030CA003F305B
:1010F400CB000030CC00C830CD004230CE000A1204
:101104008A152A2583120A128A151B290030831294
:101114000313A300FA30A4004430A500831603137C
:10112400580983120313E200831603135909831227
:101134000313E300E20A0319E30A831603135A08AC
:10114400831203136207F000831603135B0803186A
:101154005B0A831203136307F1000A168A11C12282
:101164000A128A157108F901F9077008F801F807DD
:101174000A168A11CE230A128A15780883120313D9
:10118400A0007908A1007A08A2000A168A11902307
:101194000A128A15831203132008AC002108AD003B
:1011A4002208AE000A168A11E3260A128A1583124F
:1011B40003132D0883160313D501D50783120313D4
:1011C4002C0883160313D401D407003083120313AD
:1011D400A9008030AA003F30AB000030A3007A3071
:1011E400A4004430A500831603134E09831203138D
:1011F400E200831603134F0983120313E300E20A88
:101204000319E30A831603135408831203136207B2
:10121400F0008316031355080318550A83120313A9
:101224006307F1000A168A11C12271080A128A158D
:1012340002280313400883160313BC00831203130C
:10124400410883160313BD00831203134208831657
:101254000313BE000030BF000030C0000030C100E6
:10126400AA01AB012B08803AFF0080307F02031DE6
:101274003D2910302A020318BC29831603133F08A2
:1012840083120313C000831603134008831203134D
:10129400C10083160313410883120313C2000030F4
:1012A400C3008030C400BF30C5000030C600003029
:1012B400C7000030C8000030C9000030CA00003048
:1012C400CB000030CC00A030CD004030CE000A125C
:1012D4008A152A250A128A158312031340088316D5
:1012E4000313CB0083120313410883160313CC00AA
:1012F40083120313420883160313CD004B08F00036
:101304004C08F1004D08F2003C08F3003D08F400DD
:101314003E08F5000A168A113C250A128A15031C98
:101324009B29831603133C08CB003D08CC003E08E0
:10133400CD00003083120313A3008030A4003F309B
:10134400A500831603133F0883120313A600831614
:101354000313400883120313A700831603134108E1
:1013640083120313A8000A128A15212483120A1275
:101374008A114F280A128A11712883120313330821
:10138400B6003408B7003508B8000310370D380D1F
:10139400B9003908BE00BE08031DD7290030B000CB
:1013A4000030B1000030B20008003008B600310847
:1013B400B7003208B8000310370D380DB9003908EA
:1013C400BF00BF08031DED290030B0000030B1009C
:1013D4000030B20008000030BB000030BC00003018
:1013E400BD0089303F07B6003608BE023308B60098
:1013F4003408B7003508B80010300310B80CB70C27
:10140400B60CFF3E031DFF293608B9003908BF009A
:101414003008B6003108B7003208B80010300310A5
:10142400B80CB70CB60CFF3E031D112A3608B900E0
:101434003908BF068030B6003608BF05B417FF3040
:10144400B305FF30B4050030B505B117FF30B00562
:10145400FF30B1050030B2051830B6003608BA00C6
:1014640001300310BB0DBC0DBD0DFF3E031D332A1F
:1014740032083502031D442A31083402031D442A6C
:1014840030083302031C512A3008B3023108031C0C
:10149400310FB4023208031C320AB5023B14013086
:1014A4000310B30DB40DB50DFF3E031D522A0130D8
:1014B400BA02031D322A3B08F0003C08F1003D0843
:1014C400F2003E08B6003608F3003F08B7003708BC
:1014D400F4000A168A119925700883120313B000C8
:1014E4007108B1007208B200080083120313520895
:1014F400D8005308D9005408DA000310590D5A0DC6
:10150400DB005B08DC00DC08031D8F2A0030D200FE
:101514000030D3000030D40008005508D800560825
:10152400D9005708DA000310590D5A0DDB005B0887
:10153400E100E108031DA52A0030D2000030D300E9
:101544000030D400080061087B3ED8005808DC074E
:101554005208D8005308D9005408DA001030031098
:10156400DA0CD90CD80CFF3E031DB12A5808DB0055
:101574005B08E1005508D8005608D9005708DA007E
:1015840010300310DA0CD90CD80CFF3E031DC32A0B
:101594005808DB005B08E1068030D8005808E105F4
:1015A400D317D617FF30D505FF30D6050030D70541
:1015B4000030DD000030DE000030DF000730D800EE
:1015C4005808E000521CF42A5508DD075608031198
:1015D4000318560A031DDE07570803110318570A98
:1015E400031DDF0701300310D40CD30CD20CFF3ED3
:1015F400031DF52A01300310D50DD60DD70DFF3E7E
:10160400031DFD2A0130E002031DE42A0930D8003D
:101614005808E000521C1C2B5508DD07560803111E
:101624000318560A031DDE07570803110318570A47
:10163400031DDF0701300310D40CD30CD20CFF3E82
:10164400031D1D2B01300310DF0CDE0CDD0CFF3EEF
:10165400031D252B0130E002031D0C2B5D08F00057
:101664005E08F1005F08F2005C08D8005808F30037
:101674006108D9005908F4000A168A1199257008DE
:1016840083120313D2007108D3007208D400080037
:101694000130831603138500013083120313850080
:1016A4008316031386018312031386018130831684
:1016B40003138700C03083120313870083160313B8
:1016C400880183120313880183160313890183128B
:1016D40003138901033090008E018F0100308316BB
:1016E4000317C5000130C400C230C3000030C2007B
:1016F4000A168A11F1240A128A150A168A11B622C8
:101704000A128A150A168A11CF220A128A150A1693
:101714008A1110240A128A150A168A1101260A123D
:101724008A150B178B170A168A1101260A128A15B5
:1017340083160317B30100300A168A11AE230A1266
:101744008A15293083160317B5008030B6000A16AF
:101754008A1182240A128A15003083160317B300F3
:101764000030B4000A168A11EF230A128A150030D9
:1017740083160317B3000030B4000A128A11DE275F
:101784000A128A15EE300A168A119C220A128A1548
:10179400183083160317CC006130CB006E30CA00BA
:1017A400CA0BD22BCB0BD22BCC0BD22B00000A169C
:1017B4008A1159240A128A1583160317B3010030BB
:1017C4000A168A11AE230A128A15443083160317A7
:1017D400B5008030B6000A168A1182240A128A15CE
:1017E400063083160317CA004A08B30000300A16ED
:1017F4008A11AE230A128A15A93083160317B5007D
:101804000130B6000A168A1182240A128A15831638
:101814000317B30101300A168A11AE230A128A157E
:10182400053083160317CC00AD30CB00E030CA007E
:10183400CA0B1A2CCB0B1A2CCC0B1A2CD92B8312B7
:1018440003132308A9002408AA002508AB000310E9
:101854002A0D2B0DAC002C08AF002608A900270880
:10186400AA002808AB0003102A0D2B0DAC002C088D
:10187400AE002F0803194A2C2E082F020318512CEE
:101884002F03FF3A2E07A90019302902031C512CFB
:101894002608A3002708A4002808A50008002E088D
:1018A400031908002F082E020318602C2E03FF3A98
:1018B4002F07A90019302902031808000630A900CF
:1018C4002908AD00A51BAD17A81B2D17A417FF30C1
:1018D400A305FF30A4050030A505A717FF30A60512
:1018E400FF30A7050030A8052E082F020318A02CEE
:1018F40001300310A60DA70DA80DFF3E031D7B2C80
:101904000130AE022E082F0603199B2C0130AD02C4
:101914002D08073903199B2C7A2C01300310A50CD0
:10192400A40CA30CFF3E031D902C0130A900290830
:10193400AF072F082E060319C92C8F2C2F082E024F
:101944000318C92C01300310A30DA40DA50DFF3EEF
:10195400031DA52C0130AF022E082F060319C52C38
:101964000130AD022D0807390319C52CA42C013010
:101974000310A80CA70CA60CFF3E031DBA2C0130C3
:10198400A9002908AE072F082E06031DB92CAD1F88
:10199400DB2CFF30A306FF30A406FF30A506013080
:1019A400A307003003180130A407003003180130E6
:1019B400A5072D1FED2CFF30A606FF30A706FF302C
:1019C400A8060130A607003003180130A70700302D
:1019D40003180130A807AD012308A6072408031142
:1019E4000318240A031DA707250803110318250A51
:1019F400031DA807A81F102DFF30A606FF30A70659
:101A0400FF30A8060130A607003003180130A707ED
:101A1400003003180130A807AD01AD0A2608F00014
:101A24002708F1002808F2002F08A9002908F3006C
:101A34002D08AA002A08F4000A168A1199257008AC
:101A440083120313A3007108A4007208A500080000
:101A5400003083120313CF000030D0000030D100D7
:101A64004308F0004408F1004508F2004008F30080
:101A74004108F4004208F5000A168A113C250A12AE
:101A84008A1503186F2E831203134308F0004408C9
:101A9400F1004508F2004008F3004108F400420850
:101AA400F5000A168A113C250A128A150318A32D7B
:101AB400831203134608F0004708F1004808F200B7
:101AC4004008F3004108F4004208F5000A168A11A0
:101AD4003C250A128A15031CA32D831203134608FE
:101AE400A3004708A4004808A5004308A000440830
:101AF400A1004508A2000A168A11AC220A128A150E
:101B0400831203132008A6002108A7002208A800B6
:101B14000A128A1521240A128A1583120313230830
:101B2400B0002408B1002508B2004008A300410811
:101B3400A4004208A5004308A0004408A1004508E9
:101B4400322E831203134008F0004108F1004208CA
:101B5400F2004608F3004708F4004808F5000A16A6
:101B64008A113C250A128A15031CD52D83120313EE
:101B74004908F0004A08F1004B08F2004008F3005D
:101B84004108F4004208F5000A168A113C250A129D
:101B94008A15031CD52D003083120313CF00803027
:101BA400D0003F30762E831203134908F0004A0810
:101BB400F1004B08F2004008F3004108F400420829
:101BC400F5000A168A113C250A128A1503185A2EA2
:101BD400831203134C08F0004D08F1004E08F20084
:101BE4004008F3004108F4004208F5000A168A117F
:101BF4003C250A128A15031C5A2E831203134C081F
:101C0400A3004D08A4004E08A5004908A0004A08F6
:101C1400A1004B08A2000A168A11AC220A128A15E6
:101C2400831203132008A6002108A7002208A80095
:101C34000A128A1521240A128A158312031323080F
:101C4400B0002408B1002508B2004C08A3004D08D8
:101C5400A4004E08A5004008A0004108A1004208C5
:101C6400A2000A168A11AC220A128A1583120313DF
:101C74002008A6002108A7002208A8000A128A1535
:101C840021240A128A15831203132308B30024089B
:101C9400B4002508B5000A128A15BF210A128A1554
:101CA400831203133008CF003108D0003208762E97
:101CB400831203134C08F0004D08F1004E08F200A3
:101CC4004008F3004108F4004208F5000A168A119E
:101CD4003C250A128A150318772E00308312031349
:101CE400CF000030D0000030D100831203134F081E
:101CF400C0005008C1005108C20008008C1E8B2F80
:101D04000A168A1123230A128A15303A031DA22EB9
:101D14003A300A168A1156230A128A150030F00046
:101D24000030F1000A168A113B230A128A154E303C
:101D340083120313E400640883160313E200F42FF0
:101D44000A168A1123230A128A15313A031DB02E6A
:101D5400AE3083160313DA000130DB000A168A1151
:101D640023230A128A15323A031DBE2E0830831625
:101D74000313DA000230DB000A168A1123230A1245
:101D84008A15333A031DCC2EF83083160313DA0078
:101D94000230DB000A168A1123230A128A15343A08
:101DA400031DDA2E7A3083160313DA000330DB00C6
:101DB4000A168A1123230A128A15353A031DE82EBE
:101DC400E23083160313DA000430DB000A168A11AA
:101DD40023230A128A15363A031DF62ECA308316B7
:101DE4000313DA000830DB000A168A1123230A12CF
:101DF4008A15373A031D042F7A3083160313DA0049
:101E04000D30DB000A168A1123230A128A15383A88
:101E1400031D122F2A3083160313DA001230DB005D
:101E24000A168A1123230A128A15393A031D202F10
:101E3400183083160313DA001530DB000A168A11F2
:101E440023230A128A15533A03192E2F83160313D8
:101E54006208533A031D312F831603135A2F0A16AF
:101E64008A1123230A128A15523A031D4C2F831612
:101E740003136208533A031D4C2F9630DA070318F4
:101E8400DB0A0030DB075B08D301D3075A08D20111
:101E9400D2076E2F0A168A1123230A128A15523A80
:101EA400031D6E2F8316031362084E3A031D6E2F13
:101EB4004F08DB01DB074E08DA01DA075B08D301C0
:101EC400D3075A08D201D207533083120313E40014
:101ED400640883160313E2000A128A1588200A1282
:101EE4008A15831603135B08CF01CF075A08CE0166
:101EF400CE070A168A1123230A128A15583A031D9B
:101F0400882F0A168A116E260A128A158312031361
:101F14008C120C1B0C130B1DF02FEE300A168A11B9
:101F24008E220A128A150130831603135102F330EC
:101F3400031950020318A82F0130D0070318D10A3F
:101F44000030D107831203130617EF2F83160313F0
:101F5400D001D101831203130F0883160313D70191
:101F6400D707831203130E0883160313D601D6076B
:101F74005F08F101F1075E08F001F0075708F3016B
:101F8400F3075608F201F2070A168A11B3240A125B
:101F94008A15710883120313BB01BB077008BA01C9
:101FA400BA077830BC000030BD000A168A11342408
:101FB4000A128A15831203133B0883160313D901EB
:101FC400D907831203133A0883160313D801D807D9
:101FD400831203138E018F0106130B110C180C10BE
:101FE4008C198C1183126808FF0067088A00660840
:101FF4008400650E8300FE0E7E0E0900FF1B0A2876
:1020040083137F1883170008840A0319FF0A080042
:1020140010308A000408840A820700340A340D341C
:1020240020342D342D342D342D342D342D342D34B1
:1020340020344534533454344F34553452344F34AB
:102044002034443445342034503449344C344834F6
:10205400413420342D342D342D342D342D342D346D
:102064002D3420340A340D342034003449346E3491
:1020740069346334693461346C3469347A34613476
:102084006E3464346F342E342E342E3400340A34D7
:102094000D3466347234653469346F340A340D3463
:0E20A40000346B346D3448343A342034003448
:1025120007340034013400344E34F0007008831262
:10252200031381000800F000831203130C1E952A86
:1025320070089900080083160317B300330883124A
:1025420003138100080064008001840A0406031951
:1025520000340406A52A831203132208210420044E
:10256200031908008030A2060800831603138112A3
:10257200011281110115811401140B118B1608002F
:10258200F11F08007009F2007109F300F20A031941
:10259200F30A7208F0007308F100080083160313AF
:1025A2009F179F151F159F141F10831203139F1748
:1025B2001F13831603130C13831203130C13080047
:1025C2007808F0007908F100F2018E30FB007B08F8
:1025D200F300F4010A168A1199257008F8007108AF
:1025E200F9007208FA00080083160317B400831278
:1025F2000313091083160317340883120313880088
:1026020089143D3083160317B300B30B062B8312D4
:1026120003138910080083160317B40083120313EF
:1026220009148316031734088312031388008914CC
:102632003D3083160317B300B30B1D2B8312031314
:10264200891008008312031398182C2B1A08F30020
:102652007308F400382B01300A168A1156238312AC
:10266200031318121A08F3007308F40018168C12D8
:10267200740808007108F3007008F200730DF30C7F
:10268200F20C730DF30CF20C7208831203139B000D
:102692007008F20003300310F20DFF3E031D4C2BB5
:1026A2000310720D0C389D000800F20072088400BD
:1026B2000A168A110A200A168A110038031908001C
:1026C200720884000A168A110A200A168A110A164A
:1026D2008A1194220A168A110130F1007108F20758
:1026E200572B831203132908F0002A08F1002B0844
:1026F200F2002608F3002708F4002808F5000A165D
:102702008A113C250A168A11031C0800831203133E
:102712002908A6002A08A7002B08A800080083128F
:1027220003132008F0002108F1002208F200230818
:10273200F3002408F4002508F5000A168A113C2546
:102742000A168A11031C0800831203132308A0002F
:102752002408A1002508A200080083160317B5006B
:1027620083120313091083160317B508031DBC2B2C
:102772003308803EC02B831603173308C03E8312F2
:102782000313880089143D3083160317B400B40B79
:10279200C82B8312031389100800FD01F91FD82BDF
:1027A200F809F909F80A0319F90AFD01FD0A78087E
:1027B200F0007908F100F2018E30FB007B08F30093
:1027C2007D08FC007C08F4000A168A11992570081D
:1027D200F8007108F9007208FA000800831603175E
:1027E2003408B6003308B500360DB60CB50C360DFC
:1027F200B60CB50C35088312031395008316031724
:102802003308B50003300310B50DFF3E031D042C41
:102812000310350D0C38831203139700080083123E
:102822000313921412101213921212129211121511
:10283200FF308316031392008312031397151715A3
:1028420097141714831603130C15831203130C1118
:102852009D151D159D141D14831603130D1483124B
:1028620003130D10080083120313BE01BF013A1CAB
:10287200402C3C08BE070318BF0A3D08BF070130C1
:102882000310BC0DBD0DFF3E031D412C0130031092
:10289200BB0CBA0CFF3E031D482C3B083A04031D37
:1028A200382C3F08BB01BB073E08BA01BA07080033
:1028B20001300A168A11F5220A168A110C30831683
:1028C2000317B600F730B500B50B652CB60B652CB7
:1028D2000C300A168A11F5220A168A113D30831627
:1028E2000317B500B50B732C06300A168A11F522B0
:1028F2000A168A113D3083160317B500B50B7F2CDB
:10290200080083160317360883120313FF00831689
:10291200031735088400831203130A168A11002054
:102922000A168A110038031908008316031736089D
:1029320083120313FF0083160317350884008312E2
:1029420003130A168A1100200A168A110A168A111E
:102952000C230A168A11013083160317B5070318D0
:10296200B60A822CF501F601710870040319EA2CEB
:10297200F701F70AF11BC92C01300310F00DF10D1C
:10298200FF3E031DBE2C0130F4007408F707BB2C78
:1029920001300310F50DF60DFF3E031DCA2C710820
:1029A2007302031DD62C70087202031CDF2C700800
:1029B200F2027108031CF303F302751401300310D1
:1029C200F10CF00CFF3E031DE02C0130F702031D59
:1029D200C92C7608F101F1077508F001F00708002B
:1029E200831603174208C6004308C7004408C800FC
:1029F2004508C90004300310C60DC70DC80DC90D26
:102A0200FF3E031DFC2C4908B6004808B5004708E4
:102A1200B4004608B3000130BA001930B9004030A2
:102A2200B8000030B7000A168A11712783160317FF
:102A32003308FF3E83160313990098131813981650
:102A420018121815981418108312031398171813D4
:102A5200981218169811181198101810831603134B
:102A62000C12831203130C12831603138C16831297
:102A720003138C120800F21F632D0030F6000030A1
:102A8200F7008030F8007009F9007109FA00720944
:102A9200FB00F90A0319FA0A0319FB0A7908F60777
:102AA2007A0803187A0F562D572DF7077B0803185B
:102AB2007B0F5C2D5D2DF8077608F0007708F1009A
:102AC2007808F200F51F8A2D0030F6000030F7007A
:102AD2008030F8007309F9007409FA007509FB00E7
:102AE200F90A0319FA0A0319FB0A7908F6077A08A0
:102AF20003187A0F7D2D7E2DF7077B0803187B0FB5
:102B0200832D842DF8077608F3007708F4007808FF
:102B1200F5008030F2068030F50675087202031D5A
:102B2200080074087102031D08007308700208008F
:102B320073080319A12D720871047004031DB42DCA
:102B42000030F0000030F1000030F20008000130E7
:102B5200F5007508F30701300310F20CF10CF00CCC
:102B6200FF3E031DAD2DFE3072050319CF2DA82D9A
:102B72000130F5007508F3070130F0070030031843
:102B82000130F107003003180130F2070130031061
:102B9200F20CF10CF00CFF3E031DC82DFF30720544
:102BA2000319DE2DB92D0130F30201300310F00DAF
:102BB200F10DF20DFF3E031DD72DF11FD42D731819
:102BC200E82DFF30F0057F30F105FF30F2050310EC
:102BD200F30C7308F500F601F70110300310F50D40
:102BE200F60DF70DFF3E031DEF2D7508F004760874
:102BF200F1047708F204740803190800F2170800B8
:102C0200831603139F111F159F101F105A3083162E
:102C12000317B600C330B500B50B0D2EB60B0D2E43
:102C220030300A168A11F5220A168A1118308316D4
:102C32000317B600EF30B500B50B1D2EB60B1D2ED7
:102C420030300A168A11F5220A168A119930831633
:102C52000317B500B50B2B2E30300A168A11F52258
:102C62000A168A113D3083160317B500B50B372EAD
:102C720038300A168A11F5220A168A113D30831657
:102C82000317B500B50B432E01300A168A11F5223F
:102C92000A168A110C3083160317B600F730B500F6
:102CA200B50B512EB60B512E0C300A168A11F52295
:102CB2000A168A113D3083160317B500B50B5F2E35
:102CC20006300A168A11F5220A168A113D30831639
:102CD2000317B500B50B6B2E08002330F100710805
:102CE2008316031790002430F100710891003A30E6
:102CF200F10071089200831603135908F10071085C
:102D0200831603179300831603135808F100710802
:102D12008316031794005630F1007108950083164C
:102D220003135B08F10071088316031796008316DC
:102D320003135A08F10071088316031797005330E2
:102D4200F10071089800831603135508F100710809
:102D5200831603179900831603135408F1007108B0
:102D6200831603179A005330F10071089B00F20199
:102D7200F3010C3073020318D82E7308903E8400BE
:102D8200831700080A168A1194220A168A117308F8
:102D9200903E840083170008F1007108F2060130AA
:102DA200F1007108F3070C307302031CBE2E720887
:102DB200F1007108831603179C001C080A168A1179
:102DC20094220800831203132C08B0002D08B100CE
:102DD2002E08B2000310310D320DB3003308B900D2
:102DE200B908031DFD2E0030AF000030AE000030E8
:102DF200AD000030AC0008002C08B0002D08B10076
:102E02002E08B20017300310B20CB10CB00CFF3E0A
:102E1200031D042F3008B3003308B400AD17FF3090
:102E2200AC05FF30AD050030AE052C08B5002D080D
:102E3200B6002E08B700B8018E30B902B91F3F2F75
:102E42003908803A8F3E03182F2F0030AF00003030
:102E5200AE000030AD000030AC00080001300310BD
:102E6200B80CB70CB60CB50CFF3E031D302F013069
:102E7200B0003008B90703195A2F2F2F1830390222
:102E8200031C572F0030AF000030AE000030AD0001
:102E92000030AC0008000130B0000310B50DB60DD3
:102EA200B70DB80DB00B4E2F0130B902B908031D92
:102EB2004C2F34080319682FB509B609B709B809A8
:102EC200B50A0319B60A0319B70A0319B80A38086A
:102ED200AF003708AE003608AD003508AC00080078
:102EE20083160317BD01B61F832FB309B409B509B1
:102EF200B609B30A0319B40A0319B50A0319B60AC3
:102F0200BD01BD0ABA1F942FB709B809B909BA0998
:102F1200B70A0319B80A0319B90A0319BA0A013020
:102F2200BB003B08BD060030C1000030C0000030CD
:102F3200BF000030BE0036083504340433040319E0
:102F4200E92FBC01BC0AB61BB42F0130BB00031031
:102F5200B30DB40DB50DB60DBB0BA82F0130BB00E0
:102F62003B08BC07A42F0130BB000310BE0DBF0DF0
:102F7200C00DC10DBB0BB62F36083A02031DCB2F75
:102F820035083902031DCB2F34083802031DCB2F1D
:102F920033083702031CDC2F3308B7023408031C42
:102FA200340FB8023508031C350FB9023608031C6A
:102FB200360FBA023E1401300310B60CB50CB40C35
:102FC200B30CFF3E031DDD2F0130BC02031DB42FE5
:102FD2003D080319F72FBE09BF09C009C109BE0A7E
:102FE2000319BF0A0319C00A0319C10A4108B6002E
:0E2FF2004008B5003F08B4003E08B3000800D8
:02400E0032FF7F
:00000001FF
