:060000000A128A11122809
:10000800FE00030E83120313E9000408EA000A083D
:10001800EB007F08EC000A128A15612D0A128A117A
:100028001528ED01EE018313A0308400C9300A16AB
:100038008A11E4230A128A11831790308400AA30A7
:100048000A168A11E4230A128A118313ED30FD007F
:100058001330FE00F630FF00E33084000A168A11E0
:10006800042483010A128A155D2A8316031346089D
:10007800F901F9074508F801F8070A168A11232437
:100088000A128A11780883160313E6007908E70034
:100098007A08E800003083120313E6000030E70016
:1000A8000030E800D201D3010030DD000030DE006E
:1000B8000030DF000030E0000030E1000030E200F6
:1000C8000030E3000030E4000030E5000030831623
:1000D8000313A3000030A4000030A50066088312B3
:1000E8000313A30083160313670883120313A400E2
:1000F80083160313680883120313A50083160313DA
:10010800630883120313A000831603136408831281
:100118000313A10083160313650883120313A200B7
:100128000A168A11EC230A128A1183120313200873
:10013800A6002108A7002208A8000A128A1534235D
:100148000A128A11831203132308E6002408E70021
:100158002508E80083160313630883120313B0000D
:1001680083160313640883120313B1008316031361
:10017800650883120313B2000A168A1172270A123D
:100188008A1183120313310883160313BE01BE07B5
:1001980083120313300883160313BD01BD078312AE
:1001A80003136608B0006708B1006808B2000A16B1
:1001B8008A1172270A128A11831203133108EE0179
:1001C800EE073008ED01ED070030B0000030B10057
:1001D8000030B2006608B3006708B4006808B500CC
:1001E8000A168A1140260A128A11031C1F29831233
:1001F8000313861801298614022986100030F80096
:100208008030F900BF30FA006608FB006708FC0080
:100218006808FD000A128A158C210A128A117808CA
:1002280083120313E6007908E7007A08E800013032
:10023800D2000030D300003083120313B000B43072
:10024800B1004230B2006608B3006708B40068081D
:10025800B5000A168A1140260A128A1103183C2989
:10026800003083120313E600B430E7004230E800A0
:10027800831203136608B0006708B1006808B2006B
:100288000030B300C830B4004130B5000A168A11F6
:1002980040260A128A110318B12A8312031366082A
:1002A800C0006708C1006808C2000030C300003001
:1002B800C4000030C5000030C6000030C700003060
:1002C800C8000030C9005030CA004130CB000030AF
:1002D800CC000030CD004230CE000A128A15AA2682
:1002E8000A128A1183120313400883160313A3000A
:1002F80083120313410883160313A4008312031304
:10030800420883160313A500230883120313BC00B5
:1003180083160313240883120313BD0083160313E3
:10032800250883120313BE00CD30BF00CC30C000B7
:100338003D30C1000A168A1198240A128A118312C4
:1003480003133C0883160313A600831203133D0806
:1003580083160313A700831203133E08831603139F
:10036800A8000030B5000030B6000030B7000030FB
:10037800B8000030B9000030BA0083120313D70167
:10038800D8015808803AFF0080307F02031DCE292B
:100398005B3057020318B12A8316031335088312FA
:1003A8000313C00083160313360883120313C10016
:1003B80083160313370883120313C2000030C300E7
:1003C8000030C4000030C5000030C6000030C7004F
:1003D8000030C8000030C9005030CA004130CB009E
:1003E8000030CC000030CD004230CE000A128A1511
:1003F800AA260A128A1183120313400883160313CC
:10040800B80083120313410883160313B90083123B
:100418000313420883160313BA0026088312031332
:10042800B00083160313270883120313B100831641
:100438000313280883120313B20083160313380822
:1004480083120313B30083160313390883120313AB
:10045800B400831603133A0883120313B5000A166F
:100468008A1140260A128A1103184A2A831603138E
:10047800260883120313A300831603132708831285
:100488000313A400831603132808592A8316031399
:10049800380883120313A300831603133908831241
:1004A8000313A400831603133A0883120313A50049
:1004B8006008A6006108A7006208A8000A128A1549
:1004C80034230A128A11831203132308E000240834
:1004D800E1002508E2000030A3008030A4003F308E
:1004E800A50083160313350883120313A600831689
:1004F8000313360883120313A70083160313370860
:1005080083120313A8000A128A1534230A128A11C7
:1005180083120313230883160313B50083120313EE
:10052800240883160313B6008312031325088316C1
:100538000313B700013083120313D7070318D80A2F
:100548000030D8075808803AFF0080307F02031D2A
:10055800AF2A5B305702031CD029003083120313E3
:10056800B000A030B1004130B2006608B30067089F
:10057800B4006808B5000A168A1140260A128A11C2
:1005880003182F2C831203136608B0006708B10004
:100598006808B2000030B3008C30B4004230B500B7
:1005A8000A168A1140260A128A1103182F2C831260
:1005B80003136608C0006708C1006808C20000305D
:1005C800C3001030C4004130C5000030C6003430CC
:1005D800C7004230C8000030C900A230CA0042300B
:1005E800CB000A128A153D240A128A1183120313BA
:1005F800400883160313A3008312031341088316CC
:100608000313A40083120313420883160313A500DF
:10061800230883120313BC008316031324088312D0
:100628000313BD0083160313250883120313BE00AA
:10063800CD30BF00CC30C0003D30C1000A168A1151
:1006480098240A128A11831203133C088316031391
:10065800A900831203133D0883160313AA0083120B
:1006680003133E0883160313AB000030B5000030B7
:10067800B6000030B7000030B8000030B9000030D4
:10068800BA0083120313D901DA015A08803AFF002D
:1006980080307F02031D522B5B30590203182F2C28
:1006A80083160313350883120313C000831603133C
:1006B800360883120313C100831603133708831205
:1006C8000313C2000030C3001030C4004130C5001D
:1006D8000030C6003430C7004230C8000030C900BE
:1006E800A230CA004230CB000A128A153D240A12F1
:1006F8008A1183120313400883160313B800831268
:100708000313410883160313B90083120313420825
:1007180083160313BA00380883120313B000831634
:100728000313390883120313B100831603133A081D
:1007380083120313B20083160313290883120313C9
:10074800B300831603132A0883120313B400831615
:1007580003132B0883120313B5000A168A114026C7
:100768000A128A11031CC82B831603132908831243
:100778000313A300831603132A0883120313A40088
:10078800831603132B08D72B8316031338088312F9
:100798000313A30083160313390883120313A40059
:1007A800831603133A0883120313A5005D08A600F5
:1007B8005E08A7005F08A8000A128A1534230A12E7
:1007C8008A11831203132308DD002408DE0025089C
:1007D800DF000030A3008030A4003F30A50083165E
:1007E8000313350883120313A60083160313360870
:1007F80083120313A7008316031337088312031306
:10080800A8000A128A1534230A128A1183120313C4
:10081800230883160313B5008312031324088316D1
:100828000313B60083120313250883160313B700B6
:10083800013083120313D9070318DA0A0030DA07E4
:100848005A08803AFF0080307F02031D2D2C5B3050
:100858005902031C542B003083120313B0008C3050
:10086800B1004230B2006608B3006708B4006808F7
:10087800B5000A168A1140260A128A110318A42DF7
:10088800831203136608C0006708C1006808C20025
:100898000030C3007830C4004230C5000030C600C4
:1008A8009E30C7004230C8000030C900B430CA00CA
:1008B8004230CB000030CC00B430CD004230CE0006
:1008C8000A128A15AA260A128A11831203134008EB
:1008D80083160313A300831203134108831603131B
:1008E800A40083120313420883160313A5002308E8
:1008F80083120313BC008316031324088312031303
:10090800BD0083160313250883120313BE00CD30E0
:10091800BF00CC30C0003D30C1000A168A119824AF
:100928000A128A11831203133C0883160313AC00BE
:10093800831203133D0883160313AD0083120313B8
:100948003E0883160313AE000030B5000030B60031
:100958000030B7000030B8000030B9000030BA00ED
:1009680083120313DB01DC015C08803AFF0080304E
:100978007F02031DC12C5B305B020318A42D831674
:100988000313350883120313C000831603133608B4
:1009980083120313C100831603133708831203134A
:1009A800C2000030C3007830C4004230C5000030B7
:1009B800C6009E30C7004230C8000030C900B430BD
:1009C800CA004230CB000030CC00B430CD004230F9
:1009D800CE000A128A15AA260A128A118312031354
:1009E800400883160313B8008312031341088316C3
:1009F8000313B90083120313420883160313BA00C2
:100A0800380883120313B0008316031339088312BE
:100A18000313B100831603133A0883120313B200B9
:100A2800831603132C0883120313B30083160313CE
:100A38002D0883120313B400831603132E088312A0
:100A48000313B5000A168A1140260A128A11031CDC
:100A58003D2D831603132C0883120313A30083165A
:100A680003132D0883120313A400831603132E08FF
:100A78004C2D83160313380883120313A30083161F
:100A88000313390883120313A400831603133A08C7
:100A980083120313A5006308A6006408A70065086D
:100AA800A8000A128A1534230A128A118312031322
:100AB8002308E3002408E4002508E5000030A3002B
:100AC8008030A4003F30A500831603133508831235
:100AD8000313A60083160313360883120313A70013
:100AE80083160313370883120313A8000A128A1502
:100AF80034230A128A11831203132308831603135B
:100B0800B50083120313240883160313B600831257
:100B18000313250883160313B70001308312031348
:100B2800DB070318DC0A0030DC075C08803AFF00AA
:100B380080307F02031DA22D5B305B02031CC32C97
:100B4800831203136608B0006708B1006808B20092
:100B58000030B300C830B4004130B5000A168A111D
:100B680040260A128A110318C12D83120313600844
:100B7800D4006108D5006208FA2D831203136608B1
:100B8800B0006708B1006808B2000030B300C83090
:100B9800B4004130B5000A168A1140260A128A119B
:100BA800031CF32D831203136608B0006708B10015
:100BB8006808B2000030B3009630B4004230B50087
:100BC8000A168A1140260A128A110318F32D831275
:100BD80003135D08D4005E08D5005F08FA2D831260
:100BE80003136308D4006408D5006508D6000030F4
:100BF80083160313B200B430B3004230B40000309F
:100C0800AF000030B0000030B10083120313540865
:100C1800A3005508A4005608A500831603132F083F
:100C280083120313A60083160313300883120313D9
:100C3800A70083160313310883120313A8000A12AE
:100C48008A1534230A128A11831203132308831680
:100C58000313AF0083120313240883160313B00091
:100C680083120313250883160313B1003208831275
:100C78000313B00083160313330883120313B10060
:100C880083160313340883120313B2008316031365
:100C98002F0883120313B30083160313300883123B
:100CA8000313B40083160313310883120313B5002A
:100CB8000A128A150E200A128A11831203133008A9
:100CC80083160313A000831203133108831603133A
:100CD800A10083120313320883160313A200003005
:100CE800F800C830F9004230FA002008FB0021085B
:100CF800FC002208FD000A128A158C210A128A11AA
:100D0800780883160313A0007908A1007A08A200C6
:100D1800013083120313D2000030D3000030B0003A
:100D28000030B1000030B200831603136308831249
:100D38000313A30083160313640883120313A40088
:100D480083160313650883120313A5006E08F901BF
:100D5800F9076D08F801F8070A168A1123240A1200
:100D68008A11780883120313A6007908A7007A0865
:100D7800A8000A128A1534230A128A11831203134F
:100D88002308B3002408B4002508B5000A168A1100
:100D980040260A128A1103180800831603136308F1
:100DA80083120313A3008316031364088312031327
:100DB800A40083160313650883120313A5006E08A5
:100DC800F901F9076D08F801F8070A168A112324B2
:100DD8000A128A11780883120313A6007908A7005B
:100DE8007A08A8000A128A1534230A128A11831273
:100DF80003132308B0002408B1002508B20000300E
:100E0800B3007F30B4004430B5000A168A1140267A
:100E18000A128A1103180800831203136E08F901D5
:100E2800F9076D08F801F8070A168A1123240A122F
:100E38008A11780883120313A6007908A7007A0894
:100E4800A80083160313630883120313A3008316F1
:100E58000313640883120313A4008316031365089D
:100E680083120313A5000A128A1534230A128A1161
:100E7800831203132308B0002408B1002508B20028
:100E88000A168A1172270A128A118312031331086B
:100E9800BF01BF073008BE01BE070A168A117D24AC
:100EA800080083160313D301CC1F672FC909CA0989
:100EB800CB09CC09C90A0319CA0A0319CB0A0319B1
:100EC800CC0AD301D30AD01F782FCD09CE09CF0978
:100ED800D009CD0A0319CE0A0319CF0A0319D00A7B
:100EE8000130D1005108D3060030D7000030D600B9
:100EF8000030D5000030D4004C084B044A044904A3
:100F08000319CD2FD201D20ACC1B982F0130D10062
:100F18000310C90DCA0DCB0DCC0DD10B8C2F013090
:100F2800D1005108D207882F0130D1000310D40D09
:100F3800D50DD60DD70DD10B9A2F4C085002031D95
:100F4800AF2F4B084F02031DAF2F4A084E02031D57
:100F5800AF2F49084D02031CC02F4908CD024A088B
:100F6800031C4A0FCE024B08031C4B0FCF024C0840
:100F7800031C4C0FD002541401300310CC0CCB0CC2
:100F8800CA0CC90CFF3E031DC12F0130D202031D3C
:100F9800982F53080319DB2FD409D509D609D70987
:100FA800D40A0319D50A0319D60A0319D70A570808
:100FB800CC005608CB005508CA005408C9000800E0
:100FC800F200720884000A168A110A200A128A118D
:100FD800003803190800720884000A168A110A20CA
:100FE8000A128A110A168A11D4230A128A110130A8
:080FF800F1007108F207E52F7A
:101006008316031381120112811101158114011433
:101016000B118B160800831203133308B60034082D
:10102600B7003508B8000310370D380DB900390878
:10103600BE00BE08031D26280030B0000030B100F7
:101046000030B20008003008B6003108B700320898
:10105600B8000310370D380DB9003908BF00BF08B6
:10106600031D3C280030B0000030B1000030B20053
:1010760008000030BB000030BC000030BD008930E5
:101086003F07B6003608BE023308B6003408B7007C
:101096003508B80010300310B80CB70CB60CFF3E7C
:1010A600031D4E283608B9003908BF003008B600BF
:1010B6003108B7003208B80010300310B80CB70C6E
:1010C600B60CFF3E031D60283608B9003908BF0676
:1010D6008030B6003608BF05B417FF30B305FF30C1
:1010E600B4050030B505B117FF30B005FF30B105C6
:1010F6000030B2051830B6003608BA0001300310C9
:10110600BB0DBC0DBD0DFF3E031D82283208350206
:10111600031D932831083402031D93283008330237
:10112600031CA0283008B3023108031C310FB40297
:101136003208031C320AB5023B1401300310B30D0A
:10114600B40DB50DFF3E031DA1280130BA02031DE3
:1011560081283B08F0003C08F1003D08F2003E08FB
:10116600B6003608F3003F08B7003708F4000A1641
:101176008A119F26700883120313B0007108B1000C
:101186007208B2000800233083120313A00020085F
:10119600831603179000243083120313A00020083F
:1011A6008316031791003A3083120313A000200818
:1011B600831603179200831603134408F901F907EF
:1011C6004308F801F8072830FA000030FB000A1639
:1011D6008A1118250A128A15790883120313A301A6
:1011E600A3077808A201A2072308A00020088316F7
:1011F60003179300831203132208A0002008831606
:1012060003179400563083120313A0002008831698
:101216000317950083160313460883120313A000D1
:1012260020088316031796008316031345088312B6
:101236000313A00020088316031797005330831268
:101246000313A000200883160317980083120313C4
:101256006E08A00020088316031799008312031353
:101266006D08A0002008831603179A0053308312D6
:101276000313A0002008831603179B00831603138D
:101286003E0883120313A0002008831603179C0050
:10129600831603133D0883120313A0002008831648
:1012A60003179D00533083120313A00020088316F2
:1012B60003179E0083120313A101A4010F30240219
:1012C600031881292408903E8400831700080A1613
:1012D6008A11D4230A128A15831203132408903E16
:1012E600840083170008A0002008A1060130A00092
:1012F6002008A4070F302402031C65292108A0003A
:101306002008831603179F001F080A168A11D42384
:101316000800780883120313A0007908A1007A0850
:10132600A2000310210D220DA3002308A400A40887
:10133600031DA4290030F8000030F9000030FA003F
:1013460008007B08A0007C08A1007D08A20003100D
:10135600210D220DA3002308A900A908031DBA29FF
:101366000030F8000030F9000030FA0008002908C3
:101376007B3EA0002008A4077808A0007908A100F9
:101386007A08A20010300310A20CA10CA00CFF3E9C
:10139600031DC6292008A3002308A9007B08A00076
:1013A6007C08A1007D08A20010300310A20CA10C3D
:1013B600A00CFF3E031DD8292008A3002308A90678
:1013C6008030A0002008A905F917FC17FF30FB059F
:1013D600FF30FC050030FD050030A5000030A600FA
:1013E6000030A7000730A0002008A800781C092AB2
:1013F6007B08A5077C08031103187C0A031DA607B2
:101406007D08031103187D0A031DA7070130031089
:10141600FA0CF90CF80CFF3E031D0A2A01300310E2
:10142600FB0DFC0DFD0DFF3E031D122A0130A80227
:10143600031DF9290930A0002008A800781C312ACC
:101446007B08A5077C08031103187C0A031DA60761
:101456007D08031103187D0A031DA7070130031039
:10146600FA0CF90CF80CFF3E031D322A013003106A
:10147600A70CA60CA50CFF3E031D3A2A0130A802B4
:10148600031D212A2508F0002608F1002708F2008E
:101496002408A0002008F3002908A1002108F40070
:1014A6000A168A119F267008F8007108F90072085A
:1014B600FA000800013083160313850001308312F9
:1014C6000313850083160313860183120313860113
:1014D6008130831603138700C030831203138700FD
:1014E60083160313880183120313880183160313DB
:1014F6008901831203138901033090008E018F0145
:10150600003083160313DB000130DA00C230D90045
:101516000030D8000A168A11F7250A128A150A120F
:101526008A1503200A128A150A168A1111240A122C
:101536008A150A168A113B250A128A150A168A1175
:1015460007270A128A150B178B170A168A110727FF
:101556000A128A1583160313C90100300A168A1166
:10156600B6240A128A15293083160313CB0080305D
:10157600CC000A168A1188250A128A1500308316AD
:101586000313C9000030CA000A168A11D6240A12AB
:101596008A15003083160313C9000030CA000A16E4
:1015A6008A11F7240A128A15EE300A168A11DC23EC
:1015B6000A128A15183083160313E2006130E1001F
:1015C6006E30E000E00BE52AE10BE52AE20BE52AA6
:1015D60000000A168A115F250A128A15831603135C
:1015E600C90100300A168A11B6240A128A15483033
:1015F60083160313CB008030CC000A168A11882587
:101606000A128A15063083160313E0006008C90023
:1016160000300A168A11B6240A128A15A0308316DB
:101626000313CB000130CC000A168A1188250A1252
:101636008A1583160313C90101300A168A11B624C6
:101646000A128A15053083160313E200AD30E10055
:10165600E030E000E00B2D2BE10B2D2BE20B2D2BC8
:10166600EC2A831203132308A9002408AA002508DC
:10167600AB0003102A0D2B0DAC002C08AF0026087A
:10168600A9002708AA002808AB0003102A0D2B0D75
:10169600AC002C08AE002F0803195D2B2E082F0274
:1016A6000318642B2F03FF3A2E07A90019302902CD
:1016B600031C642B2608A3002708A4002808A500FD
:1016C60008002E08031908002F082E020318732B92
:1016D6002E03FF3A2F07A900193029020318080024
:1016E6000630A9002908AD00A51BAD17A81B2D17AC
:1016F600A417FF30A305FF30A4050030A505A717E2
:10170600FF30A605FF30A7050030A8052E082F02DA
:101716000318B32B01300310A60DA70DA80DFF3E2D
:10172600031D8E2B0130AE022E082F060319AE2B99
:101736000130AD022D0807390319AE2B8D2B013070
:101746000310A50CA40CA30CFF3E031DA32B013014
:10175600A9002908AF072F082E060319DC2BA22B98
:101766002F082E020318DC2B01300310A30DA40D45
:10177600A50DFF3E031DB82B0130AF022E082F0624
:101786000319D82B0130AD022D0807390319D82BC0
:10179600B72B01300310A80CA70CA60CFF3E031DA7
:1017A600CD2B0130A9002908AE072F082E06031DF0
:1017B600CC2BAD1FEE2BFF30A306FF30A406FF3067
:1017C600A5060130A307003003180130A407003036
:1017D60003180130A5072D1F002CFF30A606FF3089
:1017E600A706FF30A8060130A6070030031801300F
:1017F600A707003003180130A807AD012308A60784
:10180600240803110318240A031DA707250803113A
:101816000318250A031DA807A81F232CFF30A606B8
:10182600FF30A706FF30A8060130A60700300318D0
:101836000130A707003003180130A807AD01AD0A33
:101846002608F0002708F1002808F2002F08A90052
:101856002908F3002D08AA002A08F4000A168A119E
:101866009F26700883120313A3007108A400720850
:10187600A5000800003083120313CC000030CD0011
:101886000030CE004308B0004408B1004508B2005D
:101896004008B3004108B4004208B5000A168A1190
:1018A60040260A128A150318502D83120313430883
:1018B600B0004408B1004508B2004008B300410832
:1018C600B4004208B5000A168A1140260A128A1583
:1018D6000318B62C831203134608B0004708B1005C
:1018E6004808B2004008B3004108B4004208B500F9
:1018F6000A168A1140260A128A15031CB62C831270
:1019060003134608A3004708A4004808A500430897
:10191600A0004408A1004508A2000A168A11EC237B
:101926000A128A15831203132008A6002108A700AD
:101936002208A8000A128A1534230A128A1583126D
:1019460003132308B0002408B1002508B20040089C
:10195600A3004108A4004208A5004308A0004408CB
:10196600A1004508132D831203134608B00047084B
:10197600B1004808B2004008B3004108B40042086C
:10198600B5000A168A1140260A128A1503183B2D3D
:10199600831203134908B0004A08B1004B08B2008D
:1019A6004008B3004108B4004208B5000A168A117F
:1019B60040260A128A15031C3B2D83120313460880
:1019C600A3004708A4004808A5004908A0004A0843
:1019D600A1004B08A2000A168A11EC230A128A15E6
:1019E600831203132008A6002108A7002208A800D6
:1019F6000A128A1534230A128A158312031323083E
:101A0600B0002408B1002508B2004008A300410830
:101A1600A4004208A5004908A0004A08A1004B08F6
:101A2600A2000A168A11EC230A128A1583120313DE
:101A36002008A6002108A7002208A8000A128A1575
:101A460034230A128A15831203132308B3002408C9
:101A5600B4002508B5000A128A150E200A128A1546
:101A6600831203133008CC003108CD003208572DFD
:101A7600831203134908B0004A08B1004B08B200AC
:101A86004008B3004108B4004208B5000A168A119E
:101A960040260A128A150318582D003083120313A4
:101AA600CC000030CD000030CE00831203134C086A
:101AB600C0004D08C1004E08C20008008C1E252E2D
:101AC6000A168A1165240A128A15303A031D7D2DDD
:101AD6003A300A128A11E4270A128A150030831254
:101AE6000313BE000030BF000A168A117D240A12B5
:101AF6008A159D2E0A168A1165240A128A15313A0C
:101B0600031D8B2DD03083160313C5000230C6008B
:101B16000A168A1165240A128A15323A031D992D6E
:101B2600AA3083160313C5000530C6000A168A11AB
:101B360065240A128A15333A031DA72D0C30831625
:101B46000313C5000B30C6000A168A1165240A1253
:101B56008A15343A031DB52DB83083160313C50014
:101B66000C30C6000A168A1165240A128A15353AFF
:101B7600031DC32D9E3083160313C5001130C60006
:101B86000A168A1165240A128A15363A031DD12DC2
:101B9600803083160313C5001630C6000A168A1154
:101BA60065240A128A15373A031DDF2DEA3083169B
:101BB6000313C5001A30C6000A168A1165240A12D4
:101BC6008A15383A031DED2DA43083160313C5007C
:101BD6001F30C6000A168A1165240A128A15393A78
:101BE600031DFB2D283083160313C5002330C600C2
:101BF6000A128A1139200A128A1583160313460817
:101C0600F901F9074508F801F8070A168A1123248D
:101C16000A128A15780883160313E3007908E4008C
:101C26007A08E5000A168A1165240A128A15583AB6
:101C3600031D222E0A128A15C6200A128A1583123D
:101C460003138C120C1B0C130B1D992EEE300A1667
:101C56008A11CE230A128A15013083160313400215
:101C6600F33003193F020318422E0130BF07031851
:101C7600C00A0030C007831203130617982E831676
:101C86000313BF01C001831203130F088316031346
:101C9600C201C207831203130E0883160313C10180
:101CA600C1076A08F101F1076908F001F007420867
:101CB600F301F3074108F201F2070A168A11B92562
:101CC6000A128A157108F901F9077008F801F80770
:101CD6007830FA000030FB000A168A1118250A121D
:101CE6008A15790883160313C401C4077808C3014B
:101CF600C3072830F0000030F1004408F301F30771
:101D06004308F201F2070A168A11B9250A128A1542
:101D1600710883160313C401C4077008C301C307FF
:101D2600831203138E018F0106130B110C180C106E
:101D36008C198C11831203136C08FF006B088A0040
:101D46006A088400690E8300FE0E7E0E09000030CC
:101D560083120313CF000030D0000030D1004308B7
:101D6600B0004408B1004508B2004008B30041087D
:101D7600B4004208B5000A168A1140260A128A15CE
:101D86000318EF2F831203134308B0004408B10071
:101D96004508B2004008B3004108B4004208B50047
:101DA6000A168A1140260A128A150318232F83124F
:101DB60003134608B0004708B1004808B2004008BF
:101DC600B3004108B4004208B5000A168A1140263D
:101DD6000A128A15031C232F831203134608A30035
:101DE6004708A4004808A5004308A0004408A1002D
:101DF6004508A2000A168A11EC230A128A158312D4
:101E060003132008A6002108A7002208A8000A122A
:101E16008A1534230A128A15831203132308B00085
:101E26002408B1002508B2004008A3004108A40018
:101E36004208A5004308A0004408A1004508B22FA7
:101E4600831203134008B0004108B1004208B200F3
:101E56004608B3004708B4004808B5000A168A11B8
:101E660040260A128A15031C552F831203134908AC
:101E7600B0004A08B1004B08B2004008B300410860
:101E8600B4004208B5000A168A1140260A128A15BD
:101E9600031C552F003083120313CF008030D0006F
:101EA6003F30F62F831203134908B0004A08B100E9
:101EB6004B08B2004008B3004108B4004208B50020
:101EC6000A168A1140260A128A150318DA2F831277
:101ED60003134C08B0004D08B1004E08B20040088C
:101EE600B3004108B4004208B5000A168A1140261C
:101EF6000A128A15031CDA2F831203134C08A30057
:101F06004D08A4004E08A5004908A0004A08A100F3
:101F16004B08A2000A168A11EC230A128A158312AC
:101F260003132008A6002108A7002208A8000A1209
:101F36008A1534230A128A15831203132308B00064
:101F46002408B1002508B2004C08A3004D08A400DF
:101F56004E08A5004008A0004108A1004208A200C2
:101F66000A168A11EC230A128A1583120313200813
:101F7600A6002108A7002208A8000A128A15342301
:101F86000A128A15831203132308B3002408B40027
:101F96002508B5000A128A150E200A128A15831220
:101FA60003133008CF003108D0003208F62F831211
:101FB60003134C08B0004D08B1004E08B2004008AB
:101FC600B3004108B4004208B5000A168A1140263B
:101FD6000A128A150318F72F003083120313CF0055
:101FE6000030D0000030D100831203134F08C00028
:101FF6005008C1005108C2000800FF1B0A288313BD
:102006007F1883170008840A0319FF0A0800103096
:102016008A000408840A820700340A340D34203406
:102026002D342D342D342D342D342D342D342034AF
:102036004534533454344F34553452344F342034A9
:10204600443445342034503449344C3448344134D3
:1020560020342D342D342D342D342D342D342D347F
:1020660020340A340D342034003449346E34693453
:102076006334693461346C3469347A3461346E346F
:1020860064346F342E342E342E3400340A340D3436
:102096006434653473346C3469346734613464345D
:1020A6006F340A340D3400346B346D3448343A34AA
:0420B600203400349E
:10279C00F00070088312031381000800F00083120C
:1027AC0003130C1ED52B7008990008008316031315
:1027BC00C9004908831203138100080064008001DA
:1027CC00840A0406031900340406E52B8312031350
:1027DC00220821042004031908008030A2060800F6
:1027EC000034483442340034A034413407340034CB
:1027FC00323400347E088A007F08820000240A16D6
:10280C008A118000840A04087D0603190034FF0A2B
:10281C000319FE0A042C831603139F179F151F150B
:10282C009F141F10831203139F171F138316031378
:10283C000C13831203130C1308007808F0007908AA
:10284C00F100F2018E30FB007B08F300F4010A1654
:10285C008A119F267008F8007108F9007208FA00B6
:10286C00080083160313CA0083120313091083167E
:10287C0003134A0883120313880089143D3083160E
:10288C000313C900C90B482C8312031389100800C9
:10289C0083160313CA00831203130914831603133C
:1028AC004A0883120313880089143D3083160313DE
:1028BC00C900C90B5F2C8312031389100800831203
:1028CC00031398186E2C1A08F3007308F4007A2C72
:1028DC0001300A128A11E4278312031318121A0802
:1028EC00F3007308F40018168C1274080800831295
:1028FC0003133F08FD003E08FC007D0DFD0CFC0C95
:10290C007D0DFD0CFC0C7C089B003E08FC0003308C
:10291C000310FC0DFF3E031D8E2C03107C0D0C3898
:10292C009D000800831203133F08B0004008B1005B
:10293C004108B2003C08B3003D08B4003E08B500A5
:10294C000A168A1140260A168A11031C08008312E3
:10295C0003133F08BC004008BD004108BE0008003E
:10296C0083160313CB00831203130910831603136E
:10297C00CB08031DC42C4908803EC82C83160313B6
:10298C004908C03E83120313880089143D30831616
:10299C000313CA00CA0BD02C83120313891008002E
:1029AC00831603134A08CC004908CB004C0DCC0C01
:1029BC00CB0C4C0DCC0CCB0C4B0883120313950099
:1029CC00831603134908CB0003300310CB0DFF3ED5
:1029DC00031DEB2C03104B0D0C38831203139700C3
:1029EC000800831603134A08CC004908CB004C0D91
:1029FC00CC0CCB0C4C0DCC0CCB0C4B088312031316
:102A0C009B00831603134908CB0003300310CB0D36
:102A1C00FF3E031D0C2D03104B0D0C3883120313BA
:102A2C009D000800FC01FD01781C222D7A08FC0792
:102A3C000318FD0A7B08FD0701300310FA0DFB0D8E
:102A4C00FF3E031D232D01300310F90CF80CFF3E43
:102A5C00031D2A2D79087804031D1A2D7D08F90110
:102A6C00F9077C08F801F807080083120313921485
:102A7C00121012139212121292111215FF308316A9
:102A8C000313920083120313971517159714171439
:102A9C00831603130C15831203130C119D151D15AE
:102AAC009D141D14831603130D14831203130D10A0
:102ABC00080001300A168A1137240A168A110C30C4
:102ACC0083160313CC00F730CB00CB0B6B2DCC0B48
:102ADC006B2D0C300A168A1137240A168A113D30D8
:102AEC0083160313CB00CB0B792D06300A168A11F3
:102AFC0037240A168A113D3083160313CB00CB0BF7
:102B0C00852D0800831603134C0883120313FF0052
:102B1C00831603134B088400831203130A168A11BD
:102B2C0000200A168A1100380319080083160313B3
:102B3C004C0883120313FF00831603134B08840005
:102B4C00831203130A168A1100200A168A110A1618
:102B5C008A114E240A168A11013083160313CB07EF
:102B6C000318CC0A882DF501F601710870040319BD
:102B7C00F02DF701F70AF11BCF2D01300310F00DEA
:102B8C00F10DFF3E031DC42D0130F4007408F7074E
:102B9C00C12D01300310F50DF60DFF3E031DD02D98
:102BAC0071087302031DDC2D70087202031CE52DE5
:102BBC007008F2027108031CF303F3027514013060
:102BCC000310F10CF00CFF3E031DE62D0130F70253
:102BDC00031DCF2D7608F101F1077508F001F00700
:102BEC000800831603135808DC005908DD005A0846
:102BFC00DE005B08DF0004300310DC0DDD0DDE0DA4
:102C0C00DF0DFF3E031D022E5F08CC005E08CB00DB
:102C1C005D08CA005C08C9000130D0001930CF0033
:102C2C004030CE000030CD000A128A115527831691
:102C3C0003134908FF3E990098131813981618129D
:102C4C001815981418108312031398171813981248
:102C5C0018169811181198101810831603130C12CB
:102C6C00831203130C12831603138C168312031393
:102C7C008C12080083120313B21F692E0030B600A9
:102C8C000030B7008030B8003009B9003109BA0003
:102C9C003209BB00B90A0319BA0A0319BB0A39086D
:102CAC00B6073A0803183A0F5C2E5D2EB7073B089F
:102CBC0003183B0F622E632EB8073608B000370896
:102CCC00B1003808B200B51F902E0030B6000030AD
:102CDC00B7008030B8003309B9003409BA0035099F
:102CEC00BB00B90A0319BA0A0319BB0A3908B6079B
:102CFC003A0803183A0F832E842EB7073B080318A3
:102D0C003B0F892E8A2EB8073608B3003708B4005B
:102D1C003808B5008030B2068030B506350832026E
:102D2C00031D080034083102031D0800330830026B
:102D3C00080073080319A72E720871047004031D90
:102D4C00BA2E0030F0000030F1000030F200080024
:102D5C000130F5007508F30701300310F20CF10C8B
:102D6C00F00CFF3E031DB32EFE3072050319D52E59
:102D7C00AE2E0130F5007508F3070130F007003076
:102D8C0003180130F107003003180130F20701304D
:102D9C000310F20CF10CF00CFF3E031DCE2EFF3095
:102DAC0072050319E42EBF2E0130F302013003101B
:102DBC00F00DF10DF20DFF3E031DDD2EF11FDA2E8D
:102DCC007318EE2EFF30F0057F30F105FF30F20561
:102DDC000310F30C7308F500F601F7011030031023
:102DEC00F50DF60DF70DFF3E031DF52E7508F004DD
:102DFC007608F1047708F204740803190800F21736
:102E0C000800831603139F111F159F101F105A30B3
:102E1C00CC00C330CB00CB0B112FCC0B112F30308F
:102E2C000A168A1137240A168A11183083160313CE
:102E3C00CC00EF30CB00CB0B212FCC0B212F303023
:102E4C000A168A1137240A168A119930831603132D
:102E5C00CB00CB0B2F2F30300A168A1137240A16D1
:102E6C008A113D3083160313CB00CB0B3B2F38302C
:102E7C000A168A1137240A168A113D308316031359
:102E8C00CB00CB0B472F01300A168A1137240A16B8
:102E9C008A110C3083160313CC00F730CB00CB0B0C
:102EAC00552FCC0B552F0C300A168A1137240A16C5
:102EBC008A113D3083160313CB00CB0B632F0630E6
:102ECC000A168A1137240A168A113D308316031309
:102EDC00CB00CB0B6F2F0800831203133008B40008
:102EEC003108B5003208B6000310350D360DB700A9
:102EFC003708BD00BD08031D8C2F0030B300003017
:102F0C00B2000030B1000030B00008003008B4004E
:102F1C003108B5003208B60017300310B60CB50CEA
:102F2C00B40CFF3E031D932F3408B7003708B800CC
:102F3C00B117FF30B005FF30B1050030B2053008D5
:102F4C00B9003108BA003208BB00BC018E30BD029A
:102F5C00BD1FCE2F3D08803A8F3E0318BE2F003088
:102F6C00B3000030B2000030B1000030B0000800F7
:102F7C0001300310BC0CBB0CBA0CB90CFF3E031D8A
:102F8C00BF2F0130B4003408BD070319E92FBE2F41
:102F9C0018303D02031CE62F0030B3000030B200A5
:102FAC000030B1000030B00008000130B400031054
:102FBC00B90DBA0DBB0DBC0DB40BDD2F0130BD022C
:102FCC00BD08031DDB2F38080319F72FB909BA09FF
:102FDC00BB09BC09B90A0319BA0A0319BB0A0319BC
:102FEC00BC0A3C08B3003B08B2003A08B1003908EF
:042FFC00B000080019
:02400E0032FF7F
:00000001FF
