:060000000A128A11122809
:10000800FE00030E83120313E9000408EA000A083D
:10001800EB007F08EC000A128A155F2D0A128A117C
:100028001528ED01EE018313A0308400C7300A12B1
:100038008A1500200A128A11831790308400A7308D
:100048000A128A1500200A128A118313EB30FD0068
:100058001430FE001830FF00E13084000A168A11BF
:10006800312483010A128A155B2A83160313440874
:10007800F901F9074308F801F8070A168A1150240C
:100088000A128A11780883160313E1007908E2003E
:100098007A08E300003083120313E6000030E7001B
:1000A8000030E800D201D3010030DD000030DE006E
:1000B8000030DF000030E0000030E1000030E200F6
:1000C8000030E3000030E4000030E5000030831623
:1000D8000313A3000030A4000030A50061088312B8
:1000E8000313A30083160313620883120313A400E7
:1000F80083160313630883120313A50083160313DF
:10010800640883120313A00083160313650883127F
:100118000313A10083160313660883120313A200B6
:100128000A168A110E240A128A1183120313200850
:10013800A6002108A7002208A8000A128A1532235F
:100148000A128A11831203132308E6002408E70021
:100158002508E8000030B000C830B1004230B200D5
:100168006608B3006708B4006808B5000A128A1167
:1001780047270A128A11831203133008E600310850
:10018800E7003208E8006608B0006708B1006808B0
:10019800B2000A168A1172270A128A1183120313EF
:1001A8003108EE01EE073008ED01ED076608B000F2
:1001B8006708B1006808B2000030B3000030B4002E
:1001C8000030B5000A168A1140260A128A1103184F
:1001D8001129831203138618F3288614F42886102D
:1001E8000030F8008030F900BF30FA006608FB00E4
:1001F8006708FC006808FD000A128A158A210A129D
:100208008A11780883120313E6007908E7007A0850
:10021800E8000130D2000030D3000030831203130D
:10022800B000B430B1004230B2006608B3006708CD
:10023800B4006808B5000A168A1140260A128A1105
:1002480003182E29003083120313E600B430E700A8
:100258004230E800831203136608B0006708B10053
:100268006808B2000030B300C830B4004130B500AF
:100278000A168A1140260A128A110318A32A831221
:1002880003136608C0006708C1006808C200003090
:10029800C3000030C4000030C5000030C600003084
:1002A800C7000030C8000030C9005030CA004130D3
:1002B800CB000030CC000030CD004230CE000A1216
:1002C8008A15AA260A128A11831203134008831674
:1002D8000313A30083120313410883160313A40016
:1002E80083120313420883160313A50023088312FD
:1002F8000313BC0083160313240883120313BD00E1
:1003080083160313250883120313BE00CD30BF00E4
:10031800CC30C0003D30C1000A168A11E1240A120F
:100328008A11831203133C0883160313A600831251
:1003380003133D0883160313A700831203133E0813
:1003480083160313A8000030B5000030B600003053
:10035800B7000030B8000030B9000030BA0083128E
:100368000313D701D8015808803AFF0080307F0274
:10037800031DC0295B3057020318A32A83160313F1
:10038800350883120313C00083160313360883123B
:100398000313C10083160313370883120313C20023
:1003A8000030C3000030C4000030C5000030C60073
:1003B8000030C7000030C8000030C9005030CA0003
:1003C8004130CB000030CC000030CD004230CE00B0
:1003D8000A128A15AA260A128A11831203134008E0
:1003E80083160313B80083120313410883160313FB
:1003F800B90083120313420883160313BA002608B0
:1004080083120313B0008316031327088312031300
:10041800B10083160313280883120313B20083164E
:100428000313380883120313B30083160313390820
:1004380083120313B400831603133A0883120313B9
:10044800B5000A168A1140260A128A1103183C2A96
:1004580083160313260883120313A30083160313BA
:10046800270883120313A4008316031328084B2AB2
:1004780083160313380883120313A3008316031388
:10048800390883120313A400831603133A0883124E
:100498000313A5006008A6006108A7006208A80069
:1004A8000A128A1532230A128A11831203132308A7
:1004B800E0002408E1002508E2000030A3008030B5
:1004C800A4003F30A50083160313350883120313D5
:1004D800A60083160313360883120313A700831696
:1004E8000313370883120313A8000A128A1532234C
:1004F8000A128A1183120313230883160313B50003
:1005080083120313240883160313B60083120313FC
:10051800250883160313B700013083120313D70786
:100528000318D80A0030D8075808803AFF008030EE
:100538007F02031DA12A5B305702031CC229003029
:1005480083120313B000A030B1004130B200660836
:10055800B3006708B4006808B5000A168A11402677
:100568000A128A110318212C831203136608B0009B
:100578006708B1006808B2000030B3008C30B400DE
:100588004230B5000A168A1140260A128A11031849
:10059800212C831203136608C0006708C10068088D
:1005A800C2000030C3001030C4004130C500003024
:1005B800C6003430C7004230C8000030C900A2303D
:1005C800CA004230CB000A128A153B240A128A114B
:1005D80083120313400883160313A3008312031323
:1005E800410883160313A4008312031342088316D9
:1005F8000313A500230883120313BC0083160313F7
:10060800240883120313BD008316031325088312DD
:100618000313BE00CD30BF00CC30C0003D30C10058
:100628000A168A11E1240A128A11831203133C085C
:1006380083160313A900831203133D0883160313BB
:10064800AA00831203133E0883160313AB0000307D
:10065800B5000030B6000030B7000030B8000030F8
:10066800B9000030BA0083120313D901DA015A081D
:10067800803AFF0080307F02031D442B5B30590213
:100688000318212C83160313350883120313C000A3
:1006980083160313360883120313C100831603134A
:1006A800370883120313C2000030C3001030C4009F
:1006B8004130C5000030C6003430C7004230C800A1
:1006C8000030C900A230CA004230CB000A128A1595
:1006D8003B240A128A11831203134008831603135A
:1006E800B80083120313410883160313B900831259
:1006F8000313420883160313BA003808831203133E
:10070800B00083160313390883120313B10083164C
:1007180003133A0883120313B2008316031329083C
:1007280083120313B300831603132A0883120313D7
:10073800B400831603132B0883120313B5000A169B
:100748008A1140260A128A11031CBA2B8316031336
:10075800290883120313A300831603132A0883129C
:100768000313A400831603132B08C92B8316031342
:10077800380883120313A30083160313390883125E
:100788000313A400831603133A0883120313A50066
:100798005D08A6005E08A7005F08A8000A128A156F
:1007A80032230A128A11831203132308DD00240856
:1007B800DE002508DF000030A3008030A4003F30B1
:1007C800A50083160313350883120313A6008316A6
:1007D8000313360883120313A7008316031337087D
:1007E80083120313A8000A128A1532230A128A11E7
:1007F80083120313230883160313B500831203130C
:10080800240883160313B6008312031325088316DE
:100818000313B700013083120313D9070318DA0A48
:100828000030DA075A08803AFF0080307F02031D43
:100838001F2C5B305902031C462B00308312031314
:10084800B0008C30B1004230B2006608B3006708CF
:10085800B4006808B5000A168A1140260A128A11DF
:100868000318962D831203136608C0006708C10099
:100878006808C2000030C3007830C4004230C500A8
:100888000030C6009E30C7004230C8000030C900A2
:10089800B430CA004230CB000030CC00B430CD00B8
:1008A8004230CE000A128A15AA260A128A11831229
:1008B8000313400883160313A3008312031341088C
:1008C80083160313A4008312031342088316031329
:1008D800A500230883120313BC00831603132408FE
:1008E80083120313BD008316031325088312031311
:1008F800BE00CD30BF00CC30C0003D30C1000A166C
:100908008A11E1240A128A11831203133C08831600
:100918000313AC00831203133D0883160313AD00C1
:10092800831203133E0883160313AE000030B5008C
:100938000030B6000030B7000030B8000030B90011
:100948000030BA0083120313DB01DC015C08803A33
:10095800FF0080307F02031DB32C5B305B0203185D
:10096800962D83160313350883120313C0008316CC
:100978000313360883120313C100831603133708C1
:1009880083120313C2000030C3007830C400423021
:10099800C5000030C6009E30C7004230C800003095
:1009A800C900B430CA004230CB000030CC00B430AB
:1009B800CD004230CE000A128A15AA260A128A11E0
:1009C80083120313400883160313B800831203131A
:1009D800410883160313B9008312031342088316D0
:1009E8000313BA00380883120313B00083160313E5
:1009F800390883120313B100831603133A088312CC
:100A08000313B200831603132C0883120313B300D5
:100A1800831603132D0883120313B40083160313DC
:100A28002E0883120313B5000A168A1140260A12EB
:100A38008A11031C2F2D831603132C08831203130A
:100A4800A300831603132D0883120313A40083162F
:100A580003132E083E2D831603133808831203133D
:100A6800A30083160313390883120313A400831603
:100A780003133A0883120313A5006308A600640849
:100A8800A7006508A8000A128A1532230A128A11DB
:100A9800831203132308E3002408E4002508E50073
:100AA8000030A3008030A4003F30A5008316031354
:100AB800350883120313A60083160313360883121E
:100AC8000313A70083160313370883120313A80020
:100AD8000A128A1532230A128A1183120313230871
:100AE80083160313B5008312031324088316031314
:100AF800B60083120313250883160313B7000130C9
:100B080083120313DB070318DC0A0030DC075C08D8
:100B1800803AFF0080307F02031D942D5B305B021A
:100B2800031CB52C831203136608B0006708B100D4
:100B38006808B2000030B300C830B4004130B500D6
:100B48000A168A1140260A128A110318B32D831235
:100B580003136008D4006108D5006208EC2D8312E5
:100B680003136608B0006708B1006808B2000030D7
:100B7800B300C830B4004130B5000A168A114026C7
:100B88000A128A11031CE52D831203136608B000AC
:100B98006708B1006808B2000030B3009630B400AE
:100BA8004230B5000A168A1140260A128A11031823
:100BB800E52D831203135D08D4005E08D5005F0895
:100BC800EC2D831203136308D4006408D50065086C
:100BD800D600003083160313B200B430B30042309D
:100BE800B4000030AF000030B0000030B100831214
:100BF80003135408A3005508A4005608A50083163B
:100C080003132F0883120313A60083160313300857
:100C180083120313A70083160313310883120313E7
:100C2800A8000A128A1532230A128A1183120313A2
:100C3800230883160313AF008312031324088316B3
:100C48000313B00083120313250883160313B1009E
:100C5800320883120313B000831603133308831278
:100C68000313B10083160313340883120313B2006D
:100C7800831603132F0883120313B3008316031379
:100C8800300883120313B400831603133108831248
:100C98000313B5000A128A1147270A128A11831210
:100CA8000313300883160313A000831203133108BB
:100CB80083160313A1008312031332088316031348
:100CC800A2000030F800C830F9004230FA002008CD
:100CD800FB002108FC002208FD000A128A158A215F
:100CE8000A128A11780883160313A0007908A10054
:100CF8007A08A200013083120313D2000030D30017
:100D08000030B0000030B1000030B2008316031389
:100D1800640883120313A300831603136508831260
:100D28000313A40083160313660883120313A50094
:100D38006E08F901F9076D08F801F8070A168A1113
:100D480050240A128A11780883120313A60079081E
:100D5800A7007A08A8000A128A1532230A128A11F3
:100D6800831203132308B3002408B4002508B50030
:100D78000A168A1140260A128A11031808008316D7
:100D88000313640883120313A3008316031365086F
:100D980083120313A4008316031366088312031334
:100DA800A5006E08F901F9076D08F801F8070A1699
:100DB8008A1150240A128A11780883120313A60094
:100DC8007908A7007A08A8000A128A1532230A129D
:100DD8008A11831203132308B0002408B1002508E0
:100DE800B2000030B3007F30B4004430B5000A16BA
:100DF8008A1140260A128A11031808008312031365
:100E08006E08F901F9076D08F801F8070A168A1142
:100E180050240A128A11780883120313A60079084D
:100E2800A7007A08A8008316031364088312031323
:100E3800A30083160313650883120313A400831603
:100E48000313660883120313A5000A128A153223B6
:100E58000A128A11831203132308B0002408B10070
:100E68002508B2000A168A1172270A128A118312FB
:100E780003133108BF01BF073008BE01BE070A16B9
:100E88008A11AA240800831203133308B600340811
:100E9800B7003508B8000310370D380DB900390808
:100EA800BE00BE08031D5F2F0030B0000030B10047
:100EB8000030B20008003008B6003108B700320828
:100EC800B8000310370D380DB9003908BF00BF0846
:100ED800031D752F0030B0000030B1000030B200A3
:100EE80008000030BB000030BC000030BD00893075
:100EF8003F07B6003608BE023308B6003408B7000C
:100F08003508B80010300310B80CB70CB60CFF3E0B
:100F1800031D872F3608B9003908BF003008B6000E
:100F28003108B7003208B80010300310B80CB70CFD
:100F3800B60CFF3E031D992F3608B9003908BF06C5
:100F48008030B6003608BF05B417FF30B305FF3050
:100F5800B4050030B505B117FF30B005FF30B10555
:100F68000030B2051830B6003608BA000130031058
:100F7800BB0DBC0DBD0DFF3E031DBB2F3208350256
:100F8800031DCC2F31083402031DCC2F3008330247
:100F9800031CD92F3008B3023108031C310FB402E7
:100FA8003208031C320AB5023B1401300310B30D9A
:100FB800B40DB50DFF3E031DDA2F0130BA02031D33
:100FC800BA2F3B08F0003C08F1003D08F2003E084B
:100FD800B6003608F3003F08B7003708F4000A16D1
:100FE8008A119F26700883120313B0007108B1009C
:060FF8007208B2000800BF
:1010000064008001840A04060319003404060128E0
:10101000831603135608DA005708DB005808DC0073
:101020005908DD0004300310DA0DDB0DDC0DDD0D99
:10103000FF3E031D13285D08CA005C08C9005B0859
:10104000C8005A08C7000130CE001930CD0040302A
:10105000CC000030CB000A128A15512083160313EE
:101060004708FF3E99009813181398161812181580
:10107000981418108312031398171813981218163F
:101080009811181198101810831603130C1283125C
:1010900003130C12831603138C16831203138C1282
:1010A000080083160313D101CA1F6328C709C809A2
:1010B000C909CA09C70A0319C80A0319C90A0319C1
:1010C000CA0AD101D10ACE1F7428CB09CC09CD0997
:1010D000CE09CB0A0319CC0A0319CD0A0319CE0A8B
:1010E0000130CF004F08D1060030D5000030D400C9
:1010F0000030D3000030D2004A08490448044704B5
:101100000319C928D001D00ACA1B94280130CF0086
:101110000310C70DC80DC90DCA0DCF0B88280130AB
:10112000CF004F08D00784280130CF000310D20D24
:10113000D30DD40DD50DCF0B96284A084E02031DB2
:10114000AB2849084D02031DAB2848084C02031D7B
:10115000AB2847084B02031CBC284708CB024808B1
:10116000031C480FCC024908031C490FCD024A0852
:10117000031C4A0FCE02521401300310CA0CC90CD2
:10118000C80CC70CFF3E031DBD280130D002031D53
:10119000942851080319D728D209D309D409D509AD
:1011A000D20A0319D30A0319D40A0319D50A550818
:1011B000CA005408C9005308C8005208C7000800F4
:1011C000233083120313A000200883160317900016
:1011D000243083120313A000200883160317910004
:1011E0003A3083120313A0002008831603179200DD
:1011F000831603134208F901F9074108F801F807BB
:101200002830FA000030FB000A168A1161250A1204
:101210008A15790883120313A301A3077808A20192
:10122000A2072308A0002008831603179300831247
:1012300003132208A00020088316031794005630D9
:1012400083120313A000200883160317950083164A
:101250000313440883120313A00020088316031706
:10126000960083160313430883120313A00020087B
:10127000831603179700533083120313A00020082E
:10128000831603179800831203136E08A00020082A
:10129000831603179900831203136D08A00020081A
:1012A000831603179A00533083120313A0002008FB
:1012B000831603179B0083120313A101A4010C30B2
:1012C000240203187F292408903E84008317000815
:1012D0000A168A11FE230A128A15831203132408A0
:1012E000903E840083170008A0002008A10601306A
:1012F000A0002008A4070C302402031C6329210845
:10130000A0002008831603179C001C080A168A11E7
:10131000FE230800780883120313A0007908A100B7
:101320007A08A2000310210D220DA3002308A400B7
:10133000A408031DA2290030F8000030F900003095
:10134000FA0008007B08A0007C08A1007D08A2002C
:101350000310210D220DA3002308A900A908031DD5
:10136000B8290030F8000030F9000030FA00080019
:1013700029087B3EA0002008A4077808A00079086F
:10138000A1007A08A20010300310A20CA10CA00C3E
:10139000FF3E031DC4292008A3002308A9007B08E1
:1013A000A0007C08A1007D08A20010300310A20C50
:1013B000A10CA00CFF3E031DD6292008A300230882
:1013C000A9068030A0002008A905F917FC17FF30F6
:1013D000FB05FF30FC050030FD050030A5000030A6
:1013E000A6000030A7000730A0002008A800781C45
:1013F000072A7B08A5077C08031103187C0A031D34
:10140000A6077D08031103187D0A031DA7070130F5
:101410000310FA0CF90CF80CFF3E031D082A0130EA
:101420000310FB0DFC0DFD0DFF3E031D102A0130C6
:10143000A802031DF7290930A0002008A800781C85
:101440002F2A7B08A5077C08031103187C0A031DBB
:10145000A6077D08031103187D0A031DA7070130A5
:101460000310FA0CF90CF80CFF3E031D302A013072
:101470000310A70CA60CA50CFF3E031D382A013053
:10148000A802031D1F2A2508F0002608F1002708DE
:10149000F2002408A0002008F3002908A100210878
:1014A000F4000A168A119F267008F8007108F900E6
:1014B0007208FA000800013083160313850001301A
:1014C000831203138500831603138601831203130B
:1014D00086018130831603138700C0308312031303
:1014E0008700831603138801831203138801831670
:1014F00003138901831203138901033090008E01C5
:101500008F01003083160313D9000130D800C23098
:10151000D7000030D6000A128A1508200A128A1550
:101520000A168A1122240A128A150A168A113E24E2
:101530000A128A150A168A1184250A128A150A16B1
:101540008A1107270A128A150B178B170A168A1198
:1015500007270A128A1583160313C70100300A16DB
:101560008A11FF240A128A15293083160313C90031
:101570008030CA000A168A11D1250A128A15003055
:1015800083160313C7000030C8000A168A111F25EE
:101590000A128A15003083160313C7000030C800F2
:1015A0000A168A1140250A128A15EE300A168A1187
:1015B00006240A128A15183083160313E0006130DE
:1015C000DF006E30DE00DE0BE32ADF0BE32AE00BE8
:1015D000E32A00000A168A11A8250A128A15831622
:1015E0000313C70100300A168A11FF240A128A1554
:1015F000483083160313C9008030CA000A168A11C6
:10160000D1250A128A15063083160313DE005E0800
:10161000C70000300A168A11FF240A128A159D306D
:1016200083160313C9000130CA000A168A11D12596
:101630000A128A1583160313C70101300A168A118C
:10164000FF240A128A15053083160313E000AD301B
:10165000DF00E030DE00DE0B2B2BDF0B2B2BE00B53
:101660002B2BEA2A831203132308A9002408AA00BB
:101670002508AB0003102A0D2B0DAC002C08AF0081
:101680002608A9002708AA002808AB0003102A0D85
:101690002B0DAC002C08AE002F0803195B2B2E0875
:1016A0002F020318622B2F03FF3A2E07A9001930CF
:1016B0002902031C622B2608A3002708A40028087F
:1016C000A50008002E08031908002F082E02031891
:1016D000712B2E03FF3A2F07A90019302902031896
:1016E00008000630A9002908AD00A51BAD17A81BEE
:1016F0002D17A417FF30A305FF30A4050030A50562
:10170000A717FF30A605FF30A7050030A8052E0853
:101710002F020318B12B01300310A60DA70DA80D41
:10172000FF3E031D8C2B0130AE022E082F0603193D
:10173000AC2B0130AD022D0807390319AC2B8B2BD4
:1017400001300310A50CA40CA30CFF3E031DA12B1C
:101750000130A9002908AF072F082E060319DA2B3C
:10176000A02B2F082E020318DA2B01300310A30D33
:10177000A40DA50DFF3E031DB62B0130AF022E08B0
:101780002F060319D62B0130AD022D080739031996
:10179000D62BB52B01300310A80CA70CA60CFF3ECE
:1017A000031DCB2B0130A9002908AE072F082E06F8
:1017B000031DCA2BAD1FEC2BFF30A306FF30A40680
:1017C000FF30A5060130A307003003180130A4073D
:1017D000003003180130A5072D1FFE2BFF30A60691
:1017E000FF30A706FF30A8060130A6070030031817
:1017F0000130A707003003180130A807AD01230806
:10180000A607240803110318240A031DA7072508A7
:1018100003110318250A031DA807A81F212CFF3058
:10182000A606FF30A706FF30A8060130A607003045
:1018300003180130A707003003180130A807AD01D5
:10184000AD0A2608F0002708F1002808F2002F084A
:10185000A9002908F3002D08AA002A08F4000A1696
:101860008A119F26700883120313A3007108A40035
:101870007208A5000800003083120313CC0000306A
:10188000CD000030CE004308B0004408B100450848
:10189000B2004008B3004108B4004208B5000A167F
:1018A0008A1140260A128A1503184E2D831203133B
:1018B0004308B0004408B1004508B2004008B30036
:1018C0004108B4004208B5000A168A1140260A12DF
:1018D0008A150318B42C831203134608B000470876
:1018E000B1004808B2004008B3004108B400420803
:1018F000B5000A168A1140260A128A15031CB42C58
:10190000831203134608A3004708A4004808A50053
:101910004308A0004408A1004508A2000A168A1145
:101920000E240A128A15831203132008A600210828
:10193000A7002208A8000A128A1532230A128A1563
:10194000831203132308B0002408B1002508B20055
:101950004008A3004108A4004208A5004308A000D5
:101960004408A1004508112D831203134608B00056
:101970004708B1004808B2004008B3004108B4006D
:101980004208B5000A168A1140260A128A15031861
:10199000392D831203134908B0004A08B1004B08DF
:1019A000B2004008B3004108B4004208B5000A166E
:1019B0008A1140260A128A15031C392D831203133B
:1019C0004608A3004708A4004808A5004908A0004D
:1019D0004A08A1004B08A2000A168A110E240A1216
:1019E0008A15831203132008A6002108A7002208E5
:1019F000A8000A128A1532230A128A1583120313C9
:101A00002308B0002408B1002508B2004008A30054
:101A10004108A4004208A5004908A0004A08A10006
:101A20004B08A2000A168A110E240A128A15831284
:101A300003132008A6002108A7002208A8000A1204
:101A40008A1532230A128A15831203132308B3005E
:101A50002408B4002508B5000A128A1147270A1283
:101A60008A15831203133008CC003108CD003208E8
:101A7000552D831203134908B0004A08B1004B08E2
:101A8000B2004008B3004108B4004208B5000A168D
:101A90008A1140260A128A150318562D0030831227
:101AA0000313CC000030CD000030CE0083120313AE
:101AB0004C08C0004D08C1004E08C20008008C1E32
:101AC000252E0A168A1192240A128A15303A031D0D
:101AD0007B2D3A300A168A11C5240A128A15003065
:101AE00083120313BE000030BF000A168A11AA2415
:101AF0000A128A159D2E0A168A1192240A128A1534
:101B0000313A031D892DD03083160313C3000230F0
:101B1000C4000A168A1192240A128A15323A031D49
:101B2000972DAA3083160313C3000530C4000A168C
:101B30008A1192240A128A15333A031DA52D0C30FE
:101B400083160313C3000B30C4000A168A119224B3
:101B50000A128A15343A031DB32DB83083160313C5
:101B6000C3000C30C4000A168A1192240A128A1586
:101B7000353A031DC12D9E3083160313C300113067
:101B8000C4000A168A1192240A128A15363A031DD5
:101B9000CF2D803083160313C3001630C4000A16FD
:101BA0008A1192240A128A15373A031DDD2DEA3074
:101BB00083160313C3001A30C4000A168A11922434
:101BC0000A128A15383A031DEB2DA430831603132D
:101BD000C3001F30C4000A168A1192240A128A1503
:101BE000393A031DF92D283083160313C30023301F
:101BF000C4000A128A1139200A128A1583160313A7
:101C000043089C3EF80044080318013EFF3EF900DB
:101C10000A168A1150240A128A15780883160313AB
:101C2000E4007908E5007A08E6000A168A11922491
:101C30000A128A15583A031D222E0A128A15E0202C
:101C40000A128A15831203138C120C1B0C130B1D22
:101C5000992EEE300A168A11F8230A128A150130DD
:101C6000831603133E02F33003193D020318422E7C
:101C70000130BD070318BE0A0030BE0783120313EC
:101C80000617982E83160313BD01BE01831203139A
:101C90000F0883160313C001C007831203130E0835
:101CA00083160313BF01BF076808F101F107670836
:101CB000F001F0074008F301F3073F08F201F207D3
:101CC0000A168A1102260A128A157108F901F90703
:101CD0007008F801F8077830FA000030FB000A16A7
:101CE0008A1161250A128A15790883160313C20125
:101CF000C2077808C101C1072830F0000030F100A8
:101D00004208F301F3074108F201F2070A168A11AB
:101D100002260A128A15710883160313C201C2072C
:101D20007008C101C107831203138E018F010613CE
:101D30000B110C180C108C198C11831203136C08E6
:101D4000FF006B088A006A088400690E8300FE0E9B
:101D50007E0E0900003083120313CF000030D00044
:101D60000030D1004308B0004408B1004508B2007B
:101D70004008B3004108B4004208B5000A168A11B1
:101D800040260A128A150318EF2F83120313430803
:101D9000B0004408B1004508B2004008B300410853
:101DA000B4004208B5000A168A1140260A128A15A4
:101DB0000318232F831203134608B0004708B1000D
:101DC0004808B2004008B3004108B4004208B5001A
:101DD0000A168A1140260A128A15031C232F831221
:101DE00003134608A3004708A4004808A5004308B9
:101DF000A0004408A1004508A2000A168A110E247A
:101E00000A128A15831203132008A6002108A700CE
:101E10002208A8000A128A1532230A128A15831290
:101E200003132308B0002408B1002508B2004008BD
:101E3000A3004108A4004208A5004308A0004408EC
:101E4000A1004508B22F831203134008B0004108D7
:101E5000B1004208B2004608B3004708B400480881
:101E6000B5000A168A1140260A128A15031C552F3E
:101E7000831203134908B0004A08B1004B08B200AE
:101E80004008B3004108B4004208B5000A168A11A0
:101E900040260A128A15031C552F003083120313A3
:101EA000CF008030D0003F30F62F83120313490853
:101EB000B0004A08B1004B08B2004008B300410826
:101EC000B4004208B5000A168A1140260A128A1583
:101ED0000318DA2F831203134C08B0004D08B10029
:101EE0004E08B2004008B3004108B4004208B500F3
:101EF0000A168A1140260A128A15031CDA2F831249
:101F000003134C08A3004D08A4004E08A50049087F
:101F1000A0004A08A1004B08A2000A168A110E244C
:101F20000A128A15831203132008A6002108A700AD
:101F30002208A8000A128A1532230A128A1583126F
:101F400003132308B0002408B1002508B2004C0890
:101F5000A3004D08A4004E08A5004008A0004108B9
:101F6000A1004208A2000A168A110E240A128A153C
:101F7000831203132008A6002108A7002208A80046
:101F80000A128A1532230A128A15831203132308B0
:101F9000B3002408B4002508B5000A128A114727A7
:101FA0000A128A15831203133008CF003108D000BB
:101FB0003208F62F831203134C08B0004D08B1000D
:101FC0004E08B2004008B3004108B4004208B50012
:101FD0000A168A1140260A128A150318F72F0030B4
:101FE00083120313CF000030D0000030D1008312E1
:101FF00003134F08C0005008C1005108C200080078
:10200000FF1B0A2883137F1883170008840A03190B
:10201000FF0A080010308A000408840A820700348E
:102020000A340D3420342D342D342D342D342D34F8
:102030002D342D3420344534533454344F345534F6
:1020400052344F34203444344534203450344934ED
:102050004C344834413420342D342D342D342D3437
:102060002D342D342D3420340A340D3420340034F2
:1020700049346E3469346334693461346C3469349E
:102080007A3461346E3464346F342E342E342E340A
:1020900000340A340D346434653473346C34693478
:1020A0006734613464346F340A340D3400346B3473
:0A20B0006D3448343A342034003413
:1027F000F00070088312031381000800F0008312B8
:1028000003130C1EFF2B7008990008008316031396
:10281000C7004708831203138100080083120313C3
:10282000220821042004031908008030A2060800B1
:102830000034A03441340034483442340734003486
:1028400032340034831603138112011281110115F1
:10285000811401140B118B1608007E088A007F0872
:1028600082002D240A168A118000840A04087D063D
:1028700003190034FF0A0319FE0A312C83160313CF
:102880009F179F151F159F141F10831203139F1767
:102890001F13831603130C13831203130C13080066
:1028A0007808F0007908F100F2018E30FB007B0817
:1028B000F300F4010A168A119F267008F8007108C7
:1028C000F9007208FA00080083160313C800831287
:1028D0000313091083160313480883120313880097
:1028E00089143D3083160313C700C70B752C831260
:1028F00003138910080083160313C80083120313FF
:1029000009148316031348088312031388008914DB
:102910003D3083160313C700C70B8C2C831203139F
:10292000891008008312031398189B2C1A08F300CF
:102930007308F400A72C01300A168A11C5248312EB
:10294000031318121A08F3007308F40018168C12F7
:1029500074080800831203133F08FD003E08FC00C2
:102960007D0DFD0CFC0C7D0DFD0CFC0C7C089B0012
:102970003E08FC0003300310FC0DFF3E031DBB2C82
:1029800003107C0D0C389D000800F20072088400D2
:102990000A168A110A200A168A110038031908003B
:1029A000720884000A168A110A200A168A110A1669
:1029B0008A11FE230A168A110130F1007108F2070C
:1029C000C62C831203133F08B0004008B100410831
:1029D000B2003C08B3003D08B4003E08B5000A163A
:1029E0008A1140260A168A11031C08008312031359
:1029F0003F08BC004008BD004108BE000800831627
:102A00000313C90083120313091083160313C908A3
:102A1000031D0D2D4708803E112D83160313470813
:102A2000C03E83120313880089143D3083160313BC
:102A3000C800C80B192D83120313891008008316D0
:102A400003134808CA004708C9004A0DCA0CC90C3C
:102A50004A0DCA0CC90C490883120313950083164A
:102A600003134708C90003300310C90DFF3E031DBF
:102A7000342D0310490D0C388312031397000800FE
:102A8000831603134808CA004708C9004A0DCA0C38
:102A9000C90C4A0DCA0CC90C4908831203139B00C8
:102AA000831603134708C90003300310C90DFF3E06
:102AB000031D552D0310490D0C38831203139D007F
:102AC0000800FC01FD01781C6B2D7A08FC07031837
:102AD000FD0A7B08FD0701300310FA0DFB0DFF3ED8
:102AE000031D6C2D01300310F90CF80CFF3E031D83
:102AF000732D79087804031D632D7D08F901F9070A
:102B00007C08F801F80708008312031392141210CE
:102B100012139212121292111215FF308316031320
:102B20009200831203139715171597141714831621
:102B300003130C15831203130C119D151D159D1401
:102B40001D14831603130D14831203130D100800B4
:102B500001300A168A1164240A168A110C30831671
:102B60000313CA00F730C900C90BB42DCA0BB42D2A
:102B70000C300A168A1164240A168A113D30831615
:102B80000313C900C90BC22D06300A168A1164242A
:102B90000A168A113D3083160313C900C90BCE2DC6
:102BA0000800831603134A0883120313FF008316D9
:102BB000031349088400831203130A168A110020A4
:102BC0000A168A11003803190800831603134A08ED
:102BD00083120313FF008316031349088400831232
:102BE00003130A168A1100200A168A110A168A117E
:102BF0007B240A168A11013083160313C9070318B0
:102C0000CA0AD12DF501F601710870040319392E95
:102C1000F701F70AF11B182E01300310F00DF10D2A
:102C2000FF3E031D0D2E0130F4007408F7070A2E35
:102C300001300310F50DF60DFF3E031D192E71082E
:102C40007302031D252E70087202031C2E2E7008BD
:102C5000F2027108031CF303F30275140130031030
:102C6000F10CF00CFF3E031D2F2E0130F702031D67
:102C7000182E7608F101F1077508F001F007080039
:102C800083120313B21F692E0030B6000030B70064
:102C90008030B8003009B9003109BA003209BB00F0
:102CA000B90A0319BA0A0319BB0A3908B6073A0860
:102CB00003183A0F5C2E5D2EB7073B0803183B0F35
:102CC000622E632EB8073608B0003708B100380806
:102CD000B200B51F902E0030B6000030B700803033
:102CE000B8003309B9003409BA003509BB00B90A84
:102CF0000319BA0A0319BB0A3908B6073A080318B8
:102D00003A0F832E842EB7073B0803183B0F892EFA
:102D10008A2EB8073608B3003708B4003808B50063
:102D20008030B2068030B50635083202031D080037
:102D300034083102031D080033083002080073080C
:102D40000319A72E720871047004031DBA2E0030F7
:102D5000F0000030F1000030F20008000130F50012
:102D60007508F30701300310F20CF10CF00CFF3E74
:102D7000031DB32EFE3072050319D52EAE2E013081
:102D8000F5007508F3070130F00700300318013033
:102D9000F107003003180130F20701300310F20C84
:102DA000F10CF00CFF3E031DCE2EFF30720503190F
:102DB000E42EBF2E0130F30201300310F00DF10DAF
:102DC000F20DFF3E031DDD2EF11FDA2E7318EE2EDD
:102DD000FF30F0057F30F105FF30F2050310F30CF2
:102DE0007308F500F601F70110300310F50DF60D2C
:102DF000F70DFF3E031DF52E7508F0047608F1046B
:102E00007708F204740803190800F2170800831603
:102E100003139F111F159F101F105A30CA00C33093
:102E2000C900C90B112FCA0B112F30300A168A1195
:102E300064240A168A11183083160313CA00EF306F
:102E4000C900C90B212FCA0B212F30300A168A1155
:102E500064240A168A11993083160313C900C90B1A
:102E60002F2F30300A168A1164240A168A113D3039
:102E700083160313C900C90B3B2F38300A168A1179
:102E800064240A168A113D3083160313C900C90B46
:102E9000472F01300A168A1164240A168A110C3051
:102EA00083160313CA00F730C900C90B552FCA0B8C
:102EB000552F0C300A168A1164240A168A113D30E7
:102EC00083160313C900C90B632F06300A168A1133
:102ED00064240A168A113D3083160313C900C90BF6
:102EE0006F2F0800831203133008B4003108B500B7
:102EF0003208B6000310350D360DB7003708BD0097
:102F0000BD08031D8C2F0030B3000030B20000302C
:102F1000B1000030B00008003008B4003108B5003E
:102F20003208B60017300310B60CB50CB40CFF3ED7
:102F3000031D932F3408B7003708B800B117FF30CE
:102F4000B005FF30B1050030B2053008B9003108D6
:102F5000BA003208BB00BC018E30BD02BD1FCE2FAF
:102F60003D08803A8F3E0318BE2F0030B30000307A
:102F7000B2000030B1000030B00008000130031092
:102F8000BC0CBB0CBA0CB90CFF3E031DBF2F0130AB
:102F9000B4003408BD070319E92FBE2F18303D02D5
:102FA000031CE62F0030B3000030B2000030B10047
:102FB0000030B00008000130B4000310B90DBA0DA4
:102FC000BB0DBC0DB40BDD2F0130BD02BD08031DD0
:102FD000DB2F38080319F72FB909BA09BB09BC0957
:102FE000B90A0319BA0A0319BB0A0319BC0A3C0837
:102FF000B3003B08B2003A08B1003908B00008003D
:02400E0032FF7F
:00000001FF
