:060000000A128A11122809
:10000800FE00030E83120313E9000408EA000A083D
:10001800EB007F08EC000A128A15CE2C0A128A110E
:100028001528ED01EE018313A0308400C3300A16B1
:100038008A1178200A128A11831790308400AF3011
:100048000A168A1178200A128A11831603170A12CF
:100058008A15DC200A128A11AF000A128A15DD20DF
:100068000A128A11B0008313EF30FD001030FE0031
:100078008A30FF00E53084000A168A11C020830107
:100088000A128A15272A831603136E08F901F9073D
:100098006D08F801F8070A168A11DF200A128A117A
:1000A800780883160313E5007908E6007A08E70064
:1000B800003083120313E6000030E7000030E80048
:1000C800D201D3010030DD000030DE000030DF0057
:1000D8000030E0000030E1000030E2000030E300D2
:1000E8000030E4000030E500003083160313A3005D
:1000F8000030A4000030A500650883120313A30094
:1001080083160313660883120313A40083160313CC
:10011800670883120313A500831603136808831264
:100128000313A00083160313690883120313A100A5
:10013800831603136A0883120313A2000A168A118E
:1001480080200A128A11831203132008A6002108AE
:10015800A7002208A8000A168A11F7260A128A118F
:10016800831203132308E6002408E7002508E800A3
:100178000030B000C830B1004230B2006608B300A9
:100188006708B4006808B5000A168A116E250A12B5
:100198008A11831203133008E6003108E700320899
:1001A800E8006608B0006708B1006808B2000A16DF
:1001B8008A11E0240A128A11831203133108EE010E
:1001C800EE073008ED01ED076608B0006708B100DA
:1001D8006808B2000030B3000030B4000030B50049
:1001E8000A168A11AE230A128A1103181F298312CC
:1001F8000313861801298614022986100030F80096
:100208008030F900BF30FA006608FB006708FC0080
:100218006808FD000A168A1126260A128A1178082B
:1002280083120313E6007908E7007A08E800013032
:10023800D2000030D300003083120313B000B43072
:10024800B1004230B2006608B3006708B40068081D
:10025800B5000A168A11AE230A128A1103183C291E
:10026800003083120313E600B430E7004230E800A0
:10027800831203136608B0006708B1006808B2006B
:100288000030B300C830B4004130B5000A168A11F6
:10029800AE230A128A110318B12A831203136608BF
:1002A800C0006708C1006808C2000030C300003001
:1002B800C4000030C5000030C6000030C700003060
:1002C800C8000030C9005030CA004130CB000030AF
:1002D800CC000030CD004230CE000A128A157823B7
:1002E8000A128A1183120313400883160313A3000A
:1002F80083120313410883160313A4008312031304
:10030800420883160313A500230883120313BC00B5
:1003180083160313240883120313BD0083160313E3
:10032800250883120313BE00CD30BF00CC30C000B7
:100338003D30C1000A168A113C210A128A11831223
:1003480003133C0883160313A600831203133D0806
:1003580083160313A700831203133E08831603139F
:10036800A8000030B5000030B6000030B7000030FB
:10037800B8000030B9000030BA0083120313D70167
:10038800D8015808803AFF0080307F02031DCE292B
:100398005B3057020318B12A8316031335088312FA
:1003A8000313C00083160313360883120313C10016
:1003B80083160313370883120313C2000030C300E7
:1003C8000030C4000030C5000030C6000030C7004F
:1003D8000030C8000030C9005030CA004130CB009E
:1003E8000030CC000030CD004230CE000A128A1511
:1003F80078230A128A118312031340088316031301
:10040800B80083120313410883160313B90083123B
:100418000313420883160313BA0026088312031332
:10042800B00083160313270883120313B100831641
:100438000313280883120313B20083160313380822
:1004480083120313B30083160313390883120313AB
:10045800B400831603133A0883120313B5000A166F
:100468008A11AE230A128A1103184A2A8316031323
:10047800260883120313A300831603132708831285
:100488000313A400831603132808592A8316031399
:10049800380883120313A300831603133908831241
:1004A8000313A400831603133A0883120313A50049
:1004B8006008A6006108A7006208A8000A168A1149
:1004C800F7260A128A11831203132308E00024086E
:1004D800E1002508E2000030A3008030A4003F308E
:1004E800A50083160313350883120313A600831689
:1004F8000313360883120313A70083160313370860
:1005080083120313A8000A168A11F7260A128A1101
:1005180083120313230883160313B50083120313EE
:10052800240883160313B6008312031325088316C1
:100538000313B700013083120313D7070318D80A2F
:100548000030D8075808803AFF0080307F02031D2A
:10055800AF2A5B305702031CD029003083120313E3
:10056800B000A030B1004130B2006608B30067089F
:10057800B4006808B5000A168A11AE230A128A1157
:1005880003182F2C831203136608B0006708B10004
:100598006808B2000030B3008C30B4004230B500B7
:1005A8000A168A11AE230A128A1103182F2C8312F5
:1005B80003136608C0006708C1006808C20000305D
:1005C800C3001030C4004130C5000030C6003430CC
:1005D800C7004230C8000030C900A230CA0042300B
:1005E800CB000A128A1503210A128A1183120313F7
:1005F800400883160313A3008312031341088316CC
:100608000313A40083120313420883160313A500DF
:10061800230883120313BC008316031324088312D0
:100628000313BD0083160313250883120313BE00AA
:10063800CD30BF00CC30C0003D30C1000A168A1151
:100648003C210A128A11831203133C0883160313F0
:10065800A900831203133D0883160313AA0083120B
:1006680003133E0883160313AB000030B5000030B7
:10067800B6000030B7000030B8000030B9000030D4
:10068800BA0083120313D901DA015A08803AFF002D
:1006980080307F02031D522B5B30590203182F2C28
:1006A80083160313350883120313C000831603133C
:1006B800360883120313C100831603133708831205
:1006C8000313C2000030C3001030C4004130C5001D
:1006D8000030C6003430C7004230C8000030C900BE
:1006E800A230CA004230CB000A128A1503210A122E
:1006F8008A1183120313400883160313B800831268
:100708000313410883160313B90083120313420825
:1007180083160313BA00380883120313B000831634
:100728000313390883120313B100831603133A081D
:1007380083120313B20083160313290883120313C9
:10074800B300831603132A0883120313B400831615
:1007580003132B0883120313B5000A168A11AE235C
:100768000A128A11031CC82B831603132908831243
:100778000313A300831603132A0883120313A40088
:10078800831603132B08D72B8316031338088312F9
:100798000313A30083160313390883120313A40059
:1007A800831603133A0883120313A5005D08A600F5
:1007B8005E08A7005F08A8000A168A11F7260A1221
:1007C8008A11831203132308DD002408DE0025089C
:1007D800DF000030A3008030A4003F30A50083165E
:1007E8000313350883120313A60083160313360870
:1007F80083120313A7008316031337088312031306
:10080800A8000A168A11F7260A128A1183120313FE
:10081800230883160313B5008312031324088316D1
:100828000313B60083120313250883160313B700B6
:10083800013083120313D9070318DA0A0030DA07E4
:100848005A08803AFF0080307F02031D2D2C5B3050
:100858005902031C542B003083120313B0008C3050
:10086800B1004230B2006608B3006708B4006808F7
:10087800B5000A168A11AE230A128A110318A42D8C
:10088800831203136608C0006708C1006808C20025
:100898000030C3007830C4004230C5000030C600C4
:1008A8009E30C7004230C8000030C900B430CA00CA
:1008B8004230CB000030CC00B430CD004230CE0006
:1008C8000A128A1578230A128A1183120313400820
:1008D80083160313A300831203134108831603131B
:1008E800A40083120313420883160313A5002308E8
:1008F80083120313BC008316031324088312031303
:10090800BD0083160313250883120313BE00CD30E0
:10091800BF00CC30C0003D30C1000A168A113C210E
:100928000A128A11831203133C0883160313AC00BE
:10093800831203133D0883160313AD0083120313B8
:100948003E0883160313AE000030B5000030B60031
:100958000030B7000030B8000030B9000030BA00ED
:1009680083120313DB01DC015C08803AFF0080304E
:100978007F02031DC12C5B305B020318A42D831674
:100988000313350883120313C000831603133608B4
:1009980083120313C100831603133708831203134A
:1009A800C2000030C3007830C4004230C5000030B7
:1009B800C6009E30C7004230C8000030C900B430BD
:1009C800CA004230CB000030CC00B430CD004230F9
:1009D800CE000A128A1578230A128A118312031389
:1009E800400883160313B8008312031341088316C3
:1009F8000313B90083120313420883160313BA00C2
:100A0800380883120313B0008316031339088312BE
:100A18000313B100831603133A0883120313B200B9
:100A2800831603132C0883120313B30083160313CE
:100A38002D0883120313B400831603132E088312A0
:100A48000313B5000A168A11AE230A128A11031C71
:100A58003D2D831603132C0883120313A30083165A
:100A680003132D0883120313A400831603132E08FF
:100A78004C2D83160313380883120313A30083161F
:100A88000313390883120313A400831603133A08C7
:100A980083120313A5006308A6006408A70065086D
:100AA800A8000A168A11F7260A128A11831203135C
:100AB8002308E3002408E4002508E5000030A3002B
:100AC8008030A4003F30A500831603133508831235
:100AD8000313A60083160313360883120313A70013
:100AE80083160313370883120313A8000A168A1102
:100AF800F7260A128A118312031323088316031395
:100B0800B50083120313240883160313B600831257
:100B18000313250883160313B70001308312031348
:100B2800DB070318DC0A0030DC075C08803AFF00AA
:100B380080307F02031DA22D5B305B02031CC32C97
:100B4800831203136608B0006708B1006808B20092
:100B58000030B300C830B4004130B5000A168A111D
:100B6800AE230A128A110318C12D831203136008D9
:100B7800D4006108D5006208FA2D831203136608B1
:100B8800B0006708B1006808B2000030B300C83090
:100B9800B4004130B5000A168A11AE230A128A1130
:100BA800031CF32D831203136608B0006708B10015
:100BB8006808B2000030B3009630B4004230B50087
:100BC8000A168A11AE230A128A110318F32D83120A
:100BD80003135D08D4005E08D5005F08FA2D831260
:100BE80003136308D4006408D5006508D6000030F4
:100BF80083160313B200B430B3004230B40000309F
:100C0800AF000030B0000030B10083120313540865
:100C1800A3005508A4005608A500831603132F083F
:100C280083120313A60083160313300883120313D9
:100C3800A70083160313310883120313A8000A16AA
:100C48008A11F7260A128A118312031323088316BE
:100C58000313AF0083120313240883160313B00091
:100C680083120313250883160313B1003208831275
:100C78000313B00083160313330883120313B10060
:100C880083160313340883120313B2008316031365
:100C98002F0883120313B30083160313300883123B
:100CA8000313B40083160313310883120313B5002A
:100CB8000A168A116E250A128A1183120313300844
:100CC80083160313A000831203133108831603133A
:100CD800A10083120313320883160313A200003005
:100CE800F800C830F9004230FA002008FB0021085B
:100CF800FC002208FD000A168A1126260A128A110B
:100D0800780883160313A0007908A1007A08A200C6
:100D1800013083120313D2000030D3000030B0003A
:100D28000030B1000030B200831603136808831244
:100D38000313A30083160313690883120313A40083
:100D4800831603136A0883120313A5006E08F901BA
:100D5800F9076D08F801F8070A168A11DF200A1248
:100D68008A11780883120313A6007908A7007A0865
:100D7800A8000A168A11F7260A128A118312031389
:100D88002308B3002408B4002508B5000A168A1100
:100D9800AE230A128A110318080083160313680881
:100DA80083120313A3008316031369088312031322
:100DB800A400831603136A0883120313A5006E08A0
:100DC800F901F9076D08F801F8070A168A11DF20FA
:100DD8000A128A11780883120313A6007908A7005B
:100DE8007A08A8000A168A11F7260A128A118312AD
:100DF80003132308B0002408B1002508B20000300E
:100E0800B3007F30B4004430B5000A168A11AE230F
:100E18000A128A1103180800831203136E08F901D5
:100E2800F9076D08F801F8070A168A11DF200A1277
:100E38008A11780883120313A6007908A7007A0894
:100E4800A80083160313680883120313A3008316EC
:100E58000313690883120313A400831603136A0893
:100E680083120313A5000A168A11F7260A128A119B
:100E7800831203132308B0002408B1002508B20028
:100E88000A168A11E0240A128A1183120313310800
:100E9800BF01BF073008BE01BE070A168A1121210B
:100EA800080083160313CD01C61F672FC309C409A1
:100EB800C509C609C30A0319C40A0319C50A0319CF
:100EC800C60ACD01CD0ACA1F782FC709C809C909A2
:100ED800CA09C70A0319C80A0319C90A0319CA0A99
:100EE8000130CB004B08CD060030D1000030D000D7
:100EF8000030CF000030CE004608450444044304C7
:100F08000319CD2FCC01CC0AC61B982F0130CB007A
:100F18000310C30DC40DC50DC60DCB0B8C2F0130AE
:100F2800CB004B08CC07882F0130CB000310CE0D27
:100F3800CF0DD00DD10DCB0B9A2F46084A02031DB9
:100F4800AF2F45084902031DAF2F44084802031D6F
:100F5800AF2F43084702031CC02F4308C7024408A9
:100F6800031C440FC8024508031C450FC902460864
:100F7800031C460FCA024E1401300310C60CC50CE0
:100F8800C40CC30CFF3E031DC12F0130CC02031D4E
:100F9800982F4D080319DB2FCE09CF09D009D109A5
:100FA800CE0A0319CF0A0319D00A0319D10A510826
:100FB800C6005008C5004F08C4004E08C30008000A
:100FC800831203139818ED2F1A08F3007308F4001E
:100FD800FC2F0B30F1008030F2000A168A11BC2178
:100FE8008312031318121A08F3007308F400181672
:060FF8008C1274080800D1
:10100000FF1B0A2883137F1883170008840A03191B
:10101000FF0A080008308A000408840A82070034A6
:10102000013400340A34003464340034E8340334C6
:10103000103427340A340D3420342D342D342D341B
:101040002D342D342D342D34203445345334543440
:101050004F34553452344F342034443445342034E2
:10106000503449344C344834413420342D342D34F8
:101070002D342D342D342D342D3420340A340D34B8
:101080002034003449346E34693463346934613453
:101090006C3469347A3461346E3464346F3420349F
:1010A0006F34203450344934433431343634463488
:1010B00038343734373441340A340D34003455343D
:1010C00053344134523454343A342034313431348A
:1010D00035342E3432343034303462347034733436
:1010E0000A340D34003449346E346934633469345D
:1010F00061346C3469347A3461346E3464346F34FE
:101100002E342E342E3400340A340D3470347734B7
:101110006D3420343D34203431343034323433347F
:101120000A340D3400340A340D34703477346D349D
:1011300020343D3420343834393436340A340D34D4
:1011400000340A340D34703477346D3420343D3437
:1011500020343734363438340A340D3400340A3409
:101160000D346434653473346C34693467346134F9
:1011700064346F340A340D3400340A340D3470345E
:1011800077346D3420343D3420340A340D34003447
:10119000443465346C34743461343A34203400346B
:1011A000523450344D343A34203400342534303401
:0611B00034346434003405
:1011B8003234003483160313C701C801431CEA28DC
:1011C8004508C7070318C80A4608C80701300310AE
:1011D800C50DC60DFF3E031DEB2801300310C40CDE
:1011E800C30CFF3E031DF22844084304031DE228F4
:1011F8004808C401C4074708C301C30708000030F2
:1012080083120313CC000030CD000030CE00430819
:10121800B0004408B1004508B2004008B3004108D6
:10122800B4004208B5000A168A11AE230A128A15BC
:101238000318162A831203134308B0004408B100A8
:101248004508B2004008B3004108B4004208B500A0
:101258000A168A11AE230A128A1503187C298312EA
:1012680003134608B0004708B1004808B200400818
:10127800B3004108B4004208B5000A168A11AE232B
:101288000A128A15031C7C29831203134608A3003B
:101298004708A4004808A5004308A0004408A10086
:1012A8004508A2000A168A1180200A128A1583129C
:1012B80003132008A6002108A7002208A8000A1680
:1012C8008A11F7260A128A15831203132308B0001D
:1012D8002408B1002508B2004008A3004108A40072
:1012E8004208A5004308A0004408A1004508D929E0
:1012F800831203134608B0004708B1004808B2003B
:101308004008B3004108B4004208B5000A168A1123
:10131800AE230A128A150318012A831203134908F7
:10132800B0004A08B1004B08B2004008B3004108B9
:10133800B4004208B5000A168A11AE230A128A15AB
:10134800031C012A831203134608A3004708A400BC
:101358004808A5004908A0004A08A1004B08A200B7
:101368000A168A1180200A128A158312031320088C
:10137800A6002108A7002208A8000A168A11F72645
:101388000A128A15831203132308B0002408B10037
:101398002508B2004008A3004108A4004208A5009F
:1013A8004908A0004A08A1004B08A2000A168A11A1
:1013B80080200A128A15831203132008A600210828
:1013C800A7002208A8000A168A11F7260A128A1509
:1013D800831203132308B3002408B4002508B500BA
:1013E8000A168A116E250A128A1583120313300809
:1013F800CC003108CD0032081D2A83120313490896
:10140800B0004A08B1004B08B2004008B3004108D8
:10141800B4004208B5000A168A11AE230A128A15CA
:1014280003181E2A003083120313CC000030CD00AD
:101438000030CE00831203134C08C0004D08C100D1
:101448004E08C200080001308316031385000130DE
:101458008312031385008316031386018312031373
:1014680086018130831603138700C030831203136B
:1014780087008316031388018312031388018316D8
:1014880003138901831203138901033090008E012D
:101498008F01003083160313D5000130D400C23009
:1014A800D3000030D2000A168A1165230A128A1561
:1014B8000A168A1194200A128A150A168A11CD2052
:1014C8000A128A150A168A1102220A128A150A169F
:1014D8008A1175240A128A150B178B173330831655
:1014E8000313C4008030C5000A168A1180220A122C
:1014F8008A15503083160313C4008030C5000A16BD
:101508008A1180220A128A150A168A1175240A126B
:101518008A1583160313C30100300A168A115A214B
:101528000A128A15643083160313C5008030C6007A
:101538000A168A114F220A128A15003083160313DD
:10154800C3000030C4000A168A117A210A128A15CB
:10155800003083160313C3000030C4000A168A1132
:101568009B210A128A15EE300A168A1170200A1277
:101578008A15183083160313E4006130E3006E30D7
:10158800E200E20BC52AE30BC52AE40BC52A0000DA
:10159800C73083160313E2006208D1004208D30162
:1015A800D3074108D201D207A5300A128A15492665
:1015B8000A128A15C73083160313E2006208D100A5
:1015C800831203136E0883160313D301D307831200
:1015D80003136D0883160313D201D2079B300A1236
:1015E8008A1549260A128A15A53083160313C400E2
:1015F8000130C5000A168A1180220A128A15B630EF
:1016080083160313C4008030C5000A168A1180228D
:101618000A128A150A168A1126220A128A158316B0
:101628000313C30100300A168A115A210A128A15B7
:10163800C13083160313C5008030C6000A168A110C
:101648004F220A128A15063083160313E200620835
:10165800C30000300A168A115A210A128A15A530C9
:1016680083160313C5000130C6000A168A114F22DB
:101678000A128A1583160313C30101300A168A1148
:101688005A210A128A15B93083160313C50080300F
:10169800C6000A168A114F220A128A1506308316C6
:1016A8000313E2006208C30001300A168A115A21A6
:1016B8000A128A159B3083160313C5000130C60031
:1016C8000A168A114F220A128A1505308316031347
:1016D800E400AD30E300E030E200E20B712BE30BF5
:1016E800712BE40B712BCC2A003083120313CF002B
:1016F8000030D0000030D1004308B0004408B100E9
:101708004508B2004008B3004108B4004208B500DB
:101718000A168A11AE230A128A150318BD2C8312E1
:1017280003134308B0004408B1004508B20040085C
:10173800B3004108B4004208B5000A168A11AE2366
:101748000A128A150318F12B831203134608B000F6
:101758004708B1004808B2004008B3004108B40087
:101768004208B5000A168A11AE230A128A15031C0C
:10177800F12B831203134608A3004708A400480866
:10178800A5004308A0004408A1004508A2000A16C5
:101798008A1180200A128A15831203132008A600D2
:1017A8002108A7002208A8000A168A11F7260A129B
:1017B8008A15831203132308B0002408B1002508F2
:1017C800B2004008A3004108A4004208A50043084D
:1017D800A0004408A1004508802C83120313400888
:1017E800B0004108B1004208B2004608B3004708FB
:1017F800B4004808B5000A168A11AE230A128A15E1
:10180800031C232C831203134908B0004A08B100B3
:101818004B08B2004008B3004108B4004208B500C4
:101828000A168A11AE230A128A15031C232C0030CB
:1018380083120313CF008030D0003F30C42C8312B2
:1018480003134908B0004A08B1004B08B200400829
:10185800B3004108B4004208B5000A168A11AE2345
:101868000A128A150318A82C831203134C08B00017
:101878004D08B1004E08B2004008B3004108B4005A
:101888004208B5000A168A11AE230A128A15031CEB
:10189800A82C831203134C08A3004D08A4004E087B
:1018A800A5004908A0004A08A1004B08A2000A1692
:1018B8008A1180200A128A15831203132008A600B1
:1018C8002108A7002208A8000A168A11F7260A127A
:1018D8008A15831203132308B0002408B1002508D1
:1018E800B2004C08A3004D08A4004E08A50040080B
:1018F800A0004108A1004208A2000A168A1180200F
:101908000A128A15831203132008A6002108A700CB
:101918002208A8000A168A11F7260A128A158312C5
:1019280003132308B3002408B4002508B5000A16D9
:101938008A116E250A128A15831203133008CF0004
:101948003108D0003208C42C831203134C08B000AD
:101958004D08B1004E08B2004008B3004108B40079
:101968004208B5000A168A11AE230A128A1503180E
:10197800C52C003083120313CF000030D000003094
:10198800D100831203134F08C0005008C10051084A
:10199800C20008008C1EDB2D0A128A11E4270A12E5
:1019A8008A15303A031DED2CA030F1008030F2008A
:1019B8000A168A11BC210A128A15003083120313F1
:1019C800BE000030BF000A168A1121210A128A15AA
:1019D8003C2E0A128A11E4270A128A15313A031D8D
:1019E800042DAE30F1008030F2000A168A11BC21B5
:1019F8000A128A15D03083160313ED000230EE0068
:101A08000A128A11E4270A128A15323A031D1B2D7D
:101A1800AE30F1008030F2000A168A11BC210A1299
:101A28008A15AA3083160313ED000530EE000A125A
:101A38008A11E4270A128A15333A031D322DAE3073
:101A4800F1008030F2000A168A11BC210A128A15A8
:101A58000C3083160313ED000B30EE000A128A11C6
:101A6800E4270A128A15343A031D492DAE30F100D5
:101A78008030F2000A168A11BC210A128A15B83081
:101A880083160313ED000C30EE000A128A11E427C6
:101A98000A128A15353A031D602DAE30F1008030E8
:101AA800F2000A168A11BC210A128A159E30831682
:101AB8000313ED001130EE000A128A11E4270A120E
:101AC8008A15363A031D772D9230F1008030F200E6
:101AD8000A168A11BC210A128A158030831603134C
:101AE800ED001630EE000A128A11E4270A128A1550
:101AF800373A031D8E2D8430F1008030F2000A162B
:101B08008A11BC210A128A15EA3083160313ED00E4
:101B18001A30EE000A128A11E4270A128A15383A96
:101B2800031DA52DAE30F1008030F2000A168A118F
:101B3800BC210A128A15A43083160313ED001F3046
:101B4800EE000A128A11E4270A128A15393A031D8F
:101B5800BC2D7530F1008030F2000A168A11BC21C4
:101B68000A128A15283083160313ED002330EE007D
:101B78000A128A1147200A128A15831603136D0860
:101B88009C3EF8006E080318013EFF3EF9000A1655
:101B98008A11DF200A128A15780883160313E800D1
:101BA8007908E9007A08EA00831203138C120C1BE7
:101BB8000C130B1D382EEE300A168A1162200A12F9
:101BC8008A150130831603133E02F33003193D02D0
:101BD8000318F82D0130BD070318BE0A0030BE07F0
:101BE800831203130617372E83160313BD01BE0194
:101BF800831203130F0883160313C001C00783124F
:101C080003130E0883160313BF01BF076C08F10105
:101C1800F1076B08F001F0074008F301F3073F08EC
:101C2800F201F2070A168A11E7220A128A157108C8
:101C3800F901F9077008F801F8077830FA00003060
:101C4800FB000A168A11DF210A128A157908831601
:101C58000313C201C2077808C101C1078312031325
:101C68008E018F0106130B110C180C108C198C1196
:101C7800831203136C08FF006B088A006A0884004B
:101C8800690E8300FE0E7E0E090083160313E00022
:101C9800D230D4005408D700013083160313D1077B
:101CA800FF30510784000A128A150A200A128A1581
:101CB800D4005408E100E1080319F92F6108253A16
:101CC8000319722E6108D400600884005408831731
:101CD80080000130D4005408E007502EDE01DF01F7
:101CE800DD017B2E5D150130D4005408D107510861
:101CF80084000A128A150A200A128A15303A031932
:101D0800762E862E510884000A128A150A200A1295
:101D18008A150A168A11AC200A128A15031CD62EB7
:101D280083160313DE01DF010A3083160313C30091
:101D38000030C4005F08C601C6075E08C501C507B4
:101D48000A128A15DE200A128A158316031344081C
:101D5800DF01DF074308DE01DE07510884000A12AD
:101D68008A150A200A128A15D03ED400FF300318BB
:101D78000030D5005408DE070318DF0A5508DF07CE
:101D88000130D4005408D107510884000A128A157A
:101D98000A200A128A150A168A11AC200A128A1514
:101DA8000318982E013083160313D107FF3051070B
:101DB80084000A128A150A200A128A15E100003ADC
:101DC8000319F92F643A0319ED2E0D3A0319ED2E74
:101DD800502E831603135708840083130008D90074
:101DE800840A0008DA000230D4005408D707DA1F42
:101DF800062F0330D4005408DD04D909DA09D90ABA
:101E08000319DA0AE101E10A6108053A03192D2FDD
:101E18006108D4005407013E84000A128A150A207A
:101E28000A128A15D5000A128A150A200A128A157A
:101E3800D60056085A02031D232F55085902031CC1
:101E48002D2F0130D4005408E1076108053A031D1D
:101E58000C2F5F085E0403193B2F5D080339031933
:101E68003B2FFF30DE070318DF0AFF30DF0761086A
:101E7800D400D501D41BD5035508803AD6005F0895
:101E8800803A5602031D4A2F5E08540203185A2F3F
:101E9800831603136108D400D501D41BD503540855
:101EA800DE025508031CDF03DF025E2F83160313CF
:101EB800DE01DF015D1D852F5D08033903196F2FD2
:101EC8002D30D40060088400540883178000013046
:101ED800D4005408E0075F085E040319AD2F3030C2
:101EE800D400600884005408831780000130D400AF
:101EF8005408E007FF30DE070318DF0AFF30DF076A
:101F08006F2F5F085E0403199E2F2030D4006008ED
:101F180084005408831780000130D4005408E00777
:101F2800FF30DE070318DF0AFF30DF075F085E04B3
:101F3800031D892F5D0803390319AD2F2D30D400F7
:101F4800600884005408831780000130D4005408C6
:101F5800E0076108D4005408D800FF30D4005408C2
:101F6800D8075808FF3A0319502E0A30CB00003022
:101F7800CC005808D4005407013E84000A128A1580
:101F88000A200A128A15C3000A128A150A200A12A0
:101F98008A15C4005A08C601C6075908C501C507ED
:101FA8000A168A1125230A128A1583160313440870
:101FB800CE01CE074308CD01CD070A168A11B122FA
:101FC8000A128A15831603134B08303ED5005508AC
:101FD800E1006108D4006008840054088317800079
:101FE8000130D4005408E007B12F831603136008AA
:081FF80084008317800108003A
:1020C400F00070088312031381000800F0008312EB
:1020D40003130C1E69287008990008008316031363
:1020E400C3004308831203138100080064008001C5
:1020F400840A04060319003404067928831203139E
:10210400220821042004031908008030A2060800D4
:102114000034A034413400344834423407340034A9
:10212400C83400348316031381120112811101157E
:10213400811401140B118B16080083160313C300BA
:1021440083120C1EA228831603134308831203135D
:102154009900080083160313C400C3013A304402F3
:102164000318BA2830304402031CBA28C301C30A36
:10217400430C08007E088A007F088200BC200A16EF
:102184008A118000840A04087D0603190034FF0ABA
:102194000319FE0AC028831603139F179F151F15E2
:1021A4009F141F10831203139F171F138316031307
:1021B4000C13831203130C1308007808F000790839
:1021C400F100F2018E30FB007B08F300F4010A16E3
:1021D4008A110D247008F8007108F9007208FA00D9
:1021E400080083160313C400831203130910831613
:1021F4000313440883120313880089143D308316A3
:102204000313C300C30B04298312031389100800AA
:1022140083160313C40083120313091483160313D0
:10222400440883120313880089143D308316031372
:10223400C300C30B1B2983120313891008008312E4
:1022440003133F08FD003E08FC007D0DFD0CFC0C53
:102254007D0DFD0CFC0C7C089B003E08FC0003304B
:102264000310FC0DFF3E031D322903107C0D0C38B6
:102274009D000800831203133F08B0004008B1001A
:102284004108B2003C08B3003D08B4003E08B50064
:102294000A168A11AE230A168A11031C0800831237
:1022A40003133F08BC004008BD004108BE000800FD
:1022B40083160313C5008312031309108316031333
:1022C400C508031D68294308803E6C29831603133F
:1022D4004308C03E83120313880089143D308316DB
:1022E4000313C400C40B7429831203138910080058
:1022F400831603134408C6004308C500460DC60CE4
:10230400C50C460DC60CC50C450883120313950075
:10231400831603134308C50003300310C50DFF3EA5
:10232400031D8F290310450D0C38831203139700E6
:102334000800831603134408C6004308C500460D6D
:10234400C60CC50C460DC60CC50C450883120313F8
:102354009B00831603134308C50003300310C50D07
:10236400FF3E031DB0290310450D0C3883120313DF
:102374009D000800720883120313FF007108840093
:102384000A128A1500200A168A1100380319080057
:10239400720883120313FF00710884000A128A155D
:1023A40000200A168A110A168A1168200A168A1150
:1023B4000130F1070318F20ABC29FC01FD01781C65
:1023C400E9297A08FC070318FD0A7B08FD07013098
:1023D4000310FA0DFB0DFF3E031DEA290130031023
:1023E400F90CF80CFF3E031DF12979087804031D4C
:1023F400E1297D08F901F9077C08F801F8070800CC
:1024040083120313921412101213921212129211C5
:102414001215FF30831603139200831203139715CA
:10242400171597141714831603130C15831203132B
:102434000C119D151D159D141D14831603130D14E5
:10244400831203130D10080001300A168A11F320B9
:102454000A168A110C3083160313C600F730C50020
:10246400C50B322AC60B322A0C300A168A11F32005
:102474000A168A113D3083160313C500C50B402A82
:1024840006300A168A11F3200A168A113D30831683
:102494000313C500C50B4C2A080083160313460812
:1024A40083120313FF008316031345088400831269
:1024B40003130A128A1500200A168A110038031918
:1024C400080083160313460883120313FF008316C0
:1024D400031345088400831203130A128A1500208B
:1024E4000A168A110A168A110A210A168A1101305B
:1024F40083160313C5070318C60A4F2A831603134A
:10250400450883120313FF00831603134408840051
:10251400831203130A128A1500200A168A1100383E
:102524000319080083160313450883120313FF00DD
:102534008316031344088400831203130A128A15B2
:1025440000200A168A110A168A119F200A168A1177
:10255400013083160313C4070318C50A802A83169F
:1025640003134C084B040319E02AD001D00ACC1BF6
:10257400C72A01300310CB0DCC0DFF3E031DBC2A2E
:102584000130CF004F08D007B92A4C084E02031D72
:10259400CD2A4B084D02031CD52A4B08CD024C080A
:1025A400031CCE03CE0201300310CC0CCB0CFF3E37
:1025B400031DD62A0130D002031DC72A4E08CC01C0
:1025C400CC074D08CB01CB070800F501F6017108D3
:1025D400700403191E2BF701F70AF11BFD2A0130C1
:1025E4000310F00DF10DFF3E031DF22A0130F4003B
:1025F4007408F707EF2A01300310F50DF60DFF3EBE
:10260400031DFE2A71087302031D0A2B700872024F
:10261400031C132B7008F2027108031CF303F3026A
:10262400751401300310F10CF00CFF3E031D142B44
:102634000130F702031DFD2A7608F101F107750840
:10264400F001F007080083160313C801C901440808
:10265400430403195E2BCA01CA0AC41B3D2B013073
:102664000310C30DC40DFF3E031D322B0130C70000
:102674004708CA072F2B01300310C80DC90DFF3EB0
:10268400031D3E2B44084602031D4A2B4308450202
:10269400031C532B4308C5024408031CC603C6028B
:1026A400481401300310C40CC30CFF3E031D542B0B
:1026B4000130CA02031D3D2B4908C401C407480860
:1026C400C301C3070800831603135208D600530836
:1026D400D7005408D8005508D90004300310D60D8B
:1026E400D70DD80DD90DFF3E031D702B5908C60018
:1026F4005808C5005708C4005608C3000130CA0072
:102704001930C9004030C8000030C7000A128A11CD
:102714005527831603134308FF3E99009813181393
:102724009816181218159814181083120313981772
:102734001813981218169811181198101810831657
:1027440003130C12831203130C12831603138C1637
:10275400831203138C12080083120313B21FD72BA6
:102764000030B6000030B7008030B8003009B9003E
:102774003109BA003209BB00B90A0319BA0A0319AC
:10278400BB0A3908B6073A0803183A0FCA2BCB2BF1
:10279400B7073B0803183B0FD02BD12BB8073608DB
:1027A400B0003708B1003808B200B51FFE2B003066
:1027B400B6000030B7008030B8003309B9003409DE
:1027C400BA003509BB00B90A0319BA0A0319BB0ACE
:1027D4003908B6073A0803183A0FF12BF22BB7075A
:1027E4003B0803183B0FF72BF82BB8073608B30048
:1027F4003708B4003808B5008030B2068030B5061A
:1028040035083202031D080034083102031D080094
:1028140033083002080073080319152C7208710478
:102824007004031D282C0030F0000030F10000304B
:10283400F20008000130F5007508F30701300310B9
:10284400F20CF10CF00CFF3E031D212CFE3072053E
:102854000319432C1C2C0130F5007508F3070130D3
:10286400F007003003180130F1070030031801307D
:10287400F20701300310F20CF10CF00CFF3E031DC3
:102884003C2CFF3072050319522C2D2C0130F3021D
:1028940001300310F00DF10DF20DFF3E031D4B2C22
:1028A400F11F482C73185C2CFF30F0057F30F105C4
:1028B400FF30F2050310F30C7308F500F601F7017D
:1028C40010300310F50DF60DF70DFF3E031D632CBC
:1028D4007508F0047608F1047708F2047408031903
:1028E4000800F2170800831603139F111F159F1089
:1028F4001F105A30C600C330C500C50B7F2CC60B51
:102904007F2C30300A168A11F3200A168A111830E7
:1029140083160313C600EF30C500C50B8F2CC60BFE
:102924008F2C30300A168A11F3200A168A11993036
:1029340083160313C500C50B9D2C30300A168A116B
:10294400F3200A168A113D3083160313C500C50B04
:10295400A92C38300A168A11F3200A168A113D3040
:1029640083160313C500C50BB52C01300A168A1152
:10297400F3200A168A110C3083160313C600F730AD
:10298400C500C50BC32CC60BC32C0C300A168A1108
:10299400F3200A168A113D3083160313C500C50BB4
:1029A400D12C06300A168A11F3200A168A113D30FA
:1029B40083160313C500C50BDD2C08008312031313
:1029C4003008B4003108B5003208B6000310350DE4
:1029D400360DB7003708BD00BD08031DFA2C0030C2
:1029E400B3000030B2000030B1000030B000080085
:1029F4003008B4003108B5003208B60017300310AF
:102A0400B60CB50CB40CFF3E031D012D3408B70001
:102A14003708B800B117FF30B005FF30B1050030FA
:102A2400B2053008B9003108BA003208BB00BC0155
:102A34008E30BD02BD1F3C2D3D08803A8F3E0318E9
:102A44002C2D0030B3000030B2000030B100003053
:102A5400B000080001300310BC0CBB0CBA0CB90C5C
:102A6400FF3E031D2D2D0130B4003408BD070319AA
:102A7400572D2C2D18303D02031C542D0030B3006B
:102A84000030B2000030B1000030B0000800013066
:102A9400B4000310B90DBA0DBB0DBC0DB40B4B2D16
:102AA4000130BD02BD08031D492D38080319652DE9
:102AB400B909BA09BB09BC09B90A0319BA0A031945
:102AC400BB0A0319BC0A3C08B3003B08B2003A082D
:102AD400B1003908B0000800831203133308B600AC
:102AE4003408B7003508B8000310370D380DB900A5
:102AF4003908BE00BE08031D862D0030B00000302A
:102B0400B1000030B20008003008B6003108B70048
:102B14003208B8000310370D380DB9003908BF006A
:102B2400BF08031D9C2D0030B0000030B100003000
:102B3400B20008000030BB000030BC000030BD0013
:102B440089303F07B6003608BE023308B6003408A1
:102B5400B7003508B80010300310B80CB70CB60C29
:102B6400FF3E031DAE2D3608B9003908BF003008FA
:102B7400B6003108B7003208B80010300310B80CA2
:102B8400B70CB60CFF3E031DC02D3608B90039083A
:102B9400BF068030B6003608BF05B417FF30B30552
:102BA400FF30B4050030B505B117FF30B005FF3074
:102BB400B1050030B2051830B6003608BA0001304D
:102BC4000310BB0DBC0DBD0DFF3E031DE22D3208ED
:102BD4003502031DF32D31083402031DF32D300893
:102BE4003302031C002E3008B3023108031C310FDA
:102BF400B4023208031C320AB5023B14013003103C
:102C0400B30DB40DB50DFF3E031D012E0130BA0204
:102C1400031DE12D3B08F0003C08F1003D08F200E3
:102C24003E08B6003608F3003F08B7003708F40042
:102C34000A168A110D24700883120313B000710858
:102C4400B1007208B2000800780883120313A000D0
:102C54007908A1007A08A2000310210D220DA30017
:102C64002308A400A408031D3E2E0030F800003001
:102C7400F9000030FA0008007B08A0007C08A100DD
:102C84007D08A2000310210D220DA3002308A90032
:102C9400A908031D542E0030F8000030F90000305C
:102CA400FA00080029087B3EA0002008A407780841
:102CB400A0007908A1007A08A20010300310A20C29
:102CC400A10CA00CFF3E031D602E2008A3002308C6
:102CD400A9007B08A0007C08A1007D08A200103098
:102CE4000310A20CA10CA00CFF3E031D722E2008A1
:102CF400A3002308A9068030A0002008A905F9171D
:102D0400FC17FF30FB05FF30FC050030FD050030EB
:102D1400A5000030A6000030A7000730A00020085E
:102D2400A800781CA32E7B08A5077C0803110318B0
:102D34007C0A031DA6077D08031103187D0A031DE1
:102D4400A70701300310FA0CF90CF80CFF3E031D21
:102D5400A42E01300310FB0DFC0DFD0DFF3E031DE1
:102D6400AC2E0130A802031D932E0930A0002008C8
:102D7400A800781CCB2E7B08A5077C080311031838
:102D84007C0A031DA6077D08031103187D0A031D91
:102D9400A70701300310FA0CF90CF80CFF3E031DD1
:102DA400CC2E01300310A70CA60CA50CFF3E031D6E
:102DB400D42E0130A802031DBB2E2508F0002608DE
:102DC400F1002708F2002408A0002008F3002908D5
:102DD400A1002108F4000A168A110D247008F800D5
:102DE4007108F9007208FA0008008312031323081B
:102DF400A9002408AA002508AB0003102A0D2B0DF6
:102E0400AC002C08AF002608A9002708AA0028084F
:102E1400AB0003102A0D2B0DAC002C08AE002F08BC
:102E24000319202F2E082F020318272F2F03FF3AF0
:102E34002E07A90019302902031C272F2608A300F6
:102E44002708A4002808A50008002E080319080074
:102E54002F082E020318362F2E03FF3A2F07A9003E
:102E640019302902031808000630A9002908AD000A
:102E7400A51BAD17A81B2D17A417FF30A305FF3002
:102E8400A4050030A505A717FF30A605FF30A70548
:102E94000030A8052E082F020318762F01300310E6
:102EA400A60DA70DA80DFF3E031D512F0130AE0244
:102EB4002E082F060319712F0130AD022D08073992
:102EC4000319712F502F01300310A50CA40CA30C6F
:102ED400FF3E031D662F0130A9002908AF072F0804
:102EE4002E0603199F2F652F2F082E0203189F2FDC
:102EF40001300310A30DA40DA50DFF3E031D7B2F70
:102F04000130AF022E082F0603199B2F0130AD02AA
:102F14002D08073903199B2F7A2F01300310A80CB1
:102F2400A70CA60CFF3E031D902F0130A900290811
:102F3400AE072F082E06031D8F2FAD1FB12FFF30B4
:102F4400A306FF30A406FF30A5060130A307003016
:102F540003180130A407003003180130A5072D1F02
:102F6400C32FFF30A606FF30A706FF30A8060130A6
:102F7400A607003003180130A707003003180130FA
:102F8400A807AD012308A607240803110318240A7F
:102F9400031DA707250803110318250A031DA80705
:102FA400A81FE62FFF30A606FF30A706FF30A806AD
:102FB4000130A607003003180130A70700300318BA
:102FC4000130A807AD01AD0A2608F0002708F1007A
:102FD4002808F2002F08A9002908F3002D08AA00E8
:102FE4002A08F4000A168A110D24700883120313A8
:0C2FF400A3007108A4007208A5000800EA
:02400E0032FF7F
:00000001FF
