:060000000A128A11122809
:10000800FE00030E83120313DD000408DE000A0855
:10001800DF007F08E0000A128A15652E0A128A118D
:1000280015288313613084006E300A168A11DA218C
:100038000A128A11A0308400CA300A168A11DA21FD
:100048000A128A11831790308400A7300A168A1181
:10005800DA210A128A11831603130A168A11B921A2
:100068000A128A11EC000A168A11BA210A128A1198
:10007800ED000A168A11BB210A128A11EE008312BA
:1000880003130A168A11B7210A128A11EE000A16FA
:100098008A11B821EF0083010A128A15142D8312E0
:1000A80003136D08F901F9076C08F801F8070A1637
:1000B8008A1111220A128A11780883160313EC0098
:1000C8007908ED007A08EE00803083120313D4001B
:1000D8008930D5004430D6008030D7000930D800A8
:1000E8004530D9004030DA004E30DB004530DC00C6
:1000F800003083160313A3000030A4000030A500CD
:100108006C08F8006D08F9006E08FA003208F00073
:100118003308F1003408F2000A168A11C2210A12C3
:100128008A117008FB007108FC007208FD000A12B1
:100138008A159F210A128A11780883120313E10095
:100148007908E2007A08E3000030B7008030B80090
:10015800BF30B9000030A700C830A8004230A9005D
:100168006108AA006208AB006308AC000A128A158D
:10017800E7200A128A11831203132708BA002808F5
:10018800BB002908BC000A168A112D270A128A11F9
:10019800831203133708E1003808E2003908E30046
:1001A8006108F0006208F1006308F2000A168A117B
:1001B80012260A128A11710883120313EB01EB0746
:1001C8007008EA01EA070030F000C830F100423058
:1001D800F2006108F3006208F4006308F5000A16EB
:1001E8008A11E2240A128A110318022900308312A4
:1001F8000313E100C830E2004230E3008312031326
:100208006108F0006208F1006308F2000030F300B2
:100218000030F4000030F5000A168A11E2240A12B0
:100228008A1103181F29003083120313E1000030DC
:10023800E2000030E300831203136108F000620853
:10024800F1006308F2000030F300C830F4004130D8
:10025800F5000A168A11E2240A128A110318472A9D
:10026800831203136108B7006208B8006308B90075
:100278000030BA000030BB000030BC000030BD00C8
:100288000030BE000030BF000030C0005030C10058
:100298004130C2000030C3000030C4004230C50005
:1002A8000A128A15C4230A128A1183120313370803
:1002B80083160313A300831203133808831603134A
:1002C800A40083120313390883160313A500230817
:1002D80083120313A0008316031324088312031345
:1002E800A10083160313250883120313A200CD303F
:1002F800A300CC30A4003D30A5000A168A1189223B
:100308000A128A1183120313200883160313A60006
:1003180083120313210883160313A7008312031300
:10032800220883160313A800003083120313E40085
:100338000030E5000030E6000030E7000030E8005B
:100348000030E900C901CA014A08803AFF0080303C
:100358007F02031DB1295B3049020318472A831223
:1003680003136408B7006508B8006608B9000030D0
:10037800BA000030BB000030BC000030BD000030C7
:10038800BE000030BF000030C0005030C100413016
:10039800C2000030C3000030C4004230C5000A1259
:1003A8008A15C4230A128A11831203133708E70037
:1003B8003808E8003908E900831603132608F00016
:1003C8002708F1002808F200831203136708F300D6
:1003D8006808F4006908F5000A168A11E2240A126E
:1003E8008A110318022A831603132608F80027081F
:1003F800F9002808FA00831203130A2A8312031348
:100408006708F8006808F9006908FA005408FB0052
:100418005508FC005608FD000A128A159F210A1289
:100428008A11780883120313D4007908D5007A0852
:10043800D6000030F8008030F9003F30FA00640838
:10044800FB006508FC006608FD000A128A159F215A
:100458000A128A11780883120313E4007908E50068
:100468007A08E6000130C9070318CA0A0030CA072B
:100478004A08803AFF0080307F02031D452A5B301E
:100488004902031CB3290030F000A030F1004130CC
:10049800F200831203136108F3006208F400630892
:1004A800F5000A168A11E2240A128A110318762B1B
:1004B800831203136108F0006208F1006308F20078
:1004C8000030F3008C30F4004230F5000A168A112F
:1004D800E2240A128A110318762B83120313610887
:1004E800B7006208B8006308B9000030BA001030DD
:1004F800BB004130BC000030BD003430BE0042308B
:10050800BF000030C000A230C1004230C2000A1251
:100518008A15A6220A128A11831203133708831632
:100528000313A30083120313380883160313A400CC
:1005380083120313390883160313A50023088312B3
:100548000313A00083160313240883120313A100C6
:1005580083160313250883120313A200CD30A300CA
:10056800CC30A4003D30A5000A168A1189220A124F
:100578008A1183120313200883160313A900831218
:100588000313210883160313AA00831203132208F6
:1005980083160313AB00003083120313E40000300A
:1005A800E5000030E6000030E7000030E8000030E9
:1005B800E900CB01CC014C08803AFF0080307F0273
:1005C800031DE82A5B304B020318762B83120313B2
:1005D8006408B7006508B8006608B9000030BA00BA
:1005E8001030BB004130BC000030BD003430BE00CC
:1005F8004230BF000030C000A230C1004230C2000B
:100608000A128A15A6220A128A11831203133708BE
:10061800E7003808E8003908E9006708F0006808CA
:10062800F1006908F200831603132908F3002A0869
:10063800F4002B08F5000A168A11E2240A128A111E
:10064800031C312B831603132908F8002A08F90024
:100658002B08FA0083120313392B8312031367083C
:10066800F8006808F9006908FA005708FB005808FC
:10067800FC005908FD000A128A159F210A128A11E6
:10068800780883120313D7007908D8007A08D900AC
:100698000030F8008030F9003F30FA006408FB00B1
:1006A8006508FC006608FD000A128A159F210A12D7
:1006B8008A11780883120313E4007908E5007A08A0
:1006C800E6000130CB070318CC0A0030CC074C08F1
:1006D800803AFF0080307F02031D742B5B304B0291
:1006E800031CEA2A0030F0008C30F1004230F2009E
:1006F800831203136108F3006208F4006308F5002D
:100708000A168A11E2240A128A1103189C2C8312F1
:1007180003136108B7006208B8006308B900003025
:10072800BA007830BB004230BC000030BD009E30BB
:10073800BE004230BF000030C000B430C1004230BB
:10074800C2000030C300B430C4004230C5000A12F1
:100758008A15C4230A128A118312031337088316D1
:100768000313A30083120313380883160313A4008A
:1007780083120313390883160313A5002308831271
:100788000313A00083160313240883120313A10084
:1007980083160313250883120313A200CD30A30088
:1007A800CC30A4003D30A5000A168A1189220A120D
:1007B8008A1183120313200883160313AC008312D3
:1007C8000313210883160313AD00831203132208B1
:1007D80083160313AE00003083120313E4000030C5
:1007E800E5000030E6000030E7000030E8000030A7
:1007F800E900CD01CE014E08803AFF0080307F022B
:10080800031D082C5B304D0203189C2C8312031324
:100818006408B7006508B8006608B9000030BA0077
:100828007830BB004230BC000030BD009E30BE00B6
:100838004230BF000030C000B430C1004230C200B6
:100848000030C300B430C4004230C5000A128A1513
:10085800C4230A128A11831203133708E7003808E1
:10086800E8003908E9006708F0006808F10069083D
:10087800F200831603132C08F3002D08F4002E0849
:10088800F5000A168A11E2240A128A11031C572C51
:10089800831603132C08F8002D08F9002E08FA0017
:1008A800831203135F2C831203136708F800680888
:1008B800F9006908FA005A08FB005B08FC005C08AC
:1008C800FD000A128A159F210A128A1178088312DC
:1008D8000313DA007908DB007A08DC000030F8003E
:1008E8008030F9003F30FA006408FB006508FC001E
:1008F8006608FD000A128A159F210A128A117808D3
:1009080083120313E4007908E5007A08E600013051
:10091800CD070318CE0A0030CE074E08803AFF00F4
:1009280080307F02031D9A2C5B304D02031C0A2C79
:1009380083120313CF01D0015008803AFF008030A2
:100948007F02031DA92C01304F020318132D8312B7
:1009580003136108F0006208F1006308F200003038
:10096800F300C830F4004130F5000A168A11E22479
:100978000A128A110318C82C831203135408D100D1
:100988005508D2005608012D831203136108F000A0
:100998006208F1006308F2000030F300C830F40088
:1009A8004130F5000A168A11E2240A128A11031C42
:1009B800FA2C831203136108F0006208F10063083F
:1009C800F2000030F3009630F4004230F5000A16C9
:1009D8008A11E2240A128A110318FA2C83120313CB
:1009E8005708D1005808D2005908012D8312031363
:1009F8005A08D1005B08D2005C08D3000130CF0749
:100A08000318D00A0030D0075008803AFF00803021
:100A18007F02031D112D01304F02031CAB2C003047
:100A280083160313B5000030B6000030B70000305D
:100A3800AF000030B0000030B1008312031351083A
:100A4800F8005208F9005308FA0083160313350812
:100A5800FB003608FC003708FD000A128A159F21A2
:100A68000A128A11780883160313B5007908B600AC
:100A78007A08B700831203135108F8005208F900E6
:100A88005308FA00831603132F08FB003008FC00F4
:100A98003108FD000A128A159F210A128A11780866
:100AA80083160313AF007908B0007A08B10000304C
:100AB800F8008030F9003F30FA008312031364080D
:100AC800FB006508FC006608FD000A128A159F21D4
:100AD8000A128A11780883120313E4007908E500E2
:100AE8007A08E60083160313350883120313A70058
:100AF80083160313360883120313A80083160313FF
:100B0800370883120313A900831603132F088312CF
:100B18000313AA0083160313300883120313AB00D0
:100B280083160313310883120313AC000A128A15C3
:100B3800E7200A128A118312031327088316031366
:100B4800A00083120313280883160313A10083123D
:100B58000313290883160313A2000030831203131A
:100B6800B7007A30B8004430B90083160313200860
:100B780083120313BA008316031321088312031385
:100B8800BB0083160313220883120313BC000A1642
:100B98008A112D270A128A11831203133708831624
:100BA8000313A00083120313380883160313A1004C
:100BB80083120313390883160313A2003508F000C3
:100BC8003608F1003708F2000A168A1112260A12AE
:100BD8008A11710883120313EB01EB077008EA010D
:100BE800EA076B086A040319080003306B02FC303B
:100BF80003196A02031808006B08F101F1076A0873
:100C0800F001F0070A168A1153220800831603130D
:100C1800E700D930DB005B08DE00013083160313E0
:100C2800D807FF30580784000A128A150A200A12CA
:100C38008A11DB005B08E800E8080319BA2F680886
:100C4800253A0319332E6808DB00670884005B081F
:100C5800831780000130DB005B08E707112EE501F0
:100C6800E601E4013C2E64150130DB005B08D8077F
:100C7800580884000A128A150A200A128A11303A82
:100C88000319372E472E580884000A128A150A209D
:100C98000A128A110A168A11EF210A128A11031CF4
:100CA800972E83160313E501E6010A308316031312
:100CB800CA000030CB006608CD01CD076508CC011D
:100CC800CC070A168A1173230A128A118316031392
:100CD8004B08E601E6074A08E501E50758088400DD
:100CE8000A128A150A200A128A11D03EDB00FF3048
:100CF80003180030DC005B08E5070318E60A5C0807
:100D0800E6070130DB005B08D807580884000A12A0
:100D18008A150A200A128A110A168A11EF210A1264
:100D28008A110318592E013083160313D807FF3090
:100D3800580784000A128A150A200A128A11E80044
:100D4800003A0319BA2F643A0319AE2E0D3A031963
:100D5800AE2E112E831603135E0884008313000839
:100D6800E000840A0008E1000230DB005B08DE07CF
:100D7800E11FC72E0330DB005B08E404E009E1094A
:100D8800E00A0319E10AE801E80A6808053A0319C4
:100D9800EE2E6808DB005B07013E84000A128A1504
:100DA8000A200A128A11DC000A128A150A200A127D
:100DB8008A11DD005D086102031DE42E5C086002F3
:100DC800031CEE2E0130DB005B08E8076808053AD3
:100DD800031DCD2E660865040319FC2E640803392B
:100DE8000319FC2EFF30E5070318E60AFF30E60773
:100DF8006808DB00DC01DB1BDC035C08803ADD00F3
:100E08006608803A5D02031D0B2F65085B02031814
:100E18001B2F831603136808DB00DC01DB1BDC03D4
:100E28005B08E5025C08031CE603E6021F2F831635
:100E38000313E501E601641D462F6408033903190D
:100E4800302F2D30DB00670884005B088317800093
:100E58000130DB005B08E7076608650403196E2F9D
:100E68003030DB00670884005B088317800001309E
:100E7800DB005B08E707FF30E5070318E60AFF30E9
:100E8800E607302F6608650403195F2F2030DB0062
:100E9800670884005B08831780000130DB005B086B
:100EA800E707FF30E5070318E60AFF30E60766089C
:100EB8006504031D4A2F6408033903196E2F2D306A
:100EC800DB00670884005B08831780000130DB00C3
:100ED8005B08E7076808DB005B08DF00FF30DB0022
:100EE8005B08DF075F08FF3A0319112E0A30D200AA
:100EF8000030D3005F08DB005B07013E84000A1264
:100F08008A150A200A128A11CA000A128A150A20AA
:100F18000A128A11CB006108CD01CD076008CC0107
:100F2800CC070A168A1159240A128A118316031348
:100F38004B08D501D5074A08D401D4070A168A11E7
:100F480023240A128A11831603135208303EDC0048
:100F58005C08E8006808DB00670884005B08831702
:100F680080000130DB005B08E707722F831603134C
:100F780067088400831780010800F501F6017108ED
:100F880070040319F82FF701F70AF11BD72F013066
:100F98000310F00DF10DFF3E031DCC2F0130F400BE
:100FA8007408F707C92F01300310F50DF60DFF3E41
:100FB800031DD82F71087302031DE42F70087202F5
:100FC800031CED2F7008F2027108031CF303F302EF
:100FD800751401300310F10CF00CFF3E031DEE2FC9
:100FE8000130F702031DD72F7608F101F1077508C4
:060FF800F001F007080003
:10100000FF1B0A2883137F1883170008840A03191B
:10101000FF0A080008308A000408840A82070034A6
:10102000013400340A34003464340034E8340334C6
:10103000103427340A340D3420342D342D342D341B
:101040002D342D342D342D34203445345334543440
:101050004F34553452344F342034443445342034E2
:10106000503449344C344834413420342D342D34F8
:101070002D342D342D342D342D3420340A340D34B8
:101080002034003449346E34693463346934613453
:101090006C3469347A3461346E3464346F3420349F
:1010A0006F34203450344934433431343634463488
:1010B00038343734373441340A340D34003455343D
:1010C00053344134523454343A342034313431348A
:1010D00035342E3432343034303462347034733436
:1010E0000A340D34003449346E346934633469345D
:1010F00061346C3469347A3461346E3464346F34FE
:101100002E342E342E3400340A340D3470347734B7
:101110006D3420343D34203431343034323433347F
:101120000A340D3400340A340D34703477346D349D
:1011300020343D3420343834393436340A340D34D4
:1011400000340A340D34703477346D3420343D3437
:1011500020343734363438340A340D3400340A3409
:101160000D346434653473346C34693467346134F9
:1011700064346F340A340D3400340A340D3470345E
:1011800077346D3420343D3420340A340D34003447
:10119000443465346C34743461343A34203400346B
:1011A000523450344D343A34203400342534303401
:0611B00034346434003405
:1011B8008316031381120112811101158114011480
:1011C8000B118B160800831203132A08AD002B0895
:1011D800AE002C08AF0003102E0D2F0DB000300804
:1011E800B500B508031DFF280030A7000030A8008F
:1011F8000030A90008002708AD002808AE0029081B
:10120800AF0003102E0D2F0DB0003008B600B60841
:10121800031D15290030A7000030A8000030A900E0
:1012280008000030B2000030B3000030B40089304C
:101238003607AD002D08B5022A08AD002B08AE0010
:101248002C08AF0010300310AF0CAE0CAD0CFF3EF5
:10125800031D27292D08B0003008B6002708AD0067
:101268002808AE002908AF0010300310AF0CAE0CF0
:10127800AD0CFF3E031D39292D08B0003008B60615
:101288008030AD002D08B605AB17FF30AA05FF303A
:10129800AB050030AC05A817FF30A705FF30A8053F
:1012A8000030A9051830AD002D08B1000130031039
:1012B800B20DB30DB40DFF3E031D5B2929082C02A6
:1012C800031D6C2928082B02031D6C2927082A02F4
:1012D800031C79292708AA022808031C280FAB0237
:1012E8002908031C290AAC02321401300310AA0D84
:1012F800AB0DAC0DFF3E031D7A290130B102031D71
:101308005A293208F0003308F1003408F200350891
:10131800AD002D08F3003608AE002E08F4000A16BA
:101328008A113F25700883120313A7007108A800CB
:101338007208A9000800780883120313A00079082E
:10134800A1007A08A2000310210D220DA300230892
:10135800A6007B08A0007C08A1007D08A20003105D
:10136800210D220DA3002308A50026080319C8296A
:10137800250826020318CF292603FF3A2507A000CF
:1013880019302002031CCF297B08F8007C08F900DB
:101398007D08FA0008002508031908002608250218
:1013A8000318DE292503FF3A2607A000193020027A
:1013B800031808000630A0002008A400FA1BA41790
:1013C800FD1B2417F917FF30F805FF30F905003029
:1013D800FA05FC17FF30FB05FF30FC050030FD0562
:1013E8002508260203181E2A01300310FB0DFC0DE8
:1013F800FD0DFF3E031DF9290130A502250826062B
:101408000319192A0130A402240807390319192AD3
:10141800F82901300310FA0CF90CF80CFF3E031DF3
:101428000E2A0130A0002008A60726082506031961
:10143800472A0D2A260825020318472A01300310D7
:10144800F80DF90DFA0DFF3E031D232A0130A602FF
:10145800250826060319432A0130A402240807395F
:101468000319432A222A01300310FD0CFC0CFB0C43
:10147800FF3E031D382A0130A0002008A5072608D2
:101488002506031D372AA41F592AFF30F806FF3006
:10149800F906FF30FA060130F8070030031801306A
:1014A800F907003003180130FA07241F6B2AFF30B0
:1014B800FB06FF30FC06FF30FD060130FB0700305D
:1014C80003180130FC07003003180130FD07A401A0
:1014D8007808FB07790803110318790A031DFC072C
:1014E8007A08031103187A0A031DFD07FD1F8E2AC7
:1014F800FF30FB06FF30FC06FF30FD060130FB071E
:10150800003003180130FC07003003180130FD07D4
:10151800A401A40A7B08F0007C08F1007D08F20011
:101528002608A0002008F3002408A1002108F400E0
:101538000A168A113F257008F8007108F900720828
:10154800FA000800003083120313C3000030C400FF
:101558000030C5003A08F0003B08F1003C08F200F2
:101568003708F3003808F4003908F5000A168A111C
:10157800E2240A128A150318B32B831203133A08BC
:10158800F0003B08F1003C08F2003708F300380887
:10159800F4003908F5000A168A11E2240A128A159D
:1015A80003181D2B831203133D08F0003E08F100B9
:1015B8003F08F2003708F3003808F4003908F5004E
:1015C8000A168A11E2240A128A15031C1D2B83129B
:1015D80003133D08F8003E08F9003F08FA003A08EE
:1015E800F0003B08F1003C08F2000A168A11C221FB
:1015F8000A128A157008FB007108FC007208FD00C9
:101608000A128A159F210A128A1578088312031371
:10161800A7007908A8007A08A9003708F800380850
:10162800F9003908FA003A08F0003B08F1003C08D4
:10163800782B831203133D08F0003E08F1003F08A1
:10164800F2003708F3003808F4003908F5000A16E4
:101658008A11E2240A128A1503189E2B8312031397
:101668004008F0004108F1004208F2003708F30092
:101678003808F4003908F5000A168A11E2240A121B
:101688008A15031C9E2B831203133D08F8003E089D
:10169800F9003F08FA004008F0004108F10042084C
:1016A800F2000A168A11C2210A128A157008FB0074
:1016B8007108FC007208FD000A128A159F210A129F
:1016C8008A15780883120313A7007908A8007A08F6
:1016D800A9003708F8003808F9003908FA00400866
:1016E800F0004108F1004208F2000A168A11C221EE
:1016F8000A128A157008FB007108FC007208FD00C8
:101708000A128A159F210A128A1578088312031370
:10171800AA007908AB007A08AC000A128A15E720FB
:101728000A128A15831203132708C3002808C40065
:101738002908BA2B831203134008F0004108F1006E
:101748004208F2003708F3003808F4003908F500B9
:101758000A168A11E2240A128A150318BB2B0030D4
:1017680083120313C3000030C4000030C500831285
:1017780003134308B7004408B8004508B900080037
:10178800003083120313C6000030C7000030C800C1
:101798003A08F0003B08F1003C08F2003708F30073
:1017A8003808F4003908F5000A168A11E2240A12EA
:1017B8008A150318032D831203133A08F0003B0817
:1017C800F1003C08F2003708F3003808F400390843
:1017D800F5000A168A11E2240A128A1503183B2C0E
:1017E800831203133D08F0003E08F1003F08F200A1
:1017F8003708F3003808F4003908F5000A168A118A
:10180800E2240A128A15031C3B2C831203133D0899
:10181800F8003E08F9003F08FA003A08F0003B08D3
:10182800F1003C08F2000A168A11C2210A128A1530
:101838007008FB007108FC007208FD000A128A1586
:101848009F210A128A15780883120313A7007908C2
:10185800A8007A08A9003708F8003808F9003908FC
:10186800FA003A08F0003B08F1003C08C82C831243
:1018780003133708F0003808F1003908F2003D0872
:10188800F3003E08F4003F08F5000A168A11E22426
:101898000A128A15031C6D2C831203134008F000EA
:1018A8004108F1004208F2003708F3003808F40054
:1018B8003908F5000A168A11E2240A128A15031C4F
:1018C8006D2C003083120313C6008030C7003F30F0
:1018D8000A2D831203134008F0004108F100420862
:1018E800F2003708F3003808F4003908F5000A1642
:1018F8008A11E2240A128A150318EE2C83120313A4
:101908004308F0004408F1004508F2003708F300E6
:101918003808F4003908F5000A168A11E2240A1278
:101928008A15031CEE2C831203134308F80044089D
:10193800F9004508FA004008F0004108F1004208A3
:10194800F2000A168A11C2210A128A157008FB00D1
:101958007108FC007208FD000A128A159F210A12FC
:101968008A15780883120313A7007908A8007A0853
:10197800A9004308F8004408F9004508FA003708A8
:10198800F0003808F1003908F2000A168A11C2215D
:101998000A128A157008FB007108FC007208FD0025
:1019A8000A128A159F210A128A15780883120313CE
:1019B800AA007908AB007A08AC000A128A15E72059
:1019C8000A128A15831203132708C6002808C700BD
:1019D80029080A2D831203134308F0004408F10074
:1019E8004508F2003708F3003808F4003908F50014
:1019F8000A168A11E2240A128A1503180B2D0030E0
:101A080083120313C6000030C7000030C8008312D9
:101A180003134608B7004708B8004808B90008008B
:101A280001308316031385000130831203138500E8
:101A380083160313860183120313860181308316EC
:101A480003138700C0308312031387008316031320
:101A580088018312031388018316031389018312F3
:101A680003138901033090008E018F010030831623
:101A78000313DC000130DB00C230DA000030D9008B
:101A88000A168A1199240A128A150A128A15DC2064
:101A98000A128A150A168A11FF210A128A150A16CD
:101AA8008A114F230A128A150A168A11A7250A12C3
:101AB8008A150B178B17333083160313CB0080302E
:101AC800CC000A168A11F2230A128A15503083169E
:101AD8000313CB008030CC000A168A11F2230A12B5
:101AE8008A150A168A11A7250A128A15831603135E
:101AF800CA0100300A168A11A7220A128A15643010
:101B080083160313CC008030CD000A168A11C12336
:101B18000A128A15003083160313CA000030CB005E
:101B28000A168A11C7220A128A150030831603136F
:101B3800CA000030CB000A168A11E8220A128A1558
:101B4800EE300A168A11D2210A128A151830831625
:101B58000313EB006130EA006E30E900E90BB22DA7
:101B6800EA0BB22DEB0BB22D0000C730831603131E
:101B7800E9006908D8004108DA01DA074008D90104
:101B8800D9079D300A128A110A260A128A15C73007
:101B980083160313E9006908D800831203136B083E
:101BA80083160313DA01DA07831203136A0883160C
:101BB8000313D901D90793300A128A110A260A1287
:101BC8008A159D3083160313CB000130CC000A160A
:101BD8008A11F2230A128A15B63083160313CB0032
:101BE8008030CC000A168A11F2230A128A150A16C6
:101BF8008A1198230A128A1583160313CA01003022
:101C08000A168A11A7220A128A15C13083160313ED
:101C1800CC008030CD000A168A11C1230A128A1519
:101C2800063083160313E9006908CA0000300A1653
:101C38008A11A7220A128A159D3083160313CC0035
:101C48000130CD000A168A11C1230A128A1583169B
:101C58000313CA0101300A168A11A7220A128A152B
:101C6800B93083160313CC008030CD000A168A11D0
:101C7800C1230A128A15063083160313E90069087E
:101C8800CA0001300A168A11A7220A128A1593304F
:101C980083160313CC000130CD000A168A11C12324
:101CA8000A128A15053083160313EB00AD30EA00DB
:101CB800E030E900E90B5E2EEA0B5E2EEB0B5E2EA0
:101CC800B92D8C1E8E2F0A168A116E220A128A15B9
:101CD800303A031D882EA030F1008030F2000A1639
:101CE8008A1109230A128A1583120313EC01ED01E4
:101CF8006D08F101F1076C08F001F0070A168A1166
:101D080053220A128A15F32F0A168A116E220A1212
:101D18008A15313A031D9F2EAE30F1008030F20053
:101D28000A168A1109230A128A15D030831603135A
:101D3800C2000230C3000A168A116E220A128A15DE
:101D4800323A031DB62EAE30F1008030F2000A168A
:101D58008A1109230A128A15AA3083160313C200AE
:101D68000530C3000A168A116E220A128A15333A00
:101D7800031DD42EAE30F1008030F2000A168A110D
:101D880009230A128A150C3083160313C2000B307C
:101D9800C300831203130618D32E0614D42E06107C
:101DA8000A168A116E220A128A15343A031DFE2E6B
:101DB800AE30F1008030F2000A168A1109230A12A7
:101DC8008A15B83083120313EC000C30ED006D084F
:101DD800F101F1076C08F001F0070A168A11532285
:101DE8000A128A15831203138618FC2E8614F32F01
:101DF8008610F32F0A168A116E220A128A15353AAE
:101E0800031D152FAE30F1008030F2000A168A113A
:101E180009230A128A15A03083160313C200113051
:101E2800C3000A168A116E220A128A15363A031D51
:101E38002C2F9230F1008030F2000A168A11092303
:101E48000A128A15883083160313C2001630C3009D
:101E58000A168A116E220A128A15373A031D432F71
:101E68008430F1008030F2000A168A1109230A1220
:101E78008A15F03083160313C2001A30C3000A16FD
:101E88008A116E220A128A15383A031D5A2FAE306B
:101E9800F1008030F2000A168A1109230A128A1505
:101EA800A43083160313C2001F30C3000A168A1118
:101EB8006E220A128A15393A031D712F7530F10006
:101EC8008030F2000A168A1109230A128A1528306E
:101ED80083160313C2002330C3000A128A11532049
:101EE8000A128A15831603134308F901F9074208F1
:101EF800F801F8070A168A1111220A128A157808B9
:101F080083160313B2007908B3007A08B400831269
:101F180003138C120C1B0C130B1DEF2FEE300A163B
:101F28008A11BC210A128A150130831603133D0257
:101F3800F33003193C020318AB2F0130BC07031818
:101F4800BD0A0030BD07831203130617EE2F831650
:101F58000313BC01BD01831203130F088316031377
:101F6800BF01BF07831203130E0883160313BE01B4
:101F7800BE07831203136F08F101F1076E08F00121
:101F8800F007831603133F08F301F3073E08F20135
:101F9800F2070A128A11C1270A128A157108F90173
:101FA800F9077008F801F8077830FA000030FB00EC
:101FB8000A168A112C230A128A1579088316031324
:101FC800C101C1077808C001C007831203138E013D
:101FD8008F0106130B110C180C108C198C1183121D
:101FE80003136008FF005F088A005E0884005D0E26
:081FF8008300FE0E7E0E0900BD
:10236E00073400340034A0344134F0007008831276
:10237E000313810008007208710470040319080029
:10238E008030F2060800F000831203130C1ECB29D6
:10239E0070089900080083160313CA004A088312B6
:1023AE0003138100080064008001840A04060319E7
:1023BE0000340406DB2983160313CA0083120C1E95
:1023CE00E529831603134A088312031399000800A4
:1023DE0083160313CB00CA013A304B020318FD29B2
:1023EE0030304B02031CFD29CA01CA0A4A0C0800F0
:1023FE00831603139F179F151F159F141F1083120B
:10240E0003139F171F13831603130C138312031347
:10241E000C1308007808F0007908F100F2018E30F4
:10242E00FB007B08F300F4010A168A113F257008A1
:10243E00F8007108F9007208FA00080083160313F9
:10244E00CB00831203130910831603134B08831258
:10245E000313880089143D3083160313CA00CA0B78
:10246E00362A831203138910080083160313CB0038
:10247E00831203130914831603134B0883120313D9
:10248E00880089143D3083160313CA00CA0B4D2AE7
:10249E0083120313891008007108F3007008F2000C
:1024AE00730DF30CF20C730DF30CF20C7208831215
:1024BE0003139B007008F20003300310F20DFF3E71
:1024CE00031D642A0310720D0C389D000800831240
:1024DE0003139818772A1A08F3007308F400862A53
:1024EE000B30F1008030F2000A168A110923831294
:1024FE00031318121A08F3007308F40018168C123E
:10250E0074080800831203132308F0002408F10056
:10251E002508F2002008F3002108F4002208F50037
:10252E000A168A11E2240A168A11031C0800831265
:10253E0003132308A0002408A1002508A200080008
:10254E0083160313CC00831203130910831603138F
:10255E00CC08031DB52A4A08803EB92A83160313F8
:10256E004A08C03E83120313880089143D30831637
:10257E000313CB00CB0BC12A83120313891008005F
:10258E00831603134B08CD004A08CC004D0DCD0C1D
:10259E00CC0C4D0DCD0CCC0C4C08831203139500B6
:1025AE00831603134A08CC0003300310CC0DFF3EF4
:1025BE00031DDC2A03104C0D0C38831203139700F5
:1025CE000800831603134B08CD004A08CC004D0DAE
:1025DE00CD0CCC0C4D0DCD0CCC0C4C088312031332
:1025EE009B00831603134A08CC0003300310CC0D56
:1025FE00FF3E031DFD2A03104C0D0C3883120313EE
:10260E009D000800720883120313FF0071088400F6
:10261E000A128A1500200A168A11003803190800BA
:10262E00720883120313FF00710884000A128A15C0
:10263E0000200A168A110A168A11CA210A168A1150
:10264E000130F1070318F20A092BFC01FD01781C79
:10265E00362B7A08FC070318FD0A7B08FD070130AC
:10266E000310FA0DFB0DFF3E031D372B0130031037
:10267E00F90CF80CFF3E031D3E2B79087804031D60
:10268E002E2B7D08F901F9077C08F801F8070800E0
:10269E008312031392141210121392121212921129
:1026AE001215FF308316031392008312031397152E
:1026BE00171597141714831603130C15831203138F
:1026CE000C119D151D159D141D14831603130D1449
:1026DE00831203130D10080083160313CE01CF01CE
:1026EE004A1C7F2B4C08CE070318CF0A4D08CF0784
:1026FE0001300310CC0DCD0DFF3E031D802B01309C
:10270E000310CB0CCA0CFF3E031D872B4B084A044B
:10271E00031D772B4F08CB01CB074E08CA01CA0702
:10272E00080001300A168A1125220A168A110C3069
:10273E0083160313CD00F730CC00CC0BA42BCD0B9E
:10274E00A42B0C300A168A1125220A168A113D3046
:10275E0083160313CC00CC0BB22B06300A168A114B
:10276E0025220A168A113D3083160313CC00CC0B9A
:10277E00BE2B0800831603134D0883120313FF00AC
:10278E00831603134C088400831203130A128A154E
:10279E0000200A168A110038031908008316031345
:1027AE004D0883120313FF00831603134C08840095
:1027BE00831203130A128A1500200A168A110A16AA
:1027CE008A113C220A168A11013083160313CC0794
:1027DE000318CD0AC12B831603134C08831203135F
:1027EE00FF00831603134B088400831203130A128F
:1027FE008A1500200A168A1100380319080083165C
:10280E0003134C0883120313FF00831603134B08A4
:10281E008400831203130A128A1500200A168A11E5
:10282E000A168A11E2210A168A1101308316031341
:10283E00CB070318CC0AF22B83160313530852044A
:10284E000319522CD701D70AD31B392C0130031090
:10285E00D20DD30DFF3E031D2E2C0130D60056088F
:10286E00D7072B2C53085502031D3F2C5208540238
:10287E00031C472C5208D4025308031CD503D5025F
:10288E0001300310D30CD20CFF3E031D482C013037
:10289E00D702031D392C5508D301D3075408D20192
:1028AE00D207080083160313CF01D0014B084A0448
:1028BE000319922CD101D10ACB1B712C01300310BC
:1028CE00CA0DCB0DFF3E031D662C0130CE004E0807
:1028DE00D107632C01300310CF0DD00DFF3E031D29
:1028EE00722C4B084D02031D7E2C4A084C02031C11
:1028FE00872C4A08CC024B08031CCD03CD024F1483
:10290E0001300310CB0CCA0CFF3E031D882C013086
:10291E00D102031D712C5008CB01CB074F08CA0101
:10292E00CA070800831603135908DD005A08DE0093
:10293E005B08DF005C08E00004300310DD0DDE0DE7
:10294E00DF0DE00DFF3E031DA42C6008CD005F08D7
:10295E00CC005E08CB005D08CA000130D1001930F2
:10296E00D0004030CF000030CE000A168A119E26CD
:10297E00831603134A08FF3E9900981318139816EE
:10298E001812181598141810831203139817181389
:10299E009812181698111811981018108316031300
:1029AE000C12831203130C12831603138C1683124C
:1029BE0003138C120800F21F092D0030F6000030B0
:1029CE00F7008030F8007009F9007109FA007209F9
:1029DE00FB00F90A0319FA0A0319FB0A7908F6072C
:1029EE007A0803187A0FFC2CFD2CF7077B080318C6
:1029FE007B0F022D032DF8077608F0007708F10003
:102A0E007808F200F51F302D0030F6000030F70088
:102A1E008030F8007309F9007409FA007509FB009B
:102A2E00F90A0319FA0A0319FB0A7908F6077A0854
:102A3E0003187A0F232D242DF7077B0803187B0F1D
:102A4E00292D2A2DF8077608F3007708F400780868
:102A5E00F5008030F2068030F50675087202031D0F
:102A6E00080074087102031D080073087002080044
:102A7E0073080319472D720871047004031D5A2D33
:102A8E000030F0000030F1000030F200080001309C
:102A9E00F5007508F30701300310F20CF10CF00C81
:102AAE00FF3E031D532DFE3072050319752D4E2D5D
:102ABE000130F5007508F3070130F00700300318F8
:102ACE000130F107003003180130F2070130031016
:102ADE00F20CF10CF00CFF3E031D6E2DFF30720553
:102AEE000319842D5F2D0130F30201300310F00D18
:102AFE00F10DF20DFF3E031D7D2DF11F7A2D731882
:102B0E008E2DFF30F0057F30F105FF30F2050310FA
:102B1E00F30C7308F500F601F70110300310F50DF4
:102B2E00F60DF70DFF3E031D952D7508F004760882
:102B3E00F1047708F204740803190800F21708006C
:102B4E00831603139F111F159F101F105A30CD00AF
:102B5E00C330CC00CC0BB12DCD0BB12D30300A16BD
:102B6E008A1125220A168A11183083160313CD00F6
:102B7E00EF30CC00CC0BC12DCD0BC12D30300A1651
:102B8E008A1125220A168A11993083160313CC0056
:102B9E00CC0BCF2D30300A168A1125220A168A1137
:102BAE003D3083160313CC00CC0BDB2D38300A16C8
:102BBE008A1125220A168A113D3083160313CC0082
:102BCE00CC0BE72D01300A168A1125220A168A111E
:102BDE000C3083160313CD00F730CC00CC0BF52D43
:102BEE00CD0BF52D0C300A168A1125220A168A11E4
:102BFE003D3083160313CC00CC0B032E06300A1681
:102C0E008A1125220A168A113D3083160313CC0031
:102C1E00CC0B0F2E08007008F4007108F500720836
:102C2E00F6000310750D760DF7007708FD00FD0810
:102C3E00031D2A2E0030F3000030F2000030F100A8
:102C4E000030F00008007008F4007108F5007208FA
:102C5E00F60017300310F60CF50CF40CFF3E031DB6
:102C6E00312E7408F7007708F800F117FF30F005E1
:102C7E00FF30F1050030F2057008F9007108FA0016
:102C8E007208FB00FC018E30FD02FD1F6C2E7D08CC
:102C9E00803A8F3E03185C2E0030F3000030F200B5
:102CAE000030F1000030F000080001300310FC0C81
:102CBE00FB0CFA0CF90CFF3E031D5D2E0130F400E7
:102CCE007408FD070319872E5C2E18307D02031C35
:102CDE00842E0030F3000030F2000030F10000309E
:102CEE00F00008000130F4000310F90DFA0DFB0D91
:102CFE00FC0DF40B7B2E0130FD02FD08031D792E19
:102D0E0078080319952EF909FA09FB09FC09F90A45
:102D1E000319FA0A0319FB0A0319FC0A7C08F300CB
:102D2E007B08F2007A08F1007908F000080083169B
:102D3E000313D401CD1FB02ECA09CB09CC09CD097E
:102D4E00CA0A0319CB0A0319CC0A0319CD0AD401F6
:102D5E00D40AD11FC12ECE09CF09D009D109CE0A6E
:102D6E000319CF0A0319D00A0319D10A0130D20070
:102D7E005208D4060030D8000030D7000030D600FC
:102D8E000030D5004D084C044B044A040319162F8D
:102D9E00D301D30ACD1BE12E0130D2000310CA0D90
:102DAE00CB0DCC0DCD0DD20BD52E0130D20052084D
:102DBE00D307D12E0130D2000310D50DD60DD70D6D
:102DCE00D80DD20BE32E4D085102031DF82E4C08E0
:102DDE005002031DF82E4B084F02031DF82E4A0811
:102DEE004E02031C092F4A08CE024B08031C4B0F40
:102DFE00CF024C08031C4C0FD0024D08031C4D0F84
:102E0E00D102551401300310CD0CCC0CCB0CCA0CD6
:102E1E00FF3E031D0A2F0130D302031DE12E54087D
:102E2E000319242FD509D609D709D809D50A0319AC
:102E3E00D60A0319D70A0319D80A5808CD0057081D
:102E4E00CC005608CB005508CA00080083120313A5
:102E5E003708BD003808BE003908BF0003103E0D0C
:102E6E003F0DC0004008C100C108031D452F0030B2
:102E7E00B7000030B8000030B90008003A08BD00B5
:102E8E003B08BE003C08BF0003103E0D3F0DC000C6
:102E9E004008C600C608031D5B2F0030B700003087
:102EAE00B8000030B900080046087B3EBD003D0862
:102EBE00C1073708BD003808BE003908BF00103002
:102ECE000310BF0CBE0CBD0CFF3E031D672F3D084B
:102EDE00C0004008C6003A08BD003B08BE003C08D2
:102EEE00BF0010300310BF0CBE0CBD0CFF3E031D07
:102EFE00792F3D08C0004008C6068030BD003D0851
:102F0E00C605B817BB17FF30BA05FF30BB0500303A
:102F1E00BC050030C2000030C3000030C4000730D2
:102F2E00BD003D08C500371CAA2F3A08C2073B0852
:102F3E00031103183B0A031DC3073C0803110318B2
:102F4E003C0A031DC40701300310B90CB80CB70CB2
:102F5E00FF3E031DAB2F01300310BA0DBB0DBC0D90
:102F6E00FF3E031DB32F0130C502031D9A2F0930FA
:102F7E00BD003D08C500371CD22F3A08C2073B08DA
:102F8E00031103183B0A031DC3073C080311031862
:102F9E003C0A031DC40701300310B90CB80CB70C62
:102FAE00FF3E031DD32F01300310C40CC30CC20C03
:102FBE00FF3E031DDB2F0130C502031DC22F420849
:102FCE00F0004308F1004408F2004108BD003D083E
:102FDE00F3004608BE003E08F4000A168A113F258B
:102FEE00700883120313B7007108B8007208B90095
:022FFE000800C9
:02400E0032FF7F
:00000001FF
