:060000000A128A11122809
:10000800FE00030E83120313DF000408E0000A0851
:10001800E1007F08E2000A128A15CE2E0A128A1120
:1000280015288313633084006D300A168A112F2532
:100038000A128A11A0308400BF300A168A112F25AF
:100048000A128A11831790308400AA300A168A117E
:100058002F250A128A11831603170A168A111125E9
:100068000A128A11BD000A168A1112250A128A116B
:10007800BE000A168A1113250A128A11BF000A1631
:100088008A1114250A128A11C0000A168A11152528
:100098000A128A11C1000A168A1116250A128A1133
:1000A800C200831603130A128A1501200A128A1144
:1000B800DA000A128A1502200A128A11DB0083125A
:1000C80003130A128A1503200A128A11ED000A1274
:1000D8008A150420EE0083010A128A15C82B83169C
:1000E8000313BF01C0010030CA000030CB0000304C
:1000F800CC000030CD000030CE000030CF00003002
:10010800D0000030D1000030D2000030A300003011
:10011800A4000030A5008312031364086C06031DB5
:10012800972863086B06031908003230F000003086
:10013800F1006309DD006409DE00DD0A0319DE0A47
:100148006B085D07F2006C0803186C0A5E07F30081
:100158000A168A11FB260A128A11710883120313E0
:10016800E601E6077008E501E50764086C02031D6F
:10017800BF2863086B020318CC28861CC528861084
:10018800C6288614013083160313BF000030C00050
:100198000030831266025B3003196502031CD828FD
:1001A8005A30E5000030E6000030660214300319CA
:1001B80065020318432A6608F901F9076508F8017A
:1001C800F8070A168A1149250A128A117808831233
:1001D8000313BD007908BE007A08BF000030C000D4
:1001E8000030C1000030C2000030C3000030C4003D
:1001F8000030C5000030C6005030C7004130C8008C
:100208000030C9000030CA004230CB000A128A11FF
:10021800FA250A128A11831203133D088316031361
:10022800A300831203133E0883160313A40083124A
:1002380003133F0883160313A5002308831203132F
:10024800AC0083160313240883120313AD0083162E
:100258000313250883120313AE00CD30AF00CC3052
:10026800B0003D30B1000A168A11DA250A128A1147
:10027800831203132C0883160313A6008312031397
:100288002D0883160313A700831203132E08831661
:100298000313A800BB01BC01BD01BE01C401C50117
:1002A8004508803AFF0080307F02031D5D295B30DE
:1002B80044020318432A003083120313C900003094
:1002C800CA004230CB000030C6005030C700413071
:1002D800C8000030C3000030C4000030C500003042
:1002E800C0000030C1000030C200831603133C0870
:1002F800F901F9073B08F801F8070A168A111826C8
:100308000A128A11780883120313BD007908BE0007
:100318007A08BF000A128A11FA250A128A11831272
:1003280003133D08CF003E08D0003F08D1000A1251
:100338008A1150270A128A11831203135008831650
:100348000313BE01BE07831203134F08831603135A
:10035800BD01BD07260883120313A00083160313EB
:10036800270883120313A100831603132808831296
:100378000313A200831603133E08F901F9073D0889
:10038800F801F8070A168A1118260A128A1178083D
:1003980083120313A3007908A4007A08A5000A169B
:1003A8008A1139270A128A110318EC2983160313B4
:1003B800260883120313A000831603132708831249
:1003C8000313A10083160313280883120313002ABA
:1003D800831603133E08F901F9073D08F801F807E9
:1003E8000A168A1118260A128A117808831203132A
:1003F800A0007908A1007A08A200831603134D080B
:1004080083120313A300831603134E0883120313E6
:10041800A400831603134F0883120313A5000A12BE
:100428008A15A1240A128A1183120313200883163D
:100438000313CD0083120313210883160313CE0080
:1004480083120313220883160313CF003B08013ECF
:10045800BB003C080318013E003EBC000130C40745
:100468000318C50A0030C5074508803AFF008030E8
:100478007F02031D412A5B304402031C5F290030C0
:10048800831203136602153003196502031CAB2B94
:10049800003066024630031965020318AB2B660864
:1004A800F901F9076508F801F8070A168A114925BC
:1004B8000A128A11780883120313BD007908BE0056
:1004C8007A08BF000030C0001030C1004130C200BF
:1004D8000030C3003430C4004230C5000030C600CC
:1004E800A230C7004230C8000A128A15AA250A128B
:1004F8008A11831203133D0883160313A300831282
:1005080003133E0883160313A400831203133F0842
:1005180083160313A500230883120313AC00831664
:100528000313240883120313AD008316031325084D
:1005380083120313AE00CD30AF00CC30B0003D3095
:10054800B1000A168A11DA250A128A1183120313D6
:100558002C0883160313A900831203132D0883168E
:100568000313AA00831203132E0883160313AB0088
:10057800BB01BC01BD01BE01C601C7014708803AE5
:10058800FF0080307F02031DCB2A5B304602031830
:10059800AB2B003083120313C600A230C7004230D1
:1005A800C8000030C3003430C4004230C5000030F9
:1005B800C0001030C1004130C200831603133C084C
:1005C800F901F9073B08F801F8070A168A111826F5
:1005D8000A128A11780883120313BD007908BE0035
:1005E8007A08BF000A128A15AA250A128A118312EC
:1005F80003133D08CF003E08D0003F08D1000A127F
:100608008A1150270A128A1183120313500883167D
:100618000313BE01BE07831203134F088316031387
:10062800BD01BD073E08F901F9073D08F801F807C3
:100638000A168A1118260A128A11780883120313D7
:10064800A0007908A1007A08A200831603132908DC
:1006580083120313A300831603132A0883120313B8
:10066800A400831603132B0883120313A5000A168C
:100678008A1139270A128A11031C542B8316031373
:10068800290883120313A000831603132A08831270
:100698000313A100831603132B0883120313682B7B
:1006A800831603133E08F901F9073D08F801F80716
:1006B8000A168A1118260A128A1178088312031357
:1006C800A0007908A1007A08A200831603134A083B
:1006D80083120313A300831603134B088312031317
:1006E800A400831603134C0883120313A5000A12EF
:1006F8008A15A1240A128A1183120313200883166B
:100708000313CA0083120313210883160313CB00B3
:1007180083120313220883160313CC003B08013EFF
:10072800BB003C080318013E003EBC000130C60770
:100738000318C70A0030C7074708803AFF0080300F
:100748007F02031DA92B5B304602031CCD2A003013
:10075800831203136602473003196502031C182D20
:100768006608F901F9076508F801F8070A168A11F9
:1007780049250A128A11780883120313BD007908E3
:10078800BE007A08BF000030C0007830C100423097
:10079800C2000030C3009E30C4004230C5000030A3
:1007A800C600B430C7004230C8000030C900B430B9
:1007B800CA004230CB000A128A11FA250A128A119D
:1007C800831203133D0883160313A3008312031334
:1007D8003E0883160313A400831203133F088316ED
:1007E8000313A500230883120313AC008316031315
:1007F800240883120313AD008316031325088312FC
:100808000313AE00CD30AF00CC30B0003D30B100A6
:100818000A168A11DA250A128A11831203132C0880
:1008280083160313AC00831203132D0883160313D6
:10083800AD00831203132E0883160313AE00BB0109
:10084800BC01BD01BE01C801C9014908803AFF00C9
:1008580080307F02031D322C5B3048020318182DAC
:10086800003083120313C900B430CA004230CB00F1
:100878000030C600B430C7004230C8000030C300A2
:100888009E30C4004230C5000030C0007830C1003E
:100898004230C200831603133C08F901F9073B08EC
:1008A800F801F8070A168A1118260A128A11780818
:1008B80083120313BD007908BE007A08BF000A122C
:1008C8008A11FA250A128A11831203133D08CF00F0
:1008D8003E08D0003F08D1000A128A1150270A1298
:1008E8008A1183120313500883160313BE01BE072F
:1008F800831203134F0883160313BD01BD073E0877
:10090800F901F9073D08F801F8070A168A111826AF
:100918000A128A11780883120313A0007908A1002B
:100928007A08A200831603132C0883120313A3006A
:10093800831603132D0883120313A40083160313CD
:100948002E0883120313A5000A168A1139270A12E2
:100958008A11031CC12C831603132C08831203135A
:10096800A000831603132D0883120313A100831616
:1009780003132E0883120313D52C831603133E0882
:10098800F901F9073D08F801F8070A168A1118262F
:100998000A128A11780883120313A0007908A100AB
:1009A8007A08A20083160313500883120313A300C6
:1009B80083160313510883120313A4008316031329
:1009C800520883120313A5000A128A15A1240A12D9
:1009D8008A1183120313200883160313D00083128D
:1009E8000313210883160313D1008312031322086B
:1009F80083160313D2003B08013EBB003C080318D2
:100A0800013E003EBC000130C8070318C90A003087
:100A1800C9074908803AFF0080307F02031D162D60
:100A28005B304802031C342C003083120313660227
:100A38001930031965020318292D831603134D086D
:100A4800C1004E08C2004F08472D003083126602CD
:100A5800193003196502031C402D003066024B3023
:100A6800031965020318402D831603134A08C100B1
:100A78004B08C2004C08472D831603135008C100C9
:100A88005108C2005208C3000030B200B430B300AD
:100A98004230B4000030AF000030B0000030B10088
:100AA800410883120313A00083160313420883121C
:100AB8000313A10083160313430883120313A20030
:100AC800831603132F0883120313A300831603133B
:100AD800300883120313A40083160313310883120A
:100AE8000313A5000A128A15A1240A128A11831277
:100AF8000313200883160313AF008312031321087E
:100B080083160313B00083120313220883160313FA
:100B1800B100320883120313AD00831603133308A0
:100B280083120313AE0083160313340883120313CE
:100B3800AF00831603132F0883120313B000831624
:100B48000313300883120313B1008316031331080B
:100B580083120313B2000A128A15C6200A128A11D8
:100B6800831203132D0883160313A00083120313A3
:100B78002E0883160313A100831203132F0883166C
:100B88000313A2000030F800C830F9004230FA0020
:100B98002008FB002108FC002208FD000A128A1523
:100BA800F7220A128A11780883160313A00079081D
:100BB800A1007A08A2000130BF000030C0008312F3
:100BC8000313660865040319080003306602FC3045
:100BD80003196502031808006608F101F1076508A2
:100BE800F001F0070A168A11A325080000308312C5
:100BF8000313CC000030CD000030CE004008A00028
:100C08004108A1004208A2003D08A3003E08A40034
:100C18003F08A5000A168A1139270A128A110318F3
:100C28003F2F831203134008A0004108A100420887
:100C3800A2003D08A3003E08A4003F08A5000A162C
:100C48008A1139270A128A110318732E8312031383
:100C58004308A0004408A1004508A2003D08A300DD
:100C68003E08A4003F08A5000A168A1139270A126F
:100C78008A11031C732E831203134308A00044082F
:100C8800A1004508A2004008F0004108F100420810
:100C9800F2000A168A1117250A128A11700883129F
:100CA8000313A3007108A4007208A5000A128A158C
:100CB800A1240A128A11831203132008AD00210807
:100CC800AE002208AF003D08A0003E08A1003F0882
:100CD800A2004008F0004108F1004208022F8312E8
:100CE80003133D08A0003E08A1003F08A2004308E6
:100CF800A3004408A4004508A5000A168A1139274C
:100D08000A128A11031CA52E831203134608A00099
:100D18004708A1004808A2003D08A3003E08A40017
:100D28003F08A5000A168A1139270A128A11031CDE
:100D3800A52E003083120313CC008030CD003F3045
:100D4800462F831203134608A0004708A10048084D
:100D5800A2003D08A3003E08A4003F08A5000A160B
:100D68008A1139270A128A1103182A2F83120313AA
:100D78004908A0004A08A1004B08A2003D08A300AA
:100D88003E08A4003F08A5000A168A1139270A124E
:100D98008A11031C2A2F831203134908A0004A084A
:100DA800A1004B08A2004608F0004708F1004808D7
:100DB800F2000A168A1117250A128A11700883127E
:100DC8000313A3007108A4007208A5000A128A156B
:100DD800A1240A128A11831203132008AD002108E6
:100DE800AE002208AF004908A0004A08A1004B083D
:100DF800A2003D08F0003E08F1003F08F2000A1684
:100E08008A1117250A128A11700883120313A30086
:100E18007108A4007208A5000A128A15A1240A12F2
:100E28008A11831203132008B0002108B100220898
:100E3800B2000A128A15C6200A128A1183120313F5
:100E48002D08CC002E08CD002F08462F831203133F
:100E58004908A0004A08A1004B08A2003D08A300C9
:100E68003E08A4003F08A5000A168A1139270A126D
:100E78008A110318472F003083120313CC00003067
:100E8800CD000030CE00831203134C08BD004D087E
:100E9800BE004E08BF000800831203134F08D3009A
:100EA8005008D4005108D5000310540D550DD60034
:100EB8005608DC00DC08031D6A2F0030D200003021
:100EC800D1000030D0000030CF0008004F08D30018
:100ED8005008D4005108D50017300310D50CD40C95
:100EE800D30CFF3E031D712F5308D6005608D700B8
:100EF800D017FF30CF05FF30D0050030D1054F089F
:100F0800D8005008D9005108DA00DB018E30DC0225
:100F1800DC1FAC2F5C08803A8F3E03189C2F0030F2
:100F2800D2000030D1000030D0000030CF000800DF
:100F380001300310DB0CDA0CD90CD80CFF3E031D72
:100F48009D2F0130D3005308DC070319C72F9C2FAE
:100F580018305C02031CC42F0030D2000030D100CE
:100F68000030D0000030CF0008000130D30003105B
:100F7800D80DD90DDA0DDB0DD30BBB2F0130DC02F8
:100F8800DC08031DB92F57080319D52FD809D9092B
:100F9800DA09DB09D80A0319D90A0319DA0A031985
:100FA800DB0A5B08D2005A08D1005908D00058085B
:100FB800CF000800831603135408D6005308D50041
:100FC800560DD60CD50C560DD60CD50C55088312DB
:100FD80003139B00831603135308D5000330031033
:100FE800D50DFF3E031DF32F0310550D0C3883124A
:060FF80003139D00080038
:101002003234003407340034831603138112011280
:1010120081110115811401140B118B16080083161E
:1010220003173208B6003308B7003408B800350891
:10103200B90004300310B60DB70DB80DB90DFF3E5F
:10104200031D1B283908AD003808AC003708AB0077
:101052003608AA000130B1001930B0004030AF00AC
:101062000030AE000A128A157E21831603172A0861
:10107200FF3E83160313990098131813981618123B
:10108200181598141810831203139817181398122E
:1010920018169811181198101810831603130C12B1
:1010A200831203130C12831603138C168312031379
:1010B2008C120800831603139F111F159F101F1017
:1010C2005A30D600C330D500D50B6528D60B65281B
:1010D20030300A168A115D250A128A1518308316D5
:1010E2000313D600EF30D500D50B7528D60B752823
:1010F20030300A168A115D250A128A159930831634
:101102000313D500D50B832830300A168A115D25CA
:101112000A128A153D3083160313D500D50B8F288A
:1011220038300A168A115D250A128A153D30831657
:101132000313D500D50B9B2801300A168A115D25B1
:101142000A128A150C3083160313D600F730D50025
:10115200D50BA928D60BA9280C300A168A115D25B1
:101162000A128A153D3083160313D500D50BB72812
:1011720006300A168A115D250A128A153D30831639
:101182000313D500D50BC3280800831203133008BC
:10119200B3003108B4003208B5000310340D350D28
:1011A200B6003608BB00BB08031DDE280030AD00C8
:1011B2000030AE000030AF0008002D08B3002E084A
:1011C200B4002F08B5000310340D350DB6003608F3
:1011D200BC00BC08031DF4280030AD000030AE0096
:1011E2000030AF0008000030B8000030B900003015
:1011F200BA0089303C07B3003308BB023008B300A1
:101202003108B4003208B50010300310B50CB40C2C
:10121200B30CFF3E031D06293308B6003608BC0096
:101222002D08B3002E08B4002F08B50010300310AB
:10123200B50CB40CB30CFF3E031D18293308B600DD
:101242003608BC068030B3003308BC05B117FF3046
:10125200B005FF30B1050030B205AE17FF30AD0565
:10126200FF30AE050030AF051830B3003308B700C9
:1012720001300310B80DB90DBA0DFF3E031D3A2916
:101282002F083202031D4B292E083102031D4B2960
:101292002D083002031C58292D08B0022E08031C09
:1012A2002E0FB1022F08031C2F0AB202381401308C
:1012B2000310B00DB10DB20DFF3E031D59290130CF
:1012C200B702031D39293808F0003908F1003A083D
:1012D200F2003B08B3003308F3003C08B4003408C2
:1012E200F4000A168A119827700883120313AD00BE
:1012F2007108AE007208AF00080083160313D5010F
:1013020083160317AD1F9429AA09AB09AC09AD09CD
:10131200AA0A0319AB0A0319AC0A0319AD0A831608
:101322000313D501D50A83160317B11FA929AE09E4
:10133200AF09B009B109AE0A0319AF0A0319B00A1D
:101342000319B10A013083160313D3005308D506DB
:1013520000300313D9000030D8000030D70000302D
:10136200D600831603172D082C042B042A04031914
:10137200132A83160313D401D40A83160317AD1B51
:10138200D52901300313D300031083160317AA0DC6
:10139200AB0DAC0DAD0D83160313D30BC529013074
:1013A200D3005308D407BE2901300313D30003101E
:1013B200D60DD70DD80DD90DD30BD8298316031707
:1013C2002D083102031DEF292C083002031DEF29DD
:1013D2002B082F02031DEF292A082E02031C022AC2
:1013E2002A08AE022B08031C2B0FAF022C08031C89
:1013F2002C0FB0022D08031C2D0FB102831603130C
:1014020056140130031083160317AD0CAC0CAB0C51
:10141200AA0CFF3E031D032A013083160313D402D4
:10142200031DD529031355080319222AD609D70902
:10143200D809D909D60A0319D70A0319D80A0319F0
:10144200D90A590883160317AD00831603135808E7
:1014520083160317AC00831603135708831603176A
:10146200AB0083160313560883160317AA0008005D
:10147200233083120313A000200883160317900061
:10148200243083120313A00020088316031791004F
:101492003A3083120313A000200883160317920028
:1014A200831203136A08F901F9076908F801F807BA
:1014B2002830FA000030FB000A168A115A260A1256
:1014C2008A15790883120313A301A3077808A201DE
:1014D200A2072308A0002008831603179300831293
:1014E20003132208A0002008831603179400563025
:1014F20083120313A000200883160317950083129A
:1015020003136C08A00020088316031796008312A9
:1015120003136B08A00020088316031797005330AB
:1015220083120313A0002008831603179800831266
:1015320003136608A000200883160317990083127C
:1015420003136508A0002008831603179A0053307E
:1015520083120313A0002008831603179B00831233
:1015620003136408A0002008831603179C0083124B
:1015720003136308A0002008831603179D0053304D
:1015820083120313A0002008831603179E00831200
:101592000313A101A4010F3024020318EC2A24082A
:1015A200903E8400831700080A168A111F250A122A
:1015B2008A15831203132408903E840083170008BF
:1015C200A0002008A1060130A0002008A4070F30C7
:1015D2002402031CD02A2108A00020088316031726
:1015E2009F001F080A168A111F2508007808831217
:1015F2000313A0007908A1007A08A2000310210DAC
:10160200220DA3002308A400A408031D0F2B003001
:10161200F8000030F9000030FA0008007B08A00052
:101622007C08A1007D08A2000310210D220DA30059
:101632002308A900A908031D252B0030F80000305B
:10164200F9000030FA00080029087B3EA0002008BB
:10165200A4077808A0007908A1007A08A200103037
:101662000310A20CA10CA00CFF3E031D312B20087D
:10167200A3002308A9007B08A0007C08A1007D0824
:10168200A20010300310A20CA10CA00CFF3E031DFF
:10169200432B2008A3002308A9068030A0002008BD
:1016A200A905F917FC17FF30FB05FF30FC050030D8
:1016B200FD050030A5000030A6000030A70007306D
:1016C200A0002008A800781C742B7B08A5077C08C2
:1016D200031103187C0A031DA6077D0803110318D2
:1016E2007D0A031DA70701300310FA0CF90CF80C50
:1016F200FF3E031D752B01300310FB0DFC0DFD0D8C
:10170200FF3E031D7D2B0130A802031D642B09300F
:10171200A0002008A800781C9C2B7B08A5077C0849
:10172200031103187C0A031DA6077D080311031881
:101732007D0A031DA70701300310FA0CF90CF80CFF
:10174200FF3E031D9D2B01300310A70CA60CA50C18
:10175200FF3E031DA52B0130A802031D8C2B25087B
:10176200F0002608F1002708F2002408A000200853
:10177200F3002908A1002108F4000A168A1198270B
:101782007008F8007108F9007208FA0008000130C8
:101792008316031385000130831203138500831619
:1017A2000313860183120313860181308316031308
:1017B2008700C03083120313870083160313880146
:1017C20083120313880183160313890183120313FF
:1017D2008901033090008E018F01003083160317B8
:1017E200B5000130B400C230B3000030B2000A12BA
:1017F2008A1510200A128A150A128A1505200A1261
:101802008A150A168A1137250A128A150A168A11AA
:101812007D260A128A150A128A155B200A128A1577
:101822000B178B170A128A155B200A128A15831668
:101832000313D30100300A168A11F8250A128A15F9
:10184200293083160313D5008030D6000A168A1178
:10185200CA260A128A15003083160313D3000030F9
:10186200D4000A168A1139260A128A150030831604
:101872000313D3000030D4000A128A11DE270A12A1
:101882008A15EE300A168A1127250A128A1518308F
:1018920083160317BC006130BB006E30BA00BA0B6E
:1018A200502CBB0B502CBC0B502C00000A168A117A
:1018B200A1260A128A1583160313D30100300A16D1
:1018C2008A11F8250A128A15483083160313D500A7
:1018D2008030D6000A168A11CA260A128A150630E4
:1018E20083160317BA003A0883160313D300003095
:1018F2000A168A11F8250A128A15A03083160313D4
:10190200D5000130D6000A168A11CA260A128A1593
:1019120083160313D30101300A168A11F8250A121D
:101922008A15053083160317BC00AD30BB00E030CA
:10193200BA00BA0B9A2CBB0B9A2CBC0B9A2C572CC4
:10194200831203132008A6002108A7002208A8007A
:101952000310270D280DA9002908AC002308A600B2
:101962002408A7002508A8000310270D280DA900A8
:101972002908AB002C080319CA2C2B082C020318C7
:10198200D12C2C03FF3A2B07A60019302602031C88
:10199200D12C2308A0002408A1002508A2000800D9
:1019A2002B08031908002C082B020318E02C2B0328
:1019B200FF3A2C07A6001930260203180800063049
:1019C200A6002608AA00A21BAA17A51B2A17A11760
:1019D200FF30A005FF30A1050030A205A417FF309B
:1019E200A305FF30A4050030A5052B082C0203181F
:1019F200202D01300310A30DA40DA50DFF3E031DE4
:101A0200FB2C0130AB022B082C0603191B2D0130D5
:101A1200AA022A08073903191B2DFA2C01300310D8
:101A2200A20CA10CA00CFF3E031D102D0130A6003C
:101A32002608AC072C082B060319492D0F2D2C085C
:101A42002B020318492D01300310A00DA10DA20D88
:101A5200FF3E031D252D0130AC022B082C06031975
:101A6200452D0130AA022A0807390319452D242DD4
:101A720001300310A50CA40CA30CFF3E031D3A2D4C
:101A82000130A6002608AB072C082B06031D392DB2
:101A9200AA1F5B2DFF30A006FF30A106FF30A20671
:101AA2000130A007003003180130A10700300318ED
:101AB2000130A2072A1F6D2DFF30A306FF30A406B6
:101AC200FF30A5060130A307003003180130A40738
:101AD200003003180130A507AA012008A307210836
:101AE20003110318210A031DA40722080311031876
:101AF200220A031DA507A51F902DFF30A306FF3064
:101B0200A406FF30A5060130A307003003180130F8
:101B1200A407003003180130A507AA01AA0A230866
:101B2200F0002408F1002508F2002C08A60026087F
:101B3200F3002A08A7002708F4000A168A1198273A
:101B4200700883120313A0007108A1007208A2009A
:101B52000800003083120313C9000030CA000030AD
:101B6200CB004008A0004108A1004208A2003D08A5
:101B7200A3003E08A4003F08A5000A168A113927CF
:101B82000A128A150318BD2E831203134008A000FF
:101B92004108A1004208A2003D08A3003E08A4009B
:101BA2003F08A5000A168A1139270A128A15031856
:101BB200232E831203134308A0004408A100450802
:101BC200A2003D08A3003E08A4003F08A5000A1693
:101BD2008A1139270A128A15031C232E8312031332
:101BE2004308A0004408A1004508A2004008F000F4
:101BF2004108F1004208F2000A168A1117250A125A
:101C02008A15700883120313A3007108A4007208D6
:101C1200A5000A128A15A1240A128A158312031337
:101C22002008AD002108AE002208AF003D08A00048
:101C32003E08A1003F08A2004008F0004108F10060
:101C42004208802E831203134308A0004408A10017
:101C52004508A2003D08A3003E08A4003F08A500D5
:101C62000A168A1139270A128A150318A82E831216
:101C720003134608A0004708A1004808A2003D0837
:101C8200A3003E08A4003F08A5000A168A113927BE
:101C92000A128A15031CA82E831203134308A000FC
:101CA2004408A1004508A2004608F0004708F100D8
:101CB2004808F2000A168A1117250A128A157008B6
:101CC20083120313A3007108A4007208A5000A126C
:101CD2008A15A1240A128A15831203132008AD0063
:101CE2002108AE002208AF003D08A0003E08A10076
:101CF2003F08A2004608F0004708F1004808F20039
:101D02000A168A1117250A128A15700883120313FC
:101D1200A3007108A4007208A5000A128A15A12462
:101D22000A128A15831203132008B0002108B10099
:101D32002208B2000A128A15C6200A128A158312D4
:101D420003132D08C9002E08CA002F08C42E8312BF
:101D520003134608A0004708A1004808A2003D0856
:101D6200A3003E08A4003F08A5000A168A113927DD
:101D72000A128A150318C52E003083120313C900F4
:101D82000030CA000030CB00831203134908BD00A3
:101D92004A08BE004B08BF0008008C1E832F0A169B
:101DA2008A118B250A128A15303A031DE82E3A3021
:101DB2000A168A11BE250A128A150030F000003078
:101DC200F1000A168A11A3250A128A15F32F0A16A0
:101DD2008A118B250A128A15313A031DF62ED0304C
:101DE20083120313EB000230EC000A168A118B25D2
:101DF2000A128A15323A031D042FAA3083120313E2
:101E0200EB000530EC000A168A118B250A128A159E
:101E1200333A031D122F0C3083120313EB000B30E5
:101E2200EC000A168A118B250A128A15343A031D10
:101E3200202FB83083120313EB000C30EC000A168B
:101E42008A118B250A128A15353A031D2E2F9E30D0
:101E520083120313EB001130EC000A168A118B2552
:101E62000A128A15363A031D3C2F8030831203135F
:101E7200EB001630EC000A168A118B250A128A151D
:101E8200373A031D4A2FEA3083120313EB001A304C
:101E9200EC000A168A118B250A128A15383A031D9C
:101EA200582FA43083120313EB001F30EC000A16E4
:101EB2008A118B250A128A15393A031D662F28309A
:101EC20083120313EB002330EC000A128A117320F1
:101ED2000A128A15831203136C08E401E4076B08E3
:101EE200E301E3070A168A118B250A128A15583A6A
:101EF200031D802F0A128A1539220A128A158312AB
:101F020003138C120C1B0C130B1DEF2FEE300A1651
:101F12008A110B250A128A1501308316031338021F
:101F2200F330031937020318A02F0130B707031843
:101F3200B80A0030B807831203130617EE2F831670
:101F42000313B701B801831203130F08E801E8076E
:101F52000E08E701E7076E08F101F1076D08F001CD
:101F6200F0076808F301F3076708F201F2070A169F
:101F72008A11FB260A128A157108F901F9077008FD
:101F8200F801F8077830FA000030FB000A168A11CF
:101F92005A260A128A15790883120313EA01EA07FC
:101FA2007808E901E9072830F0000030F1006A08FA
:101FB200F301F3076908F201F2070A168A11FB26F8
:101FC2000A128A15710883120313EA01EA077008DC
:101FD200E901E9078E018F0106130B110C180C1091
:101FE2008C198C11831203136208FF0061088A00A6
:101FF200600884005F0E8300FE0E7E0E0900FF1B48
:102002000A2883137F1883170008840A0319FF0A1A
:10201200080010308A000408840A820700340A3457
:102022000D3420342D342D342D342D342D342D34D3
:102032002D3420344534533454344F3455345234CF
:102042004F342034443445342034503449344C34F1
:102052004834413420342D342D342D342D342D3454
:102062002D342D3420340A340D34203400344934D4
:102072006E3469346334693461346C3469347A346B
:1020820061346E3464346F342E342E342E34003482
:102092000A340D346434653473346C34693467340F
:1020A200613464346F340A340D3400346B346D346B
:0820B20048343A3420340034B4
:102A1600F000700883120313810008000034483464
:102A260042340034A034413472087104700403192E
:102A360008008030F2060800F000831203130C1E13
:102A4600202D70089900080083160313D30053083D
:102A5600831203138100080064008001840A0406BF
:102A6600031900340406302D831603139F179F1590
:102A76001F159F141F10831203139F171F1383160E
:102A860003130C13831203130C1308007808F000C9
:102A96007908F100F2018E30FB007B08F300F401A7
:102AA6000A168A1198277008F8007108F90072084A
:102AB600FA00080083160313D400831203130910C7
:102AC60083160313540883120313880089143D30B8
:102AD60083160313D300D30B6E2D831203138910B1
:102AE600080083160313D4008312031309148316F4
:102AF6000313540883120313880089143D30831688
:102B06000313D300D30B852D8312031389100800FA
:102B1600831203139818942D1A08F3007308F4000F
:102B2600A02D01300A168A11BE258312031318122E
:102B36001A08F3007308F40018168C1274080800BB
:102B46007108F3007008F200730DF30CF20C730DAC
:102B5600F30CF20C7208831203139B007008F20048
:102B660003300310F20DFF3E031DB42D0310720D4A
:102B76000C389D000800F200720884000A168A11BB
:102B86000A200A168A110038031908007208840000
:102B96000A168A110A200A168A110A168A111F2590
:102BA6000A168A110130F1007108F207BF2D83124F
:102BB60003132F08A0003008A1003108A2002C083A
:102BC600A3002D08A4002E08A5000A168A1139278D
:102BD6000A168A11031C0800831203132F08AC007F
:102BE6003008AD003108AE00080083160313D50087
:102BF60083120313091083160313D508031D062E2B
:102C06005308803E0A2E831603135308C03E8312D0
:102C16000313880089143D3083160313D400D40BA4
:102C2600122E8312031389100800FD01F91F222EAC
:102C3600F809F909F80A0319F90AFD01FD0A7808E5
:102C4600F0007908F100F2018E30FB007B08F300FA
:102C56007D08FC007C08F4000A168A119827700883
:102C6600F8007108F9007208FA00080083160313C9
:102C76005408D6005308D500560DD60CD50C560D63
:102C8600D60CD50C5508831203139500831603132F
:102C96005308D50003300310D50DFF3E031D4E2EFD
:102CA6000310550D0C388312031397000800FC011E
:102CB600FD01781C642E7A08FC070318FD0A7B08C0
:102CC600FD0701300310FA0DFB0DFF3E031D652EB7
:102CD60001300310F90CF80CFF3E031D6C2E790829
:102CE6007804031D5C2E7D08F901F9077C08F801BC
:102CF600F80708008312031392141210121392128B
:102D0600121292111215FF308316031392008312CA
:102D160003139715171597141714831603130C1519
:102D2600831203130C119D151D159D141D14831676
:102D360003130D14831203130D10080001300A1635
:102D46008A115D250A168A110C3083160313D600E4
:102D5600F730D500D50BAD2ED60BAD2E0C300A169E
:102D66008A115D250A168A113D3083160313D50094
:102D7600D50BBB2E06300A168A115D250A168A1156
:102D86003D3083160313D500D50BC72E08008316D6
:102D96000313560883120313FF0083160313550803
:102DA6008400831203130A168A1100200A168A1158
:102DB60000380319080083160313560883120313F9
:102DC600FF008316031355088400831203130A16A3
:102DD6008A1100200A168A110A168A1174250A1603
:102DE6008A11013083160313D5070318D60ACA2E93
:102DF600F501F601710870040319322FF701F70A7D
:102E0600F11B112F01300310F00DF10DFF3E031DD4
:102E1600062F0130F4007408F707032F0130031062
:102E2600F50DF60DFF3E031D122F71087302031DEB
:102E36001E2F70087202031C272F7008F2027108F9
:102E4600031CF303F302751401300310F10CF00CAC
:102E5600FF3E031D282F0130F702031D112F7608B0
:102E6600F101F1077508F001F0070800831203135A
:102E7600A21F622F0030A6000030A7008030A800F5
:102E86002009A9002109AA002209AB00A90A0319F1
:102E9600AA0A0319AB0A2908A6072A0803182A0F43
:102EA600552F562FA7072B0803182B0F5B2F5C2FC8
:102EB600A8072608A0002708A1002808A200A51F29
:102EC600892F0030A6000030A7008030A800230913
:102ED600A9002409AA002509AB00A90A0319AA0A10
:102EE6000319AB0A2908A6072A0803182A0F7C2FFC
:102EF6007D2FA7072B0803182B0F822F832FA807D8
:102F06002608A3002708A4002808A5008030A206EA
:102F16008030A50625082202031D08002408210288
:102F2600031D080023082002080073080319A02FB8
:102F3600720871047004031DB32F0030F0000030D6
:102F4600F1000030F20008000130F5007508F307C3
:102F560001300310F20CF10CF00CFF3E031DAC2FF8
:102F6600FE3072050319CE2FA72F0130F500750824
:102F7600F3070130F007003003180130F107003085
:102F860003180130F20701300310F20CF10CF00CBB
:102F9600FF3E031DC72FFF3072050319DD2FB82F23
:102FA6000130F30201300310F00DF10DF20DFF3E7A
:102FB600031DD62FF11FD32F7318E72FFF30F0050F
:102FC6007F30F105FF30F2050310F30C7308F500AE
:102FD600F601F70110300310F50DF60DF70DFF3E63
:102FE600031DEE2F7508F0047608F1047708F20445
:0A2FF600740803190800F217080020
:02400E0032FF7F
:00000001FF
