:060000000A128A11122809
:10000800FE00030E83120313E9000408EA000A083D
:10001800EB007F08EC000A128A15A82B0A128A1135
:1000280015288313A0308400C9300A168A11DB21F1
:100038000A128A11831790308400A1300A168A1197
:10004800DB210A128A11831603170A128A11FE2766
:100058000A128A11A1000A128A11FF270A128A11AC
:10006800A200831603130A168A11C0210A128A11E4
:10007800EB000A168A11C1210A128A11EC000A162D
:100088008A11C2210A128A11ED000A168A11C321A7
:100098000A128A11EE000A168A11C4210A128A115C
:1000A800EF00831203130A128A1501200A128A111B
:1000B800ED000A128A1502200A128A11EE000A12AD
:1000C8008A150320EF0083010A128A1592288316E5
:1000D80003134608F901F9074508F801F8070A1655
:1000E8008A111A220A128A11780883160313EB0060
:1000F8007908EC007A08ED00003083120313E6005B
:100108000030E7000030E800D201D3010030DD0004
:100118000030DE000030DF000030E0000030E10099
:100128000030E2000030E3000030E4000030E50079
:10013800003083160313A3000030A4000030A5008C
:100148006B0883120313A300831603136C0883122E
:100158000313A400831603136D0883120313A50069
:100168006D08A0006E08A1006F08A2000A168A1187
:10017800E3210A128A11831203132008A60021081A
:10018800A7002208A8000A128A157B210A128A11E0
:10019800831203132308E6002408E7002508E80073
:1001A8000030B000C830B1004230B2006608B30079
:1001B8006708B4006808B5000A168A1177260A127B
:1001C8008A11831203133008E6003108E700320869
:1001D800E8006608B0006708B1006808B2000A12B3
:1001E8008A1504200A128A11831203133108831610
:1001F8000313C001C00783120313300883160313C7
:10020800BF01BF07831203136608B0006708B10077
:100218006808B2000030B3000030B4000030B50008
:100228000A168A11D6240A128A1103183F29831242
:100238000313861821298614222986100030F80015
:100248008030F900BF30FA006608FB006708FC0040
:100258006808FD000A168A112F270A128A117808E1
:1002680083120313E6007908E7007A08E8000130F2
:10027800D2000030D300003083120313B000B43032
:10028800B1004230B2006608B3006708B4006808DD
:10029800B5000A168A11D6240A128A1103185C2995
:1002A800003083120313E600B430E7004230E80060
:1002B800831203136608B0006708B1006808B2002B
:1002C8000030B300C830B4004130B5000A168A11B6
:1002D800D6240A128A110318D12A83120313660836
:1002E800C0006708C1006808C2000030C3000030C1
:1002F800C4000030C5000030C6000030C700003020
:10030800C8000030C9005030CA004130CB0000306E
:10031800CC000030CD004230CE000A128A15F324FA
:100328000A128A1183120313400883160313A300C9
:1003380083120313410883160313A40083120313C3
:10034800420883160313A500230883120313BC0075
:1003580083160313240883120313BD0083160313A3
:10036800250883120313BE00CD30BF00CC30C00077
:100378003D30C1000A168A1193220A128A1183128B
:1003880003133C0883160313A600831203133D08C6
:1003980083160313A700831203133E08831603135F
:1003A800A8000030B5000030B6000030B7000030BB
:1003B800B8000030B9000030BA0083120313D70127
:1003C800D8015808803AFF0080307F02031DEE29CB
:1003D8005B3057020318D12A83160313350883129A
:1003E8000313C00083160313360883120313C100D6
:1003F80083160313370883120313C2000030C300A7
:100408000030C4000030C5000030C6000030C7000E
:100418000030C8000030C9005030CA004130CB005D
:100428000030CC000030CD004230CE000A128A15D0
:10043800F3240A128A118312031340088316031344
:10044800B80083120313410883160313B9008312FB
:100458000313420883160313BA00260883120313F2
:10046800B00083160313270883120313B100831601
:100478000313280883120313B200831603133808E2
:1004880083120313B300831603133908831203136B
:10049800B400831603133A0883120313B5000A162F
:1004A8008A11D6240A128A1103186A2A831603139A
:1004B800260883120313A300831603132708831245
:1004C8000313A400831603132808792A8316031339
:1004D800380883120313A300831603133908831201
:1004E8000313A400831603133A0883120313A50009
:1004F8006008A6006108A7006208A8000A128A1509
:100508007B210A128A11831203132308E0002408AE
:10051800E1002508E2000030A3008030A4003F304D
:10052800A50083160313350883120313A600831648
:100538000313360883120313A7008316031337081F
:1005480083120313A8000A128A157B210A128A1142
:1005580083120313230883160313B50083120313AE
:10056800240883160313B600831203132508831681
:100578000313B700013083120313D7070318D80AEF
:100588000030D8075808803AFF0080307F02031DEA
:10059800CF2A5B305702031CF02900308312031363
:1005A800B000A030B1004130B2006608B30067085F
:1005B800B4006808B5000A168A11D6240A128A11EE
:1005C80003184F2C831203136608B0006708B100A4
:1005D8006808B2000030B3008C30B4004230B50077
:1005E8000A168A11D6240A128A1103184F2C83126C
:1005F80003136608C0006708C1006808C20000301D
:10060800C3001030C4004130C5000030C60034308B
:10061800C7004230C8000030C900A230CA004230CA
:10062800CB000A128A1584220A128A118312031334
:10063800400883160313A30083120313410883168B
:100648000313A40083120313420883160313A5009F
:10065800230883120313BC00831603132408831290
:100668000313BD0083160313250883120313BE006A
:10067800CD30BF00CC30C0003D30C1000A168A1111
:1006880093220A128A11831203133C088316031358
:10069800A900831203133D0883160313AA008312CB
:1006A80003133E0883160313AB000030B500003077
:1006B800B6000030B7000030B8000030B900003094
:1006C800BA0083120313D901DA015A08803AFF00ED
:1006D80080307F02031D722B5B30590203184F2CA8
:1006E80083160313350883120313C00083160313FC
:1006F800360883120313C1008316031337088312C5
:100708000313C2000030C3001030C4004130C500DC
:100718000030C6003430C7004230C8000030C9007D
:10072800A230CA004230CB000A128A1584220A126B
:100738008A1183120313400883160313B800831227
:100748000313410883160313B900831203134208E5
:1007580083160313BA00380883120313B0008316F4
:100768000313390883120313B100831603133A08DD
:1007780083120313B2008316031329088312031389
:10078800B300831603132A0883120313B4008316D5
:1007980003132B0883120313B5000A168A11D624F3
:1007A8000A128A11031CE82B8316031329088312E3
:1007B8000313A300831603132A0883120313A40048
:1007C800831603132B08F72B831603133808831299
:1007D8000313A30083160313390883120313A40019
:1007E800831603133A0883120313A5005D08A600B5
:1007F8005E08A7005F08A8000A128A157B210A1262
:100808008A11831203132308DD002408DE0025085B
:10081800DF000030A3008030A4003F30A50083161D
:100828000313350883120313A6008316031336082F
:1008380083120313A70083160313370883120313C5
:10084800A8000A128A157B210A128A11831203133F
:10085800230883160313B500831203132408831691
:100868000313B60083120313250883160313B70076
:10087800013083120313D9070318DA0A0030DA07A4
:100888005A08803AFF0080307F02031D4D2C5B30F0
:100898005902031C742B003083120313B0008C30F0
:1008A800B1004230B2006608B3006708B4006808B7
:1008B800B5000A168A11D6240A128A110318C42D03
:1008C800831203136608C0006708C1006808C200E5
:1008D8000030C3007830C4004230C5000030C60084
:1008E8009E30C7004230C8000030C900B430CA008A
:1008F8004230CB000030CC00B430CD004230CE00C6
:100908000A128A15F3240A128A1183120313400863
:1009180083160313A30083120313410883160313DA
:10092800A40083120313420883160313A5002308A7
:1009380083120313BC0083160313240883120313C2
:10094800BD0083160313250883120313BE00CD30A0
:10095800BF00CC30C0003D30C1000A168A11932276
:100968000A128A11831203133C0883160313AC007E
:10097800831203133D0883160313AD008312031378
:100988003E0883160313AE000030B5000030B600F1
:100998000030B7000030B8000030B9000030BA00AD
:1009A80083120313DB01DC015C08803AFF0080300E
:1009B8007F02031DE12C5B305B020318C42D8316F4
:1009C8000313350883120313C00083160313360874
:1009D80083120313C100831603133708831203130A
:1009E800C2000030C3007830C4004230C500003077
:1009F800C6009E30C7004230C8000030C900B4307D
:100A0800CA004230CB000030CC00B430CD004230B8
:100A1800CE000A128A15F3240A128A1183120313CC
:100A2800400883160313B800831203134108831682
:100A38000313B90083120313420883160313BA0081
:100A4800380883120313B00083160313390883127E
:100A58000313B100831603133A0883120313B20079
:100A6800831603132C0883120313B300831603138E
:100A78002D0883120313B400831603132E08831260
:100A88000313B5000A168A11D6240A128A11031C08
:100A98005D2D831603132C0883120313A3008316FA
:100AA80003132D0883120313A400831603132E08BF
:100AB8006C2D83160313380883120313A3008316BF
:100AC8000313390883120313A400831603133A0887
:100AD80083120313A5006308A6006408A70065082D
:100AE800A8000A128A157B210A128A11831203139D
:100AF8002308E3002408E4002508E5000030A300EB
:100B08008030A4003F30A5008316031335088312F4
:100B18000313A60083160313360883120313A700D2
:100B280083160313370883120313A8000A128A15C1
:100B38007B210A128A1183120313230883160313D5
:100B4800B50083120313240883160313B600831217
:100B58000313250883160313B70001308312031308
:100B6800DB070318DC0A0030DC075C08803AFF006A
:100B780080307F02031DC22D5B305B02031CE32C17
:100B8800831203136608B0006708B1006808B20052
:100B98000030B300C830B4004130B5000A168A11DD
:100BA800D6240A128A110318E12D83120313600850
:100BB800D4006108D50062081A2E83120313660850
:100BC800B0006708B1006808B2000030B300C83050
:100BD800B4004130B5000A168A11D6240A128A11C7
:100BE800031C132E831203136608B0006708B100B4
:100BF8006808B2000030B3009630B4004230B50047
:100C08000A168A11D6240A128A110318132E83127F
:100C180003135D08D4005E08D5005F081A2E8312FE
:100C280003136308D4006408D5006508D6000030B3
:100C380083160313B200B430B3004230B40000305E
:100C4800AF000030B0000030B10083120313540825
:100C5800A3005508A4005608A500831603132F08FF
:100C680083120313A6008316031330088312031399
:100C7800A70083160313310883120313A8000A126E
:100C88008A157B210A128A118312031323088316FB
:100C98000313AF0083120313240883160313B00051
:100CA80083120313250883160313B1003208831235
:100CB8000313B00083160313330883120313B10020
:100CC80083160313340883120313B2008316031325
:100CD8002F0883120313B3008316031330088312FB
:100CE8000313B40083160313310883120313B500EA
:100CF8000A168A1177260A128A11831203133008FA
:100D080083160313A00083120313310883160313F9
:100D1800A10083120313320883160313A2000030C4
:100D2800F800C830F9004230FA002008FB0021081A
:100D3800FC002208FD000A168A112F270A128A11C0
:100D4800780883160313A0007908A1007A08A20086
:100D5800013083120313D2000030D3000030B000FA
:100D68000030B1000030B2006D08A3006E08A40086
:100D78006F08A500831603134008F901F9073F0817
:100D8800F801F8070A168A111A220A128A11780835
:100D980083120313A6007908A7007A08A8000A128C
:100DA8008A157B210A128A11831203132308B300C0
:100DB8002408B4002508B5000A168A11D6240A1298
:100DC8008A1103180800831203136D08A3006E0824
:100DD800A4006F08A500831603134008F901F9075A
:100DE8003F08F801F8070A168A111A220A128A110E
:100DF800780883120313A6007908A7007A08A800C8
:100E08000A128A157B210A128A11831203132308F6
:100E1800B0002408B1002508B2000030B3007F30CC
:100E2800B4004430B5000A168A11D6240A128A1171
:100E380003180800831603134008F901F9073F084F
:100E4800F801F8070A168A111A220A128A11780874
:100E580083120313A6007908A7007A08A8006D0872
:100E6800A3006E08A4006F08A5000A128A157B214A
:100E78000A128A11831203132308B0002408B10050
:100E88002508B2000A128A1504200A128A11831250
:100E980003133108BF01BF073008BE01BE070A1699
:100EA8008A115C22080083160313D301CC1F692F13
:100EB800C909CA09CB09CC09C90A0319CA0A0319FD
:100EC800CB0A0319CC0AD301D30AD01F7A2FCD0934
:100ED800CE09CF09D009CD0A0319CE0A0319CF0AC2
:100EE8000319D00A0130D1005108D3060030D700C9
:100EF8000030D6000030D5000030D4004C084B0438
:100F08004A0449040319CF2FD201D20ACC1B9A2FC5
:100F18000130D1000310C90DCA0DCB0DCC0DD10B7A
:100F28008E2F0130D1005108D2078A2F0130D1000D
:100F38000310D40DD50DD60DD70DD10B9C2F4C0811
:100F48005002031DB12F4B084F02031DB12F4A0851
:100F58004E02031DB12F49084D02031CC22F490838
:100F6800CD024A08031C4A0FCE024B08031C4B0F44
:100F7800CF024C08031C4C0FD0025414013003104C
:100F8800CC0CCB0CCA0CC90CFF3E031DC32F01307F
:100F9800D202031D9A2F53080319DD2FD409D5094E
:100FA800D609D709D40A0319D50A0319D60A031989
:100FB800D70A5708CC005608CB005508CA00540871
:100FC800C9000800831203139818EF2F1A08F300BA
:100FD8007308F400FB2F0B300A168A11772283124C
:100FE800031318121A08F3007308F40018168C1269
:080FF8007408080032340034D3
:10100200003448344234831203133008B4003108E8
:10101200B5003208B6000310350D360DB70037089B
:10102200BD00BD08031D1E280030B3000030B20011
:101032000030B1000030B00008003008B4003108C0
:10104200B5003208B60017300310B60CB50CB40C5C
:10105200FF3E031D25283408B7003708B800B11732
:10106200FF30B005FF30B1050030B2053008B900DD
:101072003108BA003208BB00BC018E30BD02BD1F70
:1010820060283D08803A8F3E031850280030B30094
:101092000030B2000030B1000030B0000800013072
:1010A2000310BC0CBB0CBA0CB90CFF3E031D51283B
:1010B2000130B4003408BD0703197B2850281830CA
:1010C2003D02031C78280030B3000030B20000302B
:1010D200B1000030B00008000130B4000310B90DB7
:1010E200BA0DBB0DBC0DB40B6F280130BD02BD089B
:1010F200031D6D28380803198928B909BA09BB09E3
:10110200BC09B90A0319BA0A0319BB0A0319BC0AB2
:101112003C08B3003B08B2003A08B1003908B000FD
:101122000800013083160313850001308312031374
:10113200850083160313860183120313860181300F
:10114200831603138700C0308312031387008316AC
:101152000313880183120313880183160313890181
:10116200831203138901033090008E018F01003036
:1011720083160313DB000130DA00C230D9000030DD
:10118200D8000A168A118D240A128A150A168A11A3
:10119200ED210A128A150A168A1108220A128A15E4
:1011A2000A168A1136230A128A150A168A119D25F1
:1011B2000A128A150B178B170A168A119D250A1215
:1011C2008A1583160313C90100300A168A11B12247
:1011D2000A128A15333083160313CB008030CC00F9
:1011E2000A168A11A8230A128A15003083160313DD
:1011F200C9000030CA000A168A11D1220A128A15C1
:10120200003083160313C9000030CA000A168A117F
:10121200F2220A128A15EE300A168A11D3210A1214
:101222008A15183083160313EA006130E9006E3024
:10123200E800E80B1A29E90B1A29EA0B1A2900001F
:10124200583083160313E8006808D7004408D90110
:10125200D9074308D801D80797300A128A154926B8
:101262000A128A150A168A117F230A128A15831610
:101272000313C90100300A168A11B1220A128A1513
:10128200523083160313CB008030CC000A168A1129
:10129200A8230A128A15063083160313E800680889
:1012A200C90000300A168A11B1220A128A15973033
:1012B20083160313CB000130CC000A168A11A8232F
:1012C2000A128A1583160313C90101300A168A11FC
:1012D200B1220A128A15053083160313EA00AD30D3
:1012E200E900E030E800E80B7429E90B7429EA0B05
:1012F20074292129831203132308A9002408AA00B0
:101302002508AB0003102A0D2B0DAC002C08AF00F2
:101312002608A9002708AA002808AB0003102A0DF6
:101322002B0DAC002C08AE002F080319A4292E089F
:101332002F020318AB292F03FF3A2E07A9001930F9
:101342002902031CAB292608A3002708A4002808A9
:10135200A50008002E08031908002F082E02031802
:10136200BA292E03FF3A2F07A900193029020318C0
:1013720008000630A9002908AD00A51BAD17A81B5F
:101382002D17A417FF30A305FF30A4050030A505D3
:10139200A717FF30A605FF30A7050030A8052E08C5
:1013A2002F020318FA2901300310A60DA70DA80D6C
:1013B200FF3E031DD5290130AE022E082F06031968
:1013C200F5290130AD022D0807390319F529D42971
:1013D20001300310A50CA40CA30CFF3E031DEA2947
:1013E2000130A9002908AF072F082E060319232A66
:1013F200E9292F082E020318232A01300310A30D16
:10140200A40DA50DFF3E031DFF290130AF022E08DA
:101412002F0603191F2A0130AD022D0807390319BF
:101422001F2AFE2901300310A80CA70CA60CFF3EB0
:10143200031D142A0130A9002908AE072F082E0621
:10144200031D132AAD1F352AFF30A306FF30A40661
:10145200FF30A5060130A307003003180130A407AE
:10146200003003180130A5072D1F472AFF30A606BA
:10147200FF30A706FF30A8060130A6070030031888
:101482000130A707003003180130A807AD01230877
:10149200A607240803110318240A031DA707250819
:1014A20003110318250A031DA807A81F6A2AFF3083
:1014B200A606FF30A706FF30A8060130A6070030B7
:1014C20003180130A707003003180130A807AD0147
:1014D200AD0A2608F0002708F1002808F2002F08BC
:1014E200A9002908F3002D08AA002A08F4000A1608
:1014F2008A113525700883120313A3007108A40012
:101502007208A5000800003083120313CC000030DB
:10151200CD000030CE004308B0004408B1004508B9
:10152200B2004008B3004108B4004208B5000A16F0
:101532008A11D6240A128A150318972B83120313D1
:101542004308B0004408B1004508B2004008B300A7
:101552004108B4004208B5000A168A11D6240A12BC
:101562008A150318FD2A831203134608B0004708A0
:10157200B1004808B2004008B3004108B400420874
:10158200B5000A168A11D6240A128A15031CFD2AEE
:10159200831203134608A3004708A4004808A500C5
:1015A2004308A0004408A1004508A2000A168A11B7
:1015B200E3210A128A15831203132008A6002108C8
:1015C200A7002208A8000A128A157B210A128A158E
:1015D200831203132308B0002408B1002508B200C7
:1015E2004008A3004108A4004208A5004308A00047
:1015F2004408A10045085A2B831203134608B00081
:101602004708B1004808B2004008B3004108B400DE
:101612004208B5000A168A11D6240A128A1503183E
:10162200822B831203134908B0004A08B1004B0809
:10163200B2004008B3004108B4004208B5000A16DF
:101642008A11D6240A128A15031C822B83120313D1
:101652004608A3004708A4004808A5004908A000BE
:101662004A08A1004B08A2000A168A11E3210A12B5
:101672008A15831203132008A6002108A700220856
:10168200A8000A128A157B210A128A1583120313F3
:101692002308B0002408B1002508B2004008A300C6
:1016A2004108A4004208A5004908A0004A08A10078
:1016B2004B08A2000A168A11E3210A128A15831224
:1016C20003132008A6002108A7002208A8000A1276
:1016D2008A157B210A128A15831203132308B30089
:1016E2002408B4002508B5000A168A1177260A12C2
:1016F2008A15831203133008CC003108CD0032085A
:101702009E2B831203134908B0004A08B1004B080C
:10171200B2004008B3004108B4004208B5000A16FE
:101722008A11D6240A128A1503189F2B00308312BD
:101732000313CC000030CD000030CE00831203131F
:101742004C08C0004D08C1004E08C20008008C1EA3
:101752006E2C0A128A11E6270A128A15303A031DE4
:10176200C42B44300A168A1177220A128A150030D5
:1017720083120313BE000030BF000A168A115C22D6
:101782000A128A15E62C0A128A11E6270A128A150B
:10179200313A031DD22BD03083160313C500023019
:1017A200C6000A128A11E6270A128A15323A031D66
:1017B200E02BAA3083160313C5000530C6000A12B7
:1017C2008A11E6270A128A15333A031DEE2B0C30D2
:1017D20083160313C5000B30C6000A128A11E627CE
:1017E2000A128A15343A031DFC2BB83083160313F0
:1017F200C5000C30C6000A128A11E6270A128A15A1
:10180200353A031D0A2C9E3083160313C50011308E
:10181200C6000A128A11E6270A128A15363A031DF1
:10182200182C803083160313C5001630C6000A1226
:101832008A11E6270A128A15373A031D262CEA3046
:1018420083160313C5001A30C6000A128A11E6274E
:101852000A128A15383A031D342CA4308316031356
:10186200C5001F30C6000A128A11E6270A128A151D
:10187200393A031D422C283083160313C500233046
:10188200C6000A128A116B200A128A1583160313E4
:1018920045089C3EF80046080318013EFF3EF90049
:1018A2000A168A111A220A128A1578088312031359
:1018B200ED007908EE007A08EF000A128A11E62795
:1018C2000A128A15583A031D6B2C0A168A11082629
:1018D2000A128A15831203138C120C1B0C130B1D94
:1018E200E22CEE300A168A11C5210A128A1501303D
:1018F200831603133E02F33003193D0203188B2CA7
:101902000130BD070318BE0A0030BE07831203135D
:101912000617E12C83160313BD01BE0183120313C4
:101922000F0883160313C201C207831203130E08A2
:1019320083160313C101C1076F08F101F1076E0895
:10194200F001F0074208F301F3074108F201F20740
:101952000A168A110F240A128A157108F901F90769
:101962007008F801F8077830FA000030FB000A1618
:101972008A1113230A128A15790883160313C401E4
:10198200C4077808C301C3072830F0000030F10013
:101992004408F301F3074308F201F2070A168A1119
:1019A2000F240A128A15710883160313C401C4078F
:1019B2007008C301C307831203138E018F0106133C
:1019C2000B110C180C108C198C11831203136C0858
:1019D200FF006B088A006A088400690E8300FE0E0D
:1019E2007E0E0900003083120313CF000030D000B6
:1019F2000030D1004308B0004408B1004508B200ED
:101A02004008B3004108B4004208B5000A168A1122
:101A1200D6240A128A150318382E83120313430898
:101A2200B0004408B1004508B2004008B3004108C4
:101A3200B4004208B5000A168A11D6240A128A1581
:101A420003186C2D831203134608B0004708B10037
:101A52004808B2004008B3004108B4004208B5008B
:101A62000A168A11D6240A128A15031C6C2D8312B7
:101A720003134608A3004708A4004808A50043082A
:101A8200A0004408A1004508A2000A168A11E32119
:101A92000A128A15831203132008A6002108A70040
:101AA2002208A8000A128A157B210A128A158312BB
:101AB20003132308B0002408B1002508B20040082F
:101AC200A3004108A4004208A5004308A00044085E
:101AD200A1004508FB2D831203134008B000410802
:101AE200B1004208B2004608B3004708B4004808F3
:101AF200B5000A168A11D6240A128A15031C9E2DD5
:101B0200831203134908B0004A08B1004B08B2001F
:101B12004008B3004108B4004208B5000A168A1111
:101B2200D6240A128A15031C9E2D00308312031339
:101B3200CF008030D0003F303F2E8312031349087C
:101B4200B0004A08B1004B08B2004008B300410897
:101B5200B4004208B5000A168A11D6240A128A1560
:101B62000318232E831203134C08B0004D08B10052
:101B72004E08B2004008B3004108B4004208B50064
:101B82000A168A11D6240A128A15031C232E8312DE
:101B920003134C08A3004D08A4004E08A5004908F1
:101BA200A0004A08A1004B08A2000A168A11E321EC
:101BB2000A128A15831203132008A6002108A7001F
:101BC2002208A8000A128A157B210A128A1583129A
:101BD20003132308B0002408B1002508B2004C0802
:101BE200A3004D08A4004E08A5004008A00041082B
:101BF200A1004208A2000A168A11E3210A128A15DC
:101C0200831203132008A6002108A7002208A800B7
:101C12000A128A157B210A128A15831203132308DA
:101C2200B3002408B4002508B5000A168A117726E5
:101C32000A128A15831203133008CF003108D0002C
:101C420032083F2E831203134C08B0004D08B10036
:101C52004E08B2004008B3004108B4004208B50083
:101C62000A168A11D6240A128A150318402E003049
:101C720083120313CF000030D0000030D100831252
:101C820003134F08C0005008C1005108C2000800E9
:101C920083160313E600D830DA005A08DD0001305B
:101CA20083160313D707FF30570784000A168A11D9
:101CB2000A200A128A15DA005A08E700E70803190F
:101CC200F92F6708253A0319722E6708DA006608A9
:101CD20084005A08831780000130DA005A08E607A8
:101CE200502EE401E501E3017B2E63150130DA0099
:101CF2005A08D707570884000A168A110A200A12BE
:101D02008A15303A0319762E862E570884000A1651
:101D12008A110A200A128A150A168A11F8210A1251
:101D22008A15031CD62E83160313E401E5010A303B
:101D320083160313C9000030CA006508CC01CC0722
:101D42006408CB01CB070A168A115A230A128A1594
:101D5200831603134A08E501E5074908E401E4078D
:101D6200570884000A168A110A200A128A15D03EE0
:101D7200DA00FF3003180030DB005A08E4070318CA
:101D8200E50A5B08E5070130DA005A08D707570869
:101D920084000A168A110A200A128A150A168A1162
:101DA200F8210A128A150318982E0130831603139C
:101DB200D707FF30570784000A168A110A200A1231
:101DC2008A15E700003A0319F92F643A0319ED2E38
:101DD2000D3A0319ED2E502E831603135D0884006D
:101DE20083130008DF00840A0008E0000230DA00F2
:101DF2005A08DD07E01F062F0330DA005A08E30411
:101E0200DF09E009DF0A0319E00AE701E70A6708C8
:101E1200053A03192D2F6708DA005A07013E84009C
:101E22000A168A110A200A128A15DB000A168A117A
:101E32000A200A128A15DC005C086002031D232FA7
:101E42005B085F02031C2D2F0130DA005A08E707F6
:101E52006708053A031D0C2F6508640403193B2F1C
:101E62006308033903193B2FFF30E4070318E50A1F
:101E7200FF30E5076708DA00DB01DA1BDB035B08EA
:101E8200803ADC006508803A5C02031D4A2F640830
:101E92005A0203185A2F831603136708DA00DB016C
:101EA200DA1BDB035A08E4025B08031CE503E502C4
:101EB2005E2F83160313E401E501631D852F63087A
:101EC200033903196F2F2D30DA00660884005A088F
:101ED200831780000130DA005A08E60765086404B7
:101EE2000319AD2F3030DA00660884005A088317D0
:101EF20080000130DA005A08E607FF30E4070318D1
:101F0200E50AFF30E5076F2F6508640403199E2F69
:101F12002030DA00660884005A08831780000130F6
:101F2200DA005A08E607FF30E4070318E50AFF3033
:101F3200E50765086404031D892F63080339031943
:101F4200AD2F2D30DA00660884005A08831780000E
:101F52000130DA005A08E6076708DA005A08DE009C
:101F6200FF30DA005A08DE075E08FF3A0319502EE6
:101F72000A30D1000030D2005E08DA005A07013E72
:101F820084000A168A110A200A128A15C9000A1642
:101F92008A110A200A128A15CA006008CC01CC07ED
:101FA2005F08CB01CB070A168A114D240A128A1543
:101FB200831603134A08D401D4074908D301D3076F
:101FC2000A168A11D9230A128A1583160313510895
:101FD200303EDB005B08E7006708DA006608840031
:101FE2005A08831780000130DA005A08E607B12F39
:101FF2008316031366088400831780010800FF1B01
:102002000A2883137F1883170008840A0319FF0A1A
:10201200080010308A000408840A82070034013460
:1020220000340A34003464340034E83403341034A5
:1020320027340A340D3420342D342D342D342D34EC
:102042002D342D342D3420344534533454344F340C
:10205200553452344F3420344434453420345034CF
:1020620049344C344834413420342D342D342D3409
:102072002D342D342D342D3420340A340D342034B3
:10208200003449346E3469346334693461346C34F5
:1020920069347A3461346E3464346F342E342E34BD
:1020A2002E3400340A340D346434653473346C34A1
:1020B20069346734613464346F340A340D34003463
:1020C2006B346D3448343A3420340034253430349F
:0620D200343464340034D4
:102380000034A034413407340034F0007008831264
:10239000031381000800F000831203130C1ECC29E4
:1023A00070089900080083160313C90049088312B6
:1023B00003138100080064008001840A04060319E5
:1023C00000340406DC2983120313220821042004AC
:1023D000031908008030A206080083160313811237
:1023E000011281110115811401140B118B160800C3
:1023F00083160313CA00C9013A304A020318062A99
:1024000030304A02031C062AC901C90A490C0800D7
:10241000831603139F179F151F159F141F108312F8
:1024200003139F171F13831603130C138312031335
:102430000C1308007808F0007908F100F2018E30E2
:10244000FB007B08F300F4010A168A113525700899
:10245000F8007108F9007208FA00080083160313E7
:10246000CA00831203130910831603134A08831248
:102470000313880089143D3083160313C900C90B68
:102480003F2A831203138910080083160313CA001E
:10249000831203130914831603134A0883120313C8
:1024A000880089143D3083160313C900C90B562ACE
:1024B0008312031389100800831203133F08FD00E1
:1024C0003E08FC007D0DFD0CFC0C7D0DFD0CFC0C94
:1024D0007C089B003E08FC0003300310FC0DFF3E0F
:1024E000031D6D2A03107C0D0C389D000800F200BE
:1024F000720884000A168A110A200A168A11003806
:1025000003190800720884000A168A110A200A16A4
:102510008A110A168A11CB210A168A110130F1009C
:102520007108F207782A831203133F08B0004008AD
:10253000B1004108B2003C08B3003D08B4003E08B9
:10254000B5000A168A11D6240A168A11031C08003F
:10255000831203133F08BC004008BD004108BE00C1
:10256000080083160313CB0083120313091083168C
:102570000313CB08031DBF2A4908803EC32A8316D4
:1025800003134908C03E83120313880089143D30A9
:1025900083160313CA00CA0BCB2A831203138910B4
:1025A0000800831603134A08CC004908CB004C0DE1
:1025B000CC0CCB0C4C0DCC0CCB0C4B088312031366
:1025C0009500831603134908CB0003300310CB0D8D
:1025D000FF3E031DE62A03104B0D0C388312031334
:1025E00097000800831603134A08CC004908CB0063
:1025F0004C0DCC0CCB0C4C0DCC0CCB0C4B088312E3
:1026000003139B00831603134908CB000330031008
:10261000CB0DFF3E031D072B03104B0D0C3883120F
:1026200003139D000800FC01FD01781C1D2B7A0896
:10263000FC070318FD0A7B08FD0701300310FA0DA3
:10264000FB0DFF3E031D1E2B01300310F90CF80C8F
:10265000FF3E031D252B79087804031D152B7D08EB
:10266000F901F9077C08F801F80708008312031341
:102670009214121012139212121292111215FF30AC
:1026800083160313920083120313971517159714DB
:102690001714831603130C15831203130C119D15C5
:1026A0001D159D141D14831603130D14831203139B
:1026B0000D10080083160313CD01CE01491C662BB3
:1026C0004B08CD070318CE0A4C08CE070130031083
:1026D000CB0DCC0DFF3E031D672B01300310CA0C40
:1026E000C90CFF3E031D6E2B4A084904031D5E2BD7
:1026F0004E08CA01CA074D08C901C90708000130C0
:102700000A168A112E220A168A110C308316031318
:10271000CC00F730CB00CB0B8B2BCC0B8B2B0C30A6
:102720000A168A112E220A168A113D3083160313C7
:10273000CB00CB0B992B06300A168A112E220A16D3
:102740008A113D3083160313CB00CB0BA52B080059
:10275000831603134C0883120313FF00831603131D
:102760004B088400831203130A168A1100200A16EC
:102770008A11003803190800831603134C088312CA
:102780000313FF00831603134B0884008312031303
:102790000A168A1100200A168A110A168A11452281
:1027A0000A168A11013083160313CB070318CC0ACB
:1027B000A82B83160313520851040319082CD601C1
:1027C000D60AD21BEF2B01300310D10DD20DFF3EE4
:1027D000031DE42B0130D5005508D607E12B520824
:1027E0005402031DF52B51085302031CFD2B510805
:1027F000D3025208031CD403D40201300310D20CBC
:10280000D10CFF3E031DFE2B0130D602031DEF2B22
:102810005408D201D2075308D101D1070800F501AD
:10282000F601710870040319462CF701F70AF11B31
:10283000252C01300310F00DF10DFF3E031D1A2C65
:102840000130F4007408F707172C01300310F50D60
:10285000F60DFF3E031D262C71087302031D322C5A
:1028600070087202031C3B2C7008F2027108031CF2
:10287000F303F302751401300310F10CF00CFF3E6A
:10288000031D3C2C0130F702031D252C7608F101B5
:10289000F1077508F001F007080083160313CE0155
:1028A000CF014A0849040319862CD001D00ACA1B5B
:1028B000652C01300310C90DCA0DFF3E031D5A2CB3
:1028C0000130CD004D08D007572C01300310CE0D3C
:1028D000CF0DFF3E031D662C4A084C02031D722CCF
:1028E00049084B02031C7B2C4908CB024A08031CF5
:1028F000CC03CC024E1401300310CA0CC90CFF3EAD
:10290000031D7C2C0130D002031D652C4F08CA0129
:10291000CA074E08C901C9070800831603135808DF
:10292000DC005908DD005A08DE005B08DF000430D7
:102930000310DC0DDD0DDE0DDF0DFF3E031D982CB9
:102940005F08CC005E08CB005D08CA005C08C900C7
:102950000130D0001930CF004030CE000030CD0023
:102960000A128A115727831603134908FF3E99005C
:102970009813181398161812181598141810831213
:102980000313981718139812181698111811981005
:102990001810831603130C12831203130C128316E0
:1029A00003138C16831203138C1208008312031373
:1029B000B21FFF2C0030B6000030B7008030B800E6
:1029C0003009B9003109BA003209BB00B90A03194C
:1029D000BA0A0319BB0A3908B6073A0803183A0FAE
:1029E000F22CF32CB7073B0803183B0FF82CF92CFB
:1029F000B8073608B0003708B1003808B200B51F74
:102A0000262D0030B6000030B7008030B800330902
:102A1000B9003409BA003509BB00B90A0319BA0A6A
:102A20000319BB0A3908B6073A0803183A0F192DDB
:102A30001A2DB7073B0803183B0F1F2D202DB80791
:102A40003608B3003708B4003808B5008030B20645
:102A50008030B50635083202031D08003408310203
:102A6000031D0800330830020800730803193D2DC8
:102A7000720871047004031D502D0030F000003006
:102A8000F1000030F20008000130F5007508F3078E
:102A900001300310F20CF10CF00CFF3E031D492D28
:102AA000FE30720503196B2D442D0130F5007508B9
:102AB000F3070130F007003003180130F107003050
:102AC00003180130F20701300310F20CF10CF00C86
:102AD000FF3E031D642DFF30720503197A2D552D1D
:102AE0000130F30201300310F00DF10DF20DFF3E45
:102AF000031D732DF11F702D7318842DFF30F00509
:102B00007F30F105FF30F2050310F30C7308F50078
:102B1000F601F70110300310F50DF60DF70DFF3E2D
:102B2000031D8B2D7508F0047608F1047708F20474
:102B3000740803190800F2170800831603139F1185
:102B40001F159F101F105A30CC00C330CB00CB0B89
:102B5000A72DCC0BA72D30300A168A112E220A166B
:102B60008A11183083160313CC00EF30CB00CB0B47
:102B7000B72DCC0BB72D30300A168A112E220A162B
:102B80008A11993083160313CB00CB0BC52D30303F
:102B90000A168A112E220A168A113D308316031353
:102BA000CB00CB0BD12D38300A168A112E220A16F3
:102BB0008A113D3083160313CB00CB0BDD2D013082
:102BC0000A168A112E220A168A110C308316031354
:102BD000CC00F730CB00CB0BEB2DCC0BEB2D0C301E
:102BE0000A168A112E220A168A113D308316031303
:102BF000CB00CB0BF92D06300A168A112E220A16AD
:102C00008A113D3083160313CB00CB0B052E080031
:102C1000233083120313A0002008831603179000AB
:102C2000243083120313A000200883160317910099
:102C30003A3083120313A000200883160317920072
:102C4000831603134408F901F9074308F801F8074C
:102C50002830FA000030FB000A168A1113230A16E6
:102C60008A11790883120313A301A3077808A2012C
:102C7000A2072308A00020088316031793008312DD
:102C800003132208A000200883160317940095015F
:102C900083120313A101A4010630240203186C2E31
:102CA0002408903E8400831700080A168A11CB215D
:102CB0000A168A11831203132408903E8400831796
:102CC0000008A0002008A1060130A0002008A407E9
:102CD00006302402031C502E2108A0002008831671
:102CE0000317960016080A168A11CB2108008312D2
:102CF00003133308B6003408B7003508B8000310D2
:102D0000370D380DB9003908BE00BE08031D8F2EDF
:102D10000030B0000030B1000030B20008003008D0
:102D2000B6003108B7003208B8000310370D380D6F
:102D3000B9003908BF00BF08031DA52E0030B00040
:102D40000030B1000030B20008000030BB0000309D
:102D5000BC000030BD0089303F07B6003608BE0217
:102D60003308B6003408B7003508B8001030031037
:102D7000B80CB70CB60CFF3E031DB72E3608B900D1
:102D80003908BF003008B6003108B7003208B80073
:102D900010300310B80CB70CB60CFF3E031DC92E43
:102DA0003608B9003908BF068030B6003608BF05BE
:102DB000B417FF30B305FF30B4050030B505B117C7
:102DC000FF30B005FF30B1050030B2051830B60055
:102DD0003608BA0001300310BB0DBC0DBD0DFF3E1F
:102DE000031DEB2E32083502031DFC2E3108340280
:102DF000031DFC2E30083302031C092F3008B302D8
:102E00003108031C310FB4023208031C320AB50228
:102E10003B1401300310B30DB40DB50DFF3E031D7F
:102E20000A2F0130BA02031DEA2E3B08F0003C08CD
:102E3000F1003D08F2003E08B6003608F3003F08F6
:102E4000B7003708F4000A168A1135257008831276
:102E50000313B0007108B1007208B20008007808CE
:102E600083120313A0007908A1007A08A2000310BE
:102E7000210D220DA3002308A400A408031D472F41
:102E80000030F8000030F9000030FA0008007B083C
:102E9000A0007C08A1007D08A2000310210D220DD6
:102EA000A3002308A900A908031D5D2F0030F80026
:102EB0000030F9000030FA00080029087B3EA0002D
:102EC0002008A4077808A0007908A1007A08A200C9
:102ED00010300310A20CA10CA00CFF3E031D692FA3
:102EE0002008A3002308A9007B08A0007C08A100FB
:102EF0007D08A20010300310A20CA10CA00CFF3E14
:102F0000031D7B2F2008A3002308A9068030A00002
:102F10002008A905F917FC17FF30FB05FF30FC0559
:102F20000030FD050030A5000030A6000030A700ED
:102F30000730A0002008A800781CAC2F7B08A5074C
:102F40007C08031103187C0A031DA6077D080311E2
:102F500003187D0A031DA70701300310FA0CF90CB2
:102F6000F80CFF3E031DAD2F01300310FB0DFC0DCF
:102F7000FD0DFF3E031DB52F0130A802031D9C2F40
:102F80000930A0002008A800781CD42F7B08A507D2
:102F90007C08031103187C0A031DA6077D08031192
:102FA00003187D0A031DA70701300310FA0CF90C62
:102FB000F80CFF3E031DD52F01300310A70CA60C03
:102FC000A50CFF3E031DDD2F0130A802031DC42FF9
:102FD0002508F0002608F1002708F2002408A000C8
:102FE0002008F3002908A1002108F4000A168A111C
:102FF00035257008F8007108F9007208FA00080019
:02400E0032FF7F
:00000001FF
