:060000000A128A11122809
:10000800FE00030E83120313E9000408EA000A083D
:10001800EB007F08EC000A128A15B52C0A128A1127
:100028001528ED01EE018313C2308400E3300A166F
:100038008A114F200A128A11831790308400B13038
:100048000A168A114F200A128A118313EF30FD0015
:100058000730FE00F430FF00E33084000A168A11EE
:10006800802083010A128A150E2A831603136E084C
:10007800F901F9076D08F801F8070A168A119F2097
:100088000A128A11780883160313E3007908E4003A
:100098007A08E500003083120313E6000030E70019
:1000A8000030E800D201D3010030DD000030DE006E
:1000B8000030DF000030E0000030E1000030E200F6
:1000C8000030E3000030E4000030E5000030831623
:1000D8000313C5000030C6000030C7006308831250
:1000E8000313A30083160313640883120313A400E5
:1000F80083160313650883120313A50083160313DD
:10010800660883120313A00083160313670883127B
:100118000313A10083160313680883120313A200B4
:100128000A168A1157200A128A118312031320080B
:10013800A6002108A7002208A8000A168A11F72697
:100148000A128A11831203132308E6002408E70021
:100158002508E8000030B000C830B1004230B200D5
:100168006608B3006708B4006808B5000A168A1163
:100178006E250A128A11831203133008E60031082B
:10018800E7003208E8006608B0006708B1006808B0
:10019800B2000030B3000030B4000030B5000A16D9
:1001A8008A11AE230A128A110318F9280030F800C0
:1001B8008030F900BF30FA00831203136608FB0091
:1001C8006708FC006808FD000A168A1126260A122C
:1001D8008A11780883120313E6007908E7007A0881
:1001E800E8000130D2000030D3000030831203133E
:1001F800B000B430B1004230B2006608B3006708FE
:10020800B4006808B5000A168A11AE230A128A11CA
:1002180003181629003083120313E600B430E700F0
:100228004230E800831203136608B0006708B10083
:100238006808B2000030B300C830B4004130B500DF
:100248000A168A11AE230A128A1103188B2A8312FE
:1002580003136608C0006708C1006808C2000030C0
:10026800C3000030C4000030C5000030C6000030B4
:10027800C7000030C8000030C9005030CA00413003
:10028800CB000030CC000030CD004230CE000A1246
:100298008A155F230A128A118312031340088316F2
:1002A8000313C50083120313410883160313C60002
:1002B80083120313420883160313C70045088312E9
:1002C8000313BC0083160313460883120313BD00EF
:1002D80083160313470883120313BE00CD30BF00F3
:1002E800CC30C0003D30C1000A168A1117210A120D
:1002F8008A11831203133C0883160313C800831260
:1003080003133D0883160313C900831203133E0821
:1003180083160313CA000030D7000030D80000301D
:10032800D9000030DA000030DB000030DC00831236
:100338000313D701D8015808803AFF0080307F02A4
:10034800031DA8295B30570203188B2A8316031351
:10035800570883120313C000831603135808831227
:100368000313C10083160313590883120313C20031
:100378000030C3000030C4000030C5000030C600A3
:100388000030C7000030C8000030C9005030CA0033
:100398004130CB000030CC000030CD004230CE00E0
:1003A8000A128A155F230A128A118312031340085E
:1003B80083160313DA008312031341088316031309
:1003C800DB0083120313420883160313DC0048087A
:1003D80083120313B000831603134908831203130F
:1003E800B100831603134A0883120313B20083165D
:1003F80003135A0883120313B300831603135B080D
:1004080083120313B400831603135C0883120313C7
:10041800B5000A168A11AE230A128A110318242A73
:1004280083160313480883120313A30083160313C8
:10043800490883120313A400831603134A08332AB6
:10044800831603135A0883120313A3008316031396
:100458005B0883120313A400831603135C0883123A
:100468000313A5006008A6006108A7006208A80099
:100478000A168A11F7260A128A118312031323080F
:10048800E0002408E1002508E2000030A3008030E5
:10049800A4003F30A50083160313570883120313E3
:1004A800A60083160313580883120313A7008316A4
:1004B8000313590883120313A8000A168A11F72692
:1004C8000A128A1183120313230883160313D70011
:1004D80083120313240883160313D800831203130B
:1004E800250883160313D900013083120313D70795
:1004F8000318D80A0030D8075808803AFF0080301F
:100508007F02031D892A5B305702031CAA29003089
:1005180083120313B000A030B1004130B200660866
:10052800B3006708B4006808B5000A168A11AE233C
:100538000A128A110318092C831203136608B000E3
:100548006708B1006808B2000030B3008C30B4000E
:100558004230B5000A168A11AE230A128A1103180E
:10056800092C831203136608C0006708C1006808D5
:10057800C2000030C3001030C4004130C500003054
:10058800C6003430C7004230C8000030C900A2306D
:10059800CA004230CB000A128A15EA200A128A11D0
:1005A80083120313400883160313C5008312031331
:1005B800410883160313C6008312031342088316E7
:1005C8000313C700450883120313BC0083160313E3
:1005D800460883120313BD008316031347088312CA
:1005E8000313BE00CD30BF00CC30C0003D30C10089
:1005F8000A168A1117210A128A11831203133C085A
:1006080083160313CB00831203133D0883160313C9
:10061800CC00831203133E0883160313CD00003069
:10062800D7000030D8000030D9000030DA000030A0
:10063800DB000030DC0083120313D901DA015A0809
:10064800803AFF0080307F02031D2C2B5B3059025B
:100658000318092C83160313570883120313C000C9
:1006680083160313580883120313C1008316031358
:10067800590883120313C2000030C3001030C400AD
:100688004130C5000030C6003430C7004230C800D1
:100698000030C900A230CA004230CB000A128A15C5
:1006A800EA200A128A1183120313400883160313DF
:1006B800DA0083120313410883160313DB00831245
:1006C8000313420883160313DC005A08831203132A
:1006D800B000831603135B0883120313B10083165B
:1006E80003135C0883120313B200831603134B0829
:1006F80083120313B300831603134C0883120313E6
:10070800B400831603134D0883120313B5000A16A9
:100718008A11AE230A128A11031CA22B8316031313
:100728004B0883120313A300831603134C08831288
:100738000313A400831603134D08B12B8316031368
:100748005A0883120313A300831603135B0883124A
:100758000313A400831603135C0883120313A50074
:100768005D08A6005E08A7005F08A8000A168A119F
:10077800F7260A128A11831203132308DD002408BE
:10078800DE002508DF000030A3008030A4003F30E1
:10079800A50083160313570883120313A6008316B4
:1007A8000313580883120313A70083160313590869
:1007B80083120313A8000A168A11F7260A128A114F
:1007C80083120313230883160313D700831203131A
:1007D800240883160313D8008312031325088316ED
:1007E8000313D900013083120313D9070318DA0A57
:1007F8000030DA075A08803AFF0080307F02031D74
:10080800072C5B305902031C2E2B00308312031374
:10081800B0008C30B1004230B2006608B3006708FF
:10082800B4006808B5000A168A11AE230A128A11A4
:1008380003187E2D831203136608C0006708C100E1
:100848006808C2000030C3007830C4004230C500D8
:100858000030C6009E30C7004230C8000030C900D2
:10086800B430CA004230CB000030CC00B430CD00E8
:100878004230CE000A128A155F230A128A118312A7
:100888000313400883160313C5008312031341089A
:1008980083160313C6008312031342088316031337
:1008A800C700450883120313BC00831603134608C8
:1008B80083120313BD00831603134708831203131F
:1008C800BE00CD30BF00CC30C0003D30C1000A169C
:1008D8008A1117210A128A11831203133C088316FE
:1008E8000313CE00831203133D0883160313CF00AE
:1008F800831203133E0883160313D0000030D70079
:100908000030D8000030D9000030DA000030DB00B9
:100918000030DC0083120313DB01DC015C08803A41
:10092800FF0080307F02031D9B2C5B305B020318A5
:100938007E2D83160313570883120313C0008316F2
:100948000313580883120313C100831603135908AD
:1009580083120313C2000030C3007830C400423051
:10096800C5000030C6009E30C7004230C8000030C5
:10097800C900B430CA004230CB000030CC00B430DB
:10098800CD004230CE000A128A155F230A128A115E
:1009980083120313400883160313DA008312031328
:1009A800410883160313DB008312031342088316DE
:1009B8000313DC005A0883120313B00083160313D1
:1009C8005B0883120313B100831603135C088312B8
:1009D8000313B200831603134E0883120313B300E4
:1009E800831603134F0883120313B40083160313EB
:1009F800500883120313B5000A168A11AE230A128F
:100A08008A11031C172D831603134E088312031330
:100A1800A300831603134F0883120313A40083163D
:100A280003135008262D831603135A088312031341
:100A3800A300831603135B0883120313A400831611
:100A480003135C0883120313A5006308A600640857
:100A5800A7006508A8000A168A11F7260A128A1143
:100A6800831203132308E3002408E4002508E500A3
:100A78000030A3008030A4003F30A5008316031384
:100A8800570883120313A60083160313580883120A
:100A98000313A70083160313590883120313A8002E
:100AA8000A168A11F7260A128A11831203132308D9
:100AB80083160313D7008312031324088316031322
:100AC800D80083120313250883160313D9000130B5
:100AD80083120313DB070318DC0A0030DC075C0809
:100AE800803AFF0080307F02031D7C2D5B305B0263
:100AF800031C9D2C831203136608B0006708B1001D
:100B08006808B2000030B300C830B4004130B50006
:100B18000A168A11AE230A128A1103189B2D831212
:100B280003136008D4006108D5006208D42D83122D
:100B380003136608B0006708B1006808B200003007
:100B4800B300C830B4004130B5000A168A11AE238C
:100B58000A128A11031CCD2D831203136608B000F4
:100B68006708B1006808B2000030B3009630B400DE
:100B78004230B5000A168A11AE230A128A110318E8
:100B8800CD2D831203135D08D4005E08D5005F08DD
:100B9800D42D831203136308D4006408D5006508B4
:100BA800D600003083160313D400B430D500423089
:100BB800D6000030D1000030D2000030D3008312BC
:100BC80003135408A3005508A4005608A50083166B
:100BD8000313510883120313A60083160313520844
:100BE80083120313A70083160313530883120313F6
:100BF800A8000A168A11F7260A128A11831203130B
:100C0800230883160313D1008312031324088316C1
:100C18000313D20083120313250883160313D3008A
:100C2800540883120313B000831603135508831264
:100C38000313B10083160313560883120313B2007B
:100C480083160313510883120313B3008316031387
:100C5800520883120313B400831603135308831234
:100C68000313B5000A168A116E250A128A11831217
:100C78000313300883160313C200831203133108C9
:100C880083160313C3008312031332088316031356
:100C9800C4000030F800C830F9004230FA004208B9
:100CA800FB004308FC004408FD000A168A112626AA
:100CB8000A128A11780883160313C2007908C30040
:100CC8007A08C400420883120313B0008316031382
:100CD800430883120313B1008316031344088312D5
:100CE8000313B2000A168A11E0240A128A11831229
:100CF80003133108EE01EE073008ED01ED0714305B
:100D0800F0000030F100831603136E08F301F307B7
:100D18006D08F201F2070A168A11E7220A128A11EF
:100D2800710883160313EE01EE077008ED01ED0755
:100D3800013083120313D2000030D3000030B0001A
:100D48000030B1000030B200831603136608831226
:100D58000313A30083160313670883120313A40065
:100D680083160313680883120313A5006E08F9019C
:100D7800F9076D08F801F8070A168A119F200A1268
:100D88008A11780883120313A6007908A7007A0845
:100D9800A8000A168A11F7260A128A118312031369
:100DA8002308B3002408B4002508B5000A168A11E0
:100DB800AE230A128A110318080083160313660863
:100DC80083120313A3008316031367088312031304
:100DD800A40083160313680883120313A5006E0882
:100DE800F901F9076D08F801F8070A168A119F201A
:100DF8000A128A11780883120313A6007908A7003B
:100E08007A08A8000A168A11F7260A128A1183128C
:100E180003132308B0002408B1002508B2000030ED
:100E2800B3007F30B4004430B5000A168A11AE23EF
:100E38000A128A1103180800831203136E08F901B5
:100E4800F9076D08F801F8070A168A119F200A1297
:100E58008A11780883120313A6007908A7007A0874
:100E6800A80083160313660883120313A3008316CE
:100E78000313670883120313A40083160313680877
:100E880083120313A5000A168A11F7260A128A117B
:100E9800831203132308B0002408B1002508B20008
:100EA8000A168A11E0240A128A11831203133108E0
:100EB800BF01BF073008BE01BE070A168A11E1202C
:100EC800080083160313AA01A31F772FA009A109FD
:100ED800A209A309A00A0319A10A0319A20A03195E
:100EE800A30AAA01AA0AA71F882FA409A509A60967
:100EF800A709A40A0319A50A0319A60A0319A70A28
:100F08000130A8002808AA060030AE000030AD0065
:100F18000030AC000030AB00230822042104200478
:100F28000319DD2FA901A90AA31BA82F0130A800C6
:100F38000310A00DA10DA20DA30DA80B9C2F01302D
:100F4800A8002808A907982F0130A8000310AB0DA6
:100F5800AC0DAD0DAE0DA80BAA2F23082702031D5B
:100F6800BF2F22082602031DBF2F21082502031DBB
:100F7800BF2F20082402031CD02F2008A402210818
:100F8800031C210FA5022208031C220FA602230816
:100F9800031C230FA7022B1401300310A30CA20C6F
:100FA800A10CA00CFF3E031DD12F0130A902031D87
:100FB800A82F2A080319EB2FAB09AC09AD09AE0914
:100FC800AB0A0319AC0A0319AD0A0319AE0A2E08B5
:100FD800A3002D08A2002C08A1002B08A0000800DF
:100FE8000034A034413400344834423407340034E7
:100FF80032340034C8340034FF1B0A2883137F18A6
:1010080083170008840A0319FF0A080008308A00B9
:101018000408840A82070034013400340A34003496
:1010280064340034E8340334103427340A340D347B
:1010380020342D342D342D342D342D342D342D34AD
:1010480020344534533454344F34553452344F34A7
:101058002034443445342034503449344C344834F2
:10106800413420342D342D342D342D342D342D3469
:101078002D3420340A340D342034003449346E348D
:1010880069346334693461346C3469347A34613472
:101098006E3464346F3420346F342034503449341F
:1010A80043343134363446343834373437344134C1
:1010B8000A340D34003455345334413452345434E2
:1010C8003A3420343134313435342E3432343034F7
:1010D80030346234703473340A340D340034493493
:1010E8006E3469346334693461346C3469347A3405
:1010F80061346E3464346F342E342E342E3400341C
:101108000A340D34703477346D3420343D3420344F
:1011180031343034323433340A340D3400340A3440
:101128000D34703477346D3420343D342034383401
:10113800393436340A340D3400340A340D347034FA
:1011480077346D3420343D342034373436343834F1
:101158000A340D3400340A340D346434653473347D
:101168006C3469346734613464346F340A340D3450
:1011780000340A340D34703477346D3420343D34FF
:1011880020340A340D340034443465346C347434F7
:1011980061343A3420340034523450344D343A34C3
:0E11A8002034003425343034343464340034C0
:1011BA0083160313A00083120C1EE0288316031360
:1011CA0020088312031399000800003083120313C6
:1011DA00CC000030CD000030CE004308B0004408F7
:1011EA00B1004508B2004008B3004108B400420803
:1011FA00B5000A168A11AE230A128A150318FD29A8
:10120A00831203134308B0004408B1004508B20032
:10121A004008B3004108B4004208B5000A168A1112
:10122A00AE230A128A150318632983120313460888
:10123A00B0004708B1004808B2004008B3004108AE
:10124A00B4004208B5000A168A11AE230A128A159A
:10125A00031C6329831203134608A3004708A4004A
:10126A004808A5004308A0004408A1004508A200B8
:10127A000A168A1157200A128A15831203132008A4
:10128A00A6002108A7002208A8000A168A11F72634
:10129A000A128A15831203132308B0002408B10026
:1012AA002508B2004008A3004108A4004208A5008E
:1012BA004308A0004408A1004508C029831203136B
:1012CA004608B0004708B1004808B2004008B30019
:1012DA004108B4004208B5000A168A11AE230A1260
:1012EA008A150318E829831203134908B0004A082B
:1012FA00B1004B08B2004008B3004108B4004208EC
:10130A00B5000A168A11AE230A128A15031CE829A7
:10131A00831203134608A3004708A4004808A5003F
:10132A004908A0004A08A1004B08A2000A168A111F
:10133A0057200A128A15831203132008A6002108CF
:10134A00A7002208A8000A168A11F7260A128A1587
:10135A00831203132308B0002408B1002508B20041
:10136A004008A3004108A4004208A5004908A000BB
:10137A004A08A1004B08A2000A168A1157200A122D
:10138A008A15831203132008A6002108A700220841
:10139A00A8000A168A11F7260A128A15831203135D
:1013AA002308B3002408B4002508B5000A168A11D8
:1013BA006E250A128A15831203133008CC003108ED
:1013CA00CD003208042A831203134908B0004A08E0
:1013DA00B1004B08B2004008B3004108B40042080B
:1013EA00B5000A168A11AE230A128A150318052AAD
:1013FA00003083120313CC000030CD000030CE0041
:10140A00831203134C08C0004D08C1004E08C200E5
:10141A000800013083160313850001308312031379
:10142A008500831603138601831203138601813014
:10143A00831603138700C0308312031387008316B1
:10144A000313880183120313880183160313890186
:10145A00831203138901033090008E018F0100303B
:10146A0083160313B2000130B100C230B00000305D
:10147A00AF000A168A1165230A128A150A168A11FA
:10148A0061200A128A150A168A118D200A128A15F3
:10149A000A168A11DD210A128A150A168A1175247A
:1014AA000A128A150B178B17333083160313A10000
:1014BA008030A2000A168A1180220A128A15503038
:1014CA0083160313A1008030A2000A168A11802213
:1014DA000A128A150A168A1175240A128A1583169F
:1014EA000313A00100300A168A1135210A128A153F
:1014FA00643083160313A2008030A3000A168A11EF
:10150A004F220A128A15003083160313A0000030F6
:10151A00A1000A168A1155210A128A15003083166B
:10152A000313A0000030A1000A168A1176210A12BC
:10153A008A15EE300A168A1147200A128A151830BF
:10154A0083160313C1006130C0006E30BF00BF0BA9
:10155A00AC2AC00BAC2AC10BAC2A0000C7308316D8
:10156A000313BF003F08AE006208B001B00761086C
:10157A00AF01AF07A7300A128A1549260A128A153F
:10158A00C73083160313BF003F08AE00831203134C
:10159A006E0883160313B001B007831203136D0894
:1015AA0083160313AF01AF079D300A128A15492625
:1015BA000A128A15A73083160313A1000130A2006C
:1015CA000A168A1180220A128A15B6308316031364
:1015DA00A1008030A2000A168A1180220A128A15F6
:1015EA000A168A1126220A128A1583160313A001E3
:1015FA0000300A168A1135210A128A15C13083165B
:10160A000313A2008030A3000A168A114F220A127D
:10161A008A15063083160313BF003F08A000003066
:10162A000A168A1135210A128A15A730831603135E
:10163A00A2000130A3000A168A114F220A128A1543
:10164A0083160313A00101300A168A1135210A12E2
:10165A008A15B93083160313A2008030A3000A1634
:10166A008A114F220A128A15063083160313BF0005
:10167A003F08A00001300A168A1135210A128A157C
:10168A009D3083160313A2000130A3000A168A11A3
:10169A004F220A128A15053083160313C100AD3092
:1016AA00C000E030BF00BF0B582BC00B582BC10B3A
:1016BA00582BB32A003083120313CF000030D00016
:1016CA000030D1004308B0004408B1004508B20018
:1016DA004008B3004108B4004208B5000A168A114E
:1016EA00AE230A128A150318A42C83120313430883
:1016FA00B0004408B1004508B2004008B3004108F0
:10170A00B4004208B5000A168A11AE230A128A15D5
:10171A000318D82B831203134608B0004708B100F8
:10172A004808B2004008B3004108B4004208B500B6
:10173A000A168A11AE230A128A15031CD82B8312A1
:10174A0003134608A3004708A4004808A500430855
:10175A00A0004408A1004508A2000A168A115720D1
:10176A000A128A15831203132008A6002108A7006B
:10177A002208A8000A168A11F7260A128A15831265
:10178A0003132308B0002408B1002508B20040085A
:10179A00A3004108A4004208A5004308A000440889
:1017AA00A1004508672C831203134008B0004108C2
:1017BA00B1004208B2004608B3004708B40048081E
:1017CA00B5000A168A11AE230A128A15031C0A2CBE
:1017DA00831203134908B0004A08B1004B08B2004B
:1017EA004008B3004108B4004208B5000A168A113D
:1017FA00AE230A128A15031C0A2C00308312031323
:10180A00CF008030D0003F30AB2C8312031349083D
:10181A00B0004A08B1004B08B2004008B3004108C2
:10182A00B4004208B5000A168A11AE230A128A15B4
:10183A0003188F2C831203134C08B0004D08B10013
:10184A004E08B2004008B3004108B4004208B5008F
:10185A000A168A11AE230A128A15031C8F2C8312C8
:10186A0003134C08A3004D08A4004E08A50049081C
:10187A00A0004A08A1004B08A2000A168A115720A4
:10188A000A128A15831203132008A6002108A7004A
:10189A002208A8000A168A11F7260A128A15831244
:1018AA0003132308B0002408B1002508B2004C082D
:1018BA00A3004D08A4004E08A5004008A000410856
:1018CA00A1004208A2000A168A1157200A128A1594
:1018DA00831203132008A6002108A7002208A800E3
:1018EA000A168A11F7260A128A1583120313230885
:1018FA00B3002408B4002508B5000A168A116E251B
:10190A000A128A15831203133008CF003108D00057
:10191A003208AB2C831203134C08B0004D08B100F7
:10192A004E08B2004008B3004108B4004208B500AE
:10193A000A168A11AE230A128A150318AC2C003033
:10194A0083120313CF000030D0000030D10083127D
:10195A0003134F08C0005008C1005108C200080014
:10196A008C1EDB2D0A168A11FC200A128A15303ABF
:10197A00031DD42CA030F1008030F2000A168A111F
:10198A0097210A128A15003083120313BE00003011
:10199A00BF000A168A11E1200A128A153C2E0A167D
:1019AA008A11FC200A128A15313A031DEB2CAE303B
:1019BA00F1008030F2000A168A1197210A128A155C
:1019CA00D03083160313ED000230EE000A168A1196
:1019DA00FC200A128A15323A031D022DAE30F1009C
:1019EA008030F2000A168A1197210A128A15AA3043
:1019FA0083160313ED000530EE000A168A11FC2047
:101A0A000A128A15333A031D192DAE30F1008030BF
:101A1A00F2000A168A1197210A128A150C308316C7
:101A2A000313ED000B30EE000A168A11FC200A128D
:101A3A008A15343A031D492DAE30F1008030F20088
:101A4A000A168A1197210A128A15B83083160313C7
:101A5A00EB000C30EC006C0883120313BF01BF07C4
:101A6A00831603136B0883120313BE01BE070A16FB
:101A7A008A11E1200A128A15831203138618472D48
:101A8A0086143C2E86103C2E0A168A11FC200A1255
:101A9A008A15353A031D602DAE30F1008030F20010
:101AAA000A168A1197210A128A159E308316031381
:101ABA00ED001130EE000A168A11FC200A128A156E
:101ACA00363A031D772D9230F1008030F2000A1663
:101ADA008A1197210A128A15803083160313ED00A2
:101AEA001630EE000A168A11FC200A128A15373AB5
:101AFA00031D8E2D8430F1008030F2000A168A11FF
:101B0A0097210A128A15EA3083160313ED001A3058
:101B1A00EE000A168A11FC200A128A15383A031DA9
:101B2A00A52DAE30F1008030F2000A168A119721F5
:101B3A000A128A15A43083160313ED001F30EE0033
:101B4A000A168A11FC200A128A15393A031DBC2D7D
:101B5A007530F1008030F2000A168A1197210A12B4
:101B6A008A15283083160313ED002330EE000A127B
:101B7A008A1139200A128A15831603136D089C3EAE
:101B8A00F8006E080318013EFF3EF9000A168A1192
:101B9A009F200A128A15780883160313E60079082B
:101BAA00E7007A08E800831203138C120C1B0C134B
:101BBA000B1D382EEE300A168A1139200A128A15A0
:101BCA000130831603135E02F33003195D02031812
:101BDA00F82D0130DD070318DE0A0030DE07831214
:101BEA0003130617372E83160313DD01DE01831252
:101BFA0003130F0883160313E001E007831203138C
:101C0A000E0883160313DF01DF076A08F101F107E3
:101C1A006908F001F0076008F301F3075F08F201B1
:101C2A00F2070A168A11E7220A128A157108F901BF
:101C3A00F9077008F801F8077830FA000030FB005D
:101C4A000A168A11BA210A128A1579088316031309
:101C5A00E201E2077808E101E107831203138E012A
:101C6A008F0106130B110C180C108C198C1183128E
:101C7A0003136C08FF006B088A006A088400690E67
:101C8A008300FE0E7E0E090083160313BD00AF30DB
:101C9A00B1003108B400013083160313AE07FF30D8
:101CAA002E0784000A128A150A200A128A15B10020
:101CBA003108BE00BE080319F92F3E08253A031958
:101CCA00722E3E08B1003D08840031088317800057
:101CDA000130B1003108BD07502EBB01BC01BA0169
:101CEA007B2E3A150130B1003108AE072E08840068
:101CFA000A128A150A200A128A15303A0319762E10
:101D0A00862E2E0884000A128A150A200A128A15BB
:101D1A000A168A116C200A128A15031CD62E8316FB
:101D2A000313BB01BC010A3083160313A000003061
:101D3A00A1003C08A301A3073B08A201A2070A16B7
:101D4A008A1101220A128A15831603132108BC017B
:101D5A00BC072008BB01BB072E0884000A128A159B
:101D6A000A200A128A15D03EB100FF30031800304B
:101D7A00B2003108BB070318BC0A3208BC0701309D
:101D8A00B1003108AE072E0884000A128A150A200B
:101D9A000A128A150A168A116C200A128A15031861
:101DAA00982E013083160313AE07FF302E078400E6
:101DBA000A128A150A200A128A15BE00003A031965
:101DCA00F92F643A0319ED2E0D3A0319ED2E502E10
:101DDA00831603133408840083130008B600840AA8
:101DEA000008B7000230B1003108B407B71F062F48
:101DFA000330B1003108BA04B609B709B60A0319A3
:101E0A00B70ABE01BE0A3E08053A03192D2F3E083D
:101E1A00B1003107013E84000A128A150A200A120B
:101E2A008A15B2000A128A150A200A128A15B30004
:101E3A0033083702031D232F32083602031C2D2FC5
:101E4A000130B1003108BE073E08053A031D0C2FC8
:101E5A003C083B0403193B2F3A08033903193B2F6B
:101E6A00FF30BB070318BC0AFF30BC073E08B100AD
:101E7A00B201B11BB2033208803AB3003C08803A7F
:101E8A003302031D4A2F3B08310203185A2F8316C7
:101E9A0003133E08B100B201B11BB2033108BB0201
:101EAA003208031CBC03BC025E2F83160313BB015A
:101EBA00BC013A1D852F3A08033903196F2F2D30BB
:101ECA00B1003D0884003108831780000130B10059
:101EDA003108BD073C083B040319AD2F3030B1006F
:101EEA003D0884003108831780000130B1003108B1
:101EFA00BD07FF30BB070318BC0AFF30BC076F2FB2
:101F0A003C083B0403199E2F2030B1003D08840091
:101F1A003108831780000130B1003108BD07FF3056
:101F2A00BB070318BC0AFF30BC073C083B04031D6F
:101F3A00892F3A0803390319AD2F2D30B1003D0816
:101F4A0084003108831780000130B1003108BD07D1
:101F5A003E08B1003108B500FF30B1003108B507BD
:101F6A003508FF3A0319502E0A30A8000030A9009C
:101F7A003508B1003107013E84000A128A150A2089
:101F8A000A128A15A0000A128A150A200A128A154C
:101F9A00A1003708A301A3073608A201A2070A165F
:101FAA008A1125230A128A15831603132108AB0105
:101FBA00AB072008AA01AA070A168A11B1220A1237
:101FCA008A15831603132808303EB2003208BE0071
:101FDA003E08B1003D0884003108831780000130B3
:101FEA00B1003108BD07B12F831603133D088400E1
:061FFA00831780010800BE
:10207200F00070088312031381000800F00083123D
:1020820003130C1E402870089900080083160313DE
:10209200A00020088312031381000800640080015D
:1020A200840A040603190034040650288312031319
:1020B200220821042004031908008030A206080027
:1020C2008316031381120112811101158114011467
:1020D2000B118B16080083160313A100A0013A30DE
:1020E200210203187A2830302102031C7A28A00129
:1020F200A00A200C08007E088A007F0882007C204B
:102102000A168A118000840A04087D060319003425
:10211200FF0A0319FE0A8028831603139F179F15CF
:102122001F159F141F10831203139F171F1383166B
:1021320003130C13831203130C1308007808F00026
:102142007908F100F2018E30FB007B08F300F40104
:102152000A168A110D247008F8007108F900720835
:10216200FA00080083160313A10083120313091057
:1021720083160313210883120313880089143D3048
:1021820083160313A000A00BC42883120313891023
:10219200080083160313A100831203130914831684
:1021A2000313210883120313880089143D30831618
:1021B2000313A000A00BDB2883120313891008006D
:1021C200831203133F08FD003E08FC007D0DFD0C49
:1021D200FC0C7D0DFD0CFC0C7C089B003E08FC00F9
:1021E20003300310FC0DFF3E031DF22803107C0D8B
:1021F2000C389D00080083120313981805291A0849
:10220200F3007308F40014290B30F1008030F2005F
:102212000A168A1197218312031318121A08F3005F
:102222007308F40018168C12740808008312031342
:102232003F08B0004008B1004108B2003C08B300BA
:102242003D08B4003E08B5000A168A11AE230A16EC
:102252008A11031C0800831203133F08BC004008C4
:10226200BD004108BE00080083160313A2008312BA
:102272000313091083160313A208031D4329200820
:10228200803E4729831603132008C03E831203139E
:10229200880089143D3083160313A100A10B4F2936
:1022A2008312031389100800831603132108A30065
:1022B2002008A200230DA30CA20C230DA30CA20C38
:1022C2002208831203139500831603132008A20029
:1022D20003300310A20DFF3E031D6A290310220DD5
:1022E2000C38831203139700080083160313210886
:1022F200A3002008A200230DA30CA20C230DA30C03
:10230200A20C2208831203139B00831603132008D6
:10231200A20003300310A20DFF3E031D8B29031000
:10232200220D0C38831203139D00080072088312D9
:102332000313FF00710884000A128A1500200A168E
:102342008A11003803190800720883120313FF0070
:10235200710884000A128A1500200A168A110A16C8
:102362008A113F200A168A110130F1070318F20A76
:102372009729FC01FD01781CC4297A08FC0703187F
:10238200FD0A7B08FD0701300310FA0DFB0DFF3E2D
:10239200031DC52901300310F90CF80CFF3E031D83
:1023A200CC2979087804031DBC297D08F901F907B5
:1023B2007C08F801F8070800831203139214121024
:1023C20012139212121292111215FF308316031376
:1023D2009200831203139715171597141714831677
:1023E20003130C15831203130C119D151D159D1457
:1023F2001D14831603130D14831203130D1008000A
:1024020083160313A401A501201C0D2A2208A40788
:102412000318A50A2308A50701300310A20DA30D76
:10242200FF3E031D0E2A01300310A10CA00CFF3E3B
:10243200031D152A21082004031D052A2508A101D0
:10244200A1072408A001A007080001300A168A117A
:10245200B3200A168A110C3083160313A300F73037
:10246200A200A20B322AA30B322A0C300A168A11BE
:10247200B3200A168A113D3083160313A200A20B61
:10248200402A06300A168A11B3200A168A113D30F4
:1024920083160313A200A20B4C2A0800831603130F
:1024A200230883120313FF008316031322088400F8
:1024B200831203130A128A1500200A168A110038A1
:1024C2000319080083160313230883120313FF0062
:1024D2008316031322088400831203130A128A1537
:1024E20000200A168A110A168A11CA200A168A11AF
:1024F200013083160313A2070318A30A4F2A831677
:102502000313220883120313FF0083160313210807
:102512008400831203130A128A1500200A168A11F4
:1025220000380319080083160313220883120313C9
:10253200FF008316031321088400831203130A1277
:102542008A1500200A168A110A128A15DD200A1637
:102552008A11013083160313A1070318A20A802AE5
:1025620083160313290828040319E02AAD01AD0AD2
:10257200A91BC72A01300310A80DA90DFF3E031D98
:10258200BC2A0130AC002C08AD07B92A29082B025D
:10259200031DCD2A28082A02031CD52A2808AA02CC
:1025A2002908031CAB03AB0201300310A90CA80CD1
:1025B200FF3E031DD62A0130AD02031DC72A2B0898
:1025C200A901A9072A08A801A8070800F501F60130
:1025D2007108700403191E2BF701F70AF11BFD2A7B
:1025E20001300310F00DF10DFF3E031DF22A013000
:1025F200F4007408F707EF2A01300310F50DF60D09
:10260200FF3E031DFE2A71087302031D0A2B700888
:102612007202031C132B7008F2027108031CF303ED
:10262200F302751401300310F10CF00CFF3E031D90
:10263200142B0130F702031DFD2A7608F101F10780
:102642007508F001F007080083160313A501A6011F
:102652002108200403195E2BA701A70AA11B3D2B09
:1026620001300310A00DA10DFF3E031D322B0130DE
:10267200A4002408A7072F2B01300310A50DA60DD7
:10268200FF3E031D3E2B21082302031D4A2B200877
:102692002202031C532B2008A2022108031CA303BD
:1026A200A302251401300310A10CA00CFF3E031D50
:1026B200542B0130A702031D3D2B2608A101A107BF
:1026C2002508A001A0070800831603132F08B300F2
:1026D2003008B4003108B5003208B60004300310E7
:1026E200B30DB40DB50DB60DFF3E031D702B3608AC
:1026F200A3003508A2003408A1003308A00001306D
:10270200A7001930A6004030A5000030A4000A122C
:102712008A116527831603132008FF3E9900981338
:1027220018139816181218159814181083120313F8
:102732009817181398121816981118119810181043
:10274200831603130C12831203130C128316031342
:102752008C16831203138C12080083120313B21F08
:10276200D72B0030B6000030B7008030B8003009F7
:10277200B9003109BA003209BB00B90A0319BA0A11
:102782000319BB0A3908B6073A0803183A0FCA2BCD
:10279200CB2BB7073B0803183B0FD02BD12BB80725
:1027A2003608B0003708B1003808B200B51FFE2B5A
:1027B2000030B6000030B7008030B8003309B900ED
:1027C2003409BA003509BB00B90A0319BA0A031958
:1027D200BB0A3908B6073A0803183A0FF12BF22B55
:1027E200B7073B0803183B0FF72BF82BB80736083F
:1027F200B3003708B4003808B5008030B206803024
:10280200B50635083202031D080034083102031DE3
:10281200080033083002080073080319152C7208E7
:1028220071047004031D282C0030F0000030F10008
:102832000030F20008000130F5007508F30701309E
:102842000310F20CF10CF00CFF3E031D212CFE30A4
:1028520072050319432C1C2C0130F5007508F3078F
:102862000130F007003003180130F107003003187F
:102872000130F20701300310F20CF10CF00CFF3EB4
:10288200031D3C2CFF3072050319522C2D2C0130F4
:10289200F30201300310F00DF10DF20DFF3E031DA6
:1028A2004B2CF11F482C73185C2CFF30F0057F3045
:1028B200F105FF30F2050310F30C7308F500F60181
:1028C200F70110300310F50DF60DF70DFF3E031D55
:1028D200632C7508F0047608F1047708F204740892
:1028E20003190800F2170800831603139F111F151E
:1028F2009F101F105A30A300C330A200A20B7F2CDE
:10290200A30B7F2C30300A168A11B3200A168A11C3
:10291200183083160313A300EF30A200A20B8F2CF2
:10292200A30B8F2C30300A168A11B3200A168A1193
:10293200993083160313A200A20B9D2C30300A1685
:102942008A11B3200A168A113D3083160313A2009E
:10295200A20BA92C38300A168A11B3200A168A1142
:102962003D3083160313A200A20BB52C01300A16C8
:102972008A11B3200A168A110C3083160313A3009E
:10298200F730A200A20BC32CA30BC32C0C300A16E7
:102992008A11B3200A168A113D3083160313A2004E
:1029A200A20BD12C06300A168A11B3200A168A11FC
:1029B2003D3083160313A200A20BDD2C0800831204
:1029C20003133008B4003108B5003208B600031012
:1029D200350D360DB7003708BD00BD08031DFA2CB2
:1029E2000030B3000030B2000030B1000030B0005F
:1029F20008003008B4003108B5003208B6001730BC
:102A02000310B60CB50CB40CFF3E031D012D3408A7
:102A1200B7003708B800B117FF30B005FF30B10575
:102A22000030B2053008B9003108BA003208BB00E4
:102A3200BC018E30BD02BD1F3C2D3D08803A8F3E49
:102A420003182C2D0030B3000030B2000030B1006A
:102A52000030B000080001300310BC0CBB0CBA0CF3
:102A6200B90CFF3E031D2D2D0130B4003408BD0703
:102A72000319572D2C2D18303D02031C542D003004
:102A8200B3000030B2000030B1000030B0000800E6
:102A92000130B4000310B90DBA0DBB0DBC0DB40B5F
:102AA2004B2D0130BD02BD08031D492D3808031905
:102AB200652DB909BA09BB09BC09B90A0319BA0AD1
:102AC2000319BB0A0319BC0A3C08B3003B08B20055
:102AD2003A08B1003908B000080083120313330822
:102AE200B6003408B7003508B8000310370D380DAA
:102AF200B9003908BE00BE08031D862D0030B000A3
:102B02000030B1000030B20008003008B6003108D1
:102B1200B7003208B8000310370D380DB900390874
:102B2200BF00BF08031D9C2D0030B0000030B10073
:102B32000030B20008000030BB000030BC000030A2
:102B4200BD0089303F07B6003608BE023308B60022
:102B52003408B7003508B80010300310B80CB70CB1
:102B6200B60CFF3E031DAE2D3608B9003908BF0072
:102B72003008B6003108B7003208B8001030031030
:102B8200B80CB70CB60CFF3E031DC02D3608B900B9
:102B92003908BF068030B6003608BF05B417FF30CB
:102BA200B305FF30B4050030B505B117FF30B005ED
:102BB200FF30B1050030B2051830B6003608BA0051
:102BC20001300310BB0DBC0DBD0DFF3E031DE22DF8
:102BD20032083502031DF32D31083402031DF32D93
:102BE20030083302031C002E3008B3023108031CE4
:102BF200310FB4023208031C320AB5023B14013011
:102C02000310B30DB40DB50DFF3E031D012E0130AF
:102C1200BA02031DE12D3B08F0003C08F1003D081B
:102C2200F2003E08B6003608F3003F08B700370846
:102C3200F4000A168A110D24700883120313B000DF
:102C42007108B1007208B2000800780883120313F9
:102C5200A0007908A1007A08A2000310210D220D1C
:102C6200A3002308A400A408031D3E2E0030F80090
:102C72000030F9000030FA0008007B08A0007C0850
:102C8200A1007D08A2000310210D220DA30023083C
:102C9200A900A908031D542E0030F8000030F900E5
:102CA2000030FA00080029087B3EA0002008A40793
:102CB2007808A0007908A1007A08A2001030031059
:102CC200A20CA10CA00CFF3E031D602E2008A30045
:102CD2002308A9007B08A0007C08A1007D08A200AF
:102CE20010300310A20CA10CA00CFF3E031D722E8B
:102CF2002008A3002308A9068030A0002008A90507
:102D0200F917FC17FF30FB05FF30FC050030FD050D
:102D12000030A5000030A6000030A7000730A00058
:102D22002008A800781CA32E7B08A5077C080311A5
:102D320003187C0A031DA6077D08031103187D0AE8
:102D4200031DA70701300310FA0CF90CF80CFF3E23
:102D5200031DA42E01300310FB0DFC0DFD0DFF3EE3
:102D6200031DAC2E0130A802031D932E0930A000D2
:102D72002008A800781CCB2E7B08A5077C0803112D
:102D820003187C0A031DA6077D08031103187D0A98
:102D9200031DA70701300310FA0CF90CF80CFF3ED3
:102DA200031DCC2E01300310A70CA60CA50CFF3E70
:102DB200031DD42E0130A802031DBB2E2508F000EE
:102DC2002608F1002708F2002408A0002008F300DA
:102DD2002908A1002108F4000A168A110D2470089E
:102DE200F8007108F9007208FA0008008312031350
:102DF2002308A9002408AA002508AB0003102A0D05
:102E02002B0DAC002C08AF002608A9002708AA0049
:102E12002808AB0003102A0D2B0DAC002C08AE00C5
:102E22002F080319202F2E082F020318272F2F03F4
:102E3200FF3A2E07A90019302902031C272F260862
:102E4200A3002708A4002808A50008002E080319DB
:102E520008002F082E020318362F2E03FF3A2F07E1
:102E6200A90019302902031808000630A900290810
:102E7200AD00A51BAD17A81B2D17A417FF30A30586
:102E8200FF30A4050030A505A717FF30A605FF30C7
:102E9200A7050030A8052E082F020318762F01304F
:102EA2000310A60DA70DA80DFF3E031D512F0130E3
:102EB200AE022E082F060319712F0130AD022D0824
:102EC20007390319712F502F01300310A50CA40CE0
:102ED200A30CFF3E031D662F0130A9002908AF078E
:102EE2002F082E0603199F2F652F2F082E02031875
:102EF2009F2F01300310A30DA40DA50DFF3E031D4E
:102F02007B2F0130AF022E082F0603199B2F0130B1
:102F1200AD022D08073903199B2F7A2F01300310B8
:102F2200A80CA70CA60CFF3E031D902F0130A90090
:102F32002908AE072F082E06031D8F2FAD1FB12FB4
:102F4200FF30A306FF30A406FF30A5060130A30719
:102F5200003003180130A407003003180130A50720
:102F62002D1FC32FFF30A606FF30A706FF30A8068D
:102F72000130A607003003180130A70700300318FC
:102F82000130A807AD012308A6072408031103187E
:102F9200240A031DA707250803110318250A031D88
:102FA200A807A81FE62FFF30A606FF30A706FF30AE
:102FB200A8060130A607003003180130A707003029
:102FC20003180130A807AD01AD0A2608F000270852
:102FD200F1002808F2002F08A9002908F3002D08A3
:102FE200AA002A08F4000A168A110D247008831216
:0E2FF2000313A3007108A4007208A5000800D4
:02400E0032FF7F
:00000001FF
